{
  "address": "0xa5A52023d313339969Ca819cd066aBc72685D2B3",
  "abi": [
    {
      "inputs": [],
      "name": "BP_BOND_ISSUANCE_ID_TOO_HIGH",
      "type": "error"
    },
    {
      "inputs": [],
      "name": "BP_BORROW_COOLDOWN_PERIOD_NOT_OVER",
      "type": "error"
    },
    {
      "inputs": [],
      "name": "BP_BORROW_MAX_BORROWABLE_AMOUNT_EXCEEDED",
      "type": "error"
    },
    {
      "inputs": [],
      "name": "BP_BORROW_OUT_OF_BOUND_AMOUNT",
      "type": "error"
    },
    {
      "inputs": [],
      "name": "BP_BORROW_UNSUFFICIENT_BORROWABLE_AMOUNT_WITHIN_BRACKETS",
      "type": "error"
    },
    {
      "inputs": [],
      "name": "BP_EARLY_REPAY_NOT_ACTIVATED",
      "type": "error"
    },
    {
      "inputs": [],
      "name": "BP_LOAN_ONGOING",
      "type": "error"
    },
    {
      "inputs": [],
      "name": "BP_MULTIPLE_BORROW_AFTER_MATURITY",
      "type": "error"
    },
    {
      "inputs": [],
      "name": "BP_NO_DEPOSIT_TO_WITHDRAW",
      "type": "error"
    },
    {
      "inputs": [],
      "name": "BP_OUT_OF_BOUND_MAX_RATE",
      "type": "error"
    },
    {
      "inputs": [],
      "name": "BP_OUT_OF_BOUND_MIN_RATE",
      "type": "error"
    },
    {
      "inputs": [],
      "name": "BP_POOL_CLOSED",
      "type": "error"
    },
    {
      "inputs": [],
      "name": "BP_POOL_DEFAULTED",
      "type": "error"
    },
    {
      "inputs": [],
      "name": "BP_POOL_NOT_ACTIVE",
      "type": "error"
    },
    {
      "inputs": [],
      "name": "BP_RATE_SPACING",
      "type": "error"
    },
    {
      "inputs": [],
      "name": "BP_REPAY_NO_ACTIVE_LOAN",
      "type": "error"
    },
    {
      "inputs": [],
      "name": "BP_TARGET_BOND_ISSUANCE_INDEX_EMPTY",
      "type": "error"
    },
    {
      "inputs": [],
      "name": "BP_UNMATCHED_TOKEN",
      "type": "error"
    },
    {
      "inputs": [],
      "name": "MATH_ADDITION_OVERFLOW",
      "type": "error"
    },
    {
      "inputs": [],
      "name": "MATH_DIVISION_BY_ZERO",
      "type": "error"
    },
    {
      "inputs": [],
      "name": "MATH_MULTIPLICATION_OVERFLOW",
      "type": "error"
    },
    {
      "inputs": [],
      "name": "PC_BORROWER_ALREADY_AUTHORIZED",
      "type": "error"
    },
    {
      "inputs": [],
      "name": "PC_DISALLOW_UNMATCHED_BORROWER",
      "type": "error"
    },
    {
      "inputs": [],
      "name": "PC_ESTABLISHMENT_FEES_TOO_HIGH",
      "type": "error"
    },
    {
      "inputs": [],
      "name": "PC_NOT_ENOUGH_PROTOCOL_FEES",
      "type": "error"
    },
    {
      "inputs": [],
      "name": "PC_NO_ONGOING_LOAN",
      "type": "error"
    },
    {
      "inputs": [],
      "name": "PC_POOL_ALREADY_CLOSED",
      "type": "error"
    },
    {
      "inputs": [],
      "name": "PC_POOL_ALREADY_SET_FOR_BORROWER",
      "type": "error"
    },
    {
      "inputs": [],
      "name": "PC_POOL_DEFAULTED",
      "type": "error"
    },
    {
      "inputs": [],
      "name": "PC_POOL_NOT_ACTIVE",
      "type": "error"
    },
    {
      "inputs": [],
      "name": "PC_POOL_TOKEN_NOT_SUPPORTED",
      "type": "error"
    },
    {
      "inputs": [],
      "name": "PC_RATE_SPACING_COMPLIANCE",
      "type": "error"
    },
    {
      "inputs": [],
      "name": "PC_REPAYMENT_PERIOD_ONGOING",
      "type": "error"
    },
    {
      "inputs": [],
      "name": "PC_ZERO_ADDRESS",
      "type": "error"
    },
    {
      "inputs": [],
      "name": "PC_ZERO_POOL",
      "type": "error"
    },
    {
      "anonymous": false,
      "inputs": [
        {
          "indexed": true,
          "internalType": "bytes32",
          "name": "poolHash",
          "type": "bytes32"
        },
        {
          "indexed": false,
          "internalType": "uint128",
          "name": "normalizedBorrowedAmount",
          "type": "uint128"
        },
        {
          "indexed": false,
          "internalType": "uint128",
          "name": "establishmentFees",
          "type": "uint128"
        }
      ],
      "name": "Borrow",
      "type": "event"
    },
    {
      "anonymous": false,
      "inputs": [
        {
          "indexed": false,
          "internalType": "address",
          "name": "borrowerAddress",
          "type": "address"
        },
        {
          "indexed": false,
          "internalType": "bytes32",
          "name": "poolHash",
          "type": "bytes32"
        }
      ],
      "name": "BorrowerAllowed",
      "type": "event"
    },
    {
      "anonymous": false,
      "inputs": [
        {
          "indexed": false,
          "internalType": "address",
          "name": "borrowerAddress",
          "type": "address"
        },
        {
          "indexed": false,
          "internalType": "bytes32",
          "name": "poolHash",
          "type": "bytes32"
        }
      ],
      "name": "BorrowerDisallowed",
      "type": "event"
    },
    {
      "anonymous": false,
      "inputs": [
        {
          "indexed": false,
          "internalType": "bytes32",
          "name": "poolHash",
          "type": "bytes32"
        },
        {
          "indexed": false,
          "internalType": "uint128",
          "name": "normalizedAmount",
          "type": "uint128"
        },
        {
          "indexed": false,
          "internalType": "address",
          "name": "to",
          "type": "address"
        }
      ],
      "name": "ClaimProtocolFees",
      "type": "event"
    },
    {
      "anonymous": false,
      "inputs": [
        {
          "indexed": false,
          "internalType": "bytes32",
          "name": "poolHash",
          "type": "bytes32"
        },
        {
          "indexed": false,
          "internalType": "uint128",
          "name": "rate",
          "type": "uint128"
        },
        {
          "indexed": false,
          "internalType": "uint128",
          "name": "remainingLiquidityRewards",
          "type": "uint128"
        },
        {
          "indexed": false,
          "internalType": "uint128",
          "name": "addedAccruedFees",
          "type": "uint128"
        }
      ],
      "name": "CollectFeesForTick",
      "type": "event"
    },
    {
      "anonymous": false,
      "inputs": [
        {
          "indexed": false,
          "internalType": "bytes32",
          "name": "poolHash",
          "type": "bytes32"
        },
        {
          "indexed": false,
          "internalType": "uint128",
          "name": "distributedLiquidityRewards",
          "type": "uint128"
        }
      ],
      "name": "Default",
      "type": "event"
    },
    {
      "anonymous": false,
      "inputs": [
        {
          "indexed": true,
          "internalType": "bytes32",
          "name": "poolHash",
          "type": "bytes32"
        },
        {
          "indexed": false,
          "internalType": "uint128",
          "name": "normalizedRepayAmount",
          "type": "uint128"
        },
        {
          "indexed": false,
          "internalType": "uint128",
          "name": "repaymentFee",
          "type": "uint128"
        },
        {
          "indexed": false,
          "internalType": "uint128",
          "name": "normalizedDepositsAfterRepay",
          "type": "uint128"
        },
        {
          "indexed": false,
          "internalType": "uint128",
          "name": "nextLoanMinStart",
          "type": "uint128"
        }
      ],
      "name": "EarlyRepay",
      "type": "event"
    },
    {
      "anonymous": false,
      "inputs": [
        {
          "indexed": true,
          "internalType": "bytes32",
          "name": "poolHash",
          "type": "bytes32"
        },
        {
          "indexed": false,
          "internalType": "uint128",
          "name": "normalizedBorrowedAmount",
          "type": "uint128"
        },
        {
          "indexed": false,
          "internalType": "uint128",
          "name": "establishmentFees",
          "type": "uint128"
        }
      ],
      "name": "FurtherBorrow",
      "type": "event"
    },
    {
      "anonymous": false,
      "inputs": [
        {
          "indexed": true,
          "internalType": "bytes32",
          "name": "poolHash",
          "type": "bytes32"
        },
        {
          "indexed": false,
          "internalType": "uint128",
          "name": "normalizedRepayAmount",
          "type": "uint128"
        },
        {
          "indexed": false,
          "internalType": "uint128",
          "name": "lateRepayFee",
          "type": "uint128"
        },
        {
          "indexed": false,
          "internalType": "uint128",
          "name": "repaymentFee",
          "type": "uint128"
        },
        {
          "indexed": false,
          "internalType": "uint128",
          "name": "normalizedDepositsAfterRepay",
          "type": "uint128"
        },
        {
          "indexed": false,
          "internalType": "uint128",
          "name": "nextLoanMinStart",
          "type": "uint128"
        }
      ],
      "name": "LateRepay",
      "type": "event"
    },
    {
      "anonymous": false,
      "inputs": [
        {
          "indexed": false,
          "internalType": "address",
          "name": "account",
          "type": "address"
        }
      ],
      "name": "Paused",
      "type": "event"
    },
    {
      "anonymous": false,
      "inputs": [
        {
          "indexed": false,
          "internalType": "bytes32",
          "name": "poolHash",
          "type": "bytes32"
        }
      ],
      "name": "PoolActivated",
      "type": "event"
    },
    {
      "anonymous": false,
      "inputs": [
        {
          "indexed": false,
          "internalType": "bytes32",
          "name": "poolHash",
          "type": "bytes32"
        },
        {
          "indexed": false,
          "internalType": "uint128",
          "name": "collectedLiquidityRewards",
          "type": "uint128"
        }
      ],
      "name": "PoolClosed",
      "type": "event"
    },
    {
      "anonymous": false,
      "inputs": [
        {
          "components": [
            {
              "internalType": "bytes32",
              "name": "poolHash",
              "type": "bytes32"
            },
            {
              "internalType": "address",
              "name": "underlyingToken",
              "type": "address"
            },
            {
              "internalType": "contract ILendingPool",
              "name": "yieldProvider",
              "type": "address"
            },
            {
              "internalType": "uint128",
              "name": "minRate",
              "type": "uint128"
            },
            {
              "internalType": "uint128",
              "name": "maxRate",
              "type": "uint128"
            },
            {
              "internalType": "uint128",
              "name": "rateSpacing",
              "type": "uint128"
            },
            {
              "internalType": "uint128",
              "name": "maxBorrowableAmount",
              "type": "uint128"
            },
            {
              "internalType": "uint128",
              "name": "loanDuration",
              "type": "uint128"
            },
            {
              "internalType": "uint128",
              "name": "distributionRate",
              "type": "uint128"
            },
            {
              "internalType": "uint128",
              "name": "cooldownPeriod",
              "type": "uint128"
            },
            {
              "internalType": "uint128",
              "name": "repaymentPeriod",
              "type": "uint128"
            },
            {
              "internalType": "uint128",
              "name": "lateRepayFeePerBondRate",
              "type": "uint128"
            },
            {
              "internalType": "uint128",
              "name": "establishmentFeeRate",
              "type": "uint128"
            },
            {
              "internalType": "uint128",
              "name": "repaymentFeeRate",
              "type": "uint128"
            },
            {
              "internalType": "uint128",
              "name": "liquidityRewardsActivationThreshold",
              "type": "uint128"
            },
            {
              "internalType": "bool",
              "name": "earlyRepay",
              "type": "bool"
            }
          ],
          "indexed": false,
          "internalType": "struct IPoolsController.PoolCreationParams",
          "name": "params",
          "type": "tuple"
        }
      ],
      "name": "PoolCreated",
      "type": "event"
    },
    {
      "anonymous": false,
      "inputs": [
        {
          "indexed": true,
          "internalType": "bytes32",
          "name": "poolHash",
          "type": "bytes32"
        },
        {
          "indexed": false,
          "internalType": "uint128",
          "name": "normalizedRepayAmount",
          "type": "uint128"
        },
        {
          "indexed": false,
          "internalType": "uint128",
          "name": "repaymentFee",
          "type": "uint128"
        },
        {
          "indexed": false,
          "internalType": "uint128",
          "name": "normalizedDepositsAfterRepay",
          "type": "uint128"
        },
        {
          "indexed": false,
          "internalType": "uint128",
          "name": "nextLoanMinStart",
          "type": "uint128"
        }
      ],
      "name": "Repay",
      "type": "event"
    },
    {
      "anonymous": false,
      "inputs": [
        {
          "indexed": true,
          "internalType": "bytes32",
          "name": "role",
          "type": "bytes32"
        },
        {
          "indexed": true,
          "internalType": "bytes32",
          "name": "previousAdminRole",
          "type": "bytes32"
        },
        {
          "indexed": true,
          "internalType": "bytes32",
          "name": "newAdminRole",
          "type": "bytes32"
        }
      ],
      "name": "RoleAdminChanged",
      "type": "event"
    },
    {
      "anonymous": false,
      "inputs": [
        {
          "indexed": true,
          "internalType": "bytes32",
          "name": "role",
          "type": "bytes32"
        },
        {
          "indexed": true,
          "internalType": "address",
          "name": "account",
          "type": "address"
        },
        {
          "indexed": true,
          "internalType": "address",
          "name": "sender",
          "type": "address"
        }
      ],
      "name": "RoleGranted",
      "type": "event"
    },
    {
      "anonymous": false,
      "inputs": [
        {
          "indexed": true,
          "internalType": "bytes32",
          "name": "role",
          "type": "bytes32"
        },
        {
          "indexed": true,
          "internalType": "address",
          "name": "account",
          "type": "address"
        },
        {
          "indexed": true,
          "internalType": "address",
          "name": "sender",
          "type": "address"
        }
      ],
      "name": "RoleRevoked",
      "type": "event"
    },
    {
      "anonymous": false,
      "inputs": [
        {
          "indexed": false,
          "internalType": "uint128",
          "name": "establishmentRate",
          "type": "uint128"
        },
        {
          "indexed": false,
          "internalType": "bytes32",
          "name": "poolHash",
          "type": "bytes32"
        }
      ],
      "name": "SetEstablishmentFeeRate",
      "type": "event"
    },
    {
      "anonymous": false,
      "inputs": [
        {
          "indexed": false,
          "internalType": "uint128",
          "name": "distributionRate",
          "type": "uint128"
        },
        {
          "indexed": false,
          "internalType": "bytes32",
          "name": "poolHash",
          "type": "bytes32"
        }
      ],
      "name": "SetLiquidityRewardsDistributionRate",
      "type": "event"
    },
    {
      "anonymous": false,
      "inputs": [
        {
          "indexed": false,
          "internalType": "uint128",
          "name": "maxTokenDeposit",
          "type": "uint128"
        },
        {
          "indexed": false,
          "internalType": "bytes32",
          "name": "poolHash",
          "type": "bytes32"
        }
      ],
      "name": "SetMaxBorrowableAmount",
      "type": "event"
    },
    {
      "anonymous": false,
      "inputs": [
        {
          "indexed": false,
          "internalType": "uint128",
          "name": "repaymentFeeRate",
          "type": "uint128"
        },
        {
          "indexed": false,
          "internalType": "bytes32",
          "name": "poolHash",
          "type": "bytes32"
        }
      ],
      "name": "SetRepaymentFeeRate",
      "type": "event"
    },
    {
      "anonymous": false,
      "inputs": [
        {
          "indexed": false,
          "internalType": "bytes32",
          "name": "poolHash",
          "type": "bytes32"
        },
        {
          "indexed": false,
          "internalType": "uint128",
          "name": "rate",
          "type": "uint128"
        },
        {
          "indexed": false,
          "internalType": "uint128",
          "name": "adjustedRemainingAmountReduction",
          "type": "uint128"
        },
        {
          "indexed": false,
          "internalType": "uint128",
          "name": "loanedAmount",
          "type": "uint128"
        },
        {
          "indexed": false,
          "internalType": "uint128",
          "name": "atlendisLiquidityRatio",
          "type": "uint128"
        },
        {
          "indexed": false,
          "internalType": "uint128",
          "name": "unborrowedRatio",
          "type": "uint128"
        }
      ],
      "name": "TickBorrow",
      "type": "event"
    },
    {
      "anonymous": false,
      "inputs": [
        {
          "indexed": false,
          "internalType": "bytes32",
          "name": "poolHash",
          "type": "bytes32"
        },
        {
          "indexed": false,
          "internalType": "uint128",
          "name": "rate",
          "type": "uint128"
        },
        {
          "indexed": false,
          "internalType": "uint128",
          "name": "atlendisLiquidityRatio",
          "type": "uint128"
        }
      ],
      "name": "TickInitialized",
      "type": "event"
    },
    {
      "anonymous": false,
      "inputs": [
        {
          "indexed": false,
          "internalType": "bytes32",
          "name": "poolHash",
          "type": "bytes32"
        },
        {
          "indexed": false,
          "internalType": "uint128",
          "name": "rate",
          "type": "uint128"
        },
        {
          "indexed": false,
          "internalType": "uint128",
          "name": "adjustedPendingDeposit",
          "type": "uint128"
        }
      ],
      "name": "TickLoanDeposit",
      "type": "event"
    },
    {
      "anonymous": false,
      "inputs": [
        {
          "indexed": false,
          "internalType": "bytes32",
          "name": "poolHash",
          "type": "bytes32"
        },
        {
          "indexed": false,
          "internalType": "uint128",
          "name": "rate",
          "type": "uint128"
        },
        {
          "indexed": false,
          "internalType": "uint128",
          "name": "adjustedAvailableDeposit",
          "type": "uint128"
        },
        {
          "indexed": false,
          "internalType": "uint128",
          "name": "atlendisLiquidityRatio",
          "type": "uint128"
        }
      ],
      "name": "TickNoLoanDeposit",
      "type": "event"
    },
    {
      "anonymous": false,
      "inputs": [
        {
          "indexed": false,
          "internalType": "bytes32",
          "name": "poolHash",
          "type": "bytes32"
        },
        {
          "indexed": false,
          "internalType": "uint128",
          "name": "rate",
          "type": "uint128"
        },
        {
          "indexed": false,
          "internalType": "uint128",
          "name": "adjustedPendingAmount",
          "type": "uint128"
        },
        {
          "indexed": false,
          "internalType": "bool",
          "name": "poolBondIssuanceIndexIncremented",
          "type": "bool"
        }
      ],
      "name": "TickPendingDeposit",
      "type": "event"
    },
    {
      "anonymous": false,
      "inputs": [
        {
          "indexed": false,
          "internalType": "bytes32",
          "name": "poolHash",
          "type": "bytes32"
        },
        {
          "indexed": false,
          "internalType": "uint128",
          "name": "rate",
          "type": "uint128"
        },
        {
          "indexed": false,
          "internalType": "uint128",
          "name": "adjustedRemainingAmount",
          "type": "uint128"
        },
        {
          "indexed": false,
          "internalType": "uint128",
          "name": "atlendisLiquidityRatio",
          "type": "uint128"
        }
      ],
      "name": "TickRepay",
      "type": "event"
    },
    {
      "anonymous": false,
      "inputs": [
        {
          "indexed": false,
          "internalType": "bytes32",
          "name": "poolHash",
          "type": "bytes32"
        },
        {
          "indexed": false,
          "internalType": "uint128",
          "name": "rate",
          "type": "uint128"
        },
        {
          "indexed": false,
          "internalType": "uint128",
          "name": "adjustedAmountToWithdraw",
          "type": "uint128"
        }
      ],
      "name": "TickWithdrawPending",
      "type": "event"
    },
    {
      "anonymous": false,
      "inputs": [
        {
          "indexed": false,
          "internalType": "bytes32",
          "name": "poolHash",
          "type": "bytes32"
        },
        {
          "indexed": false,
          "internalType": "uint128",
          "name": "rate",
          "type": "uint128"
        },
        {
          "indexed": false,
          "internalType": "uint128",
          "name": "adjustedAmountToWithdraw",
          "type": "uint128"
        },
        {
          "indexed": false,
          "internalType": "uint128",
          "name": "atlendisLiquidityRatio",
          "type": "uint128"
        },
        {
          "indexed": false,
          "internalType": "uint128",
          "name": "accruedFeesToWithdraw",
          "type": "uint128"
        }
      ],
      "name": "TickWithdrawRemaining",
      "type": "event"
    },
    {
      "anonymous": false,
      "inputs": [
        {
          "indexed": false,
          "internalType": "bytes32",
          "name": "poolHash",
          "type": "bytes32"
        },
        {
          "indexed": false,
          "internalType": "uint128",
          "name": "normalizedAmount",
          "type": "uint128"
        }
      ],
      "name": "TopUpLiquidityRewards",
      "type": "event"
    },
    {
      "anonymous": false,
      "inputs": [
        {
          "indexed": false,
          "internalType": "address",
          "name": "account",
          "type": "address"
        }
      ],
      "name": "Unpaused",
      "type": "event"
    },
    {
      "inputs": [],
      "name": "DEFAULT_ADMIN_ROLE",
      "outputs": [
        {
          "internalType": "bytes32",
          "name": "",
          "type": "bytes32"
        }
      ],
      "stateMutability": "view",
      "type": "function"
    },
    {
      "inputs": [
        {
          "internalType": "address",
          "name": "borrowerAddress",
          "type": "address"
        },
        {
          "internalType": "bytes32",
          "name": "poolHash",
          "type": "bytes32"
        }
      ],
      "name": "allow",
      "outputs": [],
      "stateMutability": "nonpayable",
      "type": "function"
    },
    {
      "inputs": [
        {
          "internalType": "address",
          "name": "to",
          "type": "address"
        },
        {
          "internalType": "uint128",
          "name": "loanAmount",
          "type": "uint128"
        }
      ],
      "name": "borrow",
      "outputs": [],
      "stateMutability": "nonpayable",
      "type": "function"
    },
    {
      "inputs": [
        {
          "internalType": "address",
          "name": "",
          "type": "address"
        }
      ],
      "name": "borrowerAuthorizedPools",
      "outputs": [
        {
          "internalType": "bytes32",
          "name": "",
          "type": "bytes32"
        }
      ],
      "stateMutability": "view",
      "type": "function"
    },
    {
      "inputs": [
        {
          "internalType": "bytes32",
          "name": "poolHash",
          "type": "bytes32"
        },
        {
          "internalType": "uint128",
          "name": "amount",
          "type": "uint128"
        },
        {
          "internalType": "address",
          "name": "to",
          "type": "address"
        }
      ],
      "name": "claimProtocolFees",
      "outputs": [],
      "stateMutability": "nonpayable",
      "type": "function"
    },
    {
      "inputs": [
        {
          "internalType": "bytes32",
          "name": "poolHash",
          "type": "bytes32"
        },
        {
          "internalType": "address",
          "name": "to",
          "type": "address"
        }
      ],
      "name": "closePool",
      "outputs": [],
      "stateMutability": "nonpayable",
      "type": "function"
    },
    {
      "inputs": [
        {
          "internalType": "bytes32",
          "name": "poolHash",
          "type": "bytes32"
        }
      ],
      "name": "collectFees",
      "outputs": [],
      "stateMutability": "nonpayable",
      "type": "function"
    },
    {
      "inputs": [
        {
          "internalType": "bytes32",
          "name": "poolHash",
          "type": "bytes32"
        },
        {
          "internalType": "uint128",
          "name": "rate",
          "type": "uint128"
        }
      ],
      "name": "collectFeesForTick",
      "outputs": [],
      "stateMutability": "nonpayable",
      "type": "function"
    },
    {
      "inputs": [
        {
          "components": [
            {
              "internalType": "bytes32",
              "name": "poolHash",
              "type": "bytes32"
            },
            {
              "internalType": "address",
              "name": "underlyingToken",
              "type": "address"
            },
            {
              "internalType": "contract ILendingPool",
              "name": "yieldProvider",
              "type": "address"
            },
            {
              "internalType": "uint128",
              "name": "minRate",
              "type": "uint128"
            },
            {
              "internalType": "uint128",
              "name": "maxRate",
              "type": "uint128"
            },
            {
              "internalType": "uint128",
              "name": "rateSpacing",
              "type": "uint128"
            },
            {
              "internalType": "uint128",
              "name": "maxBorrowableAmount",
              "type": "uint128"
            },
            {
              "internalType": "uint128",
              "name": "loanDuration",
              "type": "uint128"
            },
            {
              "internalType": "uint128",
              "name": "distributionRate",
              "type": "uint128"
            },
            {
              "internalType": "uint128",
              "name": "cooldownPeriod",
              "type": "uint128"
            },
            {
              "internalType": "uint128",
              "name": "repaymentPeriod",
              "type": "uint128"
            },
            {
              "internalType": "uint128",
              "name": "lateRepayFeePerBondRate",
              "type": "uint128"
            },
            {
              "internalType": "uint128",
              "name": "establishmentFeeRate",
              "type": "uint128"
            },
            {
              "internalType": "uint128",
              "name": "repaymentFeeRate",
              "type": "uint128"
            },
            {
              "internalType": "uint128",
              "name": "liquidityRewardsActivationThreshold",
              "type": "uint128"
            },
            {
              "internalType": "bool",
              "name": "earlyRepay",
              "type": "bool"
            }
          ],
          "internalType": "struct IPoolsController.PoolCreationParams",
          "name": "params",
          "type": "tuple"
        }
      ],
      "name": "createNewPool",
      "outputs": [],
      "stateMutability": "nonpayable",
      "type": "function"
    },
    {
      "inputs": [
        {
          "internalType": "uint128",
          "name": "rate",
          "type": "uint128"
        },
        {
          "internalType": "bytes32",
          "name": "poolHash",
          "type": "bytes32"
        },
        {
          "internalType": "address",
          "name": "underlyingToken",
          "type": "address"
        },
        {
          "internalType": "address",
          "name": "sender",
          "type": "address"
        },
        {
          "internalType": "uint128",
          "name": "normalizedAmount",
          "type": "uint128"
        }
      ],
      "name": "deposit",
      "outputs": [
        {
          "internalType": "uint128",
          "name": "adjustedAmount",
          "type": "uint128"
        },
        {
          "internalType": "uint128",
          "name": "bondsIssuanceIndex",
          "type": "uint128"
        }
      ],
      "stateMutability": "nonpayable",
      "type": "function"
    },
    {
      "inputs": [
        {
          "internalType": "address",
          "name": "borrowerAddress",
          "type": "address"
        },
        {
          "internalType": "bytes32",
          "name": "poolHash",
          "type": "bytes32"
        }
      ],
      "name": "disallow",
      "outputs": [],
      "stateMutability": "nonpayable",
      "type": "function"
    },
    {
      "inputs": [
        {
          "internalType": "uint128",
          "name": "normalizedBorrowedAmount",
          "type": "uint128"
        },
        {
          "internalType": "bytes32",
          "name": "poolHash",
          "type": "bytes32"
        }
      ],
      "name": "estimateLoanRate",
      "outputs": [
        {
          "internalType": "uint128",
          "name": "estimatedRate",
          "type": "uint128"
        }
      ],
      "stateMutability": "view",
      "type": "function"
    },
    {
      "inputs": [],
      "name": "freezePool",
      "outputs": [],
      "stateMutability": "nonpayable",
      "type": "function"
    },
    {
      "inputs": [
        {
          "internalType": "bytes32",
          "name": "poolHash",
          "type": "bytes32"
        },
        {
          "internalType": "uint128",
          "name": "rate",
          "type": "uint128"
        },
        {
          "internalType": "uint128",
          "name": "adjustedAmount",
          "type": "uint128"
        },
        {
          "internalType": "uint128",
          "name": "bondsIssuanceIndex",
          "type": "uint128"
        }
      ],
      "name": "getAmountRepartition",
      "outputs": [
        {
          "internalType": "uint128",
          "name": "bondsQuantity",
          "type": "uint128"
        },
        {
          "internalType": "uint128",
          "name": "normalizedDepositedAmount",
          "type": "uint128"
        }
      ],
      "stateMutability": "view",
      "type": "function"
    },
    {
      "inputs": [
        {
          "internalType": "bytes32",
          "name": "poolHash",
          "type": "bytes32"
        }
      ],
      "name": "getDefaultTimestamp",
      "outputs": [
        {
          "internalType": "uint128",
          "name": "defaultTimestamp",
          "type": "uint128"
        }
      ],
      "stateMutability": "view",
      "type": "function"
    },
    {
      "inputs": [
        {
          "internalType": "bytes32",
          "name": "poolHash",
          "type": "bytes32"
        }
      ],
      "name": "getPoolAggregates",
      "outputs": [
        {
          "internalType": "uint128",
          "name": "weightedAverageLendingRate",
          "type": "uint128"
        },
        {
          "internalType": "uint128",
          "name": "adjustedPendingDeposits",
          "type": "uint128"
        }
      ],
      "stateMutability": "view",
      "type": "function"
    },
    {
      "inputs": [
        {
          "internalType": "bytes32",
          "name": "poolHash",
          "type": "bytes32"
        }
      ],
      "name": "getPoolFeeRates",
      "outputs": [
        {
          "internalType": "uint128",
          "name": "establishmentFeeRate",
          "type": "uint128"
        },
        {
          "internalType": "uint128",
          "name": "repaymentFeeRate",
          "type": "uint128"
        }
      ],
      "stateMutability": "view",
      "type": "function"
    },
    {
      "inputs": [
        {
          "internalType": "bytes32",
          "name": "poolHash",
          "type": "bytes32"
        }
      ],
      "name": "getPoolMaturity",
      "outputs": [
        {
          "internalType": "uint128",
          "name": "poolCurrentMaturity",
          "type": "uint128"
        }
      ],
      "stateMutability": "view",
      "type": "function"
    },
    {
      "inputs": [
        {
          "internalType": "bytes32",
          "name": "poolHash",
          "type": "bytes32"
        }
      ],
      "name": "getPoolParameters",
      "outputs": [
        {
          "internalType": "address",
          "name": "underlyingToken",
          "type": "address"
        },
        {
          "internalType": "uint128",
          "name": "minRate",
          "type": "uint128"
        },
        {
          "internalType": "uint128",
          "name": "maxRate",
          "type": "uint128"
        },
        {
          "internalType": "uint128",
          "name": "rateSpacing",
          "type": "uint128"
        },
        {
          "internalType": "uint128",
          "name": "maxBorrowableAmount",
          "type": "uint128"
        },
        {
          "internalType": "uint128",
          "name": "loanDuration",
          "type": "uint128"
        },
        {
          "internalType": "uint128",
          "name": "liquidityRewardsDistributionRate",
          "type": "uint128"
        },
        {
          "internalType": "uint128",
          "name": "cooldownPeriod",
          "type": "uint128"
        },
        {
          "internalType": "uint128",
          "name": "repaymentPeriod",
          "type": "uint128"
        },
        {
          "internalType": "uint128",
          "name": "lateRepayFeePerBondRate",
          "type": "uint128"
        },
        {
          "internalType": "uint128",
          "name": "liquidityRewardsActivationThreshold",
          "type": "uint128"
        }
      ],
      "stateMutability": "view",
      "type": "function"
    },
    {
      "inputs": [
        {
          "internalType": "bytes32",
          "name": "poolHash",
          "type": "bytes32"
        }
      ],
      "name": "getPoolState",
      "outputs": [
        {
          "internalType": "bool",
          "name": "active",
          "type": "bool"
        },
        {
          "internalType": "bool",
          "name": "defaulted",
          "type": "bool"
        },
        {
          "internalType": "bool",
          "name": "closed",
          "type": "bool"
        },
        {
          "internalType": "uint128",
          "name": "currentMaturity",
          "type": "uint128"
        },
        {
          "internalType": "uint128",
          "name": "bondsIssuedQuantity",
          "type": "uint128"
        },
        {
          "internalType": "uint128",
          "name": "normalizedBorrowedAmount",
          "type": "uint128"
        },
        {
          "internalType": "uint128",
          "name": "normalizedAvailableDeposits",
          "type": "uint128"
        },
        {
          "internalType": "uint128",
          "name": "lowerInterestRate",
          "type": "uint128"
        },
        {
          "internalType": "uint128",
          "name": "nextLoanMinStart",
          "type": "uint128"
        },
        {
          "internalType": "uint128",
          "name": "remainingAdjustedLiquidityRewardsReserve",
          "type": "uint128"
        },
        {
          "internalType": "uint128",
          "name": "yieldProviderLiquidityRatio",
          "type": "uint128"
        },
        {
          "internalType": "uint128",
          "name": "currentBondsIssuanceIndex",
          "type": "uint128"
        }
      ],
      "stateMutability": "view",
      "type": "function"
    },
    {
      "inputs": [
        {
          "internalType": "bytes32",
          "name": "poolHash",
          "type": "bytes32"
        }
      ],
      "name": "getProtocolFees",
      "outputs": [
        {
          "internalType": "uint128",
          "name": "",
          "type": "uint128"
        }
      ],
      "stateMutability": "view",
      "type": "function"
    },
    {
      "inputs": [
        {
          "internalType": "bytes32",
          "name": "poolHash",
          "type": "bytes32"
        },
        {
          "internalType": "bool",
          "name": "earlyRepay",
          "type": "bool"
        }
      ],
      "name": "getRepayAmounts",
      "outputs": [
        {
          "internalType": "uint128",
          "name": "normalizedRepayAmount",
          "type": "uint128"
        },
        {
          "internalType": "uint128",
          "name": "lateRepayFee",
          "type": "uint128"
        },
        {
          "internalType": "uint128",
          "name": "repaymentFees",
          "type": "uint128"
        }
      ],
      "stateMutability": "view",
      "type": "function"
    },
    {
      "inputs": [
        {
          "internalType": "bytes32",
          "name": "role",
          "type": "bytes32"
        }
      ],
      "name": "getRoleAdmin",
      "outputs": [
        {
          "internalType": "bytes32",
          "name": "",
          "type": "bytes32"
        }
      ],
      "stateMutability": "view",
      "type": "function"
    },
    {
      "inputs": [
        {
          "internalType": "bytes32",
          "name": "poolHash",
          "type": "bytes32"
        },
        {
          "internalType": "uint128",
          "name": "rate",
          "type": "uint128"
        }
      ],
      "name": "getTickAmounts",
      "outputs": [
        {
          "internalType": "uint128",
          "name": "adjustedTotalAmount",
          "type": "uint128"
        },
        {
          "internalType": "uint128",
          "name": "adjustedRemainingAmount",
          "type": "uint128"
        },
        {
          "internalType": "uint128",
          "name": "bondsQuantity",
          "type": "uint128"
        },
        {
          "internalType": "uint128",
          "name": "adjustedPendingAmount",
          "type": "uint128"
        },
        {
          "internalType": "uint128",
          "name": "atlendisLiquidityRatio",
          "type": "uint128"
        },
        {
          "internalType": "uint128",
          "name": "accruedFees",
          "type": "uint128"
        }
      ],
      "stateMutability": "view",
      "type": "function"
    },
    {
      "inputs": [
        {
          "internalType": "string",
          "name": "pool",
          "type": "string"
        },
        {
          "internalType": "uint128",
          "name": "rate",
          "type": "uint128"
        }
      ],
      "name": "getTickLastUpdate",
      "outputs": [
        {
          "internalType": "uint128",
          "name": "lastFeeDistributionTimestamp",
          "type": "uint128"
        }
      ],
      "stateMutability": "view",
      "type": "function"
    },
    {
      "inputs": [
        {
          "internalType": "bytes32",
          "name": "poolHash",
          "type": "bytes32"
        },
        {
          "internalType": "uint128",
          "name": "rate",
          "type": "uint128"
        }
      ],
      "name": "getTickLiquidityRatio",
      "outputs": [
        {
          "internalType": "uint128",
          "name": "liquidityRatio",
          "type": "uint128"
        }
      ],
      "stateMutability": "view",
      "type": "function"
    },
    {
      "inputs": [
        {
          "internalType": "bytes32",
          "name": "poolHash",
          "type": "bytes32"
        },
        {
          "internalType": "uint128",
          "name": "rate",
          "type": "uint128"
        },
        {
          "internalType": "uint128",
          "name": "adjustedAmount",
          "type": "uint128"
        },
        {
          "internalType": "uint128",
          "name": "bondsIssuanceIndex",
          "type": "uint128"
        }
      ],
      "name": "getWithdrawAmounts",
      "outputs": [
        {
          "internalType": "uint128",
          "name": "adjustedAmountToWithdraw",
          "type": "uint128"
        },
        {
          "internalType": "uint128",
          "name": "depositedAmountToWithdraw",
          "type": "uint128"
        },
        {
          "internalType": "uint128",
          "name": "remainingBondsQuantity",
          "type": "uint128"
        },
        {
          "internalType": "uint128",
          "name": "bondsMaturity",
          "type": "uint128"
        }
      ],
      "stateMutability": "view",
      "type": "function"
    },
    {
      "inputs": [
        {
          "internalType": "bytes32",
          "name": "role",
          "type": "bytes32"
        },
        {
          "internalType": "address",
          "name": "account",
          "type": "address"
        }
      ],
      "name": "grantRole",
      "outputs": [],
      "stateMutability": "nonpayable",
      "type": "function"
    },
    {
      "inputs": [
        {
          "internalType": "bytes32",
          "name": "role",
          "type": "bytes32"
        },
        {
          "internalType": "address",
          "name": "account",
          "type": "address"
        }
      ],
      "name": "hasRole",
      "outputs": [
        {
          "internalType": "bool",
          "name": "",
          "type": "bool"
        }
      ],
      "stateMutability": "view",
      "type": "function"
    },
    {
      "inputs": [
        {
          "internalType": "address",
          "name": "governance",
          "type": "address"
        }
      ],
      "name": "initialize",
      "outputs": [],
      "stateMutability": "nonpayable",
      "type": "function"
    },
    {
      "inputs": [
        {
          "internalType": "bytes32",
          "name": "poolHash",
          "type": "bytes32"
        }
      ],
      "name": "isEarlyRepay",
      "outputs": [
        {
          "internalType": "bool",
          "name": "earlyRepay",
          "type": "bool"
        }
      ],
      "stateMutability": "view",
      "type": "function"
    },
    {
      "inputs": [],
      "name": "paused",
      "outputs": [
        {
          "internalType": "bool",
          "name": "",
          "type": "bool"
        }
      ],
      "stateMutability": "view",
      "type": "function"
    },
    {
      "inputs": [
        {
          "internalType": "bytes32",
          "name": "role",
          "type": "bytes32"
        },
        {
          "internalType": "address",
          "name": "account",
          "type": "address"
        }
      ],
      "name": "renounceRole",
      "outputs": [],
      "stateMutability": "nonpayable",
      "type": "function"
    },
    {
      "inputs": [],
      "name": "repay",
      "outputs": [],
      "stateMutability": "nonpayable",
      "type": "function"
    },
    {
      "inputs": [
        {
          "internalType": "bytes32",
          "name": "role",
          "type": "bytes32"
        },
        {
          "internalType": "address",
          "name": "account",
          "type": "address"
        }
      ],
      "name": "revokeRole",
      "outputs": [],
      "stateMutability": "nonpayable",
      "type": "function"
    },
    {
      "inputs": [
        {
          "internalType": "bytes32",
          "name": "poolHash",
          "type": "bytes32"
        }
      ],
      "name": "setDefault",
      "outputs": [],
      "stateMutability": "nonpayable",
      "type": "function"
    },
    {
      "inputs": [
        {
          "internalType": "uint128",
          "name": "establishmentFeeRate",
          "type": "uint128"
        },
        {
          "internalType": "bytes32",
          "name": "poolHash",
          "type": "bytes32"
        }
      ],
      "name": "setEstablishmentFeeRate",
      "outputs": [],
      "stateMutability": "nonpayable",
      "type": "function"
    },
    {
      "inputs": [
        {
          "internalType": "uint128",
          "name": "distributionRate",
          "type": "uint128"
        },
        {
          "internalType": "bytes32",
          "name": "poolHash",
          "type": "bytes32"
        }
      ],
      "name": "setLiquidityRewardsDistributionRate",
      "outputs": [],
      "stateMutability": "nonpayable",
      "type": "function"
    },
    {
      "inputs": [
        {
          "internalType": "uint128",
          "name": "maxBorrowableAmount",
          "type": "uint128"
        },
        {
          "internalType": "bytes32",
          "name": "poolHash",
          "type": "bytes32"
        }
      ],
      "name": "setMaxBorrowableAmount",
      "outputs": [],
      "stateMutability": "nonpayable",
      "type": "function"
    },
    {
      "inputs": [
        {
          "internalType": "uint128",
          "name": "repaymentFeeRate",
          "type": "uint128"
        },
        {
          "internalType": "bytes32",
          "name": "poolHash",
          "type": "bytes32"
        }
      ],
      "name": "setRepaymentFeeRate",
      "outputs": [],
      "stateMutability": "nonpayable",
      "type": "function"
    },
    {
      "inputs": [
        {
          "internalType": "bytes4",
          "name": "interfaceId",
          "type": "bytes4"
        }
      ],
      "name": "supportsInterface",
      "outputs": [
        {
          "internalType": "bool",
          "name": "",
          "type": "bool"
        }
      ],
      "stateMutability": "view",
      "type": "function"
    },
    {
      "inputs": [
        {
          "internalType": "uint128",
          "name": "amount",
          "type": "uint128"
        }
      ],
      "name": "topUpLiquidityRewards",
      "outputs": [],
      "stateMutability": "nonpayable",
      "type": "function"
    },
    {
      "inputs": [],
      "name": "unfreezePool",
      "outputs": [],
      "stateMutability": "nonpayable",
      "type": "function"
    },
    {
      "inputs": [
        {
          "internalType": "uint128",
          "name": "adjustedAmount",
          "type": "uint128"
        },
        {
          "internalType": "bytes32",
          "name": "poolHash",
          "type": "bytes32"
        },
        {
          "internalType": "uint128",
          "name": "oldRate",
          "type": "uint128"
        },
        {
          "internalType": "uint128",
          "name": "newRate",
          "type": "uint128"
        },
        {
          "internalType": "uint128",
          "name": "oldBondsIssuanceIndex",
          "type": "uint128"
        }
      ],
      "name": "updateRate",
      "outputs": [
        {
          "internalType": "uint128",
          "name": "newAdjustedAmount",
          "type": "uint128"
        },
        {
          "internalType": "uint128",
          "name": "newBondsIssuanceIndex",
          "type": "uint128"
        },
        {
          "internalType": "uint128",
          "name": "normalizedAmount",
          "type": "uint128"
        }
      ],
      "stateMutability": "nonpayable",
      "type": "function"
    },
    {
      "inputs": [
        {
          "internalType": "bytes32",
          "name": "poolHash",
          "type": "bytes32"
        },
        {
          "internalType": "uint128",
          "name": "rate",
          "type": "uint128"
        },
        {
          "internalType": "uint128",
          "name": "adjustedAmountToWithdraw",
          "type": "uint128"
        },
        {
          "internalType": "uint128",
          "name": "bondsIssuanceIndex",
          "type": "uint128"
        },
        {
          "internalType": "address",
          "name": "owner",
          "type": "address"
        }
      ],
      "name": "withdraw",
      "outputs": [
        {
          "internalType": "uint128",
          "name": "normalizedDepositedAmountToWithdraw",
          "type": "uint128"
        }
      ],
      "stateMutability": "nonpayable",
      "type": "function"
    }
  ],
  "transactionHash": "0x7872646efe8559aa951fde4aa95abbac3733c714754a5daf3504aea235004763",
  "args": [],
  "numDeployments": 1,
  "solcInputHash": "9f9f3208b996c2ac392e8851f4d2c6f7",
  "bytecode": "0x608060405234801561001057600080fd5b50615e6380620000216000396000f3fe608060405234801561001057600080fd5b506004361061027f5760003560e01c8063a217fddf1161015c578063c6252dae116100ce578063dc3fbbbc11610087578063dc3fbbbc14610825578063ed156a8c14610838578063f3b0c7cc146108ef578063f3d1d26314610912578063f9ae48e014610925578063fe04d4c51461093857600080fd5b8063c6252dae146106a0578063c8954db9146106d3578063ce5be488146106e6578063d547741f146106f9578063d595408a1461070c578063db2de9521461081257600080fd5b8063b74e0b1311610120578063b74e0b1314610639578063c098dab81461064c578063c38262e31461065f578063c3d31fce14610672578063c4d66de81461067a578063c5ba771d1461068d57600080fd5b8063a217fddf146104f7578063a983dcc0146104ff578063aa5976c114610512578063aab19db414610613578063b4ce44e51461062657600080fd5b80635790966e116101f55780637ded35c5116101b95780637ded35c514610466578063817db73b146104a35780638f13efc4146104b657806391d14854146104c95780639611d5dd146104dc5780639f3a348e146104e457600080fd5b80635790966e146103b05780635c975abb146103c35780635e585644146103ce57806371075b79146103f457806373356df01461045357600080fd5b806336568abe1161024757806336568abe1461031857806339f735831461032b578063402d88831461035657806346d070121461035e5780634803779314610371578063518af6271461038457600080fd5b806301ffc9a714610284578063248a9ca3146102ac5780632f2ff15d146102dd57806330b12d05146102f2578063330ca03614610305575b600080fd5b61029761029236600461530f565b610958565b60405190151581526020015b60405180910390f35b6102cf6102ba366004615339565b60009081526065602052604090206001015490565b6040519081526020016102a3565b6102f06102eb366004615377565b61098f565b005b6102f06103003660046153c7565b6109ba565b6102f0610313366004615377565b610a72565b6102f0610326366004615377565b610d25565b61033e6103393660046153f3565b610da8565b6040516001600160801b0390911681526020016102a3565b6102f0610df5565b61033e61036c366004615418565b61143e565b6102f061037f36600461549b565b6114aa565b61033e610392366004615339565b600090815260ca60205260409020600f01546001600160801b031690565b6102f06103be3660046154b4565b6119f9565b60975460ff16610297565b6102976103dc366004615339565b600090815260ca602052604090206009015460ff1690565b610433610402366004615339565b600090815260ca6020526040902060078101546008909101546001600160801b03600160801b909204821692911690565b604080516001600160801b039384168152929091166020830152016102a3565b6102f06104613660046154d2565b611b26565b610479610474366004615509565b611d17565b604080516001600160801b03948516815292841660208401529216918101919091526060016102a3565b6102f06104b1366004615339565b611fef565b6102f06104c43660046153c7565b612029565b6102976104d7366004615377565b6120d4565b6102f06120ff565b61033e6104f2366004615339565b612123565b6102cf600081565b6102f061050d366004615339565b61215f565b6105a2610520366004615339565b600090815260ca602052604090206001810154600382015460048301546005840154600685015460078601546008909601546001600160a01b03909516966001600160801b0380861697600160801b96879004821697828716979687900483169683871696819004841695848116959082900485169493841693919092041690565b604080516001600160a01b03909c168c526001600160801b039a8b1660208d0152988a16988b019890985295881660608a0152938716608089015291861660a0880152851660c0870152841660e08601528316610100850152821661012084015216610140820152610160016102a3565b6102f06106213660046154b4565b612339565b610433610634366004615339565b612465565b610433610647366004615571565b6125e9565b61047961065a3660046155d4565b61282b565b6102f061066d3660046153c7565b612a50565b6102f0612b31565b6102f0610688366004615600565b612b52565b6102f061069b3660046153f3565b612c94565b61033e6106ae366004615339565b600090815260ca60205260409020600a0154630100000090046001600160801b031690565b6102f06106e136600461561d565b612ccf565b61033e6106f43660046153c7565b612f3c565b6102f0610707366004615377565b6131e8565b61079f61071a366004615339565b600090815260ca60205260409020600a810154600b820154600c830154600d840154600e9094015460ff80851696610100860482169662010000870490921695630100000090046001600160801b039081169581811695600160801b918290048316958382169591839004841694848316949284900483169383831693920490911690565b604080519c15158d529a151560208d0152981515998b01999099526001600160801b0396871660608b015294861660808a015292851660a089015290841660c0880152831660e08701528216610100860152811661012085015291821661014084015216610160820152610180016102a3565b6102f061082036600461563a565b61320e565b61033e610833366004615668565b61384c565b6108ad6108463660046153f3565b600091825260ca602090815260408084206001600160801b0393841685526010019091529091206001810154600282015460038301546004840154600590940154600160801b80850487169793871696948516959285169492819004831693910490911690565b604080516001600160801b03978816815295871660208701529386169385019390935290841660608401528316608083015290911660a082015260c0016102a3565b6109026108fd366004615571565b613af9565b6040516102a394939291906156c2565b6104336109203660046156ed565b613c0c565b6102f06109333660046153c7565b613ee4565b6102cf610946366004615600565b60c96020526000908152604090205481565b60006001600160e01b03198216637965db0b60e01b148061098957506301ffc9a760e01b6001600160e01b03198316145b92915050565b6000828152606560205260409020600101546109ab8133613f8f565b6109b58383613ff3565b505050565b600080516020615dce8339815191526109d38133613f8f565b600082815260ca60205260409020600a015460ff16610a0557604051630951899960e01b815260040160405180910390fd5b600082815260ca602090815260409182902060080180546001600160801b0319166001600160801b03871690811790915582519081529081018490527fe3ed7df90f4e708b201a97ff43820f24fa973238a9856a431e4c54ba31151bc991015b60405180910390a1505050565b600080516020615dce833981519152610a8b8133613f8f565b82610aa957604051635342e0a760e11b815260040160405180910390fd5b6001600160a01b038216610ad05760405163f15e745f60e01b815260040160405180910390fd5b600083815260ca6020526040902080548414610aff57604051630951899960e01b815260040160405180910390fd5b600a81015462010000900460ff1615610b2b5760405163235893eb60e21b815260040160405180910390fd5b600a8101805462ff0000191662010000179055600d8101546000906001600160801b03600160801b9091041615610cdc576002820154600183015460405163d15e005360e01b81526001600160a01b039182166004820152600092919091169063d15e00539060240160206040518083038186803b158015610bac57600080fd5b505afa158015610bc0573d6000803e3d6000fd5b505050506040513d601f19601f82011682018060405250810190610be49190615737565b600d840154909150610c0690600160801b90046001600160801b031682614079565b600d840180546001600160801b039081169091556002850154600089815260ca60205260409020600190810154908701549395506001600160a01b03918216936369328dec939190921691610c689187169060ff600160a01b909104166140a8565b886040518463ffffffff1660e01b8152600401610c8793929190615750565b602060405180830381600087803b158015610ca157600080fd5b505af1158015610cb5573d6000803e3d6000fd5b505050506040513d601f19601f82011682018060405250810190610cd99190615737565b50505b604080518681526001600160801b03831660208201527fdb941e881e2a4a824775895cb9b4908cbc030460e7356912047a04e2c8f3281691015b60405180910390a15050505050565b6001600160a01b0381163314610d9a5760405162461bcd60e51b815260206004820152602f60248201527f416363657373436f6e74726f6c3a2063616e206f6e6c792072656e6f756e636560448201526e103937b632b9903337b91039b2b63360891b60648201526084015b60405180910390fd5b610da482826140db565b5050565b600082815260ca602090815260408083206001600160801b038086168552601090910190925290912060040154600160801b900416806109895750676765c793fa10079d601b1b92915050565b60975460ff1615610e185760405162461bcd60e51b8152600401610d919061577c565b600080516020615dee833981519152610e318133613f8f565b33600090815260c9602090815260408083205480845260ca909252909120600a810154610100900460ff1615610e7a5760405163056efc7b60e01b815260040160405180910390fd5b600a810154630100000090046001600160801b0316610eac57604051631e13931b60e21b815260040160405180910390fd5b600a8101544263010000009091046001600160801b031611808015610ed65750600982015460ff16155b15610ef457604051632b604eef60e01b815260040160405180910390fd5b610efd82614142565b604051631d398d8d60e21b81526004810183905260009081908190819073D2B8552104cf999e0EEad79800F0ff08CD4ED5FD906374e636349060240160206040518083038186803b158015610f5157600080fd5b505af4158015610f65573d6000803e3d6000fd5b505050506040513d601f19601f82011682018060405250810190610f8991906157a6565b600c870154909150600160801b90046001600160801b03165b60038701546001600160801b03600160801b9091048116908216116110c557604051634de6e91560e01b8152600481018890526001600160801b03808316602483015283166044820152600090819073D2B8552104cf999e0EEad79800F0ff08CD4ED5FD90634de6e91590606401604080518083038186803b15801561102757600080fd5b505af415801561103b573d6000803e3d6000fd5b505050506040513d601f19601f8201168201806040525081019061105f91906157c3565b909250905061106e8183615808565b6110789086615808565b94506110848188615808565b965060006110938a8589614252565b9050808061109e5750865b60048b01549097506110be93506001600160801b03169150839050615808565b9050610fa2565b50604051635ccb5f2f60e01b8152600481018790526001600160801b038316602482015260009073D2B8552104cf999e0EEad79800F0ff08CD4ED5FD90635ccb5f2f9060440160206040518083038186803b15801561112357600080fd5b505af4158015611137573d6000803e3d6000fd5b505050506040513d601f19601f8201168201806040525081019061115b91906157a6565b90506111678184615808565b604051636839a26160e01b815290935073D2B8552104cf999e0EEad79800F0ff08CD4ED5FD90636839a261906111a5908a9033908890600401615833565b60006040518083038186803b1580156111bd57600080fd5b505af41580156111d1573d6000803e3d6000fd5b50505060068801546111ed91506001600160801b031642615808565b600d880180546001600160801b039283166001600160801b031991821617909155600b890180549091169055600089815260cb602052604081208054849391929161123a91859116615808565b92506101000a8154816001600160801b0302191690836001600160801b031602179055508287600a0160020160008282829054906101000a90046001600160801b03166112879190615808565b82546101009290920a6001600160801b038181021990931691831602179091556006890154600a8a01546112cf9350600160801b909104821691630100000090910416615808565b6001600160801b031642111561134f57600c870154600d880154604080516001600160801b038088168252808a16602083015280861692820192909252928116606084015216608082015288907f0a8858cdd0551a157921eb1032d7f466feec7752fffc78f8b3c52bb435e331b09060a0015b60405180910390a261140f565b600a8701544263010000009091046001600160801b031611156113b957600c870154600d8801546040518a927fa2b36883c3fcb197b500ec4377e7899f16820387a05442f947c237578dd03f819261134292889287926001600160801b03918216929116906156c2565b600c870154600d8801546040518a927fcde954d9667cdba90232367e5f743ea631856cdec43e595635130c08e20ffa939261140692889287926001600160801b03918216929116906156c2565b60405180910390a25b505050600a840180546301000000600160981b0319169055505050600b0180546001600160801b031690555050565b60008060ca6000868660405160200161145892919061585b565b60408051601f19818403018152918152815160209283012083528282019390935290820160009081206001600160801b03808816835260109091019092529190912060040154169150505b9392505050565b600080516020615dce8339815191526114c38133613f8f565b6114cc82614496565b604051806102200160405280836000013581526020018360200160208101906114f59190615600565b6001600160a01b031681526020018360200160208101906115169190615600565b6001600160a01b031663313ce5676040518163ffffffff1660e01b815260040160206040518083038186803b15801561154e57600080fd5b505afa158015611562573d6000803e3d6000fd5b505050506040513d601f19601f82011682018060405250810190611586919061588a565b60ff16815260200161159e6060850160408601615600565b6001600160a01b031681526020016115bc608085016060860161561d565b6001600160801b031681526020016115da60a085016080860161561d565b6001600160801b031681526020016115f860c0850160a0860161561d565b6001600160801b0316815260200161161660e0850160c0860161561d565b6001600160801b03168152602001611635610100850160e0860161561d565b6001600160801b031681526020016116556101208501610100860161561d565b6001600160801b031681526020016116756101408501610120860161561d565b6001600160801b031681526020016116956101608501610140860161561d565b6001600160801b031681526020016116b56101808501610160860161561d565b6001600160801b031681526020016116d56101a08501610180860161561d565b6001600160801b031681526020016116f56101c085016101a0860161561d565b6001600160801b031681526020016117156101e085016101c0860161561d565b6001600160801b0316815260200161173561020085016101e086016158ad565b151590528235600090815260ca602090815260409182902083518155908301516001820180548585015160ff16600160a01b026001600160a81b03199091166001600160a01b0393841617179055606080850151600284018054919093166001600160a01b03199190911617909155608084015160a08501516001600160801b03908116600160801b90810292821692909217600385015560c086015160e08701518216830290821617600485015561010086015161012087015182168302908216176005850155610140860151610160870151821683029082161760068501556101808601516101a0870151821683029082161760078501556101c08601516101e087015182169092029116176008830155610200909301516009909101805491151560ff19909216919091179055611873918401908401615600565b6001600160a01b031663d15e00536118916040850160208601615600565b6040516001600160e01b031960e084901b1681526001600160a01b03909116600482015260240160206040518083038186803b1580156118d057600080fd5b505afa1580156118e4573d6000803e3d6000fd5b505050506040513d601f19601f820116820180604052508101906119089190615737565b8235600090815260ca602052604090819020600e0180546001600160801b0319166001600160801b039390931692909217909155517fe71e8fe4301d57c752d83a095e456f17300a88ea18c7daef3b9e035a9ed1aa659061196a9084906158c8565b60405180910390a18135600090815260ca6020526040902060080154600160801b90046001600160801b0316610da4578135600090815260ca602052604090819020600a8101805460ff191660011790555490517f843e4390b5f579b124a883bb556fa80a421be9d5301b2e7267641cc23ea077e4916119ed9190815260200190565b60405180910390a15050565b600080516020615dce833981519152611a128133613f8f565b81611a3057604051635342e0a760e11b815260040160405180910390fd5b6001600160a01b038316611a575760405163f15e745f60e01b815260040160405180910390fd5b600082815260ca60205260409020548214611a8557604051630951899960e01b815260040160405180910390fd5b6001600160a01b038316600090815260c960205260409020548214611abd5760405163e2106cd360e01b815260040160405180910390fd5b611ad5600080516020615dee833981519152846131e8565b6001600160a01b038316600081815260c96020908152604080832092909255815192835282018490527fbca7a5cbff6e29c636e92cf5ee4128086f7e982204b0e420cb972819f12f88fe9101610a65565b600080516020615dce833981519152611b3f8133613f8f565b600084815260ca6020526040812060010154611b6f906001600160801b03861690600160a01b900460ff16614667565b600086815260ca60205260409020549091508514611ba057604051630951899960e01b815260040160405180910390fd5b600085815260cb60205260409020546001600160801b039081169082161115611bdc57604051639f747ffd60e01b815260040160405180910390fd5b600085815260cb602052604081208054839290611c039084906001600160801b0316615a5f565b82546001600160801b039182166101009390930a928302919092021990911617905550600085815260ca6020526040908190206002810154600191909101549151631a4ca37b60e21b81526001600160a01b03918216926369328dec92611c739291169088908890600401615750565b602060405180830381600087803b158015611c8d57600080fd5b505af1158015611ca1573d6000803e3d6000fd5b505050506040513d601f19601f82011682018060405250810190611cc59190615737565b50604080518681526001600160801b03831660208201526001600160a01b038516918101919091527f150a2e161f87df4cc1b0c4345f9779d342fa2bcc2bf767efbb54005e811079f190606001610d16565b6000806000611d2860975460ff1690565b15611d455760405162461bcd60e51b8152600401610d919061577c565b600080516020615e0e833981519152611d5e8133613f8f565b600088815260ca60205260409020600a81015462010000900460ff1615611d985760405163df00603160e01b815260040160405180910390fd5b6000611da68a8a8d8a6125e9565b5090506001600160801b03811615611dd157604051630d290b7960e31b815260040160405180910390fd5b60038201546001600160801b039081169089161015611e035760405163fca6b5cd60e01b815260040160405180910390fd5b60038201546001600160801b03600160801b90910481169089161115611e3c576040516393c139e960e01b815260040160405180910390fd5b600482015460038301546001600160801b0391821691611e5d91168a615a5f565b611e679190615a9d565b6001600160801b031615611e8e5760405163270955a760e01b815260040160405180910390fd5b6000611eae611e9e848c8b61468f565b6001600160801b038e1690614079565b604051636ef48f5760e01b815290915073D2B8552104cf999e0EEad79800F0ff08CD4ED5FD90636ef48f5790611eee9086908e9086908e90600401615ac3565b60206040518083038186803b158015611f0657600080fd5b505af4158015611f1a573d6000803e3d6000fd5b505050506040513d601f19601f82011682018060405250810190611f3e91906157a6565b604051631cd2ca1960e11b8152600481018590526001600160801b03808c1660248301528216604482015290955073D2B8552104cf999e0EEad79800F0ff08CD4ED5FD906339a5943290606401604080518083038186803b158015611fa257600080fd5b505af4158015611fb6573d6000803e3d6000fd5b505050506040513d601f19601f82011682018060405250810190611fda91906157c3565b909d909c50949a509398505050505050505050565b60975460ff16156120125760405162461bcd60e51b8152600401610d919061577c565b600081815260ca60205260409020610da481614142565b600080516020615dce8339815191526120428133613f8f565b600082815260ca6020526040902054821461207057604051630951899960e01b815260040160405180910390fd5b600082815260ca602090815260409182902060040180546001600160801b03908116600160801b9188169182021790915582519081529081018490527f796282fae5ebb944d98f910eb76fbde5bc1dc06dd9da67632dc4561d96e7c30d9101610a65565b60009182526065602090815260408084206001600160a01b0393909316845291905290205460ff1690565b600080516020615dce8339815191526121188133613f8f565b6121206146da565b50565b600081815260ca602090815260408083206001015460cb909252822054610989916001600160801b0390911690600160a01b900460ff166140a8565b600080516020615dce8339815191526121788133613f8f565b600082815260ca60205260409020600a810154610100900460ff16156121b0576040516209157360e41b815260040160405180910390fd5b600a810154630100000090046001600160801b03166121e257604051633aa99c9b60e01b815260040160405180910390fd5b6006810154600a820154612210916001600160801b03600160801b9091048116916301000000900416615808565b6001600160801b031642101561223957604051632b797db960e11b815260040160405180910390fd5b600a8101805461010061ff0019909116179055600f810180546001600160801b031916426001600160801b0316179055604051631d8e67b960e31b81526004810182905260009073D2B8552104cf999e0EEad79800F0ff08CD4ED5FD9063ec733dc89060240160206040518083038186803b1580156122b757600080fd5b505af41580156122cb573d6000803e3d6000fd5b505050506040513d601f19601f820116820180604052508101906122ef91906157a6565b604080518681526001600160801b03831660208201529192507f4eb384de78f7c7a5dd1dc12268658939004561d9dc1572c852f6c0873cca67b2910160405180910390a150505050565b600080516020615dce8339815191526123528133613f8f565b8161237057604051635342e0a760e11b815260040160405180910390fd5b6001600160a01b0383166123975760405163f15e745f60e01b815260040160405180910390fd5b600082815260ca602052604090205482146123c557604051630951899960e01b815260040160405180910390fd5b6001600160a01b038316600090815260c96020526040902054156123fc5760405163a8b7bea160e01b815260040160405180910390fd5b612414600080516020615dee8339815191528461098f565b6001600160a01b038316600081815260c96020908152604091829020859055815192835282018490527f3a3825a3ceba48aadc12396e4232a6098dea62688b3cbc06d0f1f3ed26fbcc259101610a65565b600081815260ca60205260408120600a8101548291908190630100000090046001600160801b03166124b75760048201546124b090600160801b90046001600160801b031686612f3c565b93506125e2565b600381015460009081906001600160801b03165b600484015460038501546124f2916001600160801b0390811691600160801b900416615808565b6001600160801b0316816001600160801b0316146125c9576001600160801b03808216600090815260108701602052604090206003015461253c91600160801b909104168261476d565b6125469084615808565b6001600160801b03808316600090815260108801602052604090206003015491945061257a91600160801b90041683615808565b6001600160801b0380831660009081526010880160205260409020600301549193506125a7911687615808565b60048501549096506125c2906001600160801b031682615808565b90506124cb565b6125dc6001600160801b03841683614785565b96505050505b5050915091565b600084815260ca602052604080822060028101546001820154925163d15e005360e01b81526001600160a01b03938416600482015284938492169063d15e00539060240160206040518083038186803b15801561264557600080fd5b505afa158015612659573d6000803e3d6000fd5b505050506040513d601f19601f8201168201806040525081019061267d9190615737565b600e8301549091506001600160801b03600160801b909104811690861611156126c05760006126b56001600160801b03881683614079565b935093505050612822565b604051633d29c20960e01b815260009073D2B8552104cf999e0EEad79800F0ff08CD4ED5FD90633d29c209906127009086908c908c908c90600401615ac3565b604080518083038186803b15801561271757600080fd5b505af415801561272b573d6000803e3d6000fd5b505050506040513d601f19601f8201168201806040525081019061274f91906157c3565b9095509050600080612762858b8661479d565b5050604051632ca9e11360e11b8152919350915060009073D2B8552104cf999e0EEad79800F0ff08CD4ED5FD90635953c226906127a99089908f9089908890600401615ac3565b60206040518083038186803b1580156127c157600080fd5b505af41580156127d5573d6000803e3d6000fd5b505050506040513d601f19601f820116820180604052508101906127f991906157a6565b90508061280f6001600160801b03861685614079565b6128199190615808565b96505050505050505b94509492505050565b600082815260ca6020526040808220905163839a9c2960e01b81526004810191909152821515602482015281908190819073D2B8552104cf999e0EEad79800F0ff08CD4ED5FD9063839a9c299060440160206040518083038186803b15801561289357600080fd5b505af41580156128a7573d6000803e3d6000fd5b505050506040513d601f19601f820116820180604052508101906128cb91906157a6565b600087815260ca6020526040908190209051631d398d8d60e21b815291925061297b91839173D2B8552104cf999e0EEad79800F0ff08CD4ED5FD916374e636349161291c9160040190815260200190565b60206040518083038186803b15801561293457600080fd5b505af4158015612948573d6000803e3d6000fd5b505050506040513d601f19601f8201168201806040525081019061296c91906157a6565b6001600160801b03169061476d565b600087815260ca6020526040902090935073D2B8552104cf999e0EEad79800F0ff08CD4ED5FD90635ccb5f2f906129b28685615808565b6040516001600160e01b031960e085901b16815260048101929092526001600160801b0316602482015260440160206040518083038186803b1580156129f757600080fd5b505af4158015612a0b573d6000803e3d6000fd5b505050506040513d601f19601f82011682018060405250810190612a2f91906157a6565b915082612a3c8383615808565b612a469190615808565b9350509250925092565b600080516020615dce833981519152612a698133613f8f565b600082815260ca60205260409020600a015460ff16612a9b57604051630951899960e01b815260040160405180910390fd5b670de0b6b3a7640000836001600160801b03161115612acd57604051633dedb6cb60e21b815260040160405180910390fd5b600082815260ca602090815260409182902060070180546001600160801b03908116600160801b9188169182021790915582519081529081018490527f738c64322e7db945ad7f301e0af4f8b02a5a5cb336140b950d2a7b4340569b7d9101610a65565b600080516020615dce833981519152612b4a8133613f8f565b612120614957565b600054610100900460ff16612b6d5760005460ff1615612b71565b303b155b612bd45760405162461bcd60e51b815260206004820152602e60248201527f496e697469616c697a61626c653a20636f6e747261637420697320616c72656160448201526d191e481a5b9a5d1a585b1a5e995960921b6064820152608401610d91565b600054610100900460ff16158015612bf6576000805461ffff19166101011790555b612bfe6149af565b6001600160a01b038216612c10573391505b612c1b600083613ff3565b612c33600080516020615dce83398151915283613ff3565b612c59600080516020615dee833981519152600080516020615dce8339815191526149e8565b612c7f600080516020615e0e833981519152600080516020615dce8339815191526149e8565b8015610da4576000805461ff00191690555050565b60975460ff1615612cb75760405162461bcd60e51b8152600401610d919061577c565b600082815260ca602052604090206109b58183614a33565b60975460ff1615612cf25760405162461bcd60e51b8152600401610d919061577c565b600080516020615dee833981519152612d0b8133613f8f565b33600090815260c96020908152604080832054835260ca90915281206001810154909190612d4d906001600160801b03861690600160a01b900460ff16614667565b604051636839a26160e01b815290915073D2B8552104cf999e0EEad79800F0ff08CD4ED5FD90636839a26190612d8b90859033908690600401615833565b60006040518083038186803b158015612da357600080fd5b505af4158015612db7573d6000803e3d6000fd5b5050604051631a727b1960e31b8152600481018590526001600160801b03841660248201526000925073D2B8552104cf999e0EEad79800F0ff08CD4ED5FD915063d393d8c89060440160206040518083038186803b158015612e1857600080fd5b505af4158015612e2c573d6000803e3d6000fd5b505050506040513d601f19601f82011682018060405250810190612e5091906157a6565b600a84015490915060ff16158015612e9957506008830154600d8401546001600160801b03600160801b92839004811692612e8d92041683614079565b6001600160801b031610155b15612eea57600a8301805460ff1916600117905582546040517f843e4390b5f579b124a883bb556fa80a421be9d5301b2e7267641cc23ea077e491612ee19190815260200190565b60405180910390a15b33600090815260c960209081526040918290205482519081526001600160801b038516918101919091527f4e4bba6240da8987fe01edc7c3e8498d355a5f0ad7eb7ff2995f3393d8c030a79101610d16565b600081815260ca60205260408120600a8101548190630100000090046001600160801b0316151580612f775750600a820154610100900460ff165b80612f8c5750600a82015462010000900460ff165b80612f9c5750600a82015460ff16155b15612fac57600092505050610989565b60048201546001600160801b03600160801b90910481169086161115612fe4576004820154600160801b90046001600160801b031694505b6002810154600182015460405163d15e005360e01b81526001600160a01b039182166004820152600092919091169063d15e00539060240160206040518083038186803b15801561303457600080fd5b505afa158015613048573d6000803e3d6000fd5b505050506040513d601f19601f8201168201806040525081019061306c9190615737565b60038401549091506001600160801b03168660005b600485015460038601546130a8916001600160801b0390811691600160801b900416615808565b6001600160801b0316836001600160801b0316146131955760006130cd87858761479d565b5050506001600160801b03808616600090815260108a016020526040812060020154929350916130fe911683614079565b9050836001600160801b0316816001600160801b0316101561314a576131248185615a5f565b93506131396001600160801b0382168661476d565b6131439084615808565b9250613174565b61315d6001600160801b0385168661476d565b6131679084615808565b9250600093505050613195565b5050600485015461318e906001600160801b031684615808565b9250613081565b816001600160801b0316896001600160801b031614156131be5760009650505050505050610989565b6131db6131cb838b615a5f565b6001600160801b03831690614785565b9998505050505050505050565b6000828152606560205260409020600101546132048133613f8f565b6109b583836140db565b60975460ff16156132315760405162461bcd60e51b8152600401610d919061577c565b600080516020615dee83398151915261324a8133613f8f565b33600090815260c9602090815260408083205480845260ca909252909120600a81015462010000900460ff16156132945760405163df00603160e01b815260040160405180910390fd5b600a810154610100900460ff16156132bf5760405163056efc7b60e01b815260040160405180910390fd5b600a810154630100000090046001600160801b0316158015906132f55750600a810154630100000090046001600160801b031642115b1561331357604051630fda546f60e41b815260040160405180910390fd5b6001810154600090613339906001600160801b03871690600160a01b900460ff16614667565b6007830154909150600090613361906001600160801b0380851691600160801b90041661476d565b9050600061336f8284615a5f565b6004850154600b8601549192506001600160801b03600160801b9182900481169261339e928792910416615808565b6001600160801b031611156133c65760405163aab4fe5160e01b815260040160405180910390fd5b600d8401546001600160801b03164210156133f45760405163af26604960e01b815260040160405180910390fd5b6133fd84614142565b600c8401546001600160801b03908116908416111561342f57604051634421566d60e11b815260040160405180910390fd5b6004840154600c850154849160009161345b916001600160801b0390811691600160801b900416615a5f565b90505b6000826001600160801b031611801561348e575060038601546001600160801b03600160801b9091048116908216105b156135f95760048601546134ab906001600160801b031682615808565b6001600160801b03808216600090815260108901602052604090206002015491925016156135f457604051634c5e028760e11b8152600481018790526001600160801b03808316602483015283166044820152600090819073D2B8552104cf999e0EEad79800F0ff08CD4ED5FD906398bc050e90606401604080518083038186803b15801561353957600080fd5b505af415801561354d573d6000803e3d6000fd5b505050506040513d601f19601f8201168201806040525081019061357191906157c3565b60405163ca8701f360e01b8152919350915073D2B8552104cf999e0EEad79800F0ff08CD4ED5FD9063ca8701f3906135b3908b90879087908790600401615ac3565b60006040518083038186803b1580156135cb57600080fd5b505af41580156135df573d6000803e3d6000fd5b5050505080846135ef9190615a5f565b935050505b61345e565b6001600160801b0382161561362157604051630f0b666f60e01b815260040160405180910390fd5b600a860154630100000090046001600160801b03166136bc576005860154613652906001600160801b031642615aea565b600a870180546301000000600160981b03191663010000006001600160801b0393841602179055604080518583168152918616602083015288917f02936c9aa03a5ee03914509058d0ab4fc30b8f8cb97922e9f8885bf0651263c0910160405180910390a2613702565b604080516001600160801b0380861682528616602082015288917f2a5361599b6218cb63221765b277f7026a473b717f40193ee25deae176e748dc910160405180910390a25b600087815260cb6020526040812080548692906137299084906001600160801b0316615808565b92506101000a8154816001600160801b0302191690836001600160801b031602179055508486600a0160010160108282829054906101000a90046001600160801b03166137769190615808565b82546101009290920a6001600160801b03818102199093169183160217909155600288015460018901546001600160a01b0391821693506369328dec92918116916137ce9190881690600160a01b900460ff166140a8565b8d6040518463ffffffff1660e01b81526004016137ed93929190615750565b602060405180830381600087803b15801561380757600080fd5b505af115801561381b573d6000803e3d6000fd5b505050506040513d601f19601f8201168201806040525081019061383f9190615737565b5050505050505050505050565b600061385a60975460ff1690565b156138775760405162461bcd60e51b8152600401610d919061577c565b600080516020615e0e8339815191526138908133613f8f565b600087815260ca60205260409020600e8101546138be90600160801b90046001600160801b03166001615808565b6001600160801b0316856001600160801b031611156138f05760405163019894df60e21b815260040160405180910390fd5b600e8101546001600160801b03600160801b90910481169086161180158161393657506001600160801b0380891660009081526010840160205260409020600201541615155b80613967575080801561396757506001600160801b0380891660009081526010840160205260409020600301541615155b6139845760405163436ec62560e01b815260040160405180910390fd5b6000876001600160801b0316116139ae57604051636ba603b360e11b815260040160405180910390fd5b604051636ef48f5760e01b815273D2B8552104cf999e0EEad79800F0ff08CD4ED5FD90636ef48f57906139eb9085908c908c908c90600401615ac3565b60206040518083038186803b158015613a0357600080fd5b505af4158015613a17573d6000803e3d6000fd5b505050506040513d601f19601f82011682018060405250810190613a3b91906157a6565b600283015460018401549195506001600160a01b03908116916369328dec91811690613a7b906001600160801b03891690600160a01b900460ff166140a8565b886040518463ffffffff1660e01b8152600401613a9a93929190615750565b602060405180830381600087803b158015613ab457600080fd5b505af1158015613ac8573d6000803e3d6000fd5b505050506040513d601f19601f82011682018060405250810190613aec9190615737565b5050505095945050505050565b600084815260ca60205260408120600a8101548291829182919060ff16613b335760405163c6d9b58160e01b815260040160405180910390fd5b604051633d29c20960e01b815273D2B8552104cf999e0EEad79800F0ff08CD4ED5FD90633d29c20990613b709084908c908c908c90600401615ac3565b604080518083038186803b158015613b8757600080fd5b505af4158015613b9b573d6000803e3d6000fd5b505050506040513d601f19601f82011682018060405250810190613bbf91906157c3565b95509250613be1613bd1828a8961468f565b6001600160801b03871690614aff565b935080600a0160000160039054906101000a90046001600160801b0316915050945094509450949050565b600080613c1b60975460ff1690565b15613c385760405162461bcd60e51b8152600401610d919061577c565b600080516020615e0e833981519152613c518133613f8f565b600087815260ca60205260409020600a810154610100900460ff1615613c8a5760405163056efc7b60e01b815260040160405180910390fd5b600a81015460ff16613caf5760405163c6d9b58160e01b815260040160405180910390fd5b600a81015462010000900460ff1615613cdb5760405163df00603160e01b815260040160405180910390fd5b60018101546001600160a01b03888116911614613d0b5760405163623957d360e01b815260040160405180910390fd5b60038101546001600160801b03908116908a161015613d3d5760405163fca6b5cd60e01b815260040160405180910390fd5b60038101546001600160801b03600160801b9091048116908a161115613d76576040516393c139e960e01b815260040160405180910390fd5b600481015460038201546001600160801b0391821691613d9791168b615a5f565b613da19190615a9d565b6001600160801b031615613dc85760405163270955a760e01b815260040160405180910390fd5b604051631cd2ca1960e11b8152600481018290526001600160801b03808b166024830152861660448201526000945084935073D2B8552104cf999e0EEad79800F0ff08CD4ED5FD906339a5943290606401604080518083038186803b158015613e3057600080fd5b505af4158015613e44573d6000803e3d6000fd5b505050506040513d601f19601f82011682018060405250810190613e6891906157c3565b604051636839a26160e01b8152919550935073D2B8552104cf999e0EEad79800F0ff08CD4ED5FD90636839a26190613ea89084908a908a90600401615833565b60006040518083038186803b158015613ec057600080fd5b505af4158015613ed4573d6000803e3d6000fd5b5050505050509550959350505050565b600080516020615dce833981519152613efd8133613f8f565b600082815260ca60205260409020548214613f2b57604051630951899960e01b815260040160405180910390fd5b600082815260ca602090815260409182902060050180546001600160801b03908116600160801b9188169182021790915582519081529081018490527f7016612eedf00917c664926ac3c77a4800fefe912e91632376418e8fc6e621619101610a65565b613f9982826120d4565b610da457613fb1816001600160a01b03166014614b29565b613fbc836020614b29565b604051602001613fcd929190615b2e565b60408051601f198184030181529082905262461bcd60e51b8252610d9191600401615ba3565b613ffd82826120d4565b610da45760008281526065602090815260408083206001600160a01b03851684529091529020805460ff191660011790556140353390565b6001600160a01b0316816001600160a01b0316837f2f8788117e7eff1d82e926ec794901d17c78024a50270940304540a733656f0d60405160405180910390a45050565b60006114a36140a3836001600160801b031661409d866001600160801b0316614cc5565b90614d04565b614d95565b6000670de0b6b3a76400006140be83600a615cba565b6140d1906001600160801b038616615cc6565b6114a39190615ce5565b6140e582826120d4565b15610da45760008281526065602090815260408083206001600160a01b0385168085529252808320805460ff1916905551339285917ff6391f5c32d9c69d2a47ea670b442974b53935d1edc7fd64eb21e047a839171b9190a45050565b6002810154600182015460405163d15e005360e01b81526001600160a01b039182166004820152600092919091169063d15e00539060240160206040518083038186803b15801561419257600080fd5b505afa1580156141a6573d6000803e3d6000fd5b505050506040513d601f19601f820116820180604052508101906141ca9190615737565b600c830154909150600160801b90046001600160801b03165b60038301546001600160801b03600160801b90910481169082161161422c5761420d838284614dee565b6004830154614225906001600160801b031682615808565b90506141e3565b50600e9190910180546001600160801b0319166001600160801b03909216919091179055565b6001600160801b0380831660009081526010850160205260408120600381015491929091161561448b57826142ce57600e85018054600191906010906142a9908490600160801b90046001600160801b0316615808565b92506101000a8154816001600160801b0302191690836001600160801b031602179055505b6004810154600e8601546142f6916001600160801b0391821691600160801b90910416615023565b600e86018054600160801b908190046001600160801b0390811660009081526020869052604080822080546001600160801b031916968416969096179095559254919091048116825291812054600384015491926143579281169116614079565b600e870154600384015491925061437a916001600160801b039081169116614079565b600c870180546000906143979084906001600160801b0316615808565b92506101000a8154816001600160801b0302191690836001600160801b03160217905550808260010160108282829054906101000a90046001600160801b03166143e19190615808565b82546101009290920a6001600160801b038181021990931691831602179091556001840154600285018054600160801b90920483166001600160801b03199283161790556003850180549091169055875460408051918252888316602083015291841691810191909152851560608201527f6ed432acb9733bda7d5f090ab5f35a9a2e19974dba6ae2dd7078c84b92388f96915060800160405180910390a16001925050506114a3565b506000949350505050565b6144a660c0820160a0830161561d565b6144b6608083016060840161561d565b6144c660a084016080850161561d565b6144d09190615a5f565b6144da9190615a9d565b6001600160801b031615614501576040516334cc2fed60e01b815260040160405180910390fd5b803561452057604051635342e0a760e11b815260040160405180910390fd5b8035600090815260ca60205260409020541561454f57604051631953bac160e11b815260040160405180910390fd5b60006145616060830160408401615600565b6001600160a01b031663d15e005361457f6040850160208601615600565b6040516001600160e01b031960e084901b1681526001600160a01b03909116600482015260240160206040518083038186803b1580156145be57600080fd5b505afa1580156145d2573d6000803e3d6000fd5b505050506040513d601f19601f820116820180604052508101906145f69190615737565b9050676765c793fa10079d601b1b8110156146245760405163fee5a60360e01b815260040160405180910390fd5b670de0b6b3a764000061463f6101a08401610180850161561d565b6001600160801b03161115610da457604051633dedb6cb60e21b815260040160405180910390fd5b600061467482600a615cba565b6140d1670de0b6b3a76400006001600160801b038616615cc6565b6001600160801b03808316600090815260108501602090815260408083208585168452918290529091205490911690816146d257676765c793fa10079d601b1b91505b509392505050565b60975460ff166147235760405162461bcd60e51b815260206004820152601460248201527314185d5cd8589b194e881b9bdd081c185d5cd95960621b6044820152606401610d91565b6097805460ff191690557f5db9ee0a495bf2e6ff9c91a7834c1ba4fdd244a5e8aa4e537bd38aeae4b073aa335b6040516001600160a01b03909116815260200160405180910390a1565b60006114a36001600160801b0384811690841661503b565b60006114a36001600160801b038481169084166150b2565b6001600160801b0380831660009081526010850160205260408120600481015491928392839283929091600160801b9004166147e75785600080600094509450945094505061494e565b60048101546005820154600e8a01546001600160801b03600160801b938490048116985092820483169650600092918216911611156148345750600e8801546001600160801b0316614844565b5060058101546001600160801b03165b61484e8188615a5f565b925061485a8989615147565b600d8a015490945060009061487f90600160801b90046001600160801b031689614079565b9050806001600160801b0316856001600160801b0316111561489f578094505b600a8a0154630100000090046001600160801b0316614919576148c28488615808565b60028401549097506001600160801b031615614914576002830154614907906001600160801b03908116906148f890881661521a565b6001600160801b031690614785565b6149119088615808565b96505b61494a565b60028301548590614933906001600160801b031686614079565b61493d9190615808565b6149479087615808565b95505b5050505b93509350935093565b60975460ff161561497a5760405162461bcd60e51b8152600401610d919061577c565b6097805460ff191660011790557f62e78cea01bee320cd4e420270b5ea74000d11b0c9f74754ebdbfc544b05a2586147503390565b600054610100900460ff166149d65760405162461bcd60e51b8152600401610d9190615cf9565b6149de61522e565b6149e6615255565b565b600082815260656020526040808220600101805490849055905190918391839186917fbd79b86ffe0ab8e8776151514217cd7cacd52c909f66475c3af44e129f0b00ff9190a4505050565b6002820154600183015460405163d15e005360e01b81526001600160a01b039182166004820152600092919091169063d15e00539060240160206040518083038186803b158015614a8357600080fd5b505afa158015614a97573d6000803e3d6000fd5b505050506040513d601f19601f82011682018060405250810190614abb9190615737565b9050614ac8838383614dee565b6001600160801b039182166000908152601090930160205260409092206005018054919092166001600160801b0319909116179055565b60006114a36140a3836001600160801b0316614b23866001600160801b0316614cc5565b90615288565b60606000614b38836002615cc6565b614b43906002615aea565b67ffffffffffffffff811115614b5b57614b5b615d44565b6040519080825280601f01601f191660200182016040528015614b85576020820181803683370190505b509050600360fc1b81600081518110614ba057614ba0615d5a565b60200101906001600160f81b031916908160001a905350600f60fb1b81600181518110614bcf57614bcf615d5a565b60200101906001600160f81b031916908160001a9053506000614bf3846002615cc6565b614bfe906001615aea565b90505b6001811115614c76576f181899199a1a9b1b9c1cb0b131b232b360811b85600f1660108110614c3257614c32615d5a565b1a60f81b828281518110614c4857614c48615d5a565b60200101906001600160f81b031916908160001a90535060049490941c93614c6f81615d70565b9050614c01565b5083156114a35760405162461bcd60e51b815260206004820181905260248201527f537472696e67733a20686578206c656e67746820696e73756666696369656e746044820152606401610d91565b600080614cd6633b9aca0084615cc6565b905082614ce7633b9aca0083615ce5565b146109895760405162a748d160e21b815260040160405180910390fd5b6000821580614d11575081155b15614d1e57506000610989565b81614d356002676765c793fa10079d601b1b615ce5565b614d4190600019615d87565b614d4b9190615ce5565b831115614d6a5760405162a748d160e21b815260040160405180910390fd5b676765c793fa10079d601b1b614d81600282615ce5565b614d8b8486615cc6565b6140d19190615aea565b600080614da76002633b9aca00615ce5565b90506000614db58483615aea565b905081811015614dd8576040516307af724160e11b815260040160405180910390fd5b614de6633b9aca0082615ce5565b949350505050565b6001600160801b038083166000908152601085016020526040902060048101549091429116101561501d576000808080614e2988888861479d565b92965090945092509050614e466001600160801b03831687614aff565b600d89018054601090614e6a908490600160801b90046001600160801b0316615a5f565b82546101009290920a6001600160801b038181021990931691831602179091556002870154614e9b92501682614079565b614ea59083615808565b600c89018054600090614ec29084906001600160801b0316615808565b92506101000a8154816001600160801b0302191690836001600160801b0316021790555060008560050160109054906101000a90046001600160801b031684614f0b9190615a5f565b6004870154909150600160801b90046001600160801b0316614f8b576005860180546001600160801b0319166001600160801b038981169182179092558a5460408051918252928b166020820152918201527f1ffcce3f36329128f865c47cacfc17ad27e65f7039d7aacd9d6350644c465a919060600160405180910390a15b6005860180546001600160801b03908116600160801b8783168102919091179092556001600160801b03198782168302164282161760048901558a54600d8c01547fda58df82953130c96b08dcda8a76478b2a4e0c16cddf3e59ac1ccf39d7b027639391928c92614ffe9204168b614079565b8460405161500f9493929190615ac3565b60405180910390a150505050505b50505050565b60006114a36001600160801b03848116908416615288565b6000821580615048575081155b1561505557506000610989565b816150696002670de0b6b3a7640000615ce5565b61507590600019615d87565b61507f9190615ce5565b83111561509e5760405162a748d160e21b815260040160405180910390fd5b670de0b6b3a7640000614d81600282615ce5565b6000816150d2576040516308693c7b60e31b815260040160405180910390fd5b60006150df600284615ce5565b9050670de0b6b3a76400006150f682600019615d87565b6151009190615ce5565b84111561511f5760405162a748d160e21b815260040160405180910390fd5b8281615133670de0b6b3a764000087615cc6565b61513d9190615aea565b614de69190615ce5565b6001600160801b0380821660009081526010840160205260408120600c85015491929091161561521357600c84015460048201546002830154614de6926001600160801b03908116926148f8926151a99290811691600160801b900416614079565b6004880154600b89015461296c916001600160801b03600160801b918290048116926148f8926151dc9291041683615a5f565b60048901546151f4906001600160801b031642615a5f565b60058d015461296c9190600160801b90046001600160801b0316615d9e565b5092915050565b6000610989826001600160801b0316614cc5565b600054610100900460ff166149e65760405162461bcd60e51b8152600401610d9190615cf9565b600054610100900460ff1661527c5760405162461bcd60e51b8152600401610d9190615cf9565b6097805460ff19169055565b6000816152a8576040516308693c7b60e31b815260040160405180910390fd5b60006152b5600284615ce5565b9050676765c793fa10079d601b1b6152cf82600019615d87565b6152d99190615ce5565b8411156152f85760405162a748d160e21b815260040160405180910390fd5b8281615133676765c793fa10079d601b1b87615cc6565b60006020828403121561532157600080fd5b81356001600160e01b0319811681146114a357600080fd5b60006020828403121561534b57600080fd5b5035919050565b6001600160a01b038116811461212057600080fd5b803561537281615352565b919050565b6000806040838503121561538a57600080fd5b82359150602083013561539c81615352565b809150509250929050565b6001600160801b038116811461212057600080fd5b8035615372816153a7565b600080604083850312156153da57600080fd5b82356153e5816153a7565b946020939093013593505050565b6000806040838503121561540657600080fd5b82359150602083013561539c816153a7565b60008060006040848603121561542d57600080fd5b833567ffffffffffffffff8082111561544557600080fd5b818601915086601f83011261545957600080fd5b81358181111561546857600080fd5b87602082850101111561547a57600080fd5b60209283019550935050840135615490816153a7565b809150509250925092565b600061020082840312156154ae57600080fd5b50919050565b600080604083850312156154c757600080fd5b82356153e581615352565b6000806000606084860312156154e757600080fd5b8335925060208401356154f9816153a7565b9150604084013561549081615352565b600080600080600060a0868803121561552157600080fd5b853561552c816153a7565b9450602086013593506040860135615543816153a7565b92506060860135615553816153a7565b91506080860135615563816153a7565b809150509295509295909350565b6000806000806080858703121561558757600080fd5b843593506020850135615599816153a7565b925060408501356155a9816153a7565b915060608501356155b9816153a7565b939692955090935050565b8035801515811461537257600080fd5b600080604083850312156155e757600080fd5b823591506155f7602084016155c4565b90509250929050565b60006020828403121561561257600080fd5b81356114a381615352565b60006020828403121561562f57600080fd5b81356114a3816153a7565b6000806040838503121561564d57600080fd5b823561565881615352565b9150602083013561539c816153a7565b600080600080600060a0868803121561568057600080fd5b853594506020860135615692816153a7565b935060408601356156a2816153a7565b925060608601356156b2816153a7565b9150608086013561556381615352565b6001600160801b03948516815292841660208401529083166040830152909116606082015260800190565b600080600080600060a0868803121561570557600080fd5b8535615710816153a7565b945060208601359350604086013561572781615352565b9250606086013561555381615352565b60006020828403121561574957600080fd5b5051919050565b6001600160a01b0393841681526001600160801b03929092166020830152909116604082015260600190565b60208082526010908201526f14185d5cd8589b194e881c185d5cd95960821b604082015260600190565b6000602082840312156157b857600080fd5b81516114a3816153a7565b600080604083850312156157d657600080fd5b82516157e1816153a7565b602084015190925061539c816153a7565b634e487b7160e01b600052601160045260246000fd5b60006001600160801b0380831681851680830382111561582a5761582a6157f2565b01949350505050565b9283526001600160a01b039190911660208301526001600160801b0316604082015260600190565b60208152816020820152818360408301376000818301604090810191909152601f909201601f19160101919050565b60006020828403121561589c57600080fd5b815160ff811681146114a357600080fd5b6000602082840312156158bf57600080fd5b6114a3826155c4565b8135815261020081016158dd60208401615367565b6001600160a01b031660208301526158f760408401615367565b6001600160a01b03166040830152615911606084016153bc565b6001600160801b0316606083015261592b608084016153bc565b6001600160801b0316608083015261594560a084016153bc565b6001600160801b031660a083015261595f60c084016153bc565b6001600160801b031660c083015261597960e084016153bc565b6001600160801b031660e08301526101006159958482016153bc565b6001600160801b0316908301526101206159b08482016153bc565b6001600160801b0316908301526101406159cb8482016153bc565b6001600160801b0316908301526101606159e68482016153bc565b6001600160801b031690830152610180615a018482016153bc565b6001600160801b0316908301526101a0615a1c8482016153bc565b6001600160801b0316908301526101c0615a378482016153bc565b6001600160801b0316908301526101e0615a528482016155c4565b1515920191909152919050565b60006001600160801b0383811690831681811015615a7f57615a7f6157f2565b039392505050565b634e487b7160e01b600052601260045260246000fd5b60006001600160801b0380841680615ab757615ab7615a87565b92169190910692915050565b9384526001600160801b039283166020850152908216604084015216606082015260800190565b60008219821115615afd57615afd6157f2565b500190565b60005b83811015615b1d578181015183820152602001615b05565b8381111561501d5750506000910152565b7f416363657373436f6e74726f6c3a206163636f756e7420000000000000000000815260008351615b66816017850160208801615b02565b7001034b99036b4b9b9b4b733903937b6329607d1b6017918401918201528351615b97816028840160208801615b02565b01602801949350505050565b6020815260008251806020840152615bc2816040850160208701615b02565b601f01601f19169190910160400192915050565b600181815b80851115615c11578160001904821115615bf757615bf76157f2565b80851615615c0457918102915b93841c9390800290615bdb565b509250929050565b600082615c2857506001610989565b81615c3557506000610989565b8160018114615c4b5760028114615c5557615c71565b6001915050610989565b60ff841115615c6657615c666157f2565b50506001821b610989565b5060208310610133831016604e8410600b8410161715615c94575081810a610989565b615c9e8383615bd6565b8060001904821115615cb257615cb26157f2565b029392505050565b60006114a38383615c19565b6000816000190483118215151615615ce057615ce06157f2565b500290565b600082615cf457615cf4615a87565b500490565b6020808252602b908201527f496e697469616c697a61626c653a20636f6e7472616374206973206e6f74206960408201526a6e697469616c697a696e6760a81b606082015260800190565b634e487b7160e01b600052604160045260246000fd5b634e487b7160e01b600052603260045260246000fd5b600081615d7f57615d7f6157f2565b506000190190565b600082821015615d9957615d996157f2565b500390565b60006001600160801b0380831681851681830481118215151615615dc457615dc46157f2565b0294935050505056fe71840dc4906352362b0cdaf79870196c8e42acafade72d5d5a6d59291253ceb12344277e405079ec07749d374ba0b5862a4e45a6a05ac889dbb4a991c6f9354d27160668f6d81898b09bdae61c61d2c7d23fe33a52ae9b38e5b92f00ced3806ba2646970667358221220306be898b2c1eb91cd9390e9302219603ccf20cc4e7a9868384625687266a86564736f6c63430008090033",
  "deployedBytecode": "0x608060405234801561001057600080fd5b506004361061027f5760003560e01c8063a217fddf1161015c578063c6252dae116100ce578063dc3fbbbc11610087578063dc3fbbbc14610825578063ed156a8c14610838578063f3b0c7cc146108ef578063f3d1d26314610912578063f9ae48e014610925578063fe04d4c51461093857600080fd5b8063c6252dae146106a0578063c8954db9146106d3578063ce5be488146106e6578063d547741f146106f9578063d595408a1461070c578063db2de9521461081257600080fd5b8063b74e0b1311610120578063b74e0b1314610639578063c098dab81461064c578063c38262e31461065f578063c3d31fce14610672578063c4d66de81461067a578063c5ba771d1461068d57600080fd5b8063a217fddf146104f7578063a983dcc0146104ff578063aa5976c114610512578063aab19db414610613578063b4ce44e51461062657600080fd5b80635790966e116101f55780637ded35c5116101b95780637ded35c514610466578063817db73b146104a35780638f13efc4146104b657806391d14854146104c95780639611d5dd146104dc5780639f3a348e146104e457600080fd5b80635790966e146103b05780635c975abb146103c35780635e585644146103ce57806371075b79146103f457806373356df01461045357600080fd5b806336568abe1161024757806336568abe1461031857806339f735831461032b578063402d88831461035657806346d070121461035e5780634803779314610371578063518af6271461038457600080fd5b806301ffc9a714610284578063248a9ca3146102ac5780632f2ff15d146102dd57806330b12d05146102f2578063330ca03614610305575b600080fd5b61029761029236600461530f565b610958565b60405190151581526020015b60405180910390f35b6102cf6102ba366004615339565b60009081526065602052604090206001015490565b6040519081526020016102a3565b6102f06102eb366004615377565b61098f565b005b6102f06103003660046153c7565b6109ba565b6102f0610313366004615377565b610a72565b6102f0610326366004615377565b610d25565b61033e6103393660046153f3565b610da8565b6040516001600160801b0390911681526020016102a3565b6102f0610df5565b61033e61036c366004615418565b61143e565b6102f061037f36600461549b565b6114aa565b61033e610392366004615339565b600090815260ca60205260409020600f01546001600160801b031690565b6102f06103be3660046154b4565b6119f9565b60975460ff16610297565b6102976103dc366004615339565b600090815260ca602052604090206009015460ff1690565b610433610402366004615339565b600090815260ca6020526040902060078101546008909101546001600160801b03600160801b909204821692911690565b604080516001600160801b039384168152929091166020830152016102a3565b6102f06104613660046154d2565b611b26565b610479610474366004615509565b611d17565b604080516001600160801b03948516815292841660208401529216918101919091526060016102a3565b6102f06104b1366004615339565b611fef565b6102f06104c43660046153c7565b612029565b6102976104d7366004615377565b6120d4565b6102f06120ff565b61033e6104f2366004615339565b612123565b6102cf600081565b6102f061050d366004615339565b61215f565b6105a2610520366004615339565b600090815260ca602052604090206001810154600382015460048301546005840154600685015460078601546008909601546001600160a01b03909516966001600160801b0380861697600160801b96879004821697828716979687900483169683871696819004841695848116959082900485169493841693919092041690565b604080516001600160a01b03909c168c526001600160801b039a8b1660208d0152988a16988b019890985295881660608a0152938716608089015291861660a0880152851660c0870152841660e08601528316610100850152821661012084015216610140820152610160016102a3565b6102f06106213660046154b4565b612339565b610433610634366004615339565b612465565b610433610647366004615571565b6125e9565b61047961065a3660046155d4565b61282b565b6102f061066d3660046153c7565b612a50565b6102f0612b31565b6102f0610688366004615600565b612b52565b6102f061069b3660046153f3565b612c94565b61033e6106ae366004615339565b600090815260ca60205260409020600a0154630100000090046001600160801b031690565b6102f06106e136600461561d565b612ccf565b61033e6106f43660046153c7565b612f3c565b6102f0610707366004615377565b6131e8565b61079f61071a366004615339565b600090815260ca60205260409020600a810154600b820154600c830154600d840154600e9094015460ff80851696610100860482169662010000870490921695630100000090046001600160801b039081169581811695600160801b918290048316958382169591839004841694848316949284900483169383831693920490911690565b604080519c15158d529a151560208d0152981515998b01999099526001600160801b0396871660608b015294861660808a015292851660a089015290841660c0880152831660e08701528216610100860152811661012085015291821661014084015216610160820152610180016102a3565b6102f061082036600461563a565b61320e565b61033e610833366004615668565b61384c565b6108ad6108463660046153f3565b600091825260ca602090815260408084206001600160801b0393841685526010019091529091206001810154600282015460038301546004840154600590940154600160801b80850487169793871696948516959285169492819004831693910490911690565b604080516001600160801b03978816815295871660208701529386169385019390935290841660608401528316608083015290911660a082015260c0016102a3565b6109026108fd366004615571565b613af9565b6040516102a394939291906156c2565b6104336109203660046156ed565b613c0c565b6102f06109333660046153c7565b613ee4565b6102cf610946366004615600565b60c96020526000908152604090205481565b60006001600160e01b03198216637965db0b60e01b148061098957506301ffc9a760e01b6001600160e01b03198316145b92915050565b6000828152606560205260409020600101546109ab8133613f8f565b6109b58383613ff3565b505050565b600080516020615dce8339815191526109d38133613f8f565b600082815260ca60205260409020600a015460ff16610a0557604051630951899960e01b815260040160405180910390fd5b600082815260ca602090815260409182902060080180546001600160801b0319166001600160801b03871690811790915582519081529081018490527fe3ed7df90f4e708b201a97ff43820f24fa973238a9856a431e4c54ba31151bc991015b60405180910390a1505050565b600080516020615dce833981519152610a8b8133613f8f565b82610aa957604051635342e0a760e11b815260040160405180910390fd5b6001600160a01b038216610ad05760405163f15e745f60e01b815260040160405180910390fd5b600083815260ca6020526040902080548414610aff57604051630951899960e01b815260040160405180910390fd5b600a81015462010000900460ff1615610b2b5760405163235893eb60e21b815260040160405180910390fd5b600a8101805462ff0000191662010000179055600d8101546000906001600160801b03600160801b9091041615610cdc576002820154600183015460405163d15e005360e01b81526001600160a01b039182166004820152600092919091169063d15e00539060240160206040518083038186803b158015610bac57600080fd5b505afa158015610bc0573d6000803e3d6000fd5b505050506040513d601f19601f82011682018060405250810190610be49190615737565b600d840154909150610c0690600160801b90046001600160801b031682614079565b600d840180546001600160801b039081169091556002850154600089815260ca60205260409020600190810154908701549395506001600160a01b03918216936369328dec939190921691610c689187169060ff600160a01b909104166140a8565b886040518463ffffffff1660e01b8152600401610c8793929190615750565b602060405180830381600087803b158015610ca157600080fd5b505af1158015610cb5573d6000803e3d6000fd5b505050506040513d601f19601f82011682018060405250810190610cd99190615737565b50505b604080518681526001600160801b03831660208201527fdb941e881e2a4a824775895cb9b4908cbc030460e7356912047a04e2c8f3281691015b60405180910390a15050505050565b6001600160a01b0381163314610d9a5760405162461bcd60e51b815260206004820152602f60248201527f416363657373436f6e74726f6c3a2063616e206f6e6c792072656e6f756e636560448201526e103937b632b9903337b91039b2b63360891b60648201526084015b60405180910390fd5b610da482826140db565b5050565b600082815260ca602090815260408083206001600160801b038086168552601090910190925290912060040154600160801b900416806109895750676765c793fa10079d601b1b92915050565b60975460ff1615610e185760405162461bcd60e51b8152600401610d919061577c565b600080516020615dee833981519152610e318133613f8f565b33600090815260c9602090815260408083205480845260ca909252909120600a810154610100900460ff1615610e7a5760405163056efc7b60e01b815260040160405180910390fd5b600a810154630100000090046001600160801b0316610eac57604051631e13931b60e21b815260040160405180910390fd5b600a8101544263010000009091046001600160801b031611808015610ed65750600982015460ff16155b15610ef457604051632b604eef60e01b815260040160405180910390fd5b610efd82614142565b604051631d398d8d60e21b81526004810183905260009081908190819073__$ca2bba44fde77ee89f0ecd8cad9e71ea90$__906374e636349060240160206040518083038186803b158015610f5157600080fd5b505af4158015610f65573d6000803e3d6000fd5b505050506040513d601f19601f82011682018060405250810190610f8991906157a6565b600c870154909150600160801b90046001600160801b03165b60038701546001600160801b03600160801b9091048116908216116110c557604051634de6e91560e01b8152600481018890526001600160801b03808316602483015283166044820152600090819073__$ca2bba44fde77ee89f0ecd8cad9e71ea90$__90634de6e91590606401604080518083038186803b15801561102757600080fd5b505af415801561103b573d6000803e3d6000fd5b505050506040513d601f19601f8201168201806040525081019061105f91906157c3565b909250905061106e8183615808565b6110789086615808565b94506110848188615808565b965060006110938a8589614252565b9050808061109e5750865b60048b01549097506110be93506001600160801b03169150839050615808565b9050610fa2565b50604051635ccb5f2f60e01b8152600481018790526001600160801b038316602482015260009073__$ca2bba44fde77ee89f0ecd8cad9e71ea90$__90635ccb5f2f9060440160206040518083038186803b15801561112357600080fd5b505af4158015611137573d6000803e3d6000fd5b505050506040513d601f19601f8201168201806040525081019061115b91906157a6565b90506111678184615808565b604051636839a26160e01b815290935073__$ca2bba44fde77ee89f0ecd8cad9e71ea90$__90636839a261906111a5908a9033908890600401615833565b60006040518083038186803b1580156111bd57600080fd5b505af41580156111d1573d6000803e3d6000fd5b50505060068801546111ed91506001600160801b031642615808565b600d880180546001600160801b039283166001600160801b031991821617909155600b890180549091169055600089815260cb602052604081208054849391929161123a91859116615808565b92506101000a8154816001600160801b0302191690836001600160801b031602179055508287600a0160020160008282829054906101000a90046001600160801b03166112879190615808565b82546101009290920a6001600160801b038181021990931691831602179091556006890154600a8a01546112cf9350600160801b909104821691630100000090910416615808565b6001600160801b031642111561134f57600c870154600d880154604080516001600160801b038088168252808a16602083015280861692820192909252928116606084015216608082015288907f0a8858cdd0551a157921eb1032d7f466feec7752fffc78f8b3c52bb435e331b09060a0015b60405180910390a261140f565b600a8701544263010000009091046001600160801b031611156113b957600c870154600d8801546040518a927fa2b36883c3fcb197b500ec4377e7899f16820387a05442f947c237578dd03f819261134292889287926001600160801b03918216929116906156c2565b600c870154600d8801546040518a927fcde954d9667cdba90232367e5f743ea631856cdec43e595635130c08e20ffa939261140692889287926001600160801b03918216929116906156c2565b60405180910390a25b505050600a840180546301000000600160981b0319169055505050600b0180546001600160801b031690555050565b60008060ca6000868660405160200161145892919061585b565b60408051601f19818403018152918152815160209283012083528282019390935290820160009081206001600160801b03808816835260109091019092529190912060040154169150505b9392505050565b600080516020615dce8339815191526114c38133613f8f565b6114cc82614496565b604051806102200160405280836000013581526020018360200160208101906114f59190615600565b6001600160a01b031681526020018360200160208101906115169190615600565b6001600160a01b031663313ce5676040518163ffffffff1660e01b815260040160206040518083038186803b15801561154e57600080fd5b505afa158015611562573d6000803e3d6000fd5b505050506040513d601f19601f82011682018060405250810190611586919061588a565b60ff16815260200161159e6060850160408601615600565b6001600160a01b031681526020016115bc608085016060860161561d565b6001600160801b031681526020016115da60a085016080860161561d565b6001600160801b031681526020016115f860c0850160a0860161561d565b6001600160801b0316815260200161161660e0850160c0860161561d565b6001600160801b03168152602001611635610100850160e0860161561d565b6001600160801b031681526020016116556101208501610100860161561d565b6001600160801b031681526020016116756101408501610120860161561d565b6001600160801b031681526020016116956101608501610140860161561d565b6001600160801b031681526020016116b56101808501610160860161561d565b6001600160801b031681526020016116d56101a08501610180860161561d565b6001600160801b031681526020016116f56101c085016101a0860161561d565b6001600160801b031681526020016117156101e085016101c0860161561d565b6001600160801b0316815260200161173561020085016101e086016158ad565b151590528235600090815260ca602090815260409182902083518155908301516001820180548585015160ff16600160a01b026001600160a81b03199091166001600160a01b0393841617179055606080850151600284018054919093166001600160a01b03199190911617909155608084015160a08501516001600160801b03908116600160801b90810292821692909217600385015560c086015160e08701518216830290821617600485015561010086015161012087015182168302908216176005850155610140860151610160870151821683029082161760068501556101808601516101a0870151821683029082161760078501556101c08601516101e087015182169092029116176008830155610200909301516009909101805491151560ff19909216919091179055611873918401908401615600565b6001600160a01b031663d15e00536118916040850160208601615600565b6040516001600160e01b031960e084901b1681526001600160a01b03909116600482015260240160206040518083038186803b1580156118d057600080fd5b505afa1580156118e4573d6000803e3d6000fd5b505050506040513d601f19601f820116820180604052508101906119089190615737565b8235600090815260ca602052604090819020600e0180546001600160801b0319166001600160801b039390931692909217909155517fe71e8fe4301d57c752d83a095e456f17300a88ea18c7daef3b9e035a9ed1aa659061196a9084906158c8565b60405180910390a18135600090815260ca6020526040902060080154600160801b90046001600160801b0316610da4578135600090815260ca602052604090819020600a8101805460ff191660011790555490517f843e4390b5f579b124a883bb556fa80a421be9d5301b2e7267641cc23ea077e4916119ed9190815260200190565b60405180910390a15050565b600080516020615dce833981519152611a128133613f8f565b81611a3057604051635342e0a760e11b815260040160405180910390fd5b6001600160a01b038316611a575760405163f15e745f60e01b815260040160405180910390fd5b600082815260ca60205260409020548214611a8557604051630951899960e01b815260040160405180910390fd5b6001600160a01b038316600090815260c960205260409020548214611abd5760405163e2106cd360e01b815260040160405180910390fd5b611ad5600080516020615dee833981519152846131e8565b6001600160a01b038316600081815260c96020908152604080832092909255815192835282018490527fbca7a5cbff6e29c636e92cf5ee4128086f7e982204b0e420cb972819f12f88fe9101610a65565b600080516020615dce833981519152611b3f8133613f8f565b600084815260ca6020526040812060010154611b6f906001600160801b03861690600160a01b900460ff16614667565b600086815260ca60205260409020549091508514611ba057604051630951899960e01b815260040160405180910390fd5b600085815260cb60205260409020546001600160801b039081169082161115611bdc57604051639f747ffd60e01b815260040160405180910390fd5b600085815260cb602052604081208054839290611c039084906001600160801b0316615a5f565b82546001600160801b039182166101009390930a928302919092021990911617905550600085815260ca6020526040908190206002810154600191909101549151631a4ca37b60e21b81526001600160a01b03918216926369328dec92611c739291169088908890600401615750565b602060405180830381600087803b158015611c8d57600080fd5b505af1158015611ca1573d6000803e3d6000fd5b505050506040513d601f19601f82011682018060405250810190611cc59190615737565b50604080518681526001600160801b03831660208201526001600160a01b038516918101919091527f150a2e161f87df4cc1b0c4345f9779d342fa2bcc2bf767efbb54005e811079f190606001610d16565b6000806000611d2860975460ff1690565b15611d455760405162461bcd60e51b8152600401610d919061577c565b600080516020615e0e833981519152611d5e8133613f8f565b600088815260ca60205260409020600a81015462010000900460ff1615611d985760405163df00603160e01b815260040160405180910390fd5b6000611da68a8a8d8a6125e9565b5090506001600160801b03811615611dd157604051630d290b7960e31b815260040160405180910390fd5b60038201546001600160801b039081169089161015611e035760405163fca6b5cd60e01b815260040160405180910390fd5b60038201546001600160801b03600160801b90910481169089161115611e3c576040516393c139e960e01b815260040160405180910390fd5b600482015460038301546001600160801b0391821691611e5d91168a615a5f565b611e679190615a9d565b6001600160801b031615611e8e5760405163270955a760e01b815260040160405180910390fd5b6000611eae611e9e848c8b61468f565b6001600160801b038e1690614079565b604051636ef48f5760e01b815290915073__$ca2bba44fde77ee89f0ecd8cad9e71ea90$__90636ef48f5790611eee9086908e9086908e90600401615ac3565b60206040518083038186803b158015611f0657600080fd5b505af4158015611f1a573d6000803e3d6000fd5b505050506040513d601f19601f82011682018060405250810190611f3e91906157a6565b604051631cd2ca1960e11b8152600481018590526001600160801b03808c1660248301528216604482015290955073__$ca2bba44fde77ee89f0ecd8cad9e71ea90$__906339a5943290606401604080518083038186803b158015611fa257600080fd5b505af4158015611fb6573d6000803e3d6000fd5b505050506040513d601f19601f82011682018060405250810190611fda91906157c3565b909d909c50949a509398505050505050505050565b60975460ff16156120125760405162461bcd60e51b8152600401610d919061577c565b600081815260ca60205260409020610da481614142565b600080516020615dce8339815191526120428133613f8f565b600082815260ca6020526040902054821461207057604051630951899960e01b815260040160405180910390fd5b600082815260ca602090815260409182902060040180546001600160801b03908116600160801b9188169182021790915582519081529081018490527f796282fae5ebb944d98f910eb76fbde5bc1dc06dd9da67632dc4561d96e7c30d9101610a65565b60009182526065602090815260408084206001600160a01b0393909316845291905290205460ff1690565b600080516020615dce8339815191526121188133613f8f565b6121206146da565b50565b600081815260ca602090815260408083206001015460cb909252822054610989916001600160801b0390911690600160a01b900460ff166140a8565b600080516020615dce8339815191526121788133613f8f565b600082815260ca60205260409020600a810154610100900460ff16156121b0576040516209157360e41b815260040160405180910390fd5b600a810154630100000090046001600160801b03166121e257604051633aa99c9b60e01b815260040160405180910390fd5b6006810154600a820154612210916001600160801b03600160801b9091048116916301000000900416615808565b6001600160801b031642101561223957604051632b797db960e11b815260040160405180910390fd5b600a8101805461010061ff0019909116179055600f810180546001600160801b031916426001600160801b0316179055604051631d8e67b960e31b81526004810182905260009073__$ca2bba44fde77ee89f0ecd8cad9e71ea90$__9063ec733dc89060240160206040518083038186803b1580156122b757600080fd5b505af41580156122cb573d6000803e3d6000fd5b505050506040513d601f19601f820116820180604052508101906122ef91906157a6565b604080518681526001600160801b03831660208201529192507f4eb384de78f7c7a5dd1dc12268658939004561d9dc1572c852f6c0873cca67b2910160405180910390a150505050565b600080516020615dce8339815191526123528133613f8f565b8161237057604051635342e0a760e11b815260040160405180910390fd5b6001600160a01b0383166123975760405163f15e745f60e01b815260040160405180910390fd5b600082815260ca602052604090205482146123c557604051630951899960e01b815260040160405180910390fd5b6001600160a01b038316600090815260c96020526040902054156123fc5760405163a8b7bea160e01b815260040160405180910390fd5b612414600080516020615dee8339815191528461098f565b6001600160a01b038316600081815260c96020908152604091829020859055815192835282018490527f3a3825a3ceba48aadc12396e4232a6098dea62688b3cbc06d0f1f3ed26fbcc259101610a65565b600081815260ca60205260408120600a8101548291908190630100000090046001600160801b03166124b75760048201546124b090600160801b90046001600160801b031686612f3c565b93506125e2565b600381015460009081906001600160801b03165b600484015460038501546124f2916001600160801b0390811691600160801b900416615808565b6001600160801b0316816001600160801b0316146125c9576001600160801b03808216600090815260108701602052604090206003015461253c91600160801b909104168261476d565b6125469084615808565b6001600160801b03808316600090815260108801602052604090206003015491945061257a91600160801b90041683615808565b6001600160801b0380831660009081526010880160205260409020600301549193506125a7911687615808565b60048501549096506125c2906001600160801b031682615808565b90506124cb565b6125dc6001600160801b03841683614785565b96505050505b5050915091565b600084815260ca602052604080822060028101546001820154925163d15e005360e01b81526001600160a01b03938416600482015284938492169063d15e00539060240160206040518083038186803b15801561264557600080fd5b505afa158015612659573d6000803e3d6000fd5b505050506040513d601f19601f8201168201806040525081019061267d9190615737565b600e8301549091506001600160801b03600160801b909104811690861611156126c05760006126b56001600160801b03881683614079565b935093505050612822565b604051633d29c20960e01b815260009073__$ca2bba44fde77ee89f0ecd8cad9e71ea90$__90633d29c209906127009086908c908c908c90600401615ac3565b604080518083038186803b15801561271757600080fd5b505af415801561272b573d6000803e3d6000fd5b505050506040513d601f19601f8201168201806040525081019061274f91906157c3565b9095509050600080612762858b8661479d565b5050604051632ca9e11360e11b8152919350915060009073__$ca2bba44fde77ee89f0ecd8cad9e71ea90$__90635953c226906127a99089908f9089908890600401615ac3565b60206040518083038186803b1580156127c157600080fd5b505af41580156127d5573d6000803e3d6000fd5b505050506040513d601f19601f820116820180604052508101906127f991906157a6565b90508061280f6001600160801b03861685614079565b6128199190615808565b96505050505050505b94509492505050565b600082815260ca6020526040808220905163839a9c2960e01b81526004810191909152821515602482015281908190819073__$ca2bba44fde77ee89f0ecd8cad9e71ea90$__9063839a9c299060440160206040518083038186803b15801561289357600080fd5b505af41580156128a7573d6000803e3d6000fd5b505050506040513d601f19601f820116820180604052508101906128cb91906157a6565b600087815260ca6020526040908190209051631d398d8d60e21b815291925061297b91839173__$ca2bba44fde77ee89f0ecd8cad9e71ea90$__916374e636349161291c9160040190815260200190565b60206040518083038186803b15801561293457600080fd5b505af4158015612948573d6000803e3d6000fd5b505050506040513d601f19601f8201168201806040525081019061296c91906157a6565b6001600160801b03169061476d565b600087815260ca6020526040902090935073__$ca2bba44fde77ee89f0ecd8cad9e71ea90$__90635ccb5f2f906129b28685615808565b6040516001600160e01b031960e085901b16815260048101929092526001600160801b0316602482015260440160206040518083038186803b1580156129f757600080fd5b505af4158015612a0b573d6000803e3d6000fd5b505050506040513d601f19601f82011682018060405250810190612a2f91906157a6565b915082612a3c8383615808565b612a469190615808565b9350509250925092565b600080516020615dce833981519152612a698133613f8f565b600082815260ca60205260409020600a015460ff16612a9b57604051630951899960e01b815260040160405180910390fd5b670de0b6b3a7640000836001600160801b03161115612acd57604051633dedb6cb60e21b815260040160405180910390fd5b600082815260ca602090815260409182902060070180546001600160801b03908116600160801b9188169182021790915582519081529081018490527f738c64322e7db945ad7f301e0af4f8b02a5a5cb336140b950d2a7b4340569b7d9101610a65565b600080516020615dce833981519152612b4a8133613f8f565b612120614957565b600054610100900460ff16612b6d5760005460ff1615612b71565b303b155b612bd45760405162461bcd60e51b815260206004820152602e60248201527f496e697469616c697a61626c653a20636f6e747261637420697320616c72656160448201526d191e481a5b9a5d1a585b1a5e995960921b6064820152608401610d91565b600054610100900460ff16158015612bf6576000805461ffff19166101011790555b612bfe6149af565b6001600160a01b038216612c10573391505b612c1b600083613ff3565b612c33600080516020615dce83398151915283613ff3565b612c59600080516020615dee833981519152600080516020615dce8339815191526149e8565b612c7f600080516020615e0e833981519152600080516020615dce8339815191526149e8565b8015610da4576000805461ff00191690555050565b60975460ff1615612cb75760405162461bcd60e51b8152600401610d919061577c565b600082815260ca602052604090206109b58183614a33565b60975460ff1615612cf25760405162461bcd60e51b8152600401610d919061577c565b600080516020615dee833981519152612d0b8133613f8f565b33600090815260c96020908152604080832054835260ca90915281206001810154909190612d4d906001600160801b03861690600160a01b900460ff16614667565b604051636839a26160e01b815290915073__$ca2bba44fde77ee89f0ecd8cad9e71ea90$__90636839a26190612d8b90859033908690600401615833565b60006040518083038186803b158015612da357600080fd5b505af4158015612db7573d6000803e3d6000fd5b5050604051631a727b1960e31b8152600481018590526001600160801b03841660248201526000925073__$ca2bba44fde77ee89f0ecd8cad9e71ea90$__915063d393d8c89060440160206040518083038186803b158015612e1857600080fd5b505af4158015612e2c573d6000803e3d6000fd5b505050506040513d601f19601f82011682018060405250810190612e5091906157a6565b600a84015490915060ff16158015612e9957506008830154600d8401546001600160801b03600160801b92839004811692612e8d92041683614079565b6001600160801b031610155b15612eea57600a8301805460ff1916600117905582546040517f843e4390b5f579b124a883bb556fa80a421be9d5301b2e7267641cc23ea077e491612ee19190815260200190565b60405180910390a15b33600090815260c960209081526040918290205482519081526001600160801b038516918101919091527f4e4bba6240da8987fe01edc7c3e8498d355a5f0ad7eb7ff2995f3393d8c030a79101610d16565b600081815260ca60205260408120600a8101548190630100000090046001600160801b0316151580612f775750600a820154610100900460ff165b80612f8c5750600a82015462010000900460ff165b80612f9c5750600a82015460ff16155b15612fac57600092505050610989565b60048201546001600160801b03600160801b90910481169086161115612fe4576004820154600160801b90046001600160801b031694505b6002810154600182015460405163d15e005360e01b81526001600160a01b039182166004820152600092919091169063d15e00539060240160206040518083038186803b15801561303457600080fd5b505afa158015613048573d6000803e3d6000fd5b505050506040513d601f19601f8201168201806040525081019061306c9190615737565b60038401549091506001600160801b03168660005b600485015460038601546130a8916001600160801b0390811691600160801b900416615808565b6001600160801b0316836001600160801b0316146131955760006130cd87858761479d565b5050506001600160801b03808616600090815260108a016020526040812060020154929350916130fe911683614079565b9050836001600160801b0316816001600160801b0316101561314a576131248185615a5f565b93506131396001600160801b0382168661476d565b6131439084615808565b9250613174565b61315d6001600160801b0385168661476d565b6131679084615808565b9250600093505050613195565b5050600485015461318e906001600160801b031684615808565b9250613081565b816001600160801b0316896001600160801b031614156131be5760009650505050505050610989565b6131db6131cb838b615a5f565b6001600160801b03831690614785565b9998505050505050505050565b6000828152606560205260409020600101546132048133613f8f565b6109b583836140db565b60975460ff16156132315760405162461bcd60e51b8152600401610d919061577c565b600080516020615dee83398151915261324a8133613f8f565b33600090815260c9602090815260408083205480845260ca909252909120600a81015462010000900460ff16156132945760405163df00603160e01b815260040160405180910390fd5b600a810154610100900460ff16156132bf5760405163056efc7b60e01b815260040160405180910390fd5b600a810154630100000090046001600160801b0316158015906132f55750600a810154630100000090046001600160801b031642115b1561331357604051630fda546f60e41b815260040160405180910390fd5b6001810154600090613339906001600160801b03871690600160a01b900460ff16614667565b6007830154909150600090613361906001600160801b0380851691600160801b90041661476d565b9050600061336f8284615a5f565b6004850154600b8601549192506001600160801b03600160801b9182900481169261339e928792910416615808565b6001600160801b031611156133c65760405163aab4fe5160e01b815260040160405180910390fd5b600d8401546001600160801b03164210156133f45760405163af26604960e01b815260040160405180910390fd5b6133fd84614142565b600c8401546001600160801b03908116908416111561342f57604051634421566d60e11b815260040160405180910390fd5b6004840154600c850154849160009161345b916001600160801b0390811691600160801b900416615a5f565b90505b6000826001600160801b031611801561348e575060038601546001600160801b03600160801b9091048116908216105b156135f95760048601546134ab906001600160801b031682615808565b6001600160801b03808216600090815260108901602052604090206002015491925016156135f457604051634c5e028760e11b8152600481018790526001600160801b03808316602483015283166044820152600090819073__$ca2bba44fde77ee89f0ecd8cad9e71ea90$__906398bc050e90606401604080518083038186803b15801561353957600080fd5b505af415801561354d573d6000803e3d6000fd5b505050506040513d601f19601f8201168201806040525081019061357191906157c3565b60405163ca8701f360e01b8152919350915073__$ca2bba44fde77ee89f0ecd8cad9e71ea90$__9063ca8701f3906135b3908b90879087908790600401615ac3565b60006040518083038186803b1580156135cb57600080fd5b505af41580156135df573d6000803e3d6000fd5b5050505080846135ef9190615a5f565b935050505b61345e565b6001600160801b0382161561362157604051630f0b666f60e01b815260040160405180910390fd5b600a860154630100000090046001600160801b03166136bc576005860154613652906001600160801b031642615aea565b600a870180546301000000600160981b03191663010000006001600160801b0393841602179055604080518583168152918616602083015288917f02936c9aa03a5ee03914509058d0ab4fc30b8f8cb97922e9f8885bf0651263c0910160405180910390a2613702565b604080516001600160801b0380861682528616602082015288917f2a5361599b6218cb63221765b277f7026a473b717f40193ee25deae176e748dc910160405180910390a25b600087815260cb6020526040812080548692906137299084906001600160801b0316615808565b92506101000a8154816001600160801b0302191690836001600160801b031602179055508486600a0160010160108282829054906101000a90046001600160801b03166137769190615808565b82546101009290920a6001600160801b03818102199093169183160217909155600288015460018901546001600160a01b0391821693506369328dec92918116916137ce9190881690600160a01b900460ff166140a8565b8d6040518463ffffffff1660e01b81526004016137ed93929190615750565b602060405180830381600087803b15801561380757600080fd5b505af115801561381b573d6000803e3d6000fd5b505050506040513d601f19601f8201168201806040525081019061383f9190615737565b5050505050505050505050565b600061385a60975460ff1690565b156138775760405162461bcd60e51b8152600401610d919061577c565b600080516020615e0e8339815191526138908133613f8f565b600087815260ca60205260409020600e8101546138be90600160801b90046001600160801b03166001615808565b6001600160801b0316856001600160801b031611156138f05760405163019894df60e21b815260040160405180910390fd5b600e8101546001600160801b03600160801b90910481169086161180158161393657506001600160801b0380891660009081526010840160205260409020600201541615155b80613967575080801561396757506001600160801b0380891660009081526010840160205260409020600301541615155b6139845760405163436ec62560e01b815260040160405180910390fd5b6000876001600160801b0316116139ae57604051636ba603b360e11b815260040160405180910390fd5b604051636ef48f5760e01b815273__$ca2bba44fde77ee89f0ecd8cad9e71ea90$__90636ef48f57906139eb9085908c908c908c90600401615ac3565b60206040518083038186803b158015613a0357600080fd5b505af4158015613a17573d6000803e3d6000fd5b505050506040513d601f19601f82011682018060405250810190613a3b91906157a6565b600283015460018401549195506001600160a01b03908116916369328dec91811690613a7b906001600160801b03891690600160a01b900460ff166140a8565b886040518463ffffffff1660e01b8152600401613a9a93929190615750565b602060405180830381600087803b158015613ab457600080fd5b505af1158015613ac8573d6000803e3d6000fd5b505050506040513d601f19601f82011682018060405250810190613aec9190615737565b5050505095945050505050565b600084815260ca60205260408120600a8101548291829182919060ff16613b335760405163c6d9b58160e01b815260040160405180910390fd5b604051633d29c20960e01b815273__$ca2bba44fde77ee89f0ecd8cad9e71ea90$__90633d29c20990613b709084908c908c908c90600401615ac3565b604080518083038186803b158015613b8757600080fd5b505af4158015613b9b573d6000803e3d6000fd5b505050506040513d601f19601f82011682018060405250810190613bbf91906157c3565b95509250613be1613bd1828a8961468f565b6001600160801b03871690614aff565b935080600a0160000160039054906101000a90046001600160801b0316915050945094509450949050565b600080613c1b60975460ff1690565b15613c385760405162461bcd60e51b8152600401610d919061577c565b600080516020615e0e833981519152613c518133613f8f565b600087815260ca60205260409020600a810154610100900460ff1615613c8a5760405163056efc7b60e01b815260040160405180910390fd5b600a81015460ff16613caf5760405163c6d9b58160e01b815260040160405180910390fd5b600a81015462010000900460ff1615613cdb5760405163df00603160e01b815260040160405180910390fd5b60018101546001600160a01b03888116911614613d0b5760405163623957d360e01b815260040160405180910390fd5b60038101546001600160801b03908116908a161015613d3d5760405163fca6b5cd60e01b815260040160405180910390fd5b60038101546001600160801b03600160801b9091048116908a161115613d76576040516393c139e960e01b815260040160405180910390fd5b600481015460038201546001600160801b0391821691613d9791168b615a5f565b613da19190615a9d565b6001600160801b031615613dc85760405163270955a760e01b815260040160405180910390fd5b604051631cd2ca1960e11b8152600481018290526001600160801b03808b166024830152861660448201526000945084935073__$ca2bba44fde77ee89f0ecd8cad9e71ea90$__906339a5943290606401604080518083038186803b158015613e3057600080fd5b505af4158015613e44573d6000803e3d6000fd5b505050506040513d601f19601f82011682018060405250810190613e6891906157c3565b604051636839a26160e01b8152919550935073__$ca2bba44fde77ee89f0ecd8cad9e71ea90$__90636839a26190613ea89084908a908a90600401615833565b60006040518083038186803b158015613ec057600080fd5b505af4158015613ed4573d6000803e3d6000fd5b5050505050509550959350505050565b600080516020615dce833981519152613efd8133613f8f565b600082815260ca60205260409020548214613f2b57604051630951899960e01b815260040160405180910390fd5b600082815260ca602090815260409182902060050180546001600160801b03908116600160801b9188169182021790915582519081529081018490527f7016612eedf00917c664926ac3c77a4800fefe912e91632376418e8fc6e621619101610a65565b613f9982826120d4565b610da457613fb1816001600160a01b03166014614b29565b613fbc836020614b29565b604051602001613fcd929190615b2e565b60408051601f198184030181529082905262461bcd60e51b8252610d9191600401615ba3565b613ffd82826120d4565b610da45760008281526065602090815260408083206001600160a01b03851684529091529020805460ff191660011790556140353390565b6001600160a01b0316816001600160a01b0316837f2f8788117e7eff1d82e926ec794901d17c78024a50270940304540a733656f0d60405160405180910390a45050565b60006114a36140a3836001600160801b031661409d866001600160801b0316614cc5565b90614d04565b614d95565b6000670de0b6b3a76400006140be83600a615cba565b6140d1906001600160801b038616615cc6565b6114a39190615ce5565b6140e582826120d4565b15610da45760008281526065602090815260408083206001600160a01b0385168085529252808320805460ff1916905551339285917ff6391f5c32d9c69d2a47ea670b442974b53935d1edc7fd64eb21e047a839171b9190a45050565b6002810154600182015460405163d15e005360e01b81526001600160a01b039182166004820152600092919091169063d15e00539060240160206040518083038186803b15801561419257600080fd5b505afa1580156141a6573d6000803e3d6000fd5b505050506040513d601f19601f820116820180604052508101906141ca9190615737565b600c830154909150600160801b90046001600160801b03165b60038301546001600160801b03600160801b90910481169082161161422c5761420d838284614dee565b6004830154614225906001600160801b031682615808565b90506141e3565b50600e9190910180546001600160801b0319166001600160801b03909216919091179055565b6001600160801b0380831660009081526010850160205260408120600381015491929091161561448b57826142ce57600e85018054600191906010906142a9908490600160801b90046001600160801b0316615808565b92506101000a8154816001600160801b0302191690836001600160801b031602179055505b6004810154600e8601546142f6916001600160801b0391821691600160801b90910416615023565b600e86018054600160801b908190046001600160801b0390811660009081526020869052604080822080546001600160801b031916968416969096179095559254919091048116825291812054600384015491926143579281169116614079565b600e870154600384015491925061437a916001600160801b039081169116614079565b600c870180546000906143979084906001600160801b0316615808565b92506101000a8154816001600160801b0302191690836001600160801b03160217905550808260010160108282829054906101000a90046001600160801b03166143e19190615808565b82546101009290920a6001600160801b038181021990931691831602179091556001840154600285018054600160801b90920483166001600160801b03199283161790556003850180549091169055875460408051918252888316602083015291841691810191909152851560608201527f6ed432acb9733bda7d5f090ab5f35a9a2e19974dba6ae2dd7078c84b92388f96915060800160405180910390a16001925050506114a3565b506000949350505050565b6144a660c0820160a0830161561d565b6144b6608083016060840161561d565b6144c660a084016080850161561d565b6144d09190615a5f565b6144da9190615a9d565b6001600160801b031615614501576040516334cc2fed60e01b815260040160405180910390fd5b803561452057604051635342e0a760e11b815260040160405180910390fd5b8035600090815260ca60205260409020541561454f57604051631953bac160e11b815260040160405180910390fd5b60006145616060830160408401615600565b6001600160a01b031663d15e005361457f6040850160208601615600565b6040516001600160e01b031960e084901b1681526001600160a01b03909116600482015260240160206040518083038186803b1580156145be57600080fd5b505afa1580156145d2573d6000803e3d6000fd5b505050506040513d601f19601f820116820180604052508101906145f69190615737565b9050676765c793fa10079d601b1b8110156146245760405163fee5a60360e01b815260040160405180910390fd5b670de0b6b3a764000061463f6101a08401610180850161561d565b6001600160801b03161115610da457604051633dedb6cb60e21b815260040160405180910390fd5b600061467482600a615cba565b6140d1670de0b6b3a76400006001600160801b038616615cc6565b6001600160801b03808316600090815260108501602090815260408083208585168452918290529091205490911690816146d257676765c793fa10079d601b1b91505b509392505050565b60975460ff166147235760405162461bcd60e51b815260206004820152601460248201527314185d5cd8589b194e881b9bdd081c185d5cd95960621b6044820152606401610d91565b6097805460ff191690557f5db9ee0a495bf2e6ff9c91a7834c1ba4fdd244a5e8aa4e537bd38aeae4b073aa335b6040516001600160a01b03909116815260200160405180910390a1565b60006114a36001600160801b0384811690841661503b565b60006114a36001600160801b038481169084166150b2565b6001600160801b0380831660009081526010850160205260408120600481015491928392839283929091600160801b9004166147e75785600080600094509450945094505061494e565b60048101546005820154600e8a01546001600160801b03600160801b938490048116985092820483169650600092918216911611156148345750600e8801546001600160801b0316614844565b5060058101546001600160801b03165b61484e8188615a5f565b925061485a8989615147565b600d8a015490945060009061487f90600160801b90046001600160801b031689614079565b9050806001600160801b0316856001600160801b0316111561489f578094505b600a8a0154630100000090046001600160801b0316614919576148c28488615808565b60028401549097506001600160801b031615614914576002830154614907906001600160801b03908116906148f890881661521a565b6001600160801b031690614785565b6149119088615808565b96505b61494a565b60028301548590614933906001600160801b031686614079565b61493d9190615808565b6149479087615808565b95505b5050505b93509350935093565b60975460ff161561497a5760405162461bcd60e51b8152600401610d919061577c565b6097805460ff191660011790557f62e78cea01bee320cd4e420270b5ea74000d11b0c9f74754ebdbfc544b05a2586147503390565b600054610100900460ff166149d65760405162461bcd60e51b8152600401610d9190615cf9565b6149de61522e565b6149e6615255565b565b600082815260656020526040808220600101805490849055905190918391839186917fbd79b86ffe0ab8e8776151514217cd7cacd52c909f66475c3af44e129f0b00ff9190a4505050565b6002820154600183015460405163d15e005360e01b81526001600160a01b039182166004820152600092919091169063d15e00539060240160206040518083038186803b158015614a8357600080fd5b505afa158015614a97573d6000803e3d6000fd5b505050506040513d601f19601f82011682018060405250810190614abb9190615737565b9050614ac8838383614dee565b6001600160801b039182166000908152601090930160205260409092206005018054919092166001600160801b0319909116179055565b60006114a36140a3836001600160801b0316614b23866001600160801b0316614cc5565b90615288565b60606000614b38836002615cc6565b614b43906002615aea565b67ffffffffffffffff811115614b5b57614b5b615d44565b6040519080825280601f01601f191660200182016040528015614b85576020820181803683370190505b509050600360fc1b81600081518110614ba057614ba0615d5a565b60200101906001600160f81b031916908160001a905350600f60fb1b81600181518110614bcf57614bcf615d5a565b60200101906001600160f81b031916908160001a9053506000614bf3846002615cc6565b614bfe906001615aea565b90505b6001811115614c76576f181899199a1a9b1b9c1cb0b131b232b360811b85600f1660108110614c3257614c32615d5a565b1a60f81b828281518110614c4857614c48615d5a565b60200101906001600160f81b031916908160001a90535060049490941c93614c6f81615d70565b9050614c01565b5083156114a35760405162461bcd60e51b815260206004820181905260248201527f537472696e67733a20686578206c656e67746820696e73756666696369656e746044820152606401610d91565b600080614cd6633b9aca0084615cc6565b905082614ce7633b9aca0083615ce5565b146109895760405162a748d160e21b815260040160405180910390fd5b6000821580614d11575081155b15614d1e57506000610989565b81614d356002676765c793fa10079d601b1b615ce5565b614d4190600019615d87565b614d4b9190615ce5565b831115614d6a5760405162a748d160e21b815260040160405180910390fd5b676765c793fa10079d601b1b614d81600282615ce5565b614d8b8486615cc6565b6140d19190615aea565b600080614da76002633b9aca00615ce5565b90506000614db58483615aea565b905081811015614dd8576040516307af724160e11b815260040160405180910390fd5b614de6633b9aca0082615ce5565b949350505050565b6001600160801b038083166000908152601085016020526040902060048101549091429116101561501d576000808080614e2988888861479d565b92965090945092509050614e466001600160801b03831687614aff565b600d89018054601090614e6a908490600160801b90046001600160801b0316615a5f565b82546101009290920a6001600160801b038181021990931691831602179091556002870154614e9b92501682614079565b614ea59083615808565b600c89018054600090614ec29084906001600160801b0316615808565b92506101000a8154816001600160801b0302191690836001600160801b0316021790555060008560050160109054906101000a90046001600160801b031684614f0b9190615a5f565b6004870154909150600160801b90046001600160801b0316614f8b576005860180546001600160801b0319166001600160801b038981169182179092558a5460408051918252928b166020820152918201527f1ffcce3f36329128f865c47cacfc17ad27e65f7039d7aacd9d6350644c465a919060600160405180910390a15b6005860180546001600160801b03908116600160801b8783168102919091179092556001600160801b03198782168302164282161760048901558a54600d8c01547fda58df82953130c96b08dcda8a76478b2a4e0c16cddf3e59ac1ccf39d7b027639391928c92614ffe9204168b614079565b8460405161500f9493929190615ac3565b60405180910390a150505050505b50505050565b60006114a36001600160801b03848116908416615288565b6000821580615048575081155b1561505557506000610989565b816150696002670de0b6b3a7640000615ce5565b61507590600019615d87565b61507f9190615ce5565b83111561509e5760405162a748d160e21b815260040160405180910390fd5b670de0b6b3a7640000614d81600282615ce5565b6000816150d2576040516308693c7b60e31b815260040160405180910390fd5b60006150df600284615ce5565b9050670de0b6b3a76400006150f682600019615d87565b6151009190615ce5565b84111561511f5760405162a748d160e21b815260040160405180910390fd5b8281615133670de0b6b3a764000087615cc6565b61513d9190615aea565b614de69190615ce5565b6001600160801b0380821660009081526010840160205260408120600c85015491929091161561521357600c84015460048201546002830154614de6926001600160801b03908116926148f8926151a99290811691600160801b900416614079565b6004880154600b89015461296c916001600160801b03600160801b918290048116926148f8926151dc9291041683615a5f565b60048901546151f4906001600160801b031642615a5f565b60058d015461296c9190600160801b90046001600160801b0316615d9e565b5092915050565b6000610989826001600160801b0316614cc5565b600054610100900460ff166149e65760405162461bcd60e51b8152600401610d9190615cf9565b600054610100900460ff1661527c5760405162461bcd60e51b8152600401610d9190615cf9565b6097805460ff19169055565b6000816152a8576040516308693c7b60e31b815260040160405180910390fd5b60006152b5600284615ce5565b9050676765c793fa10079d601b1b6152cf82600019615d87565b6152d99190615ce5565b8411156152f85760405162a748d160e21b815260040160405180910390fd5b8281615133676765c793fa10079d601b1b87615cc6565b60006020828403121561532157600080fd5b81356001600160e01b0319811681146114a357600080fd5b60006020828403121561534b57600080fd5b5035919050565b6001600160a01b038116811461212057600080fd5b803561537281615352565b919050565b6000806040838503121561538a57600080fd5b82359150602083013561539c81615352565b809150509250929050565b6001600160801b038116811461212057600080fd5b8035615372816153a7565b600080604083850312156153da57600080fd5b82356153e5816153a7565b946020939093013593505050565b6000806040838503121561540657600080fd5b82359150602083013561539c816153a7565b60008060006040848603121561542d57600080fd5b833567ffffffffffffffff8082111561544557600080fd5b818601915086601f83011261545957600080fd5b81358181111561546857600080fd5b87602082850101111561547a57600080fd5b60209283019550935050840135615490816153a7565b809150509250925092565b600061020082840312156154ae57600080fd5b50919050565b600080604083850312156154c757600080fd5b82356153e581615352565b6000806000606084860312156154e757600080fd5b8335925060208401356154f9816153a7565b9150604084013561549081615352565b600080600080600060a0868803121561552157600080fd5b853561552c816153a7565b9450602086013593506040860135615543816153a7565b92506060860135615553816153a7565b91506080860135615563816153a7565b809150509295509295909350565b6000806000806080858703121561558757600080fd5b843593506020850135615599816153a7565b925060408501356155a9816153a7565b915060608501356155b9816153a7565b939692955090935050565b8035801515811461537257600080fd5b600080604083850312156155e757600080fd5b823591506155f7602084016155c4565b90509250929050565b60006020828403121561561257600080fd5b81356114a381615352565b60006020828403121561562f57600080fd5b81356114a3816153a7565b6000806040838503121561564d57600080fd5b823561565881615352565b9150602083013561539c816153a7565b600080600080600060a0868803121561568057600080fd5b853594506020860135615692816153a7565b935060408601356156a2816153a7565b925060608601356156b2816153a7565b9150608086013561556381615352565b6001600160801b03948516815292841660208401529083166040830152909116606082015260800190565b600080600080600060a0868803121561570557600080fd5b8535615710816153a7565b945060208601359350604086013561572781615352565b9250606086013561555381615352565b60006020828403121561574957600080fd5b5051919050565b6001600160a01b0393841681526001600160801b03929092166020830152909116604082015260600190565b60208082526010908201526f14185d5cd8589b194e881c185d5cd95960821b604082015260600190565b6000602082840312156157b857600080fd5b81516114a3816153a7565b600080604083850312156157d657600080fd5b82516157e1816153a7565b602084015190925061539c816153a7565b634e487b7160e01b600052601160045260246000fd5b60006001600160801b0380831681851680830382111561582a5761582a6157f2565b01949350505050565b9283526001600160a01b039190911660208301526001600160801b0316604082015260600190565b60208152816020820152818360408301376000818301604090810191909152601f909201601f19160101919050565b60006020828403121561589c57600080fd5b815160ff811681146114a357600080fd5b6000602082840312156158bf57600080fd5b6114a3826155c4565b8135815261020081016158dd60208401615367565b6001600160a01b031660208301526158f760408401615367565b6001600160a01b03166040830152615911606084016153bc565b6001600160801b0316606083015261592b608084016153bc565b6001600160801b0316608083015261594560a084016153bc565b6001600160801b031660a083015261595f60c084016153bc565b6001600160801b031660c083015261597960e084016153bc565b6001600160801b031660e08301526101006159958482016153bc565b6001600160801b0316908301526101206159b08482016153bc565b6001600160801b0316908301526101406159cb8482016153bc565b6001600160801b0316908301526101606159e68482016153bc565b6001600160801b031690830152610180615a018482016153bc565b6001600160801b0316908301526101a0615a1c8482016153bc565b6001600160801b0316908301526101c0615a378482016153bc565b6001600160801b0316908301526101e0615a528482016155c4565b1515920191909152919050565b60006001600160801b0383811690831681811015615a7f57615a7f6157f2565b039392505050565b634e487b7160e01b600052601260045260246000fd5b60006001600160801b0380841680615ab757615ab7615a87565b92169190910692915050565b9384526001600160801b039283166020850152908216604084015216606082015260800190565b60008219821115615afd57615afd6157f2565b500190565b60005b83811015615b1d578181015183820152602001615b05565b8381111561501d5750506000910152565b7f416363657373436f6e74726f6c3a206163636f756e7420000000000000000000815260008351615b66816017850160208801615b02565b7001034b99036b4b9b9b4b733903937b6329607d1b6017918401918201528351615b97816028840160208801615b02565b01602801949350505050565b6020815260008251806020840152615bc2816040850160208701615b02565b601f01601f19169190910160400192915050565b600181815b80851115615c11578160001904821115615bf757615bf76157f2565b80851615615c0457918102915b93841c9390800290615bdb565b509250929050565b600082615c2857506001610989565b81615c3557506000610989565b8160018114615c4b5760028114615c5557615c71565b6001915050610989565b60ff841115615c6657615c666157f2565b50506001821b610989565b5060208310610133831016604e8410600b8410161715615c94575081810a610989565b615c9e8383615bd6565b8060001904821115615cb257615cb26157f2565b029392505050565b60006114a38383615c19565b6000816000190483118215151615615ce057615ce06157f2565b500290565b600082615cf457615cf4615a87565b500490565b6020808252602b908201527f496e697469616c697a61626c653a20636f6e7472616374206973206e6f74206960408201526a6e697469616c697a696e6760a81b606082015260800190565b634e487b7160e01b600052604160045260246000fd5b634e487b7160e01b600052603260045260246000fd5b600081615d7f57615d7f6157f2565b506000190190565b600082821015615d9957615d996157f2565b500390565b60006001600160801b0380831681851681830481118215151615615dc457615dc46157f2565b0294935050505056fe71840dc4906352362b0cdaf79870196c8e42acafade72d5d5a6d59291253ceb12344277e405079ec07749d374ba0b5862a4e45a6a05ac889dbb4a991c6f9354d27160668f6d81898b09bdae61c61d2c7d23fe33a52ae9b38e5b92f00ced3806ba2646970667358221220306be898b2c1eb91cd9390e9302219603ccf20cc4e7a9868384625687266a86564736f6c63430008090033",
  "libraries": {
    "PoolLogic": "0xD2B8552104cf999e0EEad79800F0ff08CD4ED5FD"
  },
  "devdoc": {
    "kind": "dev",
    "methods": {
      "allow(address,bytes32)": {
        "params": {
          "borrowerAddress": "The address to allow",
          "poolHash": "The identifier of the pool*"
        }
      },
      "borrow(address,uint128)": {
        "params": {
          "loanAmount": "The total amount of the loan*",
          "to": "The address to which the borrowed funds should be sent."
        }
      },
      "claimProtocolFees(bytes32,uint128,address)": {
        "params": {
          "amount": "The amount of tokens claimed",
          "poolHash": "The identifier of the pool",
          "to": "The address receiving the fees*"
        }
      },
      "closePool(bytes32,address)": {
        "params": {
          "poolHash": "The identifier of the pool*"
        }
      },
      "collectFees(bytes32)": {
        "params": {
          "poolHash": "The identifier of the pool*"
        }
      },
      "collectFeesForTick(bytes32,uint128)": {
        "params": {
          "poolHash": "The identifier of the pool*"
        }
      },
      "createNewPool((bytes32,address,address,uint128,uint128,uint128,uint128,uint128,uint128,uint128,uint128,uint128,uint128,uint128,uint128,bool))": {
        "params": {
          "params": "The parameters of the new pool*"
        }
      },
      "deposit(uint128,bytes32,address,address,uint128)": {
        "params": {
          "normalizedAmount": "The amount of the given asset to deposit",
          "poolHash": "The identifier of the pool",
          "rate": "The rate at which to bid for a bond",
          "sender": "The lender address who calls the deposit function on the Position",
          "underlyingToken": "Contract' address of the token to be deposited"
        },
        "returns": {
          "adjustedAmount": "Deposited amount adjusted with current liquidity index",
          "bondsIssuanceIndex": "The identifier of the borrow group to which the deposit has been allocated*"
        }
      },
      "disallow(address,bytes32)": {
        "params": {
          "borrowerAddress": "The address to disallow",
          "poolHash": "The identifier of the pool*"
        }
      },
      "estimateLoanRate(uint128,bytes32)": {
        "params": {
          "normalizedBorrowedAmount": "The amount to be borrowed from the pool",
          "poolHash": "The identifier of the pool"
        },
        "returns": {
          "estimatedRate": "The estimated loan rate for the current state of the pool*"
        }
      },
      "getAmountRepartition(bytes32,uint128,uint128,uint128)": {
        "params": {
          "adjustedAmount": "Adjusted amount of tokens currently on third party yield provider",
          "bondsIssuanceIndex": "The identifier of the borrow group",
          "poolHash": "The identifier of the pool",
          "rate": "Tick's rate"
        },
        "returns": {
          "bondsQuantity": "Quantity of bonds held",
          "normalizedDepositedAmount": "Amount of deposit currently on third party yield provider*"
        }
      },
      "getDefaultTimestamp(bytes32)": {
        "returns": {
          "defaultTimestamp": "The timestamp at which the pool was defaulted*"
        }
      },
      "getPoolAggregates(bytes32)": {
        "params": {
          "poolHash": "The identifier of the pool"
        },
        "returns": {
          "adjustedPendingDeposits": "Amount of tokens deposited after bond issuance and currently on third party yield provider*",
          "weightedAverageLendingRate": "The average deposit bidding rate in the order book"
        }
      },
      "getPoolFeeRates(bytes32)": {
        "returns": {
          "establishmentFeeRate": "Amount of fees paid to the protocol at borrow time",
          "repaymentFeeRate": "Amount of fees paid to the protocol at repay time*"
        }
      },
      "getPoolMaturity(bytes32)": {
        "params": {
          "poolHash": "The identifier of the pool"
        },
        "returns": {
          "poolCurrentMaturity": "The pool's current maturity*"
        }
      },
      "getPoolParameters(bytes32)": {
        "params": {
          "poolHash": "The identifier of the pool"
        },
        "returns": {
          "cooldownPeriod": "Period after a loan during which a borrower cannot take another loan",
          "lateRepayFeePerBondRate": "Penalty a borrower has to pay when it repays late",
          "liquidityRewardsActivationThreshold": "Minimum amount of liqudity rewards a borrower has to deposit to active the pool*",
          "liquidityRewardsDistributionRate": "Rate at which liquidity rewards are distributed to lenders",
          "loanDuration": "Duration of a loan in the pool",
          "maxBorrowableAmount": "Maximum amount of tokens that can be borrowed from the pool",
          "maxRate": "Maximum rate of deposits accepted in the pool",
          "minRate": "Minimum rate of deposits accepted in the pool",
          "rateSpacing": "Difference between two rates in the pool",
          "repaymentPeriod": "Period after a loan end during which a borrower can repay without penalty",
          "underlyingToken": "Address of the underlying token of the pool"
        }
      },
      "getPoolState(bytes32)": {
        "params": {
          "poolHash": "The identifier of the pool"
        },
        "returns": {
          "active": "Signals if a pool is active and ready to accept deposits",
          "bondsIssuedQuantity": "Amount of bonds issued, to be repaid at maturity",
          "closed": "Signals if a pool was closed",
          "currentBondsIssuanceIndex": "Current borrow period identifier of the pool*",
          "currentMaturity": "End timestamp of current loan",
          "defaulted": "Signals if a pool was defaulted",
          "lowerInterestRate": "Minimum rate at which a deposit was made",
          "nextLoanMinStart": "Cool down period, minimum timestamp after which a new loan can be taken",
          "normalizedAvailableDeposits": "Actual amount of tokens available to be borrowed",
          "normalizedBorrowedAmount": "Actual amount of tokens that were borrowed",
          "remainingAdjustedLiquidityRewardsReserve": "Remaining liquidity rewards to be distributed to lenders",
          "yieldProviderLiquidityRatio": "Last recorded yield provider liquidity ratio"
        }
      },
      "getRepayAmounts(bytes32,bool)": {
        "params": {
          "poolHash": "The identifier of the pool"
        },
        "returns": {
          "normalizedRepayAmount": "Total repay amount*"
        }
      },
      "getRoleAdmin(bytes32)": {
        "details": "Returns the admin role that controls `role`. See {grantRole} and {revokeRole}. To change a role's admin, use {_setRoleAdmin}."
      },
      "getTickAmounts(bytes32,uint128)": {
        "params": {
          "poolHash": "The identifier of the pool",
          "rate": "The tick rate from which to get data"
        },
        "returns": {
          "accruedFees": "The total fees claimable in the current tick, either from yield provider interests or liquidity rewards accrual*",
          "adjustedPendingAmount": "Amount of deposit in tick deposited with the underlying yield provider that were deposited after bond issuance",
          "adjustedRemainingAmount": "Amount of tokens in tick deposited with the underlying yield provider that were deposited before bond issuance",
          "adjustedTotalAmount": "Total amount of deposit in the tick, excluding the pending amounts",
          "atlendisLiquidityRatio": "The liquidity ratio of the given tick",
          "bondsQuantity": "The quantity of bonds within the tick"
        }
      },
      "getTickLastUpdate(string,uint128)": {
        "params": {
          "pool": "The identifier of the pool pool",
          "rate": "The tick rate from which to get data"
        },
        "returns": {
          "lastFeeDistributionTimestamp": "Timestamp of the last fee's distribution to the tick*"
        }
      },
      "getTickLiquidityRatio(bytes32,uint128)": {
        "params": {
          "poolHash": "The identifier of the pool",
          "rate": "The tick rate from which to extract the liquidity ratio"
        },
        "returns": {
          "liquidityRatio": "The liquidity ratio of the given tick*"
        }
      },
      "getWithdrawAmounts(bytes32,uint128,uint128,uint128)": {
        "details": "This method is meant to be used exclusively with the withdraw() method Under certain circumstances, this method can return incorrect values, that would otherwise be rejected by the checks made in the withdraw() method",
        "params": {
          "adjustedAmount": "The amount of tokens in the position, adjusted to the deposit liquidity ratio",
          "bondsIssuanceIndex": "An index determining deposit timing",
          "poolHash": "The identifier of the pool",
          "rate": "The rate the position is bidding for"
        },
        "returns": {
          "adjustedAmountToWithdraw": "The amount of tokens to withdraw, adjuste for borrow pool use",
          "bondsMaturity": "The maturity of bonds remaining within the position after withdraw*",
          "depositedAmountToWithdraw": "The amount of tokens to withdraw, adjuste for position use",
          "remainingBondsQuantity": "The quantity of bonds remaining within the position"
        }
      },
      "grantRole(bytes32,address)": {
        "details": "Grants `role` to `account`. If `account` had not been already granted `role`, emits a {RoleGranted} event. Requirements: - the caller must have ``role``'s admin role."
      },
      "hasRole(bytes32,address)": {
        "details": "Returns `true` if `account` has been granted `role`."
      },
      "isEarlyRepay(bytes32)": {
        "returns": {
          "earlyRepay": "Flag that signifies whether the early repay feature is activated or not*"
        }
      },
      "paused()": {
        "details": "Returns true if the contract is paused, and false otherwise."
      },
      "renounceRole(bytes32,address)": {
        "details": "Revokes `role` from the calling account. Roles are often managed via {grantRole} and {revokeRole}: this function's purpose is to provide a mechanism for accounts to lose their privileges if they are compromised (such as when a trusted device is misplaced). If the calling account had been revoked `role`, emits a {RoleRevoked} event. Requirements: - the caller must be `account`."
      },
      "revokeRole(bytes32,address)": {
        "details": "Revokes `role` from `account`. If `account` had been granted `role`, emits a {RoleRevoked} event. Requirements: - the caller must have ``role``'s admin role."
      },
      "setDefault(bytes32)": {
        "params": {
          "poolHash": "The identifier of the pool to default*"
        }
      },
      "supportsInterface(bytes4)": {
        "details": "See {IERC165-supportsInterface}."
      },
      "topUpLiquidityRewards(uint128)": {
        "params": {
          "amount": "Amount of tokens that will be add up to the pool's liquidity rewards reserve*"
        }
      },
      "updateRate(uint128,bytes32,uint128,uint128,uint128)": {
        "params": {
          "adjustedAmount": "The adjusted balance of tokens of the given position",
          "newRate": "The new rate of the position",
          "oldBondsIssuanceIndex": "The identifier of the borrow group from the given position",
          "oldRate": "The current rate of the position",
          "poolHash": "The identifier of the pool"
        },
        "returns": {
          "newAdjustedAmount": "The updated amount of tokens of the position adjusted by the new tick's global liquidity ratio",
          "newBondsIssuanceIndex": "The new borrow group id to which the updated position is linked*"
        }
      },
      "withdraw(bytes32,uint128,uint128,uint128,address)": {
        "params": {
          "adjustedAmountToWithdraw": "The actual amount of tokens to withdraw from the position",
          "bondsIssuanceIndex": "An index determining deposit timing",
          "owner": "The address to which the withdrawns funds are sent",
          "poolHash": "The identifier of the pool",
          "rate": "The rate the position is bidding for"
        },
        "returns": {
          "normalizedDepositedAmountToWithdraw": "Actual amount of tokens withdrawn and sent to the lender*"
        }
      }
    },
    "version": 1
  },
  "userdoc": {
    "events": {
      "Borrow(bytes32,uint128,uint128)": {
        "notice": "Emitted after a successful borrow"
      },
      "BorrowerAllowed(address,bytes32)": {
        "notice": "Emitted after a borrower address was allowed to borrow from a pool"
      },
      "BorrowerDisallowed(address,bytes32)": {
        "notice": "Emitted after a borrower address was disallowed to borrow from a pool"
      },
      "ClaimProtocolFees(bytes32,uint128,address)": {
        "notice": "Emitted after governance claims the fees associated with a pool"
      },
      "CollectFeesForTick(bytes32,uint128,uint128,uint128)": {
        "notice": "Emitted when liquidity rewards are distributed to a tick"
      },
      "Default(bytes32,uint128)": {
        "notice": "Emitted when a pool defaults on its loan repayment"
      },
      "EarlyRepay(bytes32,uint128,uint128,uint128,uint128)": {
        "notice": "Emitted after a successful early repay"
      },
      "FurtherBorrow(bytes32,uint128,uint128)": {
        "notice": "Emitted after a successful further borrow"
      },
      "LateRepay(bytes32,uint128,uint128,uint128,uint128,uint128)": {
        "notice": "Emitted after a successful repay, made after the repayment period Includes a late repay fee"
      },
      "PoolActivated(bytes32)": {
        "notice": "Emitted when a pool is active, i.e. after the borrower deposits enough tokens in its pool liquidity rewards reserve as agreed before the pool creation"
      },
      "PoolClosed(bytes32,uint128)": {
        "notice": "Emitted after pool is closed"
      },
      "PoolCreated((bytes32,address,address,uint128,uint128,uint128,uint128,uint128,uint128,uint128,uint128,uint128,uint128,uint128,uint128,bool))": {
        "notice": "Emitted after a pool was creted*"
      },
      "Repay(bytes32,uint128,uint128,uint128,uint128)": {
        "notice": "Emitted after a successful repay"
      },
      "SetEstablishmentFeeRate(uint128,bytes32)": {
        "notice": "Emitted after governance sets the establishment fee for a pool*"
      },
      "SetLiquidityRewardsDistributionRate(uint128,bytes32)": {
        "notice": "Emitted after governance sets the liquidity rewards distribution rate for a pool*"
      },
      "SetMaxBorrowableAmount(uint128,bytes32)": {
        "notice": "Emitted after governance sets the maximum borrowable amount for a pool*"
      },
      "SetRepaymentFeeRate(uint128,bytes32)": {
        "notice": "Emitted after governance sets the repayment fee for a pool*"
      },
      "TickBorrow(bytes32,uint128,uint128,uint128,uint128,uint128)": {
        "notice": "Emitted when a borrow successfully impacts a tick"
      },
      "TickInitialized(bytes32,uint128,uint128)": {
        "notice": "Emitted when a tick is initialized, i.e. when its first deposited in"
      },
      "TickLoanDeposit(bytes32,uint128,uint128)": {
        "notice": "Emitted after a deposit on a tick that was done during a loan"
      },
      "TickNoLoanDeposit(bytes32,uint128,uint128,uint128)": {
        "notice": "Emitted after a deposit on a tick that was done without an active loan"
      },
      "TickPendingDeposit(bytes32,uint128,uint128,bool)": {
        "notice": "Emitted when pending amounts are merged with the rest of the pool during a repay"
      },
      "TickRepay(bytes32,uint128,uint128,uint128)": {
        "notice": "Emitted when funds from a tick are repaid by the borrower"
      },
      "TickWithdrawPending(bytes32,uint128,uint128)": {
        "notice": "Emitted when a withdraw is done outside of a loan on the tick"
      },
      "TickWithdrawRemaining(bytes32,uint128,uint128,uint128,uint128)": {
        "notice": "Emitted when a withdraw is done during a loan on the tick"
      },
      "TopUpLiquidityRewards(bytes32,uint128)": {
        "notice": "Emitted after a borrower successfully deposits tokens in its pool liquidity rewards reserve"
      }
    },
    "kind": "user",
    "methods": {
      "allow(address,bytes32)": {
        "notice": "Allow an address to interact with a borrower pool"
      },
      "borrow(address,uint128)": {
        "notice": "Called by the borrower to sell bonds to the order book. The affected ticks get updated according the amount of bonds sold."
      },
      "claimProtocolFees(bytes32,uint128,address)": {
        "notice": "Withdraws protocol fees to a target address"
      },
      "closePool(bytes32,address)": {
        "notice": "Flags the pool as closed"
      },
      "collectFees(bytes32)": {
        "notice": "Collect yield provider fees as well as liquidity rewards for the whole pool Iterates over all pool initialized ticks"
      },
      "collectFeesForTick(bytes32,uint128)": {
        "notice": "Collect yield provider fees as well as liquidity rewards for the target tick"
      },
      "createNewPool((bytes32,address,address,uint128,uint128,uint128,uint128,uint128,uint128,uint128,uint128,uint128,uint128,uint128,uint128,bool))": {
        "notice": "Creates a new pool"
      },
      "deposit(uint128,bytes32,address,address,uint128)": {
        "notice": "Gets called within the Position.deposit() function and enables a lender to deposit assets into a given pool's order book. The lender specifies a rate (price) at which it is willing to lend out its assets (bid on the zero coupon bond). The full amount will initially be deposited on the underlying yield provider until the borrower sells bonds at the specified rate."
      },
      "disallow(address,bytes32)": {
        "notice": "Remove borrower pool interaction rights from an address"
      },
      "estimateLoanRate(uint128,bytes32)": {
        "notice": "Estimates the lending rate corresponding to the input amount, depending on the current state of the pool"
      },
      "freezePool()": {
        "notice": "Stops all actions on all pools*"
      },
      "getAmountRepartition(bytes32,uint128,uint128,uint128)": {
        "notice": "Returns the token amount's repartition between bond quantity and normalized deposited amount currently placed on third party yield provider"
      },
      "getDefaultTimestamp(bytes32)": {
        "notice": "Returns the state of a pool"
      },
      "getPoolAggregates(bytes32)": {
        "notice": "Returns the current state of the pool's parameters"
      },
      "getPoolFeeRates(bytes32)": {
        "notice": "Returns the fee rates of a pool"
      },
      "getPoolMaturity(bytes32)": {
        "notice": "Returns the current maturity of the pool"
      },
      "getPoolParameters(bytes32)": {
        "notice": "Returns the parameters of a pool"
      },
      "getPoolState(bytes32)": {
        "notice": "Returns the state of a pool"
      },
      "getRepayAmounts(bytes32,bool)": {
        "notice": "Returns the total amount a borrower has to repay to a pool. Includes borrowed amount, late repay fees and protocol fees"
      },
      "getTickAmounts(bytes32,uint128)": {
        "notice": "Returns the repartition between bonds and deposits of the given tick."
      },
      "getTickLastUpdate(string,uint128)": {
        "notice": "Returns the timestamp of the last fee distribution to the tick"
      },
      "getTickLiquidityRatio(bytes32,uint128)": {
        "notice": "Returns the liquidity ratio of a given tick in a pool's order book. The liquidity ratio is an accounting construct to deduce the accrued interest over time."
      },
      "getWithdrawAmounts(bytes32,uint128,uint128,uint128)": {
        "notice": "Gets called within the Position.withdraw() function and enables a lender to evaluate the exact amount of tokens it is allowed to withdraw"
      },
      "isEarlyRepay(bytes32)": {
        "notice": "Returns the state of a pool"
      },
      "repay()": {
        "notice": "Repays a currently outstanding bonds of the given pool.*"
      },
      "setDefault(bytes32)": {
        "notice": "Flags the pool as defaulted"
      },
      "setEstablishmentFeeRate(uint128,bytes32)": {
        "notice": "Set the pool establishment protocol fee rate*"
      },
      "setLiquidityRewardsDistributionRate(uint128,bytes32)": {
        "notice": "Set the pool liquidity rewards distribution rate*"
      },
      "setMaxBorrowableAmount(uint128,bytes32)": {
        "notice": "Set the maximum amount of tokens that can be borrowed in the target pool*"
      },
      "setRepaymentFeeRate(uint128,bytes32)": {
        "notice": "Set the pool repayment protocol fee rate*"
      },
      "topUpLiquidityRewards(uint128)": {
        "notice": "Called by the borrower to top up liquidity rewards' reserve that is distributed to liquidity providers at the pre-defined distribution rate."
      },
      "unfreezePool()": {
        "notice": "Cancel a freeze, makes actions available again on all pools*"
      },
      "updateRate(uint128,bytes32,uint128,uint128,uint128)": {
        "notice": "Gets called within Position.updateRate() and updates the order book ticks affected by the position updating its rate. This is only possible as long as there are no bonds in the position, i.e the full position currently lies with the yield provider"
      },
      "withdraw(bytes32,uint128,uint128,uint128,address)": {
        "notice": "Gets called within the Position.withdraw() function and enables a lender to withdraw assets that are deposited with the underlying yield provider"
      }
    },
    "version": 1
  },
  "storageLayout": {
    "storage": [
      {
        "astId": 408,
        "contract": "src/BorrowerPools.sol:BorrowerPools",
        "label": "_initialized",
        "offset": 0,
        "slot": "0",
        "type": "t_bool"
      },
      {
        "astId": 411,
        "contract": "src/BorrowerPools.sol:BorrowerPools",
        "label": "_initializing",
        "offset": 1,
        "slot": "0",
        "type": "t_bool"
      },
      {
        "astId": 2862,
        "contract": "src/BorrowerPools.sol:BorrowerPools",
        "label": "__gap",
        "offset": 0,
        "slot": "1",
        "type": "t_array(t_uint256)50_storage"
      },
      {
        "astId": 3109,
        "contract": "src/BorrowerPools.sol:BorrowerPools",
        "label": "__gap",
        "offset": 0,
        "slot": "51",
        "type": "t_array(t_uint256)50_storage"
      },
      {
        "astId": 39,
        "contract": "src/BorrowerPools.sol:BorrowerPools",
        "label": "_roles",
        "offset": 0,
        "slot": "101",
        "type": "t_mapping(t_bytes32,t_struct(RoleData)34_storage)"
      },
      {
        "astId": 327,
        "contract": "src/BorrowerPools.sol:BorrowerPools",
        "label": "__gap",
        "offset": 0,
        "slot": "102",
        "type": "t_array(t_uint256)49_storage"
      },
      {
        "astId": 496,
        "contract": "src/BorrowerPools.sol:BorrowerPools",
        "label": "_paused",
        "offset": 0,
        "slot": "151",
        "type": "t_bool"
      },
      {
        "astId": 585,
        "contract": "src/BorrowerPools.sol:BorrowerPools",
        "label": "__gap",
        "offset": 0,
        "slot": "152",
        "type": "t_array(t_uint256)49_storage"
      },
      {
        "astId": 5105,
        "contract": "src/BorrowerPools.sol:BorrowerPools",
        "label": "borrowerAuthorizedPools",
        "offset": 0,
        "slot": "201",
        "type": "t_mapping(t_address,t_bytes32)"
      },
      {
        "astId": 5110,
        "contract": "src/BorrowerPools.sol:BorrowerPools",
        "label": "pools",
        "offset": 0,
        "slot": "202",
        "type": "t_mapping(t_bytes32,t_struct(Pool)10835_storage)"
      },
      {
        "astId": 5114,
        "contract": "src/BorrowerPools.sol:BorrowerPools",
        "label": "protocolFees",
        "offset": 0,
        "slot": "203",
        "type": "t_mapping(t_bytes32,t_uint128)"
      }
    ],
    "types": {
      "t_address": {
        "encoding": "inplace",
        "label": "address",
        "numberOfBytes": "20"
      },
      "t_array(t_uint256)49_storage": {
        "base": "t_uint256",
        "encoding": "inplace",
        "label": "uint256[49]",
        "numberOfBytes": "1568"
      },
      "t_array(t_uint256)50_storage": {
        "base": "t_uint256",
        "encoding": "inplace",
        "label": "uint256[50]",
        "numberOfBytes": "1600"
      },
      "t_bool": {
        "encoding": "inplace",
        "label": "bool",
        "numberOfBytes": "1"
      },
      "t_bytes32": {
        "encoding": "inplace",
        "label": "bytes32",
        "numberOfBytes": "32"
      },
      "t_contract(ILendingPool)7567": {
        "encoding": "inplace",
        "label": "contract ILendingPool",
        "numberOfBytes": "20"
      },
      "t_mapping(t_address,t_bool)": {
        "encoding": "mapping",
        "key": "t_address",
        "label": "mapping(address => bool)",
        "numberOfBytes": "32",
        "value": "t_bool"
      },
      "t_mapping(t_address,t_bytes32)": {
        "encoding": "mapping",
        "key": "t_address",
        "label": "mapping(address => bytes32)",
        "numberOfBytes": "32",
        "value": "t_bytes32"
      },
      "t_mapping(t_bytes32,t_struct(Pool)10835_storage)": {
        "encoding": "mapping",
        "key": "t_bytes32",
        "label": "mapping(bytes32 => struct Types.Pool)",
        "numberOfBytes": "32",
        "value": "t_struct(Pool)10835_storage"
      },
      "t_mapping(t_bytes32,t_struct(RoleData)34_storage)": {
        "encoding": "mapping",
        "key": "t_bytes32",
        "label": "mapping(bytes32 => struct AccessControlUpgradeable.RoleData)",
        "numberOfBytes": "32",
        "value": "t_struct(RoleData)34_storage"
      },
      "t_mapping(t_bytes32,t_uint128)": {
        "encoding": "mapping",
        "key": "t_bytes32",
        "label": "mapping(bytes32 => uint128)",
        "numberOfBytes": "32",
        "value": "t_uint128"
      },
      "t_mapping(t_uint128,t_uint128)": {
        "encoding": "mapping",
        "key": "t_uint128",
        "label": "mapping(uint128 => uint128)",
        "numberOfBytes": "32",
        "value": "t_uint128"
      },
      "t_mapping(t_uint256,t_struct(Tick)10760_storage)": {
        "encoding": "mapping",
        "key": "t_uint256",
        "label": "mapping(uint256 => struct Types.Tick)",
        "numberOfBytes": "32",
        "value": "t_struct(Tick)10760_storage"
      },
      "t_struct(Pool)10835_storage": {
        "encoding": "inplace",
        "label": "struct Types.Pool",
        "members": [
          {
            "astId": 10826,
            "contract": "src/BorrowerPools.sol:BorrowerPools",
            "label": "parameters",
            "offset": 0,
            "slot": "0",
            "type": "t_struct(PoolParameters)10796_storage"
          },
          {
            "astId": 10829,
            "contract": "src/BorrowerPools.sol:BorrowerPools",
            "label": "state",
            "offset": 0,
            "slot": "10",
            "type": "t_struct(PoolState)10823_storage"
          },
          {
            "astId": 10834,
            "contract": "src/BorrowerPools.sol:BorrowerPools",
            "label": "ticks",
            "offset": 0,
            "slot": "16",
            "type": "t_mapping(t_uint256,t_struct(Tick)10760_storage)"
          }
        ],
        "numberOfBytes": "544"
      },
      "t_struct(PoolParameters)10796_storage": {
        "encoding": "inplace",
        "label": "struct Types.PoolParameters",
        "members": [
          {
            "astId": 10762,
            "contract": "src/BorrowerPools.sol:BorrowerPools",
            "label": "POOL_HASH",
            "offset": 0,
            "slot": "0",
            "type": "t_bytes32"
          },
          {
            "astId": 10764,
            "contract": "src/BorrowerPools.sol:BorrowerPools",
            "label": "UNDERLYING_TOKEN",
            "offset": 0,
            "slot": "1",
            "type": "t_address"
          },
          {
            "astId": 10766,
            "contract": "src/BorrowerPools.sol:BorrowerPools",
            "label": "TOKEN_DECIMALS",
            "offset": 20,
            "slot": "1",
            "type": "t_uint8"
          },
          {
            "astId": 10769,
            "contract": "src/BorrowerPools.sol:BorrowerPools",
            "label": "YIELD_PROVIDER",
            "offset": 0,
            "slot": "2",
            "type": "t_contract(ILendingPool)7567"
          },
          {
            "astId": 10771,
            "contract": "src/BorrowerPools.sol:BorrowerPools",
            "label": "MIN_RATE",
            "offset": 0,
            "slot": "3",
            "type": "t_uint128"
          },
          {
            "astId": 10773,
            "contract": "src/BorrowerPools.sol:BorrowerPools",
            "label": "MAX_RATE",
            "offset": 16,
            "slot": "3",
            "type": "t_uint128"
          },
          {
            "astId": 10775,
            "contract": "src/BorrowerPools.sol:BorrowerPools",
            "label": "RATE_SPACING",
            "offset": 0,
            "slot": "4",
            "type": "t_uint128"
          },
          {
            "astId": 10777,
            "contract": "src/BorrowerPools.sol:BorrowerPools",
            "label": "MAX_BORROWABLE_AMOUNT",
            "offset": 16,
            "slot": "4",
            "type": "t_uint128"
          },
          {
            "astId": 10779,
            "contract": "src/BorrowerPools.sol:BorrowerPools",
            "label": "LOAN_DURATION",
            "offset": 0,
            "slot": "5",
            "type": "t_uint128"
          },
          {
            "astId": 10781,
            "contract": "src/BorrowerPools.sol:BorrowerPools",
            "label": "LIQUIDITY_REWARDS_DISTRIBUTION_RATE",
            "offset": 16,
            "slot": "5",
            "type": "t_uint128"
          },
          {
            "astId": 10783,
            "contract": "src/BorrowerPools.sol:BorrowerPools",
            "label": "COOLDOWN_PERIOD",
            "offset": 0,
            "slot": "6",
            "type": "t_uint128"
          },
          {
            "astId": 10785,
            "contract": "src/BorrowerPools.sol:BorrowerPools",
            "label": "REPAYMENT_PERIOD",
            "offset": 16,
            "slot": "6",
            "type": "t_uint128"
          },
          {
            "astId": 10787,
            "contract": "src/BorrowerPools.sol:BorrowerPools",
            "label": "LATE_REPAY_FEE_PER_BOND_RATE",
            "offset": 0,
            "slot": "7",
            "type": "t_uint128"
          },
          {
            "astId": 10789,
            "contract": "src/BorrowerPools.sol:BorrowerPools",
            "label": "ESTABLISHMENT_FEE_RATE",
            "offset": 16,
            "slot": "7",
            "type": "t_uint128"
          },
          {
            "astId": 10791,
            "contract": "src/BorrowerPools.sol:BorrowerPools",
            "label": "REPAYMENT_FEE_RATE",
            "offset": 0,
            "slot": "8",
            "type": "t_uint128"
          },
          {
            "astId": 10793,
            "contract": "src/BorrowerPools.sol:BorrowerPools",
            "label": "LIQUIDITY_REWARDS_ACTIVATION_THRESHOLD",
            "offset": 16,
            "slot": "8",
            "type": "t_uint128"
          },
          {
            "astId": 10795,
            "contract": "src/BorrowerPools.sol:BorrowerPools",
            "label": "EARLY_REPAY",
            "offset": 0,
            "slot": "9",
            "type": "t_bool"
          }
        ],
        "numberOfBytes": "320"
      },
      "t_struct(PoolState)10823_storage": {
        "encoding": "inplace",
        "label": "struct Types.PoolState",
        "members": [
          {
            "astId": 10798,
            "contract": "src/BorrowerPools.sol:BorrowerPools",
            "label": "active",
            "offset": 0,
            "slot": "0",
            "type": "t_bool"
          },
          {
            "astId": 10800,
            "contract": "src/BorrowerPools.sol:BorrowerPools",
            "label": "defaulted",
            "offset": 1,
            "slot": "0",
            "type": "t_bool"
          },
          {
            "astId": 10802,
            "contract": "src/BorrowerPools.sol:BorrowerPools",
            "label": "closed",
            "offset": 2,
            "slot": "0",
            "type": "t_bool"
          },
          {
            "astId": 10804,
            "contract": "src/BorrowerPools.sol:BorrowerPools",
            "label": "currentMaturity",
            "offset": 3,
            "slot": "0",
            "type": "t_uint128"
          },
          {
            "astId": 10806,
            "contract": "src/BorrowerPools.sol:BorrowerPools",
            "label": "bondsIssuedQuantity",
            "offset": 0,
            "slot": "1",
            "type": "t_uint128"
          },
          {
            "astId": 10808,
            "contract": "src/BorrowerPools.sol:BorrowerPools",
            "label": "normalizedBorrowedAmount",
            "offset": 16,
            "slot": "1",
            "type": "t_uint128"
          },
          {
            "astId": 10810,
            "contract": "src/BorrowerPools.sol:BorrowerPools",
            "label": "normalizedAvailableDeposits",
            "offset": 0,
            "slot": "2",
            "type": "t_uint128"
          },
          {
            "astId": 10812,
            "contract": "src/BorrowerPools.sol:BorrowerPools",
            "label": "lowerInterestRate",
            "offset": 16,
            "slot": "2",
            "type": "t_uint128"
          },
          {
            "astId": 10814,
            "contract": "src/BorrowerPools.sol:BorrowerPools",
            "label": "nextLoanMinStart",
            "offset": 0,
            "slot": "3",
            "type": "t_uint128"
          },
          {
            "astId": 10816,
            "contract": "src/BorrowerPools.sol:BorrowerPools",
            "label": "remainingAdjustedLiquidityRewardsReserve",
            "offset": 16,
            "slot": "3",
            "type": "t_uint128"
          },
          {
            "astId": 10818,
            "contract": "src/BorrowerPools.sol:BorrowerPools",
            "label": "yieldProviderLiquidityRatio",
            "offset": 0,
            "slot": "4",
            "type": "t_uint128"
          },
          {
            "astId": 10820,
            "contract": "src/BorrowerPools.sol:BorrowerPools",
            "label": "currentBondsIssuanceIndex",
            "offset": 16,
            "slot": "4",
            "type": "t_uint128"
          },
          {
            "astId": 10822,
            "contract": "src/BorrowerPools.sol:BorrowerPools",
            "label": "defaultTimestamp",
            "offset": 0,
            "slot": "5",
            "type": "t_uint128"
          }
        ],
        "numberOfBytes": "192"
      },
      "t_struct(RoleData)34_storage": {
        "encoding": "inplace",
        "label": "struct AccessControlUpgradeable.RoleData",
        "members": [
          {
            "astId": 31,
            "contract": "src/BorrowerPools.sol:BorrowerPools",
            "label": "members",
            "offset": 0,
            "slot": "0",
            "type": "t_mapping(t_address,t_bool)"
          },
          {
            "astId": 33,
            "contract": "src/BorrowerPools.sol:BorrowerPools",
            "label": "adminRole",
            "offset": 0,
            "slot": "1",
            "type": "t_bytes32"
          }
        ],
        "numberOfBytes": "64"
      },
      "t_struct(Tick)10760_storage": {
        "encoding": "inplace",
        "label": "struct Types.Tick",
        "members": [
          {
            "astId": 10739,
            "contract": "src/BorrowerPools.sol:BorrowerPools",
            "label": "bondsIssuanceIndexMultiplier",
            "offset": 0,
            "slot": "0",
            "type": "t_mapping(t_uint128,t_uint128)"
          },
          {
            "astId": 10741,
            "contract": "src/BorrowerPools.sol:BorrowerPools",
            "label": "bondsQuantity",
            "offset": 0,
            "slot": "1",
            "type": "t_uint128"
          },
          {
            "astId": 10743,
            "contract": "src/BorrowerPools.sol:BorrowerPools",
            "label": "adjustedTotalAmount",
            "offset": 16,
            "slot": "1",
            "type": "t_uint128"
          },
          {
            "astId": 10745,
            "contract": "src/BorrowerPools.sol:BorrowerPools",
            "label": "adjustedRemainingAmount",
            "offset": 0,
            "slot": "2",
            "type": "t_uint128"
          },
          {
            "astId": 10747,
            "contract": "src/BorrowerPools.sol:BorrowerPools",
            "label": "adjustedWithdrawnAmount",
            "offset": 16,
            "slot": "2",
            "type": "t_uint128"
          },
          {
            "astId": 10749,
            "contract": "src/BorrowerPools.sol:BorrowerPools",
            "label": "adjustedPendingAmount",
            "offset": 0,
            "slot": "3",
            "type": "t_uint128"
          },
          {
            "astId": 10751,
            "contract": "src/BorrowerPools.sol:BorrowerPools",
            "label": "normalizedLoanedAmount",
            "offset": 16,
            "slot": "3",
            "type": "t_uint128"
          },
          {
            "astId": 10753,
            "contract": "src/BorrowerPools.sol:BorrowerPools",
            "label": "lastFeeDistributionTimestamp",
            "offset": 0,
            "slot": "4",
            "type": "t_uint128"
          },
          {
            "astId": 10755,
            "contract": "src/BorrowerPools.sol:BorrowerPools",
            "label": "atlendisLiquidityRatio",
            "offset": 16,
            "slot": "4",
            "type": "t_uint128"
          },
          {
            "astId": 10757,
            "contract": "src/BorrowerPools.sol:BorrowerPools",
            "label": "yieldProviderLiquidityRatio",
            "offset": 0,
            "slot": "5",
            "type": "t_uint128"
          },
          {
            "astId": 10759,
            "contract": "src/BorrowerPools.sol:BorrowerPools",
            "label": "accruedFees",
            "offset": 16,
            "slot": "5",
            "type": "t_uint128"
          }
        ],
        "numberOfBytes": "192"
      },
      "t_uint128": {
        "encoding": "inplace",
        "label": "uint128",
        "numberOfBytes": "16"
      },
      "t_uint256": {
        "encoding": "inplace",
        "label": "uint256",
        "numberOfBytes": "32"
      },
      "t_uint8": {
        "encoding": "inplace",
        "label": "uint8",
        "numberOfBytes": "1"
      }
    }
  }
}