{
  "address": "0xD2B8552104cf999e0EEad79800F0ff08CD4ED5FD",
  "abi": [
    {
      "inputs": [],
      "name": "MATH_ADDITION_OVERFLOW",
      "type": "error"
    },
    {
      "inputs": [],
      "name": "MATH_DIVISION_BY_ZERO",
      "type": "error"
    },
    {
      "inputs": [],
      "name": "MATH_MULTIPLICATION_OVERFLOW",
      "type": "error"
    },
    {
      "anonymous": false,
      "inputs": [
        {
          "indexed": false,
          "internalType": "bytes32",
          "name": "borrower",
          "type": "bytes32"
        },
        {
          "indexed": false,
          "internalType": "uint128",
          "name": "rate",
          "type": "uint128"
        },
        {
          "indexed": false,
          "internalType": "uint128",
          "name": "remainingLiquidityRewards",
          "type": "uint128"
        },
        {
          "indexed": false,
          "internalType": "uint128",
          "name": "addedAccruedFees",
          "type": "uint128"
        }
      ],
      "name": "CollectFeesForTick",
      "type": "event"
    },
    {
      "anonymous": false,
      "inputs": [
        {
          "indexed": false,
          "internalType": "bytes32",
          "name": "poolHash",
          "type": "bytes32"
        }
      ],
      "name": "PoolActivated",
      "type": "event"
    },
    {
      "anonymous": false,
      "inputs": [
        {
          "indexed": false,
          "internalType": "bytes32",
          "name": "borrower",
          "type": "bytes32"
        },
        {
          "indexed": false,
          "internalType": "uint128",
          "name": "rate",
          "type": "uint128"
        },
        {
          "indexed": false,
          "internalType": "uint128",
          "name": "adjustedRemainingAmountReduction",
          "type": "uint128"
        },
        {
          "indexed": false,
          "internalType": "uint128",
          "name": "loanedAmount",
          "type": "uint128"
        },
        {
          "indexed": false,
          "internalType": "uint128",
          "name": "atlendisLiquidityRatio",
          "type": "uint128"
        },
        {
          "indexed": false,
          "internalType": "uint128",
          "name": "unborrowedRatio",
          "type": "uint128"
        }
      ],
      "name": "TickBorrow",
      "type": "event"
    },
    {
      "anonymous": false,
      "inputs": [
        {
          "indexed": false,
          "internalType": "bytes32",
          "name": "borrower",
          "type": "bytes32"
        },
        {
          "indexed": false,
          "internalType": "uint128",
          "name": "rate",
          "type": "uint128"
        },
        {
          "indexed": false,
          "internalType": "uint128",
          "name": "atlendisLiquidityRatio",
          "type": "uint128"
        }
      ],
      "name": "TickInitialized",
      "type": "event"
    },
    {
      "anonymous": false,
      "inputs": [
        {
          "indexed": false,
          "internalType": "bytes32",
          "name": "borrower",
          "type": "bytes32"
        },
        {
          "indexed": false,
          "internalType": "uint128",
          "name": "rate",
          "type": "uint128"
        },
        {
          "indexed": false,
          "internalType": "uint128",
          "name": "adjustedPendingDeposit",
          "type": "uint128"
        }
      ],
      "name": "TickLoanDeposit",
      "type": "event"
    },
    {
      "anonymous": false,
      "inputs": [
        {
          "indexed": false,
          "internalType": "bytes32",
          "name": "borrower",
          "type": "bytes32"
        },
        {
          "indexed": false,
          "internalType": "uint128",
          "name": "rate",
          "type": "uint128"
        },
        {
          "indexed": false,
          "internalType": "uint128",
          "name": "adjustedPendingDeposit",
          "type": "uint128"
        },
        {
          "indexed": false,
          "internalType": "uint128",
          "name": "atlendisLiquidityRatio",
          "type": "uint128"
        }
      ],
      "name": "TickNoLoanDeposit",
      "type": "event"
    },
    {
      "anonymous": false,
      "inputs": [
        {
          "indexed": false,
          "internalType": "bytes32",
          "name": "borrower",
          "type": "bytes32"
        },
        {
          "indexed": false,
          "internalType": "uint128",
          "name": "rate",
          "type": "uint128"
        },
        {
          "indexed": false,
          "internalType": "uint128",
          "name": "adjustedPendingAmount",
          "type": "uint128"
        },
        {
          "indexed": false,
          "internalType": "bool",
          "name": "poolBondIssuanceIndexIncremented",
          "type": "bool"
        }
      ],
      "name": "TickPendingDeposit",
      "type": "event"
    },
    {
      "anonymous": false,
      "inputs": [
        {
          "indexed": false,
          "internalType": "bytes32",
          "name": "borrower",
          "type": "bytes32"
        },
        {
          "indexed": false,
          "internalType": "uint128",
          "name": "rate",
          "type": "uint128"
        },
        {
          "indexed": false,
          "internalType": "uint128",
          "name": "newAdjustedRemainingAmount",
          "type": "uint128"
        },
        {
          "indexed": false,
          "internalType": "uint128",
          "name": "atlendisLiquidityRatio",
          "type": "uint128"
        }
      ],
      "name": "TickRepay",
      "type": "event"
    },
    {
      "anonymous": false,
      "inputs": [
        {
          "indexed": false,
          "internalType": "bytes32",
          "name": "borrower",
          "type": "bytes32"
        },
        {
          "indexed": false,
          "internalType": "uint128",
          "name": "rate",
          "type": "uint128"
        },
        {
          "indexed": false,
          "internalType": "uint128",
          "name": "adjustedAmountToWithdraw",
          "type": "uint128"
        }
      ],
      "name": "TickWithdrawPending",
      "type": "event"
    },
    {
      "anonymous": false,
      "inputs": [
        {
          "indexed": false,
          "internalType": "bytes32",
          "name": "borrower",
          "type": "bytes32"
        },
        {
          "indexed": false,
          "internalType": "uint128",
          "name": "rate",
          "type": "uint128"
        },
        {
          "indexed": false,
          "internalType": "uint128",
          "name": "adjustedAmountToWithdraw",
          "type": "uint128"
        },
        {
          "indexed": false,
          "internalType": "uint128",
          "name": "atlendisLiquidityRatio",
          "type": "uint128"
        },
        {
          "indexed": false,
          "internalType": "uint128",
          "name": "accruedFeesToWithdraw",
          "type": "uint128"
        }
      ],
      "name": "TickWithdrawRemaining",
      "type": "event"
    },
    {
      "anonymous": false,
      "inputs": [
        {
          "indexed": false,
          "internalType": "bytes32",
          "name": "borrower",
          "type": "bytes32"
        },
        {
          "indexed": false,
          "internalType": "uint128",
          "name": "addedLiquidityRewards",
          "type": "uint128"
        }
      ],
      "name": "TopUpLiquidityRewards",
      "type": "event"
    },
    {
      "inputs": [],
      "name": "RAY",
      "outputs": [
        {
          "internalType": "uint256",
          "name": "",
          "type": "uint256"
        }
      ],
      "stateMutability": "view",
      "type": "function"
    },
    {
      "inputs": [],
      "name": "SECONDS_PER_YEAR",
      "outputs": [
        {
          "internalType": "uint256",
          "name": "",
          "type": "uint256"
        }
      ],
      "stateMutability": "view",
      "type": "function"
    },
    {
      "inputs": [],
      "name": "WAD",
      "outputs": [
        {
          "internalType": "uint256",
          "name": "",
          "type": "uint256"
        }
      ],
      "stateMutability": "view",
      "type": "function"
    }
  ],
  "transactionHash": "0x5ce74f3f9492ee778786fd853a6dddc16ad68e5b9b5e5045fdd5cfe6a3cb3961",
  "args": [],
  "numDeployments": 1,
  "solcInputHash": "9f9f3208b996c2ac392e8851f4d2c6f7",
  "bytecode": "0x612b3e61003a600b82828239805160001a60731461002d57634e487b7160e01b600052600060045260246000fd5b30600052607381538281f3fe73000000000000000000000000000000000000000030146080604052600436106101155760003560e01c80636a146024116100ac57806398bc050e1161007b57806398bc050e1461027b578063ca8701f31461029b578063d393d8c8146102bb578063e6a69ab8146102db578063ec733dc8146102e657600080fd5b80636a146024146102265780636ef48f571461023557806374e6363414610255578063839a9c291461026857600080fd5b8063552033c4116100e8578063552033c4146101bd5780635953c226146101de5780635ccb5f2f146101f15780636839a2611461020457600080fd5b80631aceb8a31461011a57806339a594321461014a5780633d29c2091461018a5780634de6e9151461019d575b600080fd5b61012d6101283660046126ef565b610306565b6040516001600160801b0390911681526020015b60405180910390f35b81801561015657600080fd5b5061016a6101653660046126ef565b6103d5565b604080516001600160801b03938416815292909116602083015201610141565b61016a61019836600461272b565b6106eb565b8180156101a957600080fd5b5061016a6101b83660046126ef565b6108b9565b6101d06b033b2e3c9fd0803ce800000081565b604051908152602001610141565b61012d6101ec36600461272b565b610a70565b61012d6101ff366004612778565b610ad0565b81801561021057600080fd5b5061022461021f3660046127a4565b610b0e565b005b6101d0670de0b6b3a764000081565b81801561024157600080fd5b5061012d61025036600461272b565b610c0c565b61012d6102633660046127d7565b61105c565b61012d610276366004612801565b6110fb565b81801561028757600080fd5b5061016a6102963660046126ef565b6111ec565b8180156102a757600080fd5b506102246102b636600461272b565b6113dd565b8180156102c757600080fd5b5061012d6102d6366004612778565b61164f565b6101d06301e1338081565b8180156102f257600080fd5b5061012d6103013660046127d7565b61173a565b600a830154600090630100000090046001600160801b0316421161036a57600a8401546103639061035390849061034e904290630100000090046001600160801b0316612847565b611943565b6001600160801b0385169061198e565b90506103ce565b600f8401546001600160801b034281169116156103915750600f8401546001600160801b03165b600a8501546103ca906103ba90859061034e90630100000090046001600160801b031685612847565b6001600160801b038616906119a6565b9150505b9392505050565b6001600160801b0382166000908152601084016020526040812081906103fb86866119be565b600a860154630100000090046001600160801b0316156104df576005810154610430906001600160801b038681169116611a8a565b60038201805491945084916000906104529084906001600160801b031661285e565b82546101009290920a6001600160801b03818102199093169183160217909155600e88015461048b9250600160801b900416600161285e565b8654604080519182526001600160801b0380891660208401528616908201529092507ffa5f404ac72fd80d5f4403eba8b4e69dc15162096b3a6fe3bb7b5432a1ff6ae99060600160405180910390a1610688565b6004810154610501906001600160801b0386811691600160801b900416611a8a565b9250828160010160108282829054906101000a90046001600160801b0316610529919061285e565b92506101000a8154816001600160801b0302191690836001600160801b03160217905550828160020160008282829054906101000a90046001600160801b0316610573919061285e565b82546101009290920a6001600160801b03818102199093169183160217909155600e880154600c89018054600160801b90920483169550879350916000916105bd9185911661285e565b92506101000a8154816001600160801b0302191690836001600160801b031602179055506106236106138688600a0160040160109054906101000a90046001600160801b031689611ab99092919063ffffffff16565b6001600160801b03851690611a8a565b86546004830154604080519283526001600160801b03898116602085015284811684830152600160801b9092049091166060830152519194507fb308eae98b23d37898b9d67fb4bf4505d0931d5d8fae9422b77896e6aeeed1b7919081900360800190a15b600c860154600160801b90046001600160801b031615806106c05750600c8601546001600160801b03600160801b9091048116908616105b156106e257600c860180546001600160801b03808816600160801b0291161790555b50935093915050565b6001600160801b0380841660009081526010860160205260408120600e87015491928392600160801b90048116908516111561072e5760008592509250506108b0565b61074c61073c888887611ab9565b6001600160801b03871690611b05565b6001820154909550600090600160801b90046001600160801b0316156107e957600282015460018301546107e69161079b916001600160801b03600160801b928390048116929091041661285e565b600284015460018501546107d7916107c7916001600160801b0391821691600160801b90910416612889565b6001600160801b038a169061198e565b6001600160801b0316906119a6565b90505b806001600160801b0316866001600160801b03161061088057600282015460018301546001600160801b03918216600160801b909104909116111561086f576002820154600183015461086c91610854916001600160801b0391821691600160801b90910416612889565b60018401546107d7906001600160801b03168461198e565b93505b6108798187612889565b92506108ad565b60018201546108a6906001600160801b03600160801b82048116916107d791168961198e565b9350600092505b50505b94509492505050565b6001600160801b038083166000908152601085016020526040812060018101549192839216156106e25760018101546108fd9087906001600160801b031687610306565b92506109126001600160801b0385168461198e565b600382015490925060009061093790600160801b90046001600160801b031685612889565b90506109936109858360010160109054906101000a90046001600160801b031685848660050160109054906101000a90046001600160801b031661097b919061285e565b6107d7919061285e565b6001600160801b0316611b2f565b6004830180546010906109b7908490600160801b90046001600160801b031661285e565b82546101009290920a6001600160801b038181021990931691831602179091556001840180546001600160801b031916908190556003850180548316905560058501805483169055600160801b908190048216600286018190558a546004870154604080519283528c8616602084015282019290925291900490911660608201527f953574bd5eeec5d4da4e0a829621256ad4c1a350acc2e9cb55e592c5578346d3915060800160405180910390a15050935093915050565b6001600160801b038084166000908152601086016020526040812060028101549192909116610aa3576000915050610ac8565b6002810154610ac4906001600160801b03908116906107d79086168761198e565b9150505b949350505050565b6008820154600b8301546000916103ce916001600160801b0391821691610aff91600160801b90041685612889565b6001600160801b03169061198e565b60018301546001600160a01b03811690600090610b3f906001600160801b03851690600160a01b900460ff16611b43565b60028601549091506001600160a01b0390811690610b69908416826001600160801b038516611b76565b610b876001600160a01b03841686306001600160801b038616611c70565b600186015460405163e8eda9df60e01b81526001600160a01b0391821660048201526001600160801b0384166024820152306044820152600060648201529082169063e8eda9df90608401600060405180830381600087803b158015610bec57600080fd5b505af1158015610c00573d6000803e3d6000fd5b50505050505050505050565b6001600160801b03831660009081526010850160205260408120610c3086866119be565b600e8601546001600160801b03600160801b909104811690841611610e90576000610c5c878787611ca8565b9050808260050160108282829054906101000a90046001600160801b0316610c849190612889565b92506101000a8154816001600160801b0302191690836001600160801b03160217905550848260010160108282829054906101000a90046001600160801b0316610cce9190612889565b92506101000a8154816001600160801b0302191690836001600160801b03160217905550848260020160008282829054906101000a90046001600160801b0316610d189190612889565b92506101000a8154816001600160801b0302191690836001600160801b0316021790555080610d708360040160109054906101000a90046001600160801b0316876001600160801b0316611b0590919063ffffffff16565b610d7a919061285e565b9250610d8e836001600160801b0316611ceb565b600c88018054600090610dab9084906001600160801b0316612889565b82546101009290920a6001600160801b03818102199093169183160217909155600184015416159050610e2357848260020160108282829054906101000a90046001600160801b0316610dfe919061285e565b92506101000a8154816001600160801b0302191690836001600160801b031602179055505b86546004830154604080519283526001600160801b03898116602085015288811684830152600160801b909204821660608401529083166080830152517f734f310695946c48014ee6c5b2c87bde095cb335f0ee8ba563b857d9f78dda6f9181900360a00190a150610f34565b600381018054859190600090610eb09084906001600160801b0316612889565b82546101009290920a6001600160801b038181021990931691831602179091556005830154610ee492508682169116611b05565b8654604080519182526001600160801b0380891660208401528716908201529092507fd1f4d0b2dd080e7be08a59618fdbde6a5141d3ac954ef2bc994147c26adc05299060600160405180910390a15b600c8601546001600160801b03868116600160801b90920416148015610f6c57506001810154600160801b90046001600160801b0316155b15611053576004860154600090610f8c906001600160801b03168761285e565b90505b60038701546001600160801b03600160801b909104811690821611801590610fdb57506001600160801b038082166000908152601089016020526040902060010154600160801b900416155b15610fff576004870154610ff8906001600160801b03168261285e565b9050610f8f565b60038701546001600160801b03600160801b90910481169082161061103457600c870180546001600160801b03169055611051565b600c870180546001600160801b03808416600160801b0291161790555b505b50949350505050565b6006810154600a820154600091829161108f916001600160801b03600160801b909104811691630100000090041661285e565b6001600160801b03169050804211156110f557600f8301546000906001600160801b03166110bd57426110cc565b600f8401546001600160801b03165b60078501549091506001600160801b03166110e78383612847565b6110f191906128b1565b9250505b50919050565b600a820154600090630100000090046001600160801b031661111f575060006111e6565b8161115357600a830154630100000090046001600160801b031642116111535750600b8201546001600160801b03166111e6565b600c830154600160801b90046001600160801b03165b60038401546001600160801b03600160801b9091048116908216116111e4576001600160801b0380821660009081526010860160205260409020600181015490916111b79187911684610306565b6111c1908461285e565b60048601549093506111dd91506001600160801b03168261285e565b9050611169565b505b92915050565b6001600160801b038083166000908152601085016020526040812060048101546002820154929384938682169261122f9291821691600160801b90910416611b05565b6001600160801b03161061124557839150611366565b6005810154600482015460028301546001600160801b0380881693600160801b9081900482169361127c9383169291900416611b05565b611286919061285e565b6001600160801b03161061131657600481015460028201548593506112bf916001600160801b0391821691600160801b90910416611b05565b6112c99085612889565b6005820180546010906112ed908490600160801b90046001600160801b0316612889565b92506101000a8154816001600160801b0302191690836001600160801b03160217905550611366565b6005810154600482015460028301546001600160801b03600160801b9384900481169361134893928216920416611b05565b611352919061285e565b6005820180546001600160801b0316905591505b600a8601546000906113bc908790630100000090046001600160801b0316156113a957600a89015461034e904290630100000090046001600160801b0316612889565b60058901546001600160801b0316611943565b90506113d16001600160801b038416826119a6565b93505050935093915050565b6001600160801b03808416600090815260108601602052604081206001810180549193869391926114109185911661285e565b92506101000a8154816001600160801b0302191690836001600160801b0316021790555060006114698260040160109054906101000a90046001600160801b0316846001600160801b0316611a8a90919063ffffffff16565b60028301549091506001600160801b039081169082161115611495575060028101546001600160801b03165b6002820180548291906000906114b59084906001600160801b0316612889565b92506101000a8154816001600160801b0302191690836001600160801b03160217905550828260030160108282829054906101000a90046001600160801b03166114ff919061285e565b82546101009290920a6001600160801b0381810219909316918316021790915560018401546002850154600093506115429290811691600160801b9004166119a6565b87546004850154604080519283526001600160801b038a81166020850152868116848301528881166060850152600160801b9092048216608084015290831660a0830152519192507ffe90533f64e0218e653848ea72d743b24cbd3105adac7b6b54c4fe5223190a7f919081900360c00190a1600b870180548691906000906115d59084906001600160801b031661285e565b92506101000a8154816001600160801b0302191690836001600160801b031602179055508387600a0160020160008282829054906101000a90046001600160801b03166116229190612889565b92506101000a8154816001600160801b0302191690836001600160801b0316021790555050505050505050565b6002820154600183015460405163d15e005360e01b81526001600160a01b039182166004820152600092919091169063d15e00539060240160206040518083038186803b15801561169f57600080fd5b505afa1580156116b3573d6000803e3d6000fd5b505050506040513d601f19601f820116820180604052508101906116d791906128d0565b90506116ec6001600160801b03831682611a8a565b600d84018054601090611710908490600160801b90046001600160801b031661285e565b92506101000a8154816001600160801b0302191690836001600160801b0316021790555092915050565b600c8101546002820154600183015460405163d15e005360e01b81526001600160a01b039182166004820152600093600160801b90046001600160801b0316928492169063d15e00539060240160206040518083038186803b15801561179f57600080fd5b505afa1580156117b3573d6000803e3d6000fd5b505050506040513d601f19601f820116820180604052508101906117d791906128d0565b600d8501549091506117f990600160801b90046001600160801b031682611b05565b600c85018054919450849160009061181b9084906001600160801b031661285e565b82546101009290920a6001600160801b03818102199093169183160217909155600d860180549091169055505b6001600160801b038083166000908152601086016020526040902060010154161580159061188e575060038401546001600160801b03600160801b909104811690831611155b1561193c57600b8401546001600160801b0383811660009081526010870160205260409020600101546118cc928216916107d791878216911661198e565b6001600160801b0380841660009081526010808801602052604090912060050180549092611904918591600160801b9091041661285e565b82546101009290920a6001600160801b0381810219909316918316021790915560048601546119359250168361285e565b9150611848565b5050919050565b60006103ce6301e133806119636001600160801b038086169087166128b1565b61196d91906128ff565b61197f90670de0b6b3a7640000612913565b670de0b6b3a7640000906119a6565b60006103ce6001600160801b03848116908416611d04565b60006103ce6001600160801b03848116908416611d8f565b6002820154600183015460405163d15e005360e01b81526001600160a01b039182166004820152600092919091169063d15e00539060240160206040518083038186803b158015611a0e57600080fd5b505afa158015611a22573d6000803e3d6000fd5b505050506040513d601f19601f82011682018060405250810190611a4691906128d0565b9050611a53838383611e24565b6001600160801b039182166000908152601090930160205260409092206005018054919092166001600160801b0319909116179055565b60006103ce611ab4836001600160801b0316611aae866001600160801b031661206f565b906120ae565b612137565b6001600160801b0380831660009081526010850160209081526040808320858516845291829052909120549091169081611afd576b033b2e3c9fd0803ce800000091505b509392505050565b60006103ce611ab4836001600160801b0316611b29866001600160801b031661206f565b90612188565b60006111e6826001600160801b031661206f565b6000670de0b6b3a7640000611b5983600a612a0f565b611b6c906001600160801b0386166128b1565b6103ce91906128ff565b604051636eb1769f60e11b81523060048201526001600160a01b038381166024830152600091839186169063dd62ed3e9060440160206040518083038186803b158015611bc257600080fd5b505afa158015611bd6573d6000803e3d6000fd5b505050506040513d601f19601f82011682018060405250810190611bfa91906128d0565b611c049190612913565b6040516001600160a01b038516602482015260448101829052909150611c6a90859063095ea7b360e01b906064015b60408051601f198184030181529190526020810180516001600160e01b03166001600160e01b031990931692909217909152612207565b50505050565b6040516001600160a01b0380851660248301528316604482015260648101829052611c6a9085906323b872dd60e01b90608401611c33565b6001600160801b038083166000908152601085016020526040812060028101546005820154929391926103ca92918216916107d791600160801b9004168661198e565b60006103e8611cfa8184612a1b565b6111e69190612a41565b6000821580611d11575081155b15611d1e575060006111e6565b81611d326002670de0b6b3a76400006128ff565b611d3e90600019612847565b611d4891906128ff565b831115611d675760405162a748d160e21b815260040160405180910390fd5b670de0b6b3a7640000611d7b6002826128ff565b611d8584866128b1565b611b6c9190612913565b600081611daf576040516308693c7b60e31b815260040160405180910390fd5b6000611dbc6002846128ff565b9050670de0b6b3a7640000611dd382600019612847565b611ddd91906128ff565b841115611dfc5760405162a748d160e21b815260040160405180910390fd5b8281611e10670de0b6b3a7640000876128b1565b611e1a9190612913565b610ac891906128ff565b6001600160801b0380831660009081526010850160205260409020600481015490914291161015611c6a576000808080611e5f8888886122e3565b92965090945092509050611e7c6001600160801b03831687611a8a565b600d89018054601090611ea0908490600160801b90046001600160801b0316612889565b82546101009290920a6001600160801b038181021990931691831602179091556002870154611ed192501682611b05565b611edb908361285e565b600c89018054600090611ef89084906001600160801b031661285e565b92506101000a8154816001600160801b0302191690836001600160801b0316021790555060008560050160109054906101000a90046001600160801b031684611f419190612889565b6004870154909150600160801b90046001600160801b0316611fc1576005860180546001600160801b0319166001600160801b038981169182179092558a5460408051918252928b166020820152918201527f1ffcce3f36329128f865c47cacfc17ad27e65f7039d7aacd9d6350644c465a919060600160405180910390a15b6005860180546001600160801b03908116600160801b8783168102919091179092556001600160801b03198782168302164282161760048901558a54600d8c01547fda58df82953130c96b08dcda8a76478b2a4e0c16cddf3e59ac1ccf39d7b027639391928c926120349204168b611b05565b604080519384526001600160801b039283166020850152908216908301528316606082015260800160405180910390a1505050505050505050565b600080612080633b9aca00846128b1565b905082612091633b9aca00836128ff565b146111e65760405162a748d160e21b815260040160405180910390fd5b6000816120ce576040516308693c7b60e31b815260040160405180910390fd5b60006120db6002846128ff565b90506b033b2e3c9fd0803ce80000006120f682600019612847565b61210091906128ff565b84111561211f5760405162a748d160e21b815260040160405180910390fd5b8281611e106b033b2e3c9fd0803ce8000000876128b1565b6000806121496002633b9aca006128ff565b905060006121578483612913565b90508181101561217a576040516307af724160e11b815260040160405180910390fd5b6110f1633b9aca00826128ff565b6000821580612195575081155b156121a2575060006111e6565b816121ba60026b033b2e3c9fd0803ce80000006128ff565b6121c690600019612847565b6121d091906128ff565b8311156121ef5760405162a748d160e21b815260040160405180910390fd5b6b033b2e3c9fd0803ce8000000611d7b6002826128ff565b600061225c826040518060400160405280602081526020017f5361666545524332303a206c6f772d6c6576656c2063616c6c206661696c6564815250856001600160a01b031661248e9092919063ffffffff16565b8051909150156122de578080602001905181019061227a9190612a70565b6122de5760405162461bcd60e51b815260206004820152602a60248201527f5361666545524332303a204552433230206f7065726174696f6e20646964206e6044820152691bdd081cdd58d8d9595960b21b60648201526084015b60405180910390fd5b505050565b6001600160801b0380831660009081526010850160205260408120600481015491928392839283929091600160801b90041661232d57856000806000945094509450945050612485565b60048101546005820154600e8a01546001600160801b03600160801b9384900481169850928204831696506000929182169116111561237a5750600e8801546001600160801b031661238a565b5060058101546001600160801b03165b6123948188612889565b92506123a0898961249d565b600d8a01549094506000906123c590600160801b90046001600160801b031689611b05565b9050806001600160801b0316856001600160801b031611156123e5578094505b600a8a0154630100000090046001600160801b031661245057612408848861285e565b60028401549097506001600160801b03161561244b57600283015461243e906001600160801b03908116906107d7908816611b2f565b612448908861285e565b96505b612481565b6002830154859061246a906001600160801b031686611b05565b612474919061285e565b61247e908761285e565b95505b5050505b93509350935093565b6060610ac88484600085612569565b6001600160801b0380821660009081526010840160205260408120600c8501549192909116156111e457600c84015460048201546002830154610ac8926001600160801b03908116926107d7926124ff9290811691600160801b900416611b05565b6004880154600b890154610aff916001600160801b03600160801b918290048116926107d7926125329291041683612889565b600489015461254a906001600160801b031642612889565b60058d0154610aff9190600160801b90046001600160801b0316612a41565b6060824710156125ca5760405162461bcd60e51b815260206004820152602660248201527f416464726573733a20696e73756666696369656e742062616c616e636520666f6044820152651c8818d85b1b60d21b60648201526084016122d5565b6001600160a01b0385163b6126215760405162461bcd60e51b815260206004820152601d60248201527f416464726573733a2063616c6c20746f206e6f6e2d636f6e747261637400000060448201526064016122d5565b600080866001600160a01b0316858760405161263d9190612ab9565b60006040518083038185875af1925050503d806000811461267a576040519150601f19603f3d011682016040523d82523d6000602084013e61267f565b606091505b509150915061268f82828661269a565b979650505050505050565b606083156126a95750816103ce565b8251156126b95782518084602001fd5b8160405162461bcd60e51b81526004016122d59190612ad5565b80356001600160801b03811681146126ea57600080fd5b919050565b60008060006060848603121561270457600080fd5b83359250612714602085016126d3565b9150612722604085016126d3565b90509250925092565b6000806000806080858703121561274157600080fd5b84359350612751602086016126d3565b925061275f604086016126d3565b915061276d606086016126d3565b905092959194509250565b6000806040838503121561278b57600080fd5b8235915061279b602084016126d3565b90509250929050565b6000806000606084860312156127b957600080fd5b8335925060208401356001600160a01b038116811461271457600080fd5b6000602082840312156127e957600080fd5b5035919050565b80151581146127fe57600080fd5b50565b6000806040838503121561281457600080fd5b823591506020830135612826816127f0565b809150509250929050565b634e487b7160e01b600052601160045260246000fd5b60008282101561285957612859612831565b500390565b60006001600160801b0380831681851680830382111561288057612880612831565b01949350505050565b60006001600160801b03838116908316818110156128a9576128a9612831565b039392505050565b60008160001904831182151516156128cb576128cb612831565b500290565b6000602082840312156128e257600080fd5b5051919050565b634e487b7160e01b600052601260045260246000fd5b60008261290e5761290e6128e9565b500490565b6000821982111561292657612926612831565b500190565b600181815b8085111561296657816000190482111561294c5761294c612831565b8085161561295957918102915b93841c9390800290612930565b509250929050565b60008261297d575060016111e6565b8161298a575060006111e6565b81600181146129a057600281146129aa576129c6565b60019150506111e6565b60ff8411156129bb576129bb612831565b50506001821b6111e6565b5060208310610133831016604e8410600b84101617156129e9575081810a6111e6565b6129f3838361292b565b8060001904821115612a0757612a07612831565b029392505050565b60006103ce838361296e565b60006001600160801b0380841680612a3557612a356128e9565b92169190910492915050565b60006001600160801b0380831681851681830481118215151615612a6757612a67612831565b02949350505050565b600060208284031215612a8257600080fd5b81516103ce816127f0565b60005b83811015612aa8578181015183820152602001612a90565b83811115611c6a5750506000910152565b60008251612acb818460208701612a8d565b9190910192915050565b6020815260008251806020840152612af4816040850160208701612a8d565b601f01601f1916919091016040019291505056fea26469706673582212202dc57bf92594d324c02fff7131e1c02840ccf08de256f64b55e2c86142af1c0264736f6c63430008090033",
  "devdoc": {
    "kind": "dev",
    "methods": {
      "addBondsToTick(Types.Pool storage,uint128,uint128,uint128)": {
        "details": "Makes all the state changes necessary to add bonds to a tick Updates tick data and conversion data*"
      },
      "computeAmountRepartitionForTick(Types.Pool storage,uint128,uint128,uint128)": {
        "details": "Computes how the position is split between deposit and bonds*"
      },
      "depositToTick(Types.Pool storage,uint128,uint128)": {
        "details": "Deposit to a target tick Updates tick data*"
      },
      "distributeLiquidityRewards(Types.Pool storage)": {
        "details": "Distributes remaining liquidity rewards reserve to lenders Called in case of pool default*"
      },
      "getBondsIssuanceParametersForTick(Types.Pool storage,uint128,uint128)": {
        "details": "Computes the quantity of bonds purchased, and the equivalent adjusted deposit amount used for the issuance*"
      },
      "getRepayValue(Types.Pool storage,bool)": {
        "details": "The return value includes only notional and accrued interest, it does not include any fees due for repay by the borrrower*"
      },
      "peekAccruedFeesShare(Types.Pool storage,uint128,uint128,uint128)": {
        "details": "Get share of accumulated fees from estimated current tick state*"
      },
      "repayForTick(Types.Pool storage,uint128,uint128)": {
        "details": "Updates tick data after a repayment*"
      },
      "topUpLiquidityRewards(Types.Pool storage,uint128)": {
        "details": "Top up liquidity rewards for later distribution*"
      },
      "withdrawDepositedAmountForTick(Types.Pool storage,uint128,uint128,uint128)": {
        "details": "Updates tick data after a withdrawal consisting of only amount deposited to yield provider*"
      }
    },
    "version": 1
  },
  "userdoc": {
    "kind": "user",
    "methods": {},
    "version": 1
  },
  "storageLayout": {
    "storage": [],
    "types": null
  }
}