{
  "address": "0x64125F7987A21b42ed485d69b055e3a493542F17",
  "abi": [
    {
      "inputs": [],
      "name": "BP_BOND_ISSUANCE_ID_TOO_HIGH",
      "type": "error"
    },
    {
      "inputs": [],
      "name": "BP_BORROW_COOLDOWN_PERIOD_NOT_OVER",
      "type": "error"
    },
    {
      "inputs": [],
      "name": "BP_BORROW_MAX_BORROWABLE_AMOUNT_EXCEEDED",
      "type": "error"
    },
    {
      "inputs": [],
      "name": "BP_BORROW_OUT_OF_BOUND_AMOUNT",
      "type": "error"
    },
    {
      "inputs": [],
      "name": "BP_BORROW_UNSUFFICIENT_BORROWABLE_AMOUNT_WITHIN_BRACKETS",
      "type": "error"
    },
    {
      "inputs": [],
      "name": "BP_EARLY_REPAY_NOT_ACTIVATED",
      "type": "error"
    },
    {
      "inputs": [],
      "name": "BP_LOAN_ONGOING",
      "type": "error"
    },
    {
      "inputs": [],
      "name": "BP_MULTIPLE_BORROW_AFTER_MATURITY",
      "type": "error"
    },
    {
      "inputs": [],
      "name": "BP_NO_DEPOSIT_TO_WITHDRAW",
      "type": "error"
    },
    {
      "inputs": [],
      "name": "BP_OUT_OF_BOUND_MAX_RATE",
      "type": "error"
    },
    {
      "inputs": [],
      "name": "BP_OUT_OF_BOUND_MIN_RATE",
      "type": "error"
    },
    {
      "inputs": [],
      "name": "BP_POOL_CLOSED",
      "type": "error"
    },
    {
      "inputs": [],
      "name": "BP_POOL_DEFAULTED",
      "type": "error"
    },
    {
      "inputs": [],
      "name": "BP_POOL_NOT_ACTIVE",
      "type": "error"
    },
    {
      "inputs": [],
      "name": "BP_RATE_SPACING",
      "type": "error"
    },
    {
      "inputs": [],
      "name": "BP_REPAY_NO_ACTIVE_LOAN",
      "type": "error"
    },
    {
      "inputs": [],
      "name": "BP_TARGET_BOND_ISSUANCE_INDEX_EMPTY",
      "type": "error"
    },
    {
      "inputs": [],
      "name": "BP_UNMATCHED_TOKEN",
      "type": "error"
    },
    {
      "inputs": [],
      "name": "MATH_ADDITION_OVERFLOW",
      "type": "error"
    },
    {
      "inputs": [],
      "name": "MATH_DIVISION_BY_ZERO",
      "type": "error"
    },
    {
      "inputs": [],
      "name": "MATH_MULTIPLICATION_OVERFLOW",
      "type": "error"
    },
    {
      "inputs": [],
      "name": "PC_DISALLOW_UNMATCHED_BORROWER",
      "type": "error"
    },
    {
      "inputs": [],
      "name": "PC_ESTABLISHMENT_FEES_TOO_HIGH",
      "type": "error"
    },
    {
      "inputs": [],
      "name": "PC_NOT_ENOUGH_PROTOCOL_FEES",
      "type": "error"
    },
    {
      "inputs": [],
      "name": "PC_NO_ONGOING_LOAN",
      "type": "error"
    },
    {
      "inputs": [],
      "name": "PC_POOL_ALREADY_CLOSED",
      "type": "error"
    },
    {
      "inputs": [],
      "name": "PC_POOL_ALREADY_SET_FOR_BORROWER",
      "type": "error"
    },
    {
      "inputs": [],
      "name": "PC_POOL_DEFAULTED",
      "type": "error"
    },
    {
      "inputs": [],
      "name": "PC_POOL_NOT_ACTIVE",
      "type": "error"
    },
    {
      "inputs": [],
      "name": "PC_POOL_TOKEN_NOT_SUPPORTED",
      "type": "error"
    },
    {
      "inputs": [],
      "name": "PC_RATE_SPACING_COMPLIANCE",
      "type": "error"
    },
    {
      "inputs": [],
      "name": "PC_REPAYMENT_PERIOD_ONGOING",
      "type": "error"
    },
    {
      "inputs": [],
      "name": "PC_ZERO_ADDRESS",
      "type": "error"
    },
    {
      "inputs": [],
      "name": "PC_ZERO_POOL",
      "type": "error"
    },
    {
      "anonymous": false,
      "inputs": [
        {
          "indexed": true,
          "internalType": "bytes32",
          "name": "poolHash",
          "type": "bytes32"
        },
        {
          "indexed": false,
          "internalType": "uint128",
          "name": "normalizedBorrowedAmount",
          "type": "uint128"
        },
        {
          "indexed": false,
          "internalType": "uint128",
          "name": "establishmentFees",
          "type": "uint128"
        }
      ],
      "name": "Borrow",
      "type": "event"
    },
    {
      "anonymous": false,
      "inputs": [
        {
          "indexed": false,
          "internalType": "address",
          "name": "borrowerAddress",
          "type": "address"
        },
        {
          "indexed": false,
          "internalType": "bytes32",
          "name": "poolHash",
          "type": "bytes32"
        }
      ],
      "name": "BorrowerAllowed",
      "type": "event"
    },
    {
      "anonymous": false,
      "inputs": [
        {
          "indexed": false,
          "internalType": "address",
          "name": "borrowerAddress",
          "type": "address"
        },
        {
          "indexed": false,
          "internalType": "bytes32",
          "name": "poolHash",
          "type": "bytes32"
        }
      ],
      "name": "BorrowerDisallowed",
      "type": "event"
    },
    {
      "anonymous": false,
      "inputs": [
        {
          "indexed": false,
          "internalType": "bytes32",
          "name": "poolHash",
          "type": "bytes32"
        },
        {
          "indexed": false,
          "internalType": "uint128",
          "name": "normalizedAmount",
          "type": "uint128"
        },
        {
          "indexed": false,
          "internalType": "address",
          "name": "to",
          "type": "address"
        }
      ],
      "name": "ClaimProtocolFees",
      "type": "event"
    },
    {
      "anonymous": false,
      "inputs": [
        {
          "indexed": false,
          "internalType": "bytes32",
          "name": "poolHash",
          "type": "bytes32"
        },
        {
          "indexed": false,
          "internalType": "uint128",
          "name": "rate",
          "type": "uint128"
        },
        {
          "indexed": false,
          "internalType": "uint128",
          "name": "remainingLiquidityRewards",
          "type": "uint128"
        },
        {
          "indexed": false,
          "internalType": "uint128",
          "name": "addedAccruedFees",
          "type": "uint128"
        }
      ],
      "name": "CollectFeesForTick",
      "type": "event"
    },
    {
      "anonymous": false,
      "inputs": [
        {
          "indexed": false,
          "internalType": "bytes32",
          "name": "poolHash",
          "type": "bytes32"
        },
        {
          "indexed": false,
          "internalType": "uint128",
          "name": "distributedLiquidityRewards",
          "type": "uint128"
        }
      ],
      "name": "Default",
      "type": "event"
    },
    {
      "anonymous": false,
      "inputs": [
        {
          "indexed": true,
          "internalType": "bytes32",
          "name": "poolHash",
          "type": "bytes32"
        },
        {
          "indexed": false,
          "internalType": "uint128",
          "name": "normalizedRepayAmount",
          "type": "uint128"
        },
        {
          "indexed": false,
          "internalType": "uint128",
          "name": "repaymentFee",
          "type": "uint128"
        },
        {
          "indexed": false,
          "internalType": "uint128",
          "name": "normalizedDepositsAfterRepay",
          "type": "uint128"
        },
        {
          "indexed": false,
          "internalType": "uint128",
          "name": "nextLoanMinStart",
          "type": "uint128"
        }
      ],
      "name": "EarlyRepay",
      "type": "event"
    },
    {
      "anonymous": false,
      "inputs": [
        {
          "indexed": true,
          "internalType": "bytes32",
          "name": "poolHash",
          "type": "bytes32"
        },
        {
          "indexed": false,
          "internalType": "uint128",
          "name": "normalizedBorrowedAmount",
          "type": "uint128"
        },
        {
          "indexed": false,
          "internalType": "uint128",
          "name": "establishmentFees",
          "type": "uint128"
        }
      ],
      "name": "FurtherBorrow",
      "type": "event"
    },
    {
      "anonymous": false,
      "inputs": [
        {
          "indexed": true,
          "internalType": "bytes32",
          "name": "poolHash",
          "type": "bytes32"
        },
        {
          "indexed": false,
          "internalType": "uint128",
          "name": "normalizedRepayAmount",
          "type": "uint128"
        },
        {
          "indexed": false,
          "internalType": "uint128",
          "name": "lateRepayFee",
          "type": "uint128"
        },
        {
          "indexed": false,
          "internalType": "uint128",
          "name": "repaymentFee",
          "type": "uint128"
        },
        {
          "indexed": false,
          "internalType": "uint128",
          "name": "normalizedDepositsAfterRepay",
          "type": "uint128"
        },
        {
          "indexed": false,
          "internalType": "uint128",
          "name": "nextLoanMinStart",
          "type": "uint128"
        }
      ],
      "name": "LateRepay",
      "type": "event"
    },
    {
      "anonymous": false,
      "inputs": [
        {
          "indexed": false,
          "internalType": "address",
          "name": "account",
          "type": "address"
        }
      ],
      "name": "Paused",
      "type": "event"
    },
    {
      "anonymous": false,
      "inputs": [
        {
          "indexed": false,
          "internalType": "bytes32",
          "name": "poolHash",
          "type": "bytes32"
        }
      ],
      "name": "PoolActivated",
      "type": "event"
    },
    {
      "anonymous": false,
      "inputs": [
        {
          "indexed": false,
          "internalType": "bytes32",
          "name": "poolHash",
          "type": "bytes32"
        },
        {
          "indexed": false,
          "internalType": "uint128",
          "name": "collectedLiquidityRewards",
          "type": "uint128"
        }
      ],
      "name": "PoolClosed",
      "type": "event"
    },
    {
      "anonymous": false,
      "inputs": [
        {
          "components": [
            {
              "internalType": "bytes32",
              "name": "poolHash",
              "type": "bytes32"
            },
            {
              "internalType": "address",
              "name": "underlyingToken",
              "type": "address"
            },
            {
              "internalType": "contract ILendingPool",
              "name": "yieldProvider",
              "type": "address"
            },
            {
              "internalType": "uint128",
              "name": "minRate",
              "type": "uint128"
            },
            {
              "internalType": "uint128",
              "name": "maxRate",
              "type": "uint128"
            },
            {
              "internalType": "uint128",
              "name": "rateSpacing",
              "type": "uint128"
            },
            {
              "internalType": "uint128",
              "name": "maxBorrowableAmount",
              "type": "uint128"
            },
            {
              "internalType": "uint128",
              "name": "loanDuration",
              "type": "uint128"
            },
            {
              "internalType": "uint128",
              "name": "distributionRate",
              "type": "uint128"
            },
            {
              "internalType": "uint128",
              "name": "cooldownPeriod",
              "type": "uint128"
            },
            {
              "internalType": "uint128",
              "name": "repaymentPeriod",
              "type": "uint128"
            },
            {
              "internalType": "uint128",
              "name": "lateRepayFeePerBondRate",
              "type": "uint128"
            },
            {
              "internalType": "uint128",
              "name": "establishmentFeeRate",
              "type": "uint128"
            },
            {
              "internalType": "uint128",
              "name": "repaymentFeeRate",
              "type": "uint128"
            },
            {
              "internalType": "uint128",
              "name": "liquidityRewardsActivationThreshold",
              "type": "uint128"
            },
            {
              "internalType": "bool",
              "name": "earlyRepay",
              "type": "bool"
            }
          ],
          "indexed": false,
          "internalType": "struct IPoolsController.PoolCreationParams",
          "name": "params",
          "type": "tuple"
        }
      ],
      "name": "PoolCreated",
      "type": "event"
    },
    {
      "anonymous": false,
      "inputs": [
        {
          "indexed": true,
          "internalType": "bytes32",
          "name": "poolHash",
          "type": "bytes32"
        },
        {
          "indexed": false,
          "internalType": "uint128",
          "name": "normalizedRepayAmount",
          "type": "uint128"
        },
        {
          "indexed": false,
          "internalType": "uint128",
          "name": "repaymentFee",
          "type": "uint128"
        },
        {
          "indexed": false,
          "internalType": "uint128",
          "name": "normalizedDepositsAfterRepay",
          "type": "uint128"
        },
        {
          "indexed": false,
          "internalType": "uint128",
          "name": "nextLoanMinStart",
          "type": "uint128"
        }
      ],
      "name": "Repay",
      "type": "event"
    },
    {
      "anonymous": false,
      "inputs": [
        {
          "indexed": true,
          "internalType": "bytes32",
          "name": "role",
          "type": "bytes32"
        },
        {
          "indexed": true,
          "internalType": "bytes32",
          "name": "previousAdminRole",
          "type": "bytes32"
        },
        {
          "indexed": true,
          "internalType": "bytes32",
          "name": "newAdminRole",
          "type": "bytes32"
        }
      ],
      "name": "RoleAdminChanged",
      "type": "event"
    },
    {
      "anonymous": false,
      "inputs": [
        {
          "indexed": true,
          "internalType": "bytes32",
          "name": "role",
          "type": "bytes32"
        },
        {
          "indexed": true,
          "internalType": "address",
          "name": "account",
          "type": "address"
        },
        {
          "indexed": true,
          "internalType": "address",
          "name": "sender",
          "type": "address"
        }
      ],
      "name": "RoleGranted",
      "type": "event"
    },
    {
      "anonymous": false,
      "inputs": [
        {
          "indexed": true,
          "internalType": "bytes32",
          "name": "role",
          "type": "bytes32"
        },
        {
          "indexed": true,
          "internalType": "address",
          "name": "account",
          "type": "address"
        },
        {
          "indexed": true,
          "internalType": "address",
          "name": "sender",
          "type": "address"
        }
      ],
      "name": "RoleRevoked",
      "type": "event"
    },
    {
      "anonymous": false,
      "inputs": [
        {
          "indexed": false,
          "internalType": "uint128",
          "name": "establishmentRate",
          "type": "uint128"
        },
        {
          "indexed": false,
          "internalType": "bytes32",
          "name": "poolHash",
          "type": "bytes32"
        }
      ],
      "name": "SetEstablishmentFeeRate",
      "type": "event"
    },
    {
      "anonymous": false,
      "inputs": [
        {
          "indexed": false,
          "internalType": "uint128",
          "name": "distributionRate",
          "type": "uint128"
        },
        {
          "indexed": false,
          "internalType": "bytes32",
          "name": "poolHash",
          "type": "bytes32"
        }
      ],
      "name": "SetLiquidityRewardsDistributionRate",
      "type": "event"
    },
    {
      "anonymous": false,
      "inputs": [
        {
          "indexed": false,
          "internalType": "uint128",
          "name": "maxTokenDeposit",
          "type": "uint128"
        },
        {
          "indexed": false,
          "internalType": "bytes32",
          "name": "poolHash",
          "type": "bytes32"
        }
      ],
      "name": "SetMaxBorrowableAmount",
      "type": "event"
    },
    {
      "anonymous": false,
      "inputs": [
        {
          "indexed": false,
          "internalType": "uint128",
          "name": "repaymentFeeRate",
          "type": "uint128"
        },
        {
          "indexed": false,
          "internalType": "bytes32",
          "name": "poolHash",
          "type": "bytes32"
        }
      ],
      "name": "SetRepaymentFeeRate",
      "type": "event"
    },
    {
      "anonymous": false,
      "inputs": [
        {
          "indexed": false,
          "internalType": "bytes32",
          "name": "poolHash",
          "type": "bytes32"
        },
        {
          "indexed": false,
          "internalType": "uint128",
          "name": "rate",
          "type": "uint128"
        },
        {
          "indexed": false,
          "internalType": "uint128",
          "name": "adjustedRemainingAmountReduction",
          "type": "uint128"
        },
        {
          "indexed": false,
          "internalType": "uint128",
          "name": "loanedAmount",
          "type": "uint128"
        },
        {
          "indexed": false,
          "internalType": "uint128",
          "name": "atlendisLiquidityRatio",
          "type": "uint128"
        },
        {
          "indexed": false,
          "internalType": "uint128",
          "name": "unborrowedRatio",
          "type": "uint128"
        }
      ],
      "name": "TickBorrow",
      "type": "event"
    },
    {
      "anonymous": false,
      "inputs": [
        {
          "indexed": false,
          "internalType": "bytes32",
          "name": "poolHash",
          "type": "bytes32"
        },
        {
          "indexed": false,
          "internalType": "uint128",
          "name": "rate",
          "type": "uint128"
        },
        {
          "indexed": false,
          "internalType": "uint128",
          "name": "atlendisLiquidityRatio",
          "type": "uint128"
        }
      ],
      "name": "TickInitialized",
      "type": "event"
    },
    {
      "anonymous": false,
      "inputs": [
        {
          "indexed": false,
          "internalType": "bytes32",
          "name": "poolHash",
          "type": "bytes32"
        },
        {
          "indexed": false,
          "internalType": "uint128",
          "name": "rate",
          "type": "uint128"
        },
        {
          "indexed": false,
          "internalType": "uint128",
          "name": "adjustedPendingDeposit",
          "type": "uint128"
        }
      ],
      "name": "TickLoanDeposit",
      "type": "event"
    },
    {
      "anonymous": false,
      "inputs": [
        {
          "indexed": false,
          "internalType": "bytes32",
          "name": "poolHash",
          "type": "bytes32"
        },
        {
          "indexed": false,
          "internalType": "uint128",
          "name": "rate",
          "type": "uint128"
        },
        {
          "indexed": false,
          "internalType": "uint128",
          "name": "adjustedAvailableDeposit",
          "type": "uint128"
        },
        {
          "indexed": false,
          "internalType": "uint128",
          "name": "atlendisLiquidityRatio",
          "type": "uint128"
        }
      ],
      "name": "TickNoLoanDeposit",
      "type": "event"
    },
    {
      "anonymous": false,
      "inputs": [
        {
          "indexed": false,
          "internalType": "bytes32",
          "name": "poolHash",
          "type": "bytes32"
        },
        {
          "indexed": false,
          "internalType": "uint128",
          "name": "rate",
          "type": "uint128"
        },
        {
          "indexed": false,
          "internalType": "uint128",
          "name": "adjustedPendingAmount",
          "type": "uint128"
        },
        {
          "indexed": false,
          "internalType": "bool",
          "name": "poolBondIssuanceIndexIncremented",
          "type": "bool"
        }
      ],
      "name": "TickPendingDeposit",
      "type": "event"
    },
    {
      "anonymous": false,
      "inputs": [
        {
          "indexed": false,
          "internalType": "bytes32",
          "name": "poolHash",
          "type": "bytes32"
        },
        {
          "indexed": false,
          "internalType": "uint128",
          "name": "rate",
          "type": "uint128"
        },
        {
          "indexed": false,
          "internalType": "uint128",
          "name": "adjustedRemainingAmount",
          "type": "uint128"
        },
        {
          "indexed": false,
          "internalType": "uint128",
          "name": "atlendisLiquidityRatio",
          "type": "uint128"
        }
      ],
      "name": "TickRepay",
      "type": "event"
    },
    {
      "anonymous": false,
      "inputs": [
        {
          "indexed": false,
          "internalType": "bytes32",
          "name": "poolHash",
          "type": "bytes32"
        },
        {
          "indexed": false,
          "internalType": "uint128",
          "name": "rate",
          "type": "uint128"
        },
        {
          "indexed": false,
          "internalType": "uint128",
          "name": "adjustedAmountToWithdraw",
          "type": "uint128"
        }
      ],
      "name": "TickWithdrawPending",
      "type": "event"
    },
    {
      "anonymous": false,
      "inputs": [
        {
          "indexed": false,
          "internalType": "bytes32",
          "name": "poolHash",
          "type": "bytes32"
        },
        {
          "indexed": false,
          "internalType": "uint128",
          "name": "rate",
          "type": "uint128"
        },
        {
          "indexed": false,
          "internalType": "uint128",
          "name": "adjustedAmountToWithdraw",
          "type": "uint128"
        },
        {
          "indexed": false,
          "internalType": "uint128",
          "name": "atlendisLiquidityRatio",
          "type": "uint128"
        },
        {
          "indexed": false,
          "internalType": "uint128",
          "name": "accruedFeesToWithdraw",
          "type": "uint128"
        }
      ],
      "name": "TickWithdrawRemaining",
      "type": "event"
    },
    {
      "anonymous": false,
      "inputs": [
        {
          "indexed": false,
          "internalType": "bytes32",
          "name": "poolHash",
          "type": "bytes32"
        },
        {
          "indexed": false,
          "internalType": "uint128",
          "name": "normalizedAmount",
          "type": "uint128"
        }
      ],
      "name": "TopUpLiquidityRewards",
      "type": "event"
    },
    {
      "anonymous": false,
      "inputs": [
        {
          "indexed": false,
          "internalType": "address",
          "name": "account",
          "type": "address"
        }
      ],
      "name": "Unpaused",
      "type": "event"
    },
    {
      "inputs": [],
      "name": "BORROWER_ROLE",
      "outputs": [
        {
          "internalType": "bytes32",
          "name": "",
          "type": "bytes32"
        }
      ],
      "stateMutability": "view",
      "type": "function"
    },
    {
      "inputs": [],
      "name": "DEFAULT_ADMIN_ROLE",
      "outputs": [
        {
          "internalType": "bytes32",
          "name": "",
          "type": "bytes32"
        }
      ],
      "stateMutability": "view",
      "type": "function"
    },
    {
      "inputs": [],
      "name": "GOVERNANCE_ROLE",
      "outputs": [
        {
          "internalType": "bytes32",
          "name": "",
          "type": "bytes32"
        }
      ],
      "stateMutability": "view",
      "type": "function"
    },
    {
      "inputs": [],
      "name": "POSITION_ROLE",
      "outputs": [
        {
          "internalType": "bytes32",
          "name": "",
          "type": "bytes32"
        }
      ],
      "stateMutability": "view",
      "type": "function"
    },
    {
      "inputs": [
        {
          "internalType": "address",
          "name": "borrowerAddress",
          "type": "address"
        },
        {
          "internalType": "bytes32",
          "name": "poolHash",
          "type": "bytes32"
        }
      ],
      "name": "allow",
      "outputs": [],
      "stateMutability": "nonpayable",
      "type": "function"
    },
    {
      "inputs": [
        {
          "internalType": "address",
          "name": "to",
          "type": "address"
        },
        {
          "internalType": "uint128",
          "name": "loanAmount",
          "type": "uint128"
        }
      ],
      "name": "borrow",
      "outputs": [],
      "stateMutability": "nonpayable",
      "type": "function"
    },
    {
      "inputs": [
        {
          "internalType": "address",
          "name": "",
          "type": "address"
        }
      ],
      "name": "borrowerAuthorizedPools",
      "outputs": [
        {
          "internalType": "bytes32",
          "name": "",
          "type": "bytes32"
        }
      ],
      "stateMutability": "view",
      "type": "function"
    },
    {
      "inputs": [
        {
          "internalType": "bytes32",
          "name": "poolHash",
          "type": "bytes32"
        },
        {
          "internalType": "uint128",
          "name": "amount",
          "type": "uint128"
        },
        {
          "internalType": "address",
          "name": "to",
          "type": "address"
        }
      ],
      "name": "claimProtocolFees",
      "outputs": [],
      "stateMutability": "nonpayable",
      "type": "function"
    },
    {
      "inputs": [
        {
          "internalType": "bytes32",
          "name": "poolHash",
          "type": "bytes32"
        },
        {
          "internalType": "address",
          "name": "to",
          "type": "address"
        }
      ],
      "name": "closePool",
      "outputs": [],
      "stateMutability": "nonpayable",
      "type": "function"
    },
    {
      "inputs": [
        {
          "internalType": "bytes32",
          "name": "poolHash",
          "type": "bytes32"
        }
      ],
      "name": "collectFees",
      "outputs": [],
      "stateMutability": "nonpayable",
      "type": "function"
    },
    {
      "inputs": [
        {
          "internalType": "bytes32",
          "name": "poolHash",
          "type": "bytes32"
        },
        {
          "internalType": "uint128",
          "name": "rate",
          "type": "uint128"
        }
      ],
      "name": "collectFeesForTick",
      "outputs": [],
      "stateMutability": "nonpayable",
      "type": "function"
    },
    {
      "inputs": [
        {
          "components": [
            {
              "internalType": "bytes32",
              "name": "poolHash",
              "type": "bytes32"
            },
            {
              "internalType": "address",
              "name": "underlyingToken",
              "type": "address"
            },
            {
              "internalType": "contract ILendingPool",
              "name": "yieldProvider",
              "type": "address"
            },
            {
              "internalType": "uint128",
              "name": "minRate",
              "type": "uint128"
            },
            {
              "internalType": "uint128",
              "name": "maxRate",
              "type": "uint128"
            },
            {
              "internalType": "uint128",
              "name": "rateSpacing",
              "type": "uint128"
            },
            {
              "internalType": "uint128",
              "name": "maxBorrowableAmount",
              "type": "uint128"
            },
            {
              "internalType": "uint128",
              "name": "loanDuration",
              "type": "uint128"
            },
            {
              "internalType": "uint128",
              "name": "distributionRate",
              "type": "uint128"
            },
            {
              "internalType": "uint128",
              "name": "cooldownPeriod",
              "type": "uint128"
            },
            {
              "internalType": "uint128",
              "name": "repaymentPeriod",
              "type": "uint128"
            },
            {
              "internalType": "uint128",
              "name": "lateRepayFeePerBondRate",
              "type": "uint128"
            },
            {
              "internalType": "uint128",
              "name": "establishmentFeeRate",
              "type": "uint128"
            },
            {
              "internalType": "uint128",
              "name": "repaymentFeeRate",
              "type": "uint128"
            },
            {
              "internalType": "uint128",
              "name": "liquidityRewardsActivationThreshold",
              "type": "uint128"
            },
            {
              "internalType": "bool",
              "name": "earlyRepay",
              "type": "bool"
            }
          ],
          "internalType": "struct IPoolsController.PoolCreationParams",
          "name": "params",
          "type": "tuple"
        }
      ],
      "name": "createNewPool",
      "outputs": [],
      "stateMutability": "nonpayable",
      "type": "function"
    },
    {
      "inputs": [
        {
          "internalType": "uint128",
          "name": "rate",
          "type": "uint128"
        },
        {
          "internalType": "bytes32",
          "name": "poolHash",
          "type": "bytes32"
        },
        {
          "internalType": "address",
          "name": "underlyingToken",
          "type": "address"
        },
        {
          "internalType": "address",
          "name": "sender",
          "type": "address"
        },
        {
          "internalType": "uint128",
          "name": "normalizedAmount",
          "type": "uint128"
        }
      ],
      "name": "deposit",
      "outputs": [
        {
          "internalType": "uint128",
          "name": "adjustedAmount",
          "type": "uint128"
        },
        {
          "internalType": "uint128",
          "name": "bondsIssuanceIndex",
          "type": "uint128"
        }
      ],
      "stateMutability": "nonpayable",
      "type": "function"
    },
    {
      "inputs": [
        {
          "internalType": "address",
          "name": "borrowerAddress",
          "type": "address"
        },
        {
          "internalType": "bytes32",
          "name": "poolHash",
          "type": "bytes32"
        }
      ],
      "name": "disallow",
      "outputs": [],
      "stateMutability": "nonpayable",
      "type": "function"
    },
    {
      "inputs": [
        {
          "internalType": "uint128",
          "name": "normalizedBorrowedAmount",
          "type": "uint128"
        },
        {
          "internalType": "bytes32",
          "name": "poolHash",
          "type": "bytes32"
        }
      ],
      "name": "estimateLoanRate",
      "outputs": [
        {
          "internalType": "uint128",
          "name": "estimatedRate",
          "type": "uint128"
        }
      ],
      "stateMutability": "view",
      "type": "function"
    },
    {
      "inputs": [],
      "name": "freezePool",
      "outputs": [],
      "stateMutability": "nonpayable",
      "type": "function"
    },
    {
      "inputs": [
        {
          "internalType": "bytes32",
          "name": "poolHash",
          "type": "bytes32"
        },
        {
          "internalType": "uint128",
          "name": "rate",
          "type": "uint128"
        },
        {
          "internalType": "uint128",
          "name": "adjustedAmount",
          "type": "uint128"
        },
        {
          "internalType": "uint128",
          "name": "bondsIssuanceIndex",
          "type": "uint128"
        }
      ],
      "name": "getAmountRepartition",
      "outputs": [
        {
          "internalType": "uint128",
          "name": "bondsQuantity",
          "type": "uint128"
        },
        {
          "internalType": "uint128",
          "name": "normalizedDepositedAmount",
          "type": "uint128"
        }
      ],
      "stateMutability": "view",
      "type": "function"
    },
    {
      "inputs": [
        {
          "internalType": "bytes32",
          "name": "poolHash",
          "type": "bytes32"
        }
      ],
      "name": "getDefaultTimestamp",
      "outputs": [
        {
          "internalType": "uint128",
          "name": "defaultTimestamp",
          "type": "uint128"
        }
      ],
      "stateMutability": "view",
      "type": "function"
    },
    {
      "inputs": [
        {
          "internalType": "bytes32",
          "name": "poolHash",
          "type": "bytes32"
        }
      ],
      "name": "getPoolAggregates",
      "outputs": [
        {
          "internalType": "uint128",
          "name": "weightedAverageLendingRate",
          "type": "uint128"
        },
        {
          "internalType": "uint128",
          "name": "adjustedPendingDeposits",
          "type": "uint128"
        }
      ],
      "stateMutability": "view",
      "type": "function"
    },
    {
      "inputs": [
        {
          "internalType": "bytes32",
          "name": "poolHash",
          "type": "bytes32"
        }
      ],
      "name": "getPoolFeeRates",
      "outputs": [
        {
          "internalType": "uint128",
          "name": "establishmentFeeRate",
          "type": "uint128"
        },
        {
          "internalType": "uint128",
          "name": "repaymentFeeRate",
          "type": "uint128"
        }
      ],
      "stateMutability": "view",
      "type": "function"
    },
    {
      "inputs": [
        {
          "internalType": "bytes32",
          "name": "poolHash",
          "type": "bytes32"
        }
      ],
      "name": "getPoolMaturity",
      "outputs": [
        {
          "internalType": "uint128",
          "name": "poolCurrentMaturity",
          "type": "uint128"
        }
      ],
      "stateMutability": "view",
      "type": "function"
    },
    {
      "inputs": [
        {
          "internalType": "bytes32",
          "name": "poolHash",
          "type": "bytes32"
        }
      ],
      "name": "getPoolParameters",
      "outputs": [
        {
          "internalType": "address",
          "name": "underlyingToken",
          "type": "address"
        },
        {
          "internalType": "uint128",
          "name": "minRate",
          "type": "uint128"
        },
        {
          "internalType": "uint128",
          "name": "maxRate",
          "type": "uint128"
        },
        {
          "internalType": "uint128",
          "name": "rateSpacing",
          "type": "uint128"
        },
        {
          "internalType": "uint128",
          "name": "maxBorrowableAmount",
          "type": "uint128"
        },
        {
          "internalType": "uint128",
          "name": "loanDuration",
          "type": "uint128"
        },
        {
          "internalType": "uint128",
          "name": "liquidityRewardsDistributionRate",
          "type": "uint128"
        },
        {
          "internalType": "uint128",
          "name": "cooldownPeriod",
          "type": "uint128"
        },
        {
          "internalType": "uint128",
          "name": "repaymentPeriod",
          "type": "uint128"
        },
        {
          "internalType": "uint128",
          "name": "lateRepayFeePerBondRate",
          "type": "uint128"
        },
        {
          "internalType": "uint128",
          "name": "liquidityRewardsActivationThreshold",
          "type": "uint128"
        }
      ],
      "stateMutability": "view",
      "type": "function"
    },
    {
      "inputs": [
        {
          "internalType": "bytes32",
          "name": "poolHash",
          "type": "bytes32"
        }
      ],
      "name": "getPoolState",
      "outputs": [
        {
          "internalType": "bool",
          "name": "active",
          "type": "bool"
        },
        {
          "internalType": "bool",
          "name": "defaulted",
          "type": "bool"
        },
        {
          "internalType": "bool",
          "name": "closed",
          "type": "bool"
        },
        {
          "internalType": "uint128",
          "name": "currentMaturity",
          "type": "uint128"
        },
        {
          "internalType": "uint128",
          "name": "bondsIssuedQuantity",
          "type": "uint128"
        },
        {
          "internalType": "uint128",
          "name": "normalizedBorrowedAmount",
          "type": "uint128"
        },
        {
          "internalType": "uint128",
          "name": "normalizedAvailableDeposits",
          "type": "uint128"
        },
        {
          "internalType": "uint128",
          "name": "lowerInterestRate",
          "type": "uint128"
        },
        {
          "internalType": "uint128",
          "name": "nextLoanMinStart",
          "type": "uint128"
        },
        {
          "internalType": "uint128",
          "name": "remainingAdjustedLiquidityRewardsReserve",
          "type": "uint128"
        },
        {
          "internalType": "uint128",
          "name": "yieldProviderLiquidityRatio",
          "type": "uint128"
        },
        {
          "internalType": "uint128",
          "name": "currentBondsIssuanceIndex",
          "type": "uint128"
        }
      ],
      "stateMutability": "view",
      "type": "function"
    },
    {
      "inputs": [
        {
          "internalType": "bytes32",
          "name": "poolHash",
          "type": "bytes32"
        }
      ],
      "name": "getProtocolFees",
      "outputs": [
        {
          "internalType": "uint128",
          "name": "",
          "type": "uint128"
        }
      ],
      "stateMutability": "view",
      "type": "function"
    },
    {
      "inputs": [
        {
          "internalType": "bytes32",
          "name": "poolHash",
          "type": "bytes32"
        },
        {
          "internalType": "bool",
          "name": "earlyRepay",
          "type": "bool"
        }
      ],
      "name": "getRepayAmounts",
      "outputs": [
        {
          "internalType": "uint128",
          "name": "normalizedRepayAmount",
          "type": "uint128"
        },
        {
          "internalType": "uint128",
          "name": "lateRepayFee",
          "type": "uint128"
        },
        {
          "internalType": "uint128",
          "name": "repaymentFees",
          "type": "uint128"
        }
      ],
      "stateMutability": "view",
      "type": "function"
    },
    {
      "inputs": [
        {
          "internalType": "bytes32",
          "name": "role",
          "type": "bytes32"
        }
      ],
      "name": "getRoleAdmin",
      "outputs": [
        {
          "internalType": "bytes32",
          "name": "",
          "type": "bytes32"
        }
      ],
      "stateMutability": "view",
      "type": "function"
    },
    {
      "inputs": [
        {
          "internalType": "bytes32",
          "name": "poolHash",
          "type": "bytes32"
        },
        {
          "internalType": "uint128",
          "name": "rate",
          "type": "uint128"
        }
      ],
      "name": "getTickAmounts",
      "outputs": [
        {
          "internalType": "uint128",
          "name": "adjustedTotalAmount",
          "type": "uint128"
        },
        {
          "internalType": "uint128",
          "name": "adjustedRemainingAmount",
          "type": "uint128"
        },
        {
          "internalType": "uint128",
          "name": "bondsQuantity",
          "type": "uint128"
        },
        {
          "internalType": "uint128",
          "name": "adjustedPendingAmount",
          "type": "uint128"
        },
        {
          "internalType": "uint128",
          "name": "atlendisLiquidityRatio",
          "type": "uint128"
        },
        {
          "internalType": "uint128",
          "name": "accruedFees",
          "type": "uint128"
        }
      ],
      "stateMutability": "view",
      "type": "function"
    },
    {
      "inputs": [
        {
          "internalType": "string",
          "name": "pool",
          "type": "string"
        },
        {
          "internalType": "uint128",
          "name": "rate",
          "type": "uint128"
        }
      ],
      "name": "getTickLastUpdate",
      "outputs": [
        {
          "internalType": "uint128",
          "name": "lastFeeDistributionTimestamp",
          "type": "uint128"
        }
      ],
      "stateMutability": "view",
      "type": "function"
    },
    {
      "inputs": [
        {
          "internalType": "bytes32",
          "name": "poolHash",
          "type": "bytes32"
        },
        {
          "internalType": "uint128",
          "name": "rate",
          "type": "uint128"
        }
      ],
      "name": "getTickLiquidityRatio",
      "outputs": [
        {
          "internalType": "uint128",
          "name": "liquidityRatio",
          "type": "uint128"
        }
      ],
      "stateMutability": "view",
      "type": "function"
    },
    {
      "inputs": [
        {
          "internalType": "bytes32",
          "name": "poolHash",
          "type": "bytes32"
        },
        {
          "internalType": "uint128",
          "name": "rate",
          "type": "uint128"
        },
        {
          "internalType": "uint128",
          "name": "adjustedAmount",
          "type": "uint128"
        },
        {
          "internalType": "uint128",
          "name": "bondsIssuanceIndex",
          "type": "uint128"
        }
      ],
      "name": "getWithdrawAmounts",
      "outputs": [
        {
          "internalType": "uint128",
          "name": "adjustedAmountToWithdraw",
          "type": "uint128"
        },
        {
          "internalType": "uint128",
          "name": "depositedAmountToWithdraw",
          "type": "uint128"
        },
        {
          "internalType": "uint128",
          "name": "remainingBondsQuantity",
          "type": "uint128"
        },
        {
          "internalType": "uint128",
          "name": "bondsMaturity",
          "type": "uint128"
        }
      ],
      "stateMutability": "view",
      "type": "function"
    },
    {
      "inputs": [
        {
          "internalType": "bytes32",
          "name": "role",
          "type": "bytes32"
        },
        {
          "internalType": "address",
          "name": "account",
          "type": "address"
        }
      ],
      "name": "grantRole",
      "outputs": [],
      "stateMutability": "nonpayable",
      "type": "function"
    },
    {
      "inputs": [
        {
          "internalType": "bytes32",
          "name": "role",
          "type": "bytes32"
        },
        {
          "internalType": "address",
          "name": "account",
          "type": "address"
        }
      ],
      "name": "hasRole",
      "outputs": [
        {
          "internalType": "bool",
          "name": "",
          "type": "bool"
        }
      ],
      "stateMutability": "view",
      "type": "function"
    },
    {
      "inputs": [
        {
          "internalType": "address",
          "name": "governance",
          "type": "address"
        }
      ],
      "name": "initialize",
      "outputs": [],
      "stateMutability": "nonpayable",
      "type": "function"
    },
    {
      "inputs": [
        {
          "internalType": "bytes32",
          "name": "poolHash",
          "type": "bytes32"
        }
      ],
      "name": "isEarlyRepay",
      "outputs": [
        {
          "internalType": "bool",
          "name": "earlyRepay",
          "type": "bool"
        }
      ],
      "stateMutability": "view",
      "type": "function"
    },
    {
      "inputs": [],
      "name": "paused",
      "outputs": [
        {
          "internalType": "bool",
          "name": "",
          "type": "bool"
        }
      ],
      "stateMutability": "view",
      "type": "function"
    },
    {
      "inputs": [
        {
          "internalType": "bytes32",
          "name": "role",
          "type": "bytes32"
        },
        {
          "internalType": "address",
          "name": "account",
          "type": "address"
        }
      ],
      "name": "renounceRole",
      "outputs": [],
      "stateMutability": "nonpayable",
      "type": "function"
    },
    {
      "inputs": [],
      "name": "repay",
      "outputs": [],
      "stateMutability": "nonpayable",
      "type": "function"
    },
    {
      "inputs": [
        {
          "internalType": "bytes32",
          "name": "role",
          "type": "bytes32"
        },
        {
          "internalType": "address",
          "name": "account",
          "type": "address"
        }
      ],
      "name": "revokeRole",
      "outputs": [],
      "stateMutability": "nonpayable",
      "type": "function"
    },
    {
      "inputs": [
        {
          "internalType": "bytes32",
          "name": "poolHash",
          "type": "bytes32"
        }
      ],
      "name": "setDefault",
      "outputs": [],
      "stateMutability": "nonpayable",
      "type": "function"
    },
    {
      "inputs": [
        {
          "internalType": "uint128",
          "name": "establishmentFeeRate",
          "type": "uint128"
        },
        {
          "internalType": "bytes32",
          "name": "poolHash",
          "type": "bytes32"
        }
      ],
      "name": "setEstablishmentFeeRate",
      "outputs": [],
      "stateMutability": "nonpayable",
      "type": "function"
    },
    {
      "inputs": [
        {
          "internalType": "uint128",
          "name": "distributionRate",
          "type": "uint128"
        },
        {
          "internalType": "bytes32",
          "name": "poolHash",
          "type": "bytes32"
        }
      ],
      "name": "setLiquidityRewardsDistributionRate",
      "outputs": [],
      "stateMutability": "nonpayable",
      "type": "function"
    },
    {
      "inputs": [
        {
          "internalType": "uint128",
          "name": "maxBorrowableAmount",
          "type": "uint128"
        },
        {
          "internalType": "bytes32",
          "name": "poolHash",
          "type": "bytes32"
        }
      ],
      "name": "setMaxBorrowableAmount",
      "outputs": [],
      "stateMutability": "nonpayable",
      "type": "function"
    },
    {
      "inputs": [
        {
          "internalType": "uint128",
          "name": "repaymentFeeRate",
          "type": "uint128"
        },
        {
          "internalType": "bytes32",
          "name": "poolHash",
          "type": "bytes32"
        }
      ],
      "name": "setRepaymentFeeRate",
      "outputs": [],
      "stateMutability": "nonpayable",
      "type": "function"
    },
    {
      "inputs": [
        {
          "internalType": "bytes4",
          "name": "interfaceId",
          "type": "bytes4"
        }
      ],
      "name": "supportsInterface",
      "outputs": [
        {
          "internalType": "bool",
          "name": "",
          "type": "bool"
        }
      ],
      "stateMutability": "view",
      "type": "function"
    },
    {
      "inputs": [
        {
          "internalType": "uint128",
          "name": "amount",
          "type": "uint128"
        }
      ],
      "name": "topUpLiquidityRewards",
      "outputs": [],
      "stateMutability": "nonpayable",
      "type": "function"
    },
    {
      "inputs": [],
      "name": "unfreezePool",
      "outputs": [],
      "stateMutability": "nonpayable",
      "type": "function"
    },
    {
      "inputs": [
        {
          "internalType": "uint128",
          "name": "adjustedAmount",
          "type": "uint128"
        },
        {
          "internalType": "bytes32",
          "name": "poolHash",
          "type": "bytes32"
        },
        {
          "internalType": "uint128",
          "name": "oldRate",
          "type": "uint128"
        },
        {
          "internalType": "uint128",
          "name": "newRate",
          "type": "uint128"
        },
        {
          "internalType": "uint128",
          "name": "oldBondsIssuanceIndex",
          "type": "uint128"
        }
      ],
      "name": "updateRate",
      "outputs": [
        {
          "internalType": "uint128",
          "name": "newAdjustedAmount",
          "type": "uint128"
        },
        {
          "internalType": "uint128",
          "name": "newBondsIssuanceIndex",
          "type": "uint128"
        },
        {
          "internalType": "uint128",
          "name": "normalizedAmount",
          "type": "uint128"
        }
      ],
      "stateMutability": "nonpayable",
      "type": "function"
    },
    {
      "inputs": [
        {
          "internalType": "bytes32",
          "name": "poolHash",
          "type": "bytes32"
        },
        {
          "internalType": "uint128",
          "name": "rate",
          "type": "uint128"
        },
        {
          "internalType": "uint128",
          "name": "adjustedAmountToWithdraw",
          "type": "uint128"
        },
        {
          "internalType": "uint128",
          "name": "bondsIssuanceIndex",
          "type": "uint128"
        },
        {
          "internalType": "address",
          "name": "owner",
          "type": "address"
        }
      ],
      "name": "withdraw",
      "outputs": [
        {
          "internalType": "uint128",
          "name": "normalizedDepositedAmountToWithdraw",
          "type": "uint128"
        }
      ],
      "stateMutability": "nonpayable",
      "type": "function"
    }
  ],
  "transactionHash": "0xad87bd869855c5474a2947918b8354b3e0901957a7fe360bec26ecb7042334f2",
  "args": [],
  "numDeployments": 1,
  "solcInputHash": "32ef18cba6c37a11ddc3b18d884f9a5a",
  "bytecode": "0x608060405234801561001057600080fd5b50615e8c80620000216000396000f3fe608060405234801561001057600080fd5b50600436106102a05760003560e01c8063a217fddf11610167578063c8954db9116100ce578063ed156a8c11610087578063ed156a8c14610883578063f36c8f5c1461093a578063f3b0c7cc1461094f578063f3d1d26314610972578063f9ae48e014610985578063fe04d4c51461099857600080fd5b8063c8954db91461071e578063ce5be48814610731578063d547741f14610744578063d595408a14610757578063db2de9521461085d578063dc3fbbbc1461087057600080fd5b8063c098dab811610120578063c098dab814610697578063c38262e3146106aa578063c3d31fce146106bd578063c4d66de8146106c5578063c5ba771d146106d8578063c6252dae146106eb57600080fd5b8063a217fddf14610542578063a983dcc01461054a578063aa5976c11461055d578063aab19db41461065e578063b4ce44e514610671578063b74e0b131461068457600080fd5b80635790966e1161020b5780637ded35c5116101c45780637ded35c5146104b1578063817db73b146104ee5780638f13efc41461050157806391d14854146105145780639611d5dd146105275780639f3a348e1461052f57600080fd5b80635790966e146103e65780635c975abb146103f95780635e5856441461040457806371075b791461042a57806373356df014610489578063767483ea1461049c57600080fd5b806336568abe1161025d57806336568abe1461034e57806339f7358314610361578063402d88831461038c57806346d070121461039457806348037793146103a7578063518af627146103ba57600080fd5b806301ffc9a7146102a55780630e7b949e146102cd578063248a9ca3146102f05780632f2ff15d1461031357806330b12d0514610328578063330ca0361461033b575b600080fd5b6102b86102b3366004615338565b6109b8565b60405190151581526020015b60405180910390f35b6102e2600080516020615e1783398151915281565b6040519081526020016102c4565b6102e26102fe366004615362565b60009081526065602052604090206001015490565b6103266103213660046153a0565b6109ef565b005b6103266103363660046153f0565b610a1a565b6103266103493660046153a0565b610ad2565b61032661035c3660046153a0565b610d85565b61037461036f36600461541c565b610e08565b6040516001600160801b0390911681526020016102c4565b610326610e55565b6103746103a2366004615441565b61149e565b6103266103b53660046154c4565b61150a565b6103746103c8366004615362565b600090815260ca60205260409020600f01546001600160801b031690565b6103266103f43660046154dd565b611a59565b60975460ff166102b8565b6102b8610412366004615362565b600090815260ca602052604090206009015460ff1690565b610469610438366004615362565b600090815260ca6020526040902060078101546008909101546001600160801b03600160801b909204821692911690565b604080516001600160801b039384168152929091166020830152016102c4565b6103266104973660046154fb565b611b86565b6102e2600080516020615e3783398151915281565b6104c46104bf366004615532565b611d77565b604080516001600160801b03948516815292841660208401529216918101919091526060016102c4565b6103266104fc366004615362565b61204f565b61032661050f3660046153f0565b612089565b6102b86105223660046153a0565b612134565b61032661215f565b61037461053d366004615362565b612183565b6102e2600081565b610326610558366004615362565b6121bf565b6105ed61056b366004615362565b600090815260ca602052604090206001810154600382015460048301546005840154600685015460078601546008909601546001600160a01b03909516966001600160801b0380861697600160801b96879004821697828716979687900483169683871696819004841695848116959082900485169493841693919092041690565b604080516001600160a01b03909c168c526001600160801b039a8b1660208d0152988a16988b019890985295881660608a0152938716608089015291861660a0880152851660c0870152841660e08601528316610100850152821661012084015216610140820152610160016102c4565b61032661066c3660046154dd565b612399565b61046961067f366004615362565b61248e565b61046961069236600461559a565b612612565b6104c46106a53660046155fd565b612854565b6103266106b83660046153f0565b612a79565b610326612b5a565b6103266106d3366004615629565b612b7b565b6103266106e636600461541c565b612cbd565b6103746106f9366004615362565b600090815260ca60205260409020600a0154630100000090046001600160801b031690565b61032661072c366004615646565b612cf8565b61037461073f3660046153f0565b612f65565b6103266107523660046153a0565b613211565b6107ea610765366004615362565b600090815260ca60205260409020600a810154600b820154600c830154600d840154600e9094015460ff80851696610100860482169662010000870490921695630100000090046001600160801b039081169581811695600160801b918290048316958382169591839004841694848316949284900483169383831693920490911690565b604080519c15158d529a151560208d0152981515998b01999099526001600160801b0396871660608b015294861660808a015292851660a089015290841660c0880152831660e08701528216610100860152811661012085015291821661014084015216610160820152610180016102c4565b61032661086b366004615663565b613237565b61037461087e366004615691565b613875565b6108f861089136600461541c565b600091825260ca602090815260408084206001600160801b0393841685526010019091529091206001810154600282015460038301546004840154600590940154600160801b80850487169793871696948516959285169492819004831693910490911690565b604080516001600160801b03978816815295871660208701529386169385019390935290841660608401528316608083015290911660a082015260c0016102c4565b6102e2600080516020615df783398151915281565b61096261095d36600461559a565b613b22565b6040516102c494939291906156eb565b610469610980366004615716565b613c35565b6103266109933660046153f0565b613f0d565b6102e26109a6366004615629565b60c96020526000908152604090205481565b60006001600160e01b03198216637965db0b60e01b14806109e957506301ffc9a760e01b6001600160e01b03198316145b92915050565b600082815260656020526040902060010154610a0b8133613fb8565b610a15838361401c565b505050565b600080516020615df7833981519152610a338133613fb8565b600082815260ca60205260409020600a015460ff16610a6557604051630951899960e01b815260040160405180910390fd5b600082815260ca602090815260409182902060080180546001600160801b0319166001600160801b03871690811790915582519081529081018490527fe3ed7df90f4e708b201a97ff43820f24fa973238a9856a431e4c54ba31151bc991015b60405180910390a1505050565b600080516020615df7833981519152610aeb8133613fb8565b82610b0957604051635342e0a760e11b815260040160405180910390fd5b6001600160a01b038216610b305760405163f15e745f60e01b815260040160405180910390fd5b600083815260ca6020526040902080548414610b5f57604051630951899960e01b815260040160405180910390fd5b600a81015462010000900460ff1615610b8b5760405163235893eb60e21b815260040160405180910390fd5b600a8101805462ff0000191662010000179055600d8101546000906001600160801b03600160801b9091041615610d3c576002820154600183015460405163d15e005360e01b81526001600160a01b039182166004820152600092919091169063d15e00539060240160206040518083038186803b158015610c0c57600080fd5b505afa158015610c20573d6000803e3d6000fd5b505050506040513d601f19601f82011682018060405250810190610c449190615760565b600d840154909150610c6690600160801b90046001600160801b0316826140a2565b600d840180546001600160801b039081169091556002850154600089815260ca60205260409020600190810154908701549395506001600160a01b03918216936369328dec939190921691610cc89187169060ff600160a01b909104166140d1565b886040518463ffffffff1660e01b8152600401610ce793929190615779565b602060405180830381600087803b158015610d0157600080fd5b505af1158015610d15573d6000803e3d6000fd5b505050506040513d601f19601f82011682018060405250810190610d399190615760565b50505b604080518681526001600160801b03831660208201527fdb941e881e2a4a824775895cb9b4908cbc030460e7356912047a04e2c8f3281691015b60405180910390a15050505050565b6001600160a01b0381163314610dfa5760405162461bcd60e51b815260206004820152602f60248201527f416363657373436f6e74726f6c3a2063616e206f6e6c792072656e6f756e636560448201526e103937b632b9903337b91039b2b63360891b60648201526084015b60405180910390fd5b610e048282614104565b5050565b600082815260ca602090815260408083206001600160801b038086168552601090910190925290912060040154600160801b900416806109e95750676765c793fa10079d601b1b92915050565b60975460ff1615610e785760405162461bcd60e51b8152600401610df1906157a5565b600080516020615e17833981519152610e918133613fb8565b33600090815260c9602090815260408083205480845260ca909252909120600a810154610100900460ff1615610eda5760405163056efc7b60e01b815260040160405180910390fd5b600a810154630100000090046001600160801b0316610f0c57604051631e13931b60e21b815260040160405180910390fd5b600a8101544263010000009091046001600160801b031611808015610f365750600982015460ff16155b15610f5457604051632b604eef60e01b815260040160405180910390fd5b610f5d8261416b565b604051631d398d8d60e21b815260048101839052600090819081908190731c0f073176625F7B8fa90D17e22ef6033d80223d906374e636349060240160206040518083038186803b158015610fb157600080fd5b505af4158015610fc5573d6000803e3d6000fd5b505050506040513d601f19601f82011682018060405250810190610fe991906157cf565b600c870154909150600160801b90046001600160801b03165b60038701546001600160801b03600160801b90910481169082161161112557604051634de6e91560e01b8152600481018890526001600160801b038083166024830152831660448201526000908190731c0f073176625F7B8fa90D17e22ef6033d80223d90634de6e91590606401604080518083038186803b15801561108757600080fd5b505af415801561109b573d6000803e3d6000fd5b505050506040513d601f19601f820116820180604052508101906110bf91906157ec565b90925090506110ce8183615831565b6110d89086615831565b94506110e48188615831565b965060006110f38a858961427b565b905080806110fe5750865b60048b015490975061111e93506001600160801b03169150839050615831565b9050611002565b50604051635ccb5f2f60e01b8152600481018790526001600160801b0383166024820152600090731c0f073176625F7B8fa90D17e22ef6033d80223d90635ccb5f2f9060440160206040518083038186803b15801561118357600080fd5b505af4158015611197573d6000803e3d6000fd5b505050506040513d601f19601f820116820180604052508101906111bb91906157cf565b90506111c78184615831565b604051636839a26160e01b8152909350731c0f073176625F7B8fa90D17e22ef6033d80223d90636839a26190611205908a903390889060040161585c565b60006040518083038186803b15801561121d57600080fd5b505af4158015611231573d6000803e3d6000fd5b505050600688015461124d91506001600160801b031642615831565b600d880180546001600160801b039283166001600160801b031991821617909155600b890180549091169055600089815260cb602052604081208054849391929161129a91859116615831565b92506101000a8154816001600160801b0302191690836001600160801b031602179055508287600a0160020160008282829054906101000a90046001600160801b03166112e79190615831565b82546101009290920a6001600160801b038181021990931691831602179091556006890154600a8a015461132f9350600160801b909104821691630100000090910416615831565b6001600160801b03164211156113af57600c870154600d880154604080516001600160801b038088168252808a16602083015280861692820192909252928116606084015216608082015288907f0a8858cdd0551a157921eb1032d7f466feec7752fffc78f8b3c52bb435e331b09060a0015b60405180910390a261146f565b600a8701544263010000009091046001600160801b0316111561141957600c870154600d8801546040518a927fa2b36883c3fcb197b500ec4377e7899f16820387a05442f947c237578dd03f81926113a292889287926001600160801b03918216929116906156eb565b600c870154600d8801546040518a927fcde954d9667cdba90232367e5f743ea631856cdec43e595635130c08e20ffa939261146692889287926001600160801b03918216929116906156eb565b60405180910390a25b505050600a840180546301000000600160981b0319169055505050600b0180546001600160801b031690555050565b60008060ca600086866040516020016114b8929190615884565b60408051601f19818403018152918152815160209283012083528282019390935290820160009081206001600160801b03808816835260109091019092529190912060040154169150505b9392505050565b600080516020615df78339815191526115238133613fb8565b61152c826144bf565b604051806102200160405280836000013581526020018360200160208101906115559190615629565b6001600160a01b031681526020018360200160208101906115769190615629565b6001600160a01b031663313ce5676040518163ffffffff1660e01b815260040160206040518083038186803b1580156115ae57600080fd5b505afa1580156115c2573d6000803e3d6000fd5b505050506040513d601f19601f820116820180604052508101906115e691906158b3565b60ff1681526020016115fe6060850160408601615629565b6001600160a01b0316815260200161161c6080850160608601615646565b6001600160801b0316815260200161163a60a0850160808601615646565b6001600160801b0316815260200161165860c0850160a08601615646565b6001600160801b0316815260200161167660e0850160c08601615646565b6001600160801b03168152602001611695610100850160e08601615646565b6001600160801b031681526020016116b561012085016101008601615646565b6001600160801b031681526020016116d561014085016101208601615646565b6001600160801b031681526020016116f561016085016101408601615646565b6001600160801b0316815260200161171561018085016101608601615646565b6001600160801b031681526020016117356101a085016101808601615646565b6001600160801b031681526020016117556101c085016101a08601615646565b6001600160801b031681526020016117756101e085016101c08601615646565b6001600160801b0316815260200161179561020085016101e086016158d6565b151590528235600090815260ca602090815260409182902083518155908301516001820180548585015160ff16600160a01b026001600160a81b03199091166001600160a01b0393841617179055606080850151600284018054919093166001600160a01b03199190911617909155608084015160a08501516001600160801b03908116600160801b90810292821692909217600385015560c086015160e08701518216830290821617600485015561010086015161012087015182168302908216176005850155610140860151610160870151821683029082161760068501556101808601516101a0870151821683029082161760078501556101c08601516101e087015182169092029116176008830155610200909301516009909101805491151560ff199092169190911790556118d3918401908401615629565b6001600160a01b031663d15e00536118f16040850160208601615629565b6040516001600160e01b031960e084901b1681526001600160a01b03909116600482015260240160206040518083038186803b15801561193057600080fd5b505afa158015611944573d6000803e3d6000fd5b505050506040513d601f19601f820116820180604052508101906119689190615760565b8235600090815260ca602052604090819020600e0180546001600160801b0319166001600160801b039390931692909217909155517fe71e8fe4301d57c752d83a095e456f17300a88ea18c7daef3b9e035a9ed1aa65906119ca9084906158f1565b60405180910390a18135600090815260ca6020526040902060080154600160801b90046001600160801b0316610e04578135600090815260ca602052604090819020600a8101805460ff191660011790555490517f843e4390b5f579b124a883bb556fa80a421be9d5301b2e7267641cc23ea077e491611a4d9190815260200190565b60405180910390a15050565b600080516020615df7833981519152611a728133613fb8565b81611a9057604051635342e0a760e11b815260040160405180910390fd5b6001600160a01b038316611ab75760405163f15e745f60e01b815260040160405180910390fd5b600082815260ca60205260409020548214611ae557604051630951899960e01b815260040160405180910390fd5b6001600160a01b038316600090815260c960205260409020548214611b1d5760405163e2106cd360e01b815260040160405180910390fd5b611b35600080516020615e1783398151915284613211565b6001600160a01b038316600081815260c96020908152604080832092909255815192835282018490527fbca7a5cbff6e29c636e92cf5ee4128086f7e982204b0e420cb972819f12f88fe9101610ac5565b600080516020615df7833981519152611b9f8133613fb8565b600084815260ca6020526040812060010154611bcf906001600160801b03861690600160a01b900460ff16614690565b600086815260ca60205260409020549091508514611c0057604051630951899960e01b815260040160405180910390fd5b600085815260cb60205260409020546001600160801b039081169082161115611c3c57604051639f747ffd60e01b815260040160405180910390fd5b600085815260cb602052604081208054839290611c639084906001600160801b0316615a88565b82546001600160801b039182166101009390930a928302919092021990911617905550600085815260ca6020526040908190206002810154600191909101549151631a4ca37b60e21b81526001600160a01b03918216926369328dec92611cd39291169088908890600401615779565b602060405180830381600087803b158015611ced57600080fd5b505af1158015611d01573d6000803e3d6000fd5b505050506040513d601f19601f82011682018060405250810190611d259190615760565b50604080518681526001600160801b03831660208201526001600160a01b038516918101919091527f150a2e161f87df4cc1b0c4345f9779d342fa2bcc2bf767efbb54005e811079f190606001610d76565b6000806000611d8860975460ff1690565b15611da55760405162461bcd60e51b8152600401610df1906157a5565b600080516020615e37833981519152611dbe8133613fb8565b600088815260ca60205260409020600a81015462010000900460ff1615611df85760405163df00603160e01b815260040160405180910390fd5b6000611e068a8a8d8a612612565b5090506001600160801b03811615611e3157604051630d290b7960e31b815260040160405180910390fd5b60038201546001600160801b039081169089161015611e635760405163fca6b5cd60e01b815260040160405180910390fd5b60038201546001600160801b03600160801b90910481169089161115611e9c576040516393c139e960e01b815260040160405180910390fd5b600482015460038301546001600160801b0391821691611ebd91168a615a88565b611ec79190615ac6565b6001600160801b031615611eee5760405163270955a760e01b815260040160405180910390fd5b6000611f0e611efe848c8b6146b8565b6001600160801b038e16906140a2565b604051636ef48f5760e01b8152909150731c0f073176625F7B8fa90D17e22ef6033d80223d90636ef48f5790611f4e9086908e9086908e90600401615aec565b60206040518083038186803b158015611f6657600080fd5b505af4158015611f7a573d6000803e3d6000fd5b505050506040513d601f19601f82011682018060405250810190611f9e91906157cf565b604051631cd2ca1960e11b8152600481018590526001600160801b03808c16602483015282166044820152909550731c0f073176625F7B8fa90D17e22ef6033d80223d906339a5943290606401604080518083038186803b15801561200257600080fd5b505af4158015612016573d6000803e3d6000fd5b505050506040513d601f19601f8201168201806040525081019061203a91906157ec565b909d909c50949a509398505050505050505050565b60975460ff16156120725760405162461bcd60e51b8152600401610df1906157a5565b600081815260ca60205260409020610e048161416b565b600080516020615df78339815191526120a28133613fb8565b600082815260ca602052604090205482146120d057604051630951899960e01b815260040160405180910390fd5b600082815260ca602090815260409182902060040180546001600160801b03908116600160801b9188169182021790915582519081529081018490527f796282fae5ebb944d98f910eb76fbde5bc1dc06dd9da67632dc4561d96e7c30d9101610ac5565b60009182526065602090815260408084206001600160a01b0393909316845291905290205460ff1690565b600080516020615df78339815191526121788133613fb8565b612180614703565b50565b600081815260ca602090815260408083206001015460cb9092528220546109e9916001600160801b0390911690600160a01b900460ff166140d1565b600080516020615df78339815191526121d88133613fb8565b600082815260ca60205260409020600a810154610100900460ff1615612210576040516209157360e41b815260040160405180910390fd5b600a810154630100000090046001600160801b031661224257604051633aa99c9b60e01b815260040160405180910390fd5b6006810154600a820154612270916001600160801b03600160801b9091048116916301000000900416615831565b6001600160801b031642101561229957604051632b797db960e11b815260040160405180910390fd5b600a8101805461010061ff0019909116179055600f810180546001600160801b031916426001600160801b0316179055604051631d8e67b960e31b815260048101829052600090731c0f073176625F7B8fa90D17e22ef6033d80223d9063ec733dc89060240160206040518083038186803b15801561231757600080fd5b505af415801561232b573d6000803e3d6000fd5b505050506040513d601f19601f8201168201806040525081019061234f91906157cf565b604080518681526001600160801b03831660208201529192507f4eb384de78f7c7a5dd1dc12268658939004561d9dc1572c852f6c0873cca67b2910160405180910390a150505050565b600080516020615df78339815191526123b28133613fb8565b816123d057604051635342e0a760e11b815260040160405180910390fd5b6001600160a01b0383166123f75760405163f15e745f60e01b815260040160405180910390fd5b600082815260ca6020526040902054821461242557604051630951899960e01b815260040160405180910390fd5b61243d600080516020615e17833981519152846109ef565b6001600160a01b038316600081815260c96020908152604091829020859055815192835282018490527f3a3825a3ceba48aadc12396e4232a6098dea62688b3cbc06d0f1f3ed26fbcc259101610ac5565b600081815260ca60205260408120600a8101548291908190630100000090046001600160801b03166124e05760048201546124d990600160801b90046001600160801b031686612f65565b935061260b565b600381015460009081906001600160801b03165b6004840154600385015461251b916001600160801b0390811691600160801b900416615831565b6001600160801b0316816001600160801b0316146125f2576001600160801b03808216600090815260108701602052604090206003015461256591600160801b9091041682614796565b61256f9084615831565b6001600160801b0380831660009081526010880160205260409020600301549194506125a391600160801b90041683615831565b6001600160801b0380831660009081526010880160205260409020600301549193506125d0911687615831565b60048501549096506125eb906001600160801b031682615831565b90506124f4565b6126056001600160801b038416836147ae565b96505050505b5050915091565b600084815260ca602052604080822060028101546001820154925163d15e005360e01b81526001600160a01b03938416600482015284938492169063d15e00539060240160206040518083038186803b15801561266e57600080fd5b505afa158015612682573d6000803e3d6000fd5b505050506040513d601f19601f820116820180604052508101906126a69190615760565b600e8301549091506001600160801b03600160801b909104811690861611156126e95760006126de6001600160801b038816836140a2565b93509350505061284b565b604051633d29c20960e01b8152600090731c0f073176625F7B8fa90D17e22ef6033d80223d90633d29c209906127299086908c908c908c90600401615aec565b604080518083038186803b15801561274057600080fd5b505af4158015612754573d6000803e3d6000fd5b505050506040513d601f19601f8201168201806040525081019061277891906157ec565b909550905060008061278b858b866147c6565b5050604051632ca9e11360e11b81529193509150600090731c0f073176625F7B8fa90D17e22ef6033d80223d90635953c226906127d29089908f9089908890600401615aec565b60206040518083038186803b1580156127ea57600080fd5b505af41580156127fe573d6000803e3d6000fd5b505050506040513d601f19601f8201168201806040525081019061282291906157cf565b9050806128386001600160801b038616856140a2565b6128429190615831565b96505050505050505b94509492505050565b600082815260ca6020526040808220905163839a9c2960e01b815260048101919091528215156024820152819081908190731c0f073176625F7B8fa90D17e22ef6033d80223d9063839a9c299060440160206040518083038186803b1580156128bc57600080fd5b505af41580156128d0573d6000803e3d6000fd5b505050506040513d601f19601f820116820180604052508101906128f491906157cf565b600087815260ca6020526040908190209051631d398d8d60e21b81529192506129a4918391731c0f073176625F7B8fa90D17e22ef6033d80223d916374e63634916129459160040190815260200190565b60206040518083038186803b15801561295d57600080fd5b505af4158015612971573d6000803e3d6000fd5b505050506040513d601f19601f8201168201806040525081019061299591906157cf565b6001600160801b031690614796565b600087815260ca60205260409020909350731c0f073176625F7B8fa90D17e22ef6033d80223d90635ccb5f2f906129db8685615831565b6040516001600160e01b031960e085901b16815260048101929092526001600160801b0316602482015260440160206040518083038186803b158015612a2057600080fd5b505af4158015612a34573d6000803e3d6000fd5b505050506040513d601f19601f82011682018060405250810190612a5891906157cf565b915082612a658383615831565b612a6f9190615831565b9350509250925092565b600080516020615df7833981519152612a928133613fb8565b600082815260ca60205260409020600a015460ff16612ac457604051630951899960e01b815260040160405180910390fd5b670de0b6b3a7640000836001600160801b03161115612af657604051633dedb6cb60e21b815260040160405180910390fd5b600082815260ca602090815260409182902060070180546001600160801b03908116600160801b9188169182021790915582519081529081018490527f738c64322e7db945ad7f301e0af4f8b02a5a5cb336140b950d2a7b4340569b7d9101610ac5565b600080516020615df7833981519152612b738133613fb8565b612180614980565b600054610100900460ff16612b965760005460ff1615612b9a565b303b155b612bfd5760405162461bcd60e51b815260206004820152602e60248201527f496e697469616c697a61626c653a20636f6e747261637420697320616c72656160448201526d191e481a5b9a5d1a585b1a5e995960921b6064820152608401610df1565b600054610100900460ff16158015612c1f576000805461ffff19166101011790555b612c276149d8565b6001600160a01b038216612c39573391505b612c4460008361401c565b612c5c600080516020615df78339815191528361401c565b612c82600080516020615e17833981519152600080516020615df7833981519152614a11565b612ca8600080516020615e37833981519152600080516020615df7833981519152614a11565b8015610e04576000805461ff00191690555050565b60975460ff1615612ce05760405162461bcd60e51b8152600401610df1906157a5565b600082815260ca60205260409020610a158183614a5c565b60975460ff1615612d1b5760405162461bcd60e51b8152600401610df1906157a5565b600080516020615e17833981519152612d348133613fb8565b33600090815260c96020908152604080832054835260ca90915281206001810154909190612d76906001600160801b03861690600160a01b900460ff16614690565b604051636839a26160e01b8152909150731c0f073176625F7B8fa90D17e22ef6033d80223d90636839a26190612db49085903390869060040161585c565b60006040518083038186803b158015612dcc57600080fd5b505af4158015612de0573d6000803e3d6000fd5b5050604051631a727b1960e31b8152600481018590526001600160801b038416602482015260009250731c0f073176625F7B8fa90D17e22ef6033d80223d915063d393d8c89060440160206040518083038186803b158015612e4157600080fd5b505af4158015612e55573d6000803e3d6000fd5b505050506040513d601f19601f82011682018060405250810190612e7991906157cf565b600a84015490915060ff16158015612ec257506008830154600d8401546001600160801b03600160801b92839004811692612eb6920416836140a2565b6001600160801b031610155b15612f1357600a8301805460ff1916600117905582546040517f843e4390b5f579b124a883bb556fa80a421be9d5301b2e7267641cc23ea077e491612f0a9190815260200190565b60405180910390a15b33600090815260c960209081526040918290205482519081526001600160801b038516918101919091527f4e4bba6240da8987fe01edc7c3e8498d355a5f0ad7eb7ff2995f3393d8c030a79101610d76565b600081815260ca60205260408120600a8101548190630100000090046001600160801b0316151580612fa05750600a820154610100900460ff165b80612fb55750600a82015462010000900460ff165b80612fc55750600a82015460ff16155b15612fd5576000925050506109e9565b60048201546001600160801b03600160801b9091048116908616111561300d576004820154600160801b90046001600160801b031694505b6002810154600182015460405163d15e005360e01b81526001600160a01b039182166004820152600092919091169063d15e00539060240160206040518083038186803b15801561305d57600080fd5b505afa158015613071573d6000803e3d6000fd5b505050506040513d601f19601f820116820180604052508101906130959190615760565b60038401549091506001600160801b03168660005b600485015460038601546130d1916001600160801b0390811691600160801b900416615831565b6001600160801b0316836001600160801b0316146131be5760006130f68785876147c6565b5050506001600160801b03808616600090815260108a016020526040812060020154929350916131279116836140a2565b9050836001600160801b0316816001600160801b031610156131735761314d8185615a88565b93506131626001600160801b03821686614796565b61316c9084615831565b925061319d565b6131866001600160801b03851686614796565b6131909084615831565b92506000935050506131be565b505060048501546131b7906001600160801b031684615831565b92506130aa565b816001600160801b0316896001600160801b031614156131e757600096505050505050506109e9565b6132046131f4838b615a88565b6001600160801b038316906147ae565b9998505050505050505050565b60008281526065602052604090206001015461322d8133613fb8565b610a158383614104565b60975460ff161561325a5760405162461bcd60e51b8152600401610df1906157a5565b600080516020615e178339815191526132738133613fb8565b33600090815260c9602090815260408083205480845260ca909252909120600a81015462010000900460ff16156132bd5760405163df00603160e01b815260040160405180910390fd5b600a810154610100900460ff16156132e85760405163056efc7b60e01b815260040160405180910390fd5b600a810154630100000090046001600160801b03161580159061331e5750600a810154630100000090046001600160801b031642115b1561333c57604051630fda546f60e41b815260040160405180910390fd5b6001810154600090613362906001600160801b03871690600160a01b900460ff16614690565b600783015490915060009061338a906001600160801b0380851691600160801b900416614796565b905060006133988284615a88565b6004850154600b8601549192506001600160801b03600160801b918290048116926133c7928792910416615831565b6001600160801b031611156133ef5760405163aab4fe5160e01b815260040160405180910390fd5b600d8401546001600160801b031642101561341d5760405163af26604960e01b815260040160405180910390fd5b6134268461416b565b600c8401546001600160801b03908116908416111561345857604051634421566d60e11b815260040160405180910390fd5b6004840154600c8501548491600091613484916001600160801b0390811691600160801b900416615a88565b90505b6000826001600160801b03161180156134b7575060038601546001600160801b03600160801b9091048116908216105b156136225760048601546134d4906001600160801b031682615831565b6001600160801b038082166000908152601089016020526040902060020154919250161561361d57604051634c5e028760e11b8152600481018790526001600160801b038083166024830152831660448201526000908190731c0f073176625F7B8fa90D17e22ef6033d80223d906398bc050e90606401604080518083038186803b15801561356257600080fd5b505af4158015613576573d6000803e3d6000fd5b505050506040513d601f19601f8201168201806040525081019061359a91906157ec565b60405163ca8701f360e01b81529193509150731c0f073176625F7B8fa90D17e22ef6033d80223d9063ca8701f3906135dc908b90879087908790600401615aec565b60006040518083038186803b1580156135f457600080fd5b505af4158015613608573d6000803e3d6000fd5b5050505080846136189190615a88565b935050505b613487565b6001600160801b0382161561364a57604051630f0b666f60e01b815260040160405180910390fd5b600a860154630100000090046001600160801b03166136e557600586015461367b906001600160801b031642615b13565b600a870180546301000000600160981b03191663010000006001600160801b0393841602179055604080518583168152918616602083015288917f02936c9aa03a5ee03914509058d0ab4fc30b8f8cb97922e9f8885bf0651263c0910160405180910390a261372b565b604080516001600160801b0380861682528616602082015288917f2a5361599b6218cb63221765b277f7026a473b717f40193ee25deae176e748dc910160405180910390a25b600087815260cb6020526040812080548692906137529084906001600160801b0316615831565b92506101000a8154816001600160801b0302191690836001600160801b031602179055508486600a0160010160108282829054906101000a90046001600160801b031661379f9190615831565b82546101009290920a6001600160801b03818102199093169183160217909155600288015460018901546001600160a01b0391821693506369328dec92918116916137f79190881690600160a01b900460ff166140d1565b8d6040518463ffffffff1660e01b815260040161381693929190615779565b602060405180830381600087803b15801561383057600080fd5b505af1158015613844573d6000803e3d6000fd5b505050506040513d601f19601f820116820180604052508101906138689190615760565b5050505050505050505050565b600061388360975460ff1690565b156138a05760405162461bcd60e51b8152600401610df1906157a5565b600080516020615e378339815191526138b98133613fb8565b600087815260ca60205260409020600e8101546138e790600160801b90046001600160801b03166001615831565b6001600160801b0316856001600160801b031611156139195760405163019894df60e21b815260040160405180910390fd5b600e8101546001600160801b03600160801b90910481169086161180158161395f57506001600160801b0380891660009081526010840160205260409020600201541615155b80613990575080801561399057506001600160801b0380891660009081526010840160205260409020600301541615155b6139ad5760405163436ec62560e01b815260040160405180910390fd5b6000876001600160801b0316116139d757604051636ba603b360e11b815260040160405180910390fd5b604051636ef48f5760e01b8152731c0f073176625F7B8fa90D17e22ef6033d80223d90636ef48f5790613a149085908c908c908c90600401615aec565b60206040518083038186803b158015613a2c57600080fd5b505af4158015613a40573d6000803e3d6000fd5b505050506040513d601f19601f82011682018060405250810190613a6491906157cf565b600283015460018401549195506001600160a01b03908116916369328dec91811690613aa4906001600160801b03891690600160a01b900460ff166140d1565b886040518463ffffffff1660e01b8152600401613ac393929190615779565b602060405180830381600087803b158015613add57600080fd5b505af1158015613af1573d6000803e3d6000fd5b505050506040513d601f19601f82011682018060405250810190613b159190615760565b5050505095945050505050565b600084815260ca60205260408120600a8101548291829182919060ff16613b5c5760405163c6d9b58160e01b815260040160405180910390fd5b604051633d29c20960e01b8152731c0f073176625F7B8fa90D17e22ef6033d80223d90633d29c20990613b999084908c908c908c90600401615aec565b604080518083038186803b158015613bb057600080fd5b505af4158015613bc4573d6000803e3d6000fd5b505050506040513d601f19601f82011682018060405250810190613be891906157ec565b95509250613c0a613bfa828a896146b8565b6001600160801b03871690614b28565b935080600a0160000160039054906101000a90046001600160801b0316915050945094509450949050565b600080613c4460975460ff1690565b15613c615760405162461bcd60e51b8152600401610df1906157a5565b600080516020615e37833981519152613c7a8133613fb8565b600087815260ca60205260409020600a810154610100900460ff1615613cb35760405163056efc7b60e01b815260040160405180910390fd5b600a81015460ff16613cd85760405163c6d9b58160e01b815260040160405180910390fd5b600a81015462010000900460ff1615613d045760405163df00603160e01b815260040160405180910390fd5b60018101546001600160a01b03888116911614613d345760405163623957d360e01b815260040160405180910390fd5b60038101546001600160801b03908116908a161015613d665760405163fca6b5cd60e01b815260040160405180910390fd5b60038101546001600160801b03600160801b9091048116908a161115613d9f576040516393c139e960e01b815260040160405180910390fd5b600481015460038201546001600160801b0391821691613dc091168b615a88565b613dca9190615ac6565b6001600160801b031615613df15760405163270955a760e01b815260040160405180910390fd5b604051631cd2ca1960e11b8152600481018290526001600160801b03808b1660248301528616604482015260009450849350731c0f073176625F7B8fa90D17e22ef6033d80223d906339a5943290606401604080518083038186803b158015613e5957600080fd5b505af4158015613e6d573d6000803e3d6000fd5b505050506040513d601f19601f82011682018060405250810190613e9191906157ec565b604051636839a26160e01b81529195509350731c0f073176625F7B8fa90D17e22ef6033d80223d90636839a26190613ed19084908a908a9060040161585c565b60006040518083038186803b158015613ee957600080fd5b505af4158015613efd573d6000803e3d6000fd5b5050505050509550959350505050565b600080516020615df7833981519152613f268133613fb8565b600082815260ca60205260409020548214613f5457604051630951899960e01b815260040160405180910390fd5b600082815260ca602090815260409182902060050180546001600160801b03908116600160801b9188169182021790915582519081529081018490527f7016612eedf00917c664926ac3c77a4800fefe912e91632376418e8fc6e621619101610ac5565b613fc28282612134565b610e0457613fda816001600160a01b03166014614b52565b613fe5836020614b52565b604051602001613ff6929190615b57565b60408051601f198184030181529082905262461bcd60e51b8252610df191600401615bcc565b6140268282612134565b610e045760008281526065602090815260408083206001600160a01b03851684529091529020805460ff1916600117905561405e3390565b6001600160a01b0316816001600160a01b0316837f2f8788117e7eff1d82e926ec794901d17c78024a50270940304540a733656f0d60405160405180910390a45050565b60006115036140cc836001600160801b03166140c6866001600160801b0316614cee565b90614d2d565b614dbe565b6000670de0b6b3a76400006140e783600a615ce3565b6140fa906001600160801b038616615cef565b6115039190615d0e565b61410e8282612134565b15610e045760008281526065602090815260408083206001600160a01b0385168085529252808320805460ff1916905551339285917ff6391f5c32d9c69d2a47ea670b442974b53935d1edc7fd64eb21e047a839171b9190a45050565b6002810154600182015460405163d15e005360e01b81526001600160a01b039182166004820152600092919091169063d15e00539060240160206040518083038186803b1580156141bb57600080fd5b505afa1580156141cf573d6000803e3d6000fd5b505050506040513d601f19601f820116820180604052508101906141f39190615760565b600c830154909150600160801b90046001600160801b03165b60038301546001600160801b03600160801b90910481169082161161425557614236838284614e17565b600483015461424e906001600160801b031682615831565b905061420c565b50600e9190910180546001600160801b0319166001600160801b03909216919091179055565b6001600160801b038083166000908152601085016020526040812060038101549192909116156144b457826142f757600e85018054600191906010906142d2908490600160801b90046001600160801b0316615831565b92506101000a8154816001600160801b0302191690836001600160801b031602179055505b6004810154600e86015461431f916001600160801b0391821691600160801b9091041661504c565b600e86018054600160801b908190046001600160801b0390811660009081526020869052604080822080546001600160801b0319169684169690961790955592549190910481168252918120546003840154919261438092811691166140a2565b600e87015460038401549192506143a3916001600160801b0390811691166140a2565b600c870180546000906143c09084906001600160801b0316615831565b92506101000a8154816001600160801b0302191690836001600160801b03160217905550808260010160108282829054906101000a90046001600160801b031661440a9190615831565b82546101009290920a6001600160801b038181021990931691831602179091556001840154600285018054600160801b90920483166001600160801b03199283161790556003850180549091169055875460408051918252888316602083015291841691810191909152851560608201527f6ed432acb9733bda7d5f090ab5f35a9a2e19974dba6ae2dd7078c84b92388f96915060800160405180910390a1600192505050611503565b506000949350505050565b6144cf60c0820160a08301615646565b6144df6080830160608401615646565b6144ef60a0840160808501615646565b6144f99190615a88565b6145039190615ac6565b6001600160801b03161561452a576040516334cc2fed60e01b815260040160405180910390fd5b803561454957604051635342e0a760e11b815260040160405180910390fd5b8035600090815260ca60205260409020541561457857604051631953bac160e11b815260040160405180910390fd5b600061458a6060830160408401615629565b6001600160a01b031663d15e00536145a86040850160208601615629565b6040516001600160e01b031960e084901b1681526001600160a01b03909116600482015260240160206040518083038186803b1580156145e757600080fd5b505afa1580156145fb573d6000803e3d6000fd5b505050506040513d601f19601f8201168201806040525081019061461f9190615760565b9050676765c793fa10079d601b1b81101561464d5760405163fee5a60360e01b815260040160405180910390fd5b670de0b6b3a76400006146686101a084016101808501615646565b6001600160801b03161115610e0457604051633dedb6cb60e21b815260040160405180910390fd5b600061469d82600a615ce3565b6140fa670de0b6b3a76400006001600160801b038616615cef565b6001600160801b03808316600090815260108501602090815260408083208585168452918290529091205490911690816146fb57676765c793fa10079d601b1b91505b509392505050565b60975460ff1661474c5760405162461bcd60e51b815260206004820152601460248201527314185d5cd8589b194e881b9bdd081c185d5cd95960621b6044820152606401610df1565b6097805460ff191690557f5db9ee0a495bf2e6ff9c91a7834c1ba4fdd244a5e8aa4e537bd38aeae4b073aa335b6040516001600160a01b03909116815260200160405180910390a1565b60006115036001600160801b03848116908416615064565b60006115036001600160801b038481169084166150db565b6001600160801b0380831660009081526010850160205260408120600481015491928392839283929091600160801b90041661481057856000806000945094509450945050614977565b60048101546005820154600e8a01546001600160801b03600160801b9384900481169850928204831696506000929182169116111561485d5750600e8801546001600160801b031661486d565b5060058101546001600160801b03165b6148778188615a88565b92506148838989615170565b600d8a01549094506000906148a890600160801b90046001600160801b0316896140a2565b9050806001600160801b0316856001600160801b031611156148c8578094505b600a8a0154630100000090046001600160801b0316614942576148eb8488615831565b60028401549097506001600160801b03161561493d576002830154614930906001600160801b0390811690614921908816615243565b6001600160801b0316906147ae565b61493a9088615831565b96505b614973565b6002830154859061495c906001600160801b0316866140a2565b6149669190615831565b6149709087615831565b95505b5050505b93509350935093565b60975460ff16156149a35760405162461bcd60e51b8152600401610df1906157a5565b6097805460ff191660011790557f62e78cea01bee320cd4e420270b5ea74000d11b0c9f74754ebdbfc544b05a2586147793390565b600054610100900460ff166149ff5760405162461bcd60e51b8152600401610df190615d22565b614a07615257565b614a0f61527e565b565b600082815260656020526040808220600101805490849055905190918391839186917fbd79b86ffe0ab8e8776151514217cd7cacd52c909f66475c3af44e129f0b00ff9190a4505050565b6002820154600183015460405163d15e005360e01b81526001600160a01b039182166004820152600092919091169063d15e00539060240160206040518083038186803b158015614aac57600080fd5b505afa158015614ac0573d6000803e3d6000fd5b505050506040513d601f19601f82011682018060405250810190614ae49190615760565b9050614af1838383614e17565b6001600160801b039182166000908152601090930160205260409092206005018054919092166001600160801b0319909116179055565b60006115036140cc836001600160801b0316614b4c866001600160801b0316614cee565b906152b1565b60606000614b61836002615cef565b614b6c906002615b13565b67ffffffffffffffff811115614b8457614b84615d6d565b6040519080825280601f01601f191660200182016040528015614bae576020820181803683370190505b509050600360fc1b81600081518110614bc957614bc9615d83565b60200101906001600160f81b031916908160001a905350600f60fb1b81600181518110614bf857614bf8615d83565b60200101906001600160f81b031916908160001a9053506000614c1c846002615cef565b614c27906001615b13565b90505b6001811115614c9f576f181899199a1a9b1b9c1cb0b131b232b360811b85600f1660108110614c5b57614c5b615d83565b1a60f81b828281518110614c7157614c71615d83565b60200101906001600160f81b031916908160001a90535060049490941c93614c9881615d99565b9050614c2a565b5083156115035760405162461bcd60e51b815260206004820181905260248201527f537472696e67733a20686578206c656e67746820696e73756666696369656e746044820152606401610df1565b600080614cff633b9aca0084615cef565b905082614d10633b9aca0083615d0e565b146109e95760405162a748d160e21b815260040160405180910390fd5b6000821580614d3a575081155b15614d47575060006109e9565b81614d5e6002676765c793fa10079d601b1b615d0e565b614d6a90600019615db0565b614d749190615d0e565b831115614d935760405162a748d160e21b815260040160405180910390fd5b676765c793fa10079d601b1b614daa600282615d0e565b614db48486615cef565b6140fa9190615b13565b600080614dd06002633b9aca00615d0e565b90506000614dde8483615b13565b905081811015614e01576040516307af724160e11b815260040160405180910390fd5b614e0f633b9aca0082615d0e565b949350505050565b6001600160801b0380831660009081526010850160205260409020600481015490914291161015615046576000808080614e528888886147c6565b92965090945092509050614e6f6001600160801b03831687614b28565b600d89018054601090614e93908490600160801b90046001600160801b0316615a88565b82546101009290920a6001600160801b038181021990931691831602179091556002870154614ec4925016826140a2565b614ece9083615831565b600c89018054600090614eeb9084906001600160801b0316615831565b92506101000a8154816001600160801b0302191690836001600160801b0316021790555060008560050160109054906101000a90046001600160801b031684614f349190615a88565b6004870154909150600160801b90046001600160801b0316614fb4576005860180546001600160801b0319166001600160801b038981169182179092558a5460408051918252928b166020820152918201527f1ffcce3f36329128f865c47cacfc17ad27e65f7039d7aacd9d6350644c465a919060600160405180910390a15b6005860180546001600160801b03908116600160801b8783168102919091179092556001600160801b03198782168302164282161760048901558a54600d8c01547fda58df82953130c96b08dcda8a76478b2a4e0c16cddf3e59ac1ccf39d7b027639391928c926150279204168b6140a2565b846040516150389493929190615aec565b60405180910390a150505050505b50505050565b60006115036001600160801b038481169084166152b1565b6000821580615071575081155b1561507e575060006109e9565b816150926002670de0b6b3a7640000615d0e565b61509e90600019615db0565b6150a89190615d0e565b8311156150c75760405162a748d160e21b815260040160405180910390fd5b670de0b6b3a7640000614daa600282615d0e565b6000816150fb576040516308693c7b60e31b815260040160405180910390fd5b6000615108600284615d0e565b9050670de0b6b3a764000061511f82600019615db0565b6151299190615d0e565b8411156151485760405162a748d160e21b815260040160405180910390fd5b828161515c670de0b6b3a764000087615cef565b6151669190615b13565b614e0f9190615d0e565b6001600160801b0380821660009081526010840160205260408120600c85015491929091161561523c57600c84015460048201546002830154614e0f926001600160801b0390811692614921926151d29290811691600160801b9004166140a2565b6004880154600b890154612995916001600160801b03600160801b91829004811692614921926152059291041683615a88565b600489015461521d906001600160801b031642615a88565b60058d01546129959190600160801b90046001600160801b0316615dc7565b5092915050565b60006109e9826001600160801b0316614cee565b600054610100900460ff16614a0f5760405162461bcd60e51b8152600401610df190615d22565b600054610100900460ff166152a55760405162461bcd60e51b8152600401610df190615d22565b6097805460ff19169055565b6000816152d1576040516308693c7b60e31b815260040160405180910390fd5b60006152de600284615d0e565b9050676765c793fa10079d601b1b6152f882600019615db0565b6153029190615d0e565b8411156153215760405162a748d160e21b815260040160405180910390fd5b828161515c676765c793fa10079d601b1b87615cef565b60006020828403121561534a57600080fd5b81356001600160e01b03198116811461150357600080fd5b60006020828403121561537457600080fd5b5035919050565b6001600160a01b038116811461218057600080fd5b803561539b8161537b565b919050565b600080604083850312156153b357600080fd5b8235915060208301356153c58161537b565b809150509250929050565b6001600160801b038116811461218057600080fd5b803561539b816153d0565b6000806040838503121561540357600080fd5b823561540e816153d0565b946020939093013593505050565b6000806040838503121561542f57600080fd5b8235915060208301356153c5816153d0565b60008060006040848603121561545657600080fd5b833567ffffffffffffffff8082111561546e57600080fd5b818601915086601f83011261548257600080fd5b81358181111561549157600080fd5b8760208285010111156154a357600080fd5b602092830195509350508401356154b9816153d0565b809150509250925092565b600061020082840312156154d757600080fd5b50919050565b600080604083850312156154f057600080fd5b823561540e8161537b565b60008060006060848603121561551057600080fd5b833592506020840135615522816153d0565b915060408401356154b98161537b565b600080600080600060a0868803121561554a57600080fd5b8535615555816153d0565b945060208601359350604086013561556c816153d0565b9250606086013561557c816153d0565b9150608086013561558c816153d0565b809150509295509295909350565b600080600080608085870312156155b057600080fd5b8435935060208501356155c2816153d0565b925060408501356155d2816153d0565b915060608501356155e2816153d0565b939692955090935050565b8035801515811461539b57600080fd5b6000806040838503121561561057600080fd5b82359150615620602084016155ed565b90509250929050565b60006020828403121561563b57600080fd5b81356115038161537b565b60006020828403121561565857600080fd5b8135611503816153d0565b6000806040838503121561567657600080fd5b82356156818161537b565b915060208301356153c5816153d0565b600080600080600060a086880312156156a957600080fd5b8535945060208601356156bb816153d0565b935060408601356156cb816153d0565b925060608601356156db816153d0565b9150608086013561558c8161537b565b6001600160801b03948516815292841660208401529083166040830152909116606082015260800190565b600080600080600060a0868803121561572e57600080fd5b8535615739816153d0565b94506020860135935060408601356157508161537b565b9250606086013561557c8161537b565b60006020828403121561577257600080fd5b5051919050565b6001600160a01b0393841681526001600160801b03929092166020830152909116604082015260600190565b60208082526010908201526f14185d5cd8589b194e881c185d5cd95960821b604082015260600190565b6000602082840312156157e157600080fd5b8151611503816153d0565b600080604083850312156157ff57600080fd5b825161580a816153d0565b60208401519092506153c5816153d0565b634e487b7160e01b600052601160045260246000fd5b60006001600160801b038083168185168083038211156158535761585361581b565b01949350505050565b9283526001600160a01b039190911660208301526001600160801b0316604082015260600190565b60208152816020820152818360408301376000818301604090810191909152601f909201601f19160101919050565b6000602082840312156158c557600080fd5b815160ff8116811461150357600080fd5b6000602082840312156158e857600080fd5b611503826155ed565b81358152610200810161590660208401615390565b6001600160a01b0316602083015261592060408401615390565b6001600160a01b0316604083015261593a606084016153e5565b6001600160801b03166060830152615954608084016153e5565b6001600160801b0316608083015261596e60a084016153e5565b6001600160801b031660a083015261598860c084016153e5565b6001600160801b031660c08301526159a260e084016153e5565b6001600160801b031660e08301526101006159be8482016153e5565b6001600160801b0316908301526101206159d98482016153e5565b6001600160801b0316908301526101406159f48482016153e5565b6001600160801b031690830152610160615a0f8482016153e5565b6001600160801b031690830152610180615a2a8482016153e5565b6001600160801b0316908301526101a0615a458482016153e5565b6001600160801b0316908301526101c0615a608482016153e5565b6001600160801b0316908301526101e0615a7b8482016155ed565b1515920191909152919050565b60006001600160801b0383811690831681811015615aa857615aa861581b565b039392505050565b634e487b7160e01b600052601260045260246000fd5b60006001600160801b0380841680615ae057615ae0615ab0565b92169190910692915050565b9384526001600160801b039283166020850152908216604084015216606082015260800190565b60008219821115615b2657615b2661581b565b500190565b60005b83811015615b46578181015183820152602001615b2e565b838111156150465750506000910152565b7f416363657373436f6e74726f6c3a206163636f756e7420000000000000000000815260008351615b8f816017850160208801615b2b565b7001034b99036b4b9b9b4b733903937b6329607d1b6017918401918201528351615bc0816028840160208801615b2b565b01602801949350505050565b6020815260008251806020840152615beb816040850160208701615b2b565b601f01601f19169190910160400192915050565b600181815b80851115615c3a578160001904821115615c2057615c2061581b565b80851615615c2d57918102915b93841c9390800290615c04565b509250929050565b600082615c51575060016109e9565b81615c5e575060006109e9565b8160018114615c745760028114615c7e57615c9a565b60019150506109e9565b60ff841115615c8f57615c8f61581b565b50506001821b6109e9565b5060208310610133831016604e8410600b8410161715615cbd575081810a6109e9565b615cc78383615bff565b8060001904821115615cdb57615cdb61581b565b029392505050565b60006115038383615c42565b6000816000190483118215151615615d0957615d0961581b565b500290565b600082615d1d57615d1d615ab0565b500490565b6020808252602b908201527f496e697469616c697a61626c653a20636f6e7472616374206973206e6f74206960408201526a6e697469616c697a696e6760a81b606082015260800190565b634e487b7160e01b600052604160045260246000fd5b634e487b7160e01b600052603260045260246000fd5b600081615da857615da861581b565b506000190190565b600082821015615dc257615dc261581b565b500390565b60006001600160801b0380831681851681830481118215151615615ded57615ded61581b565b0294935050505056fe71840dc4906352362b0cdaf79870196c8e42acafade72d5d5a6d59291253ceb12344277e405079ec07749d374ba0b5862a4e45a6a05ac889dbb4a991c6f9354d27160668f6d81898b09bdae61c61d2c7d23fe33a52ae9b38e5b92f00ced3806ba26469706673582212201273acc0842e4614741a199a75df7faab67ec2faecfced751efd8945b6aa4ffc64736f6c63430008090033",
  "deployedBytecode": "0x608060405234801561001057600080fd5b50600436106102a05760003560e01c8063a217fddf11610167578063c8954db9116100ce578063ed156a8c11610087578063ed156a8c14610883578063f36c8f5c1461093a578063f3b0c7cc1461094f578063f3d1d26314610972578063f9ae48e014610985578063fe04d4c51461099857600080fd5b8063c8954db91461071e578063ce5be48814610731578063d547741f14610744578063d595408a14610757578063db2de9521461085d578063dc3fbbbc1461087057600080fd5b8063c098dab811610120578063c098dab814610697578063c38262e3146106aa578063c3d31fce146106bd578063c4d66de8146106c5578063c5ba771d146106d8578063c6252dae146106eb57600080fd5b8063a217fddf14610542578063a983dcc01461054a578063aa5976c11461055d578063aab19db41461065e578063b4ce44e514610671578063b74e0b131461068457600080fd5b80635790966e1161020b5780637ded35c5116101c45780637ded35c5146104b1578063817db73b146104ee5780638f13efc41461050157806391d14854146105145780639611d5dd146105275780639f3a348e1461052f57600080fd5b80635790966e146103e65780635c975abb146103f95780635e5856441461040457806371075b791461042a57806373356df014610489578063767483ea1461049c57600080fd5b806336568abe1161025d57806336568abe1461034e57806339f7358314610361578063402d88831461038c57806346d070121461039457806348037793146103a7578063518af627146103ba57600080fd5b806301ffc9a7146102a55780630e7b949e146102cd578063248a9ca3146102f05780632f2ff15d1461031357806330b12d0514610328578063330ca0361461033b575b600080fd5b6102b86102b3366004615338565b6109b8565b60405190151581526020015b60405180910390f35b6102e2600080516020615e1783398151915281565b6040519081526020016102c4565b6102e26102fe366004615362565b60009081526065602052604090206001015490565b6103266103213660046153a0565b6109ef565b005b6103266103363660046153f0565b610a1a565b6103266103493660046153a0565b610ad2565b61032661035c3660046153a0565b610d85565b61037461036f36600461541c565b610e08565b6040516001600160801b0390911681526020016102c4565b610326610e55565b6103746103a2366004615441565b61149e565b6103266103b53660046154c4565b61150a565b6103746103c8366004615362565b600090815260ca60205260409020600f01546001600160801b031690565b6103266103f43660046154dd565b611a59565b60975460ff166102b8565b6102b8610412366004615362565b600090815260ca602052604090206009015460ff1690565b610469610438366004615362565b600090815260ca6020526040902060078101546008909101546001600160801b03600160801b909204821692911690565b604080516001600160801b039384168152929091166020830152016102c4565b6103266104973660046154fb565b611b86565b6102e2600080516020615e3783398151915281565b6104c46104bf366004615532565b611d77565b604080516001600160801b03948516815292841660208401529216918101919091526060016102c4565b6103266104fc366004615362565b61204f565b61032661050f3660046153f0565b612089565b6102b86105223660046153a0565b612134565b61032661215f565b61037461053d366004615362565b612183565b6102e2600081565b610326610558366004615362565b6121bf565b6105ed61056b366004615362565b600090815260ca602052604090206001810154600382015460048301546005840154600685015460078601546008909601546001600160a01b03909516966001600160801b0380861697600160801b96879004821697828716979687900483169683871696819004841695848116959082900485169493841693919092041690565b604080516001600160a01b03909c168c526001600160801b039a8b1660208d0152988a16988b019890985295881660608a0152938716608089015291861660a0880152851660c0870152841660e08601528316610100850152821661012084015216610140820152610160016102c4565b61032661066c3660046154dd565b612399565b61046961067f366004615362565b61248e565b61046961069236600461559a565b612612565b6104c46106a53660046155fd565b612854565b6103266106b83660046153f0565b612a79565b610326612b5a565b6103266106d3366004615629565b612b7b565b6103266106e636600461541c565b612cbd565b6103746106f9366004615362565b600090815260ca60205260409020600a0154630100000090046001600160801b031690565b61032661072c366004615646565b612cf8565b61037461073f3660046153f0565b612f65565b6103266107523660046153a0565b613211565b6107ea610765366004615362565b600090815260ca60205260409020600a810154600b820154600c830154600d840154600e9094015460ff80851696610100860482169662010000870490921695630100000090046001600160801b039081169581811695600160801b918290048316958382169591839004841694848316949284900483169383831693920490911690565b604080519c15158d529a151560208d0152981515998b01999099526001600160801b0396871660608b015294861660808a015292851660a089015290841660c0880152831660e08701528216610100860152811661012085015291821661014084015216610160820152610180016102c4565b61032661086b366004615663565b613237565b61037461087e366004615691565b613875565b6108f861089136600461541c565b600091825260ca602090815260408084206001600160801b0393841685526010019091529091206001810154600282015460038301546004840154600590940154600160801b80850487169793871696948516959285169492819004831693910490911690565b604080516001600160801b03978816815295871660208701529386169385019390935290841660608401528316608083015290911660a082015260c0016102c4565b6102e2600080516020615df783398151915281565b61096261095d36600461559a565b613b22565b6040516102c494939291906156eb565b610469610980366004615716565b613c35565b6103266109933660046153f0565b613f0d565b6102e26109a6366004615629565b60c96020526000908152604090205481565b60006001600160e01b03198216637965db0b60e01b14806109e957506301ffc9a760e01b6001600160e01b03198316145b92915050565b600082815260656020526040902060010154610a0b8133613fb8565b610a15838361401c565b505050565b600080516020615df7833981519152610a338133613fb8565b600082815260ca60205260409020600a015460ff16610a6557604051630951899960e01b815260040160405180910390fd5b600082815260ca602090815260409182902060080180546001600160801b0319166001600160801b03871690811790915582519081529081018490527fe3ed7df90f4e708b201a97ff43820f24fa973238a9856a431e4c54ba31151bc991015b60405180910390a1505050565b600080516020615df7833981519152610aeb8133613fb8565b82610b0957604051635342e0a760e11b815260040160405180910390fd5b6001600160a01b038216610b305760405163f15e745f60e01b815260040160405180910390fd5b600083815260ca6020526040902080548414610b5f57604051630951899960e01b815260040160405180910390fd5b600a81015462010000900460ff1615610b8b5760405163235893eb60e21b815260040160405180910390fd5b600a8101805462ff0000191662010000179055600d8101546000906001600160801b03600160801b9091041615610d3c576002820154600183015460405163d15e005360e01b81526001600160a01b039182166004820152600092919091169063d15e00539060240160206040518083038186803b158015610c0c57600080fd5b505afa158015610c20573d6000803e3d6000fd5b505050506040513d601f19601f82011682018060405250810190610c449190615760565b600d840154909150610c6690600160801b90046001600160801b0316826140a2565b600d840180546001600160801b039081169091556002850154600089815260ca60205260409020600190810154908701549395506001600160a01b03918216936369328dec939190921691610cc89187169060ff600160a01b909104166140d1565b886040518463ffffffff1660e01b8152600401610ce793929190615779565b602060405180830381600087803b158015610d0157600080fd5b505af1158015610d15573d6000803e3d6000fd5b505050506040513d601f19601f82011682018060405250810190610d399190615760565b50505b604080518681526001600160801b03831660208201527fdb941e881e2a4a824775895cb9b4908cbc030460e7356912047a04e2c8f3281691015b60405180910390a15050505050565b6001600160a01b0381163314610dfa5760405162461bcd60e51b815260206004820152602f60248201527f416363657373436f6e74726f6c3a2063616e206f6e6c792072656e6f756e636560448201526e103937b632b9903337b91039b2b63360891b60648201526084015b60405180910390fd5b610e048282614104565b5050565b600082815260ca602090815260408083206001600160801b038086168552601090910190925290912060040154600160801b900416806109e95750676765c793fa10079d601b1b92915050565b60975460ff1615610e785760405162461bcd60e51b8152600401610df1906157a5565b600080516020615e17833981519152610e918133613fb8565b33600090815260c9602090815260408083205480845260ca909252909120600a810154610100900460ff1615610eda5760405163056efc7b60e01b815260040160405180910390fd5b600a810154630100000090046001600160801b0316610f0c57604051631e13931b60e21b815260040160405180910390fd5b600a8101544263010000009091046001600160801b031611808015610f365750600982015460ff16155b15610f5457604051632b604eef60e01b815260040160405180910390fd5b610f5d8261416b565b604051631d398d8d60e21b81526004810183905260009081908190819073__$ca2bba44fde77ee89f0ecd8cad9e71ea90$__906374e636349060240160206040518083038186803b158015610fb157600080fd5b505af4158015610fc5573d6000803e3d6000fd5b505050506040513d601f19601f82011682018060405250810190610fe991906157cf565b600c870154909150600160801b90046001600160801b03165b60038701546001600160801b03600160801b90910481169082161161112557604051634de6e91560e01b8152600481018890526001600160801b03808316602483015283166044820152600090819073__$ca2bba44fde77ee89f0ecd8cad9e71ea90$__90634de6e91590606401604080518083038186803b15801561108757600080fd5b505af415801561109b573d6000803e3d6000fd5b505050506040513d601f19601f820116820180604052508101906110bf91906157ec565b90925090506110ce8183615831565b6110d89086615831565b94506110e48188615831565b965060006110f38a858961427b565b905080806110fe5750865b60048b015490975061111e93506001600160801b03169150839050615831565b9050611002565b50604051635ccb5f2f60e01b8152600481018790526001600160801b038316602482015260009073__$ca2bba44fde77ee89f0ecd8cad9e71ea90$__90635ccb5f2f9060440160206040518083038186803b15801561118357600080fd5b505af4158015611197573d6000803e3d6000fd5b505050506040513d601f19601f820116820180604052508101906111bb91906157cf565b90506111c78184615831565b604051636839a26160e01b815290935073__$ca2bba44fde77ee89f0ecd8cad9e71ea90$__90636839a26190611205908a903390889060040161585c565b60006040518083038186803b15801561121d57600080fd5b505af4158015611231573d6000803e3d6000fd5b505050600688015461124d91506001600160801b031642615831565b600d880180546001600160801b039283166001600160801b031991821617909155600b890180549091169055600089815260cb602052604081208054849391929161129a91859116615831565b92506101000a8154816001600160801b0302191690836001600160801b031602179055508287600a0160020160008282829054906101000a90046001600160801b03166112e79190615831565b82546101009290920a6001600160801b038181021990931691831602179091556006890154600a8a015461132f9350600160801b909104821691630100000090910416615831565b6001600160801b03164211156113af57600c870154600d880154604080516001600160801b038088168252808a16602083015280861692820192909252928116606084015216608082015288907f0a8858cdd0551a157921eb1032d7f466feec7752fffc78f8b3c52bb435e331b09060a0015b60405180910390a261146f565b600a8701544263010000009091046001600160801b0316111561141957600c870154600d8801546040518a927fa2b36883c3fcb197b500ec4377e7899f16820387a05442f947c237578dd03f81926113a292889287926001600160801b03918216929116906156eb565b600c870154600d8801546040518a927fcde954d9667cdba90232367e5f743ea631856cdec43e595635130c08e20ffa939261146692889287926001600160801b03918216929116906156eb565b60405180910390a25b505050600a840180546301000000600160981b0319169055505050600b0180546001600160801b031690555050565b60008060ca600086866040516020016114b8929190615884565b60408051601f19818403018152918152815160209283012083528282019390935290820160009081206001600160801b03808816835260109091019092529190912060040154169150505b9392505050565b600080516020615df78339815191526115238133613fb8565b61152c826144bf565b604051806102200160405280836000013581526020018360200160208101906115559190615629565b6001600160a01b031681526020018360200160208101906115769190615629565b6001600160a01b031663313ce5676040518163ffffffff1660e01b815260040160206040518083038186803b1580156115ae57600080fd5b505afa1580156115c2573d6000803e3d6000fd5b505050506040513d601f19601f820116820180604052508101906115e691906158b3565b60ff1681526020016115fe6060850160408601615629565b6001600160a01b0316815260200161161c6080850160608601615646565b6001600160801b0316815260200161163a60a0850160808601615646565b6001600160801b0316815260200161165860c0850160a08601615646565b6001600160801b0316815260200161167660e0850160c08601615646565b6001600160801b03168152602001611695610100850160e08601615646565b6001600160801b031681526020016116b561012085016101008601615646565b6001600160801b031681526020016116d561014085016101208601615646565b6001600160801b031681526020016116f561016085016101408601615646565b6001600160801b0316815260200161171561018085016101608601615646565b6001600160801b031681526020016117356101a085016101808601615646565b6001600160801b031681526020016117556101c085016101a08601615646565b6001600160801b031681526020016117756101e085016101c08601615646565b6001600160801b0316815260200161179561020085016101e086016158d6565b151590528235600090815260ca602090815260409182902083518155908301516001820180548585015160ff16600160a01b026001600160a81b03199091166001600160a01b0393841617179055606080850151600284018054919093166001600160a01b03199190911617909155608084015160a08501516001600160801b03908116600160801b90810292821692909217600385015560c086015160e08701518216830290821617600485015561010086015161012087015182168302908216176005850155610140860151610160870151821683029082161760068501556101808601516101a0870151821683029082161760078501556101c08601516101e087015182169092029116176008830155610200909301516009909101805491151560ff199092169190911790556118d3918401908401615629565b6001600160a01b031663d15e00536118f16040850160208601615629565b6040516001600160e01b031960e084901b1681526001600160a01b03909116600482015260240160206040518083038186803b15801561193057600080fd5b505afa158015611944573d6000803e3d6000fd5b505050506040513d601f19601f820116820180604052508101906119689190615760565b8235600090815260ca602052604090819020600e0180546001600160801b0319166001600160801b039390931692909217909155517fe71e8fe4301d57c752d83a095e456f17300a88ea18c7daef3b9e035a9ed1aa65906119ca9084906158f1565b60405180910390a18135600090815260ca6020526040902060080154600160801b90046001600160801b0316610e04578135600090815260ca602052604090819020600a8101805460ff191660011790555490517f843e4390b5f579b124a883bb556fa80a421be9d5301b2e7267641cc23ea077e491611a4d9190815260200190565b60405180910390a15050565b600080516020615df7833981519152611a728133613fb8565b81611a9057604051635342e0a760e11b815260040160405180910390fd5b6001600160a01b038316611ab75760405163f15e745f60e01b815260040160405180910390fd5b600082815260ca60205260409020548214611ae557604051630951899960e01b815260040160405180910390fd5b6001600160a01b038316600090815260c960205260409020548214611b1d5760405163e2106cd360e01b815260040160405180910390fd5b611b35600080516020615e1783398151915284613211565b6001600160a01b038316600081815260c96020908152604080832092909255815192835282018490527fbca7a5cbff6e29c636e92cf5ee4128086f7e982204b0e420cb972819f12f88fe9101610ac5565b600080516020615df7833981519152611b9f8133613fb8565b600084815260ca6020526040812060010154611bcf906001600160801b03861690600160a01b900460ff16614690565b600086815260ca60205260409020549091508514611c0057604051630951899960e01b815260040160405180910390fd5b600085815260cb60205260409020546001600160801b039081169082161115611c3c57604051639f747ffd60e01b815260040160405180910390fd5b600085815260cb602052604081208054839290611c639084906001600160801b0316615a88565b82546001600160801b039182166101009390930a928302919092021990911617905550600085815260ca6020526040908190206002810154600191909101549151631a4ca37b60e21b81526001600160a01b03918216926369328dec92611cd39291169088908890600401615779565b602060405180830381600087803b158015611ced57600080fd5b505af1158015611d01573d6000803e3d6000fd5b505050506040513d601f19601f82011682018060405250810190611d259190615760565b50604080518681526001600160801b03831660208201526001600160a01b038516918101919091527f150a2e161f87df4cc1b0c4345f9779d342fa2bcc2bf767efbb54005e811079f190606001610d76565b6000806000611d8860975460ff1690565b15611da55760405162461bcd60e51b8152600401610df1906157a5565b600080516020615e37833981519152611dbe8133613fb8565b600088815260ca60205260409020600a81015462010000900460ff1615611df85760405163df00603160e01b815260040160405180910390fd5b6000611e068a8a8d8a612612565b5090506001600160801b03811615611e3157604051630d290b7960e31b815260040160405180910390fd5b60038201546001600160801b039081169089161015611e635760405163fca6b5cd60e01b815260040160405180910390fd5b60038201546001600160801b03600160801b90910481169089161115611e9c576040516393c139e960e01b815260040160405180910390fd5b600482015460038301546001600160801b0391821691611ebd91168a615a88565b611ec79190615ac6565b6001600160801b031615611eee5760405163270955a760e01b815260040160405180910390fd5b6000611f0e611efe848c8b6146b8565b6001600160801b038e16906140a2565b604051636ef48f5760e01b815290915073__$ca2bba44fde77ee89f0ecd8cad9e71ea90$__90636ef48f5790611f4e9086908e9086908e90600401615aec565b60206040518083038186803b158015611f6657600080fd5b505af4158015611f7a573d6000803e3d6000fd5b505050506040513d601f19601f82011682018060405250810190611f9e91906157cf565b604051631cd2ca1960e11b8152600481018590526001600160801b03808c1660248301528216604482015290955073__$ca2bba44fde77ee89f0ecd8cad9e71ea90$__906339a5943290606401604080518083038186803b15801561200257600080fd5b505af4158015612016573d6000803e3d6000fd5b505050506040513d601f19601f8201168201806040525081019061203a91906157ec565b909d909c50949a509398505050505050505050565b60975460ff16156120725760405162461bcd60e51b8152600401610df1906157a5565b600081815260ca60205260409020610e048161416b565b600080516020615df78339815191526120a28133613fb8565b600082815260ca602052604090205482146120d057604051630951899960e01b815260040160405180910390fd5b600082815260ca602090815260409182902060040180546001600160801b03908116600160801b9188169182021790915582519081529081018490527f796282fae5ebb944d98f910eb76fbde5bc1dc06dd9da67632dc4561d96e7c30d9101610ac5565b60009182526065602090815260408084206001600160a01b0393909316845291905290205460ff1690565b600080516020615df78339815191526121788133613fb8565b612180614703565b50565b600081815260ca602090815260408083206001015460cb9092528220546109e9916001600160801b0390911690600160a01b900460ff166140d1565b600080516020615df78339815191526121d88133613fb8565b600082815260ca60205260409020600a810154610100900460ff1615612210576040516209157360e41b815260040160405180910390fd5b600a810154630100000090046001600160801b031661224257604051633aa99c9b60e01b815260040160405180910390fd5b6006810154600a820154612270916001600160801b03600160801b9091048116916301000000900416615831565b6001600160801b031642101561229957604051632b797db960e11b815260040160405180910390fd5b600a8101805461010061ff0019909116179055600f810180546001600160801b031916426001600160801b0316179055604051631d8e67b960e31b81526004810182905260009073__$ca2bba44fde77ee89f0ecd8cad9e71ea90$__9063ec733dc89060240160206040518083038186803b15801561231757600080fd5b505af415801561232b573d6000803e3d6000fd5b505050506040513d601f19601f8201168201806040525081019061234f91906157cf565b604080518681526001600160801b03831660208201529192507f4eb384de78f7c7a5dd1dc12268658939004561d9dc1572c852f6c0873cca67b2910160405180910390a150505050565b600080516020615df78339815191526123b28133613fb8565b816123d057604051635342e0a760e11b815260040160405180910390fd5b6001600160a01b0383166123f75760405163f15e745f60e01b815260040160405180910390fd5b600082815260ca6020526040902054821461242557604051630951899960e01b815260040160405180910390fd5b61243d600080516020615e17833981519152846109ef565b6001600160a01b038316600081815260c96020908152604091829020859055815192835282018490527f3a3825a3ceba48aadc12396e4232a6098dea62688b3cbc06d0f1f3ed26fbcc259101610ac5565b600081815260ca60205260408120600a8101548291908190630100000090046001600160801b03166124e05760048201546124d990600160801b90046001600160801b031686612f65565b935061260b565b600381015460009081906001600160801b03165b6004840154600385015461251b916001600160801b0390811691600160801b900416615831565b6001600160801b0316816001600160801b0316146125f2576001600160801b03808216600090815260108701602052604090206003015461256591600160801b9091041682614796565b61256f9084615831565b6001600160801b0380831660009081526010880160205260409020600301549194506125a391600160801b90041683615831565b6001600160801b0380831660009081526010880160205260409020600301549193506125d0911687615831565b60048501549096506125eb906001600160801b031682615831565b90506124f4565b6126056001600160801b038416836147ae565b96505050505b5050915091565b600084815260ca602052604080822060028101546001820154925163d15e005360e01b81526001600160a01b03938416600482015284938492169063d15e00539060240160206040518083038186803b15801561266e57600080fd5b505afa158015612682573d6000803e3d6000fd5b505050506040513d601f19601f820116820180604052508101906126a69190615760565b600e8301549091506001600160801b03600160801b909104811690861611156126e95760006126de6001600160801b038816836140a2565b93509350505061284b565b604051633d29c20960e01b815260009073__$ca2bba44fde77ee89f0ecd8cad9e71ea90$__90633d29c209906127299086908c908c908c90600401615aec565b604080518083038186803b15801561274057600080fd5b505af4158015612754573d6000803e3d6000fd5b505050506040513d601f19601f8201168201806040525081019061277891906157ec565b909550905060008061278b858b866147c6565b5050604051632ca9e11360e11b8152919350915060009073__$ca2bba44fde77ee89f0ecd8cad9e71ea90$__90635953c226906127d29089908f9089908890600401615aec565b60206040518083038186803b1580156127ea57600080fd5b505af41580156127fe573d6000803e3d6000fd5b505050506040513d601f19601f8201168201806040525081019061282291906157cf565b9050806128386001600160801b038616856140a2565b6128429190615831565b96505050505050505b94509492505050565b600082815260ca6020526040808220905163839a9c2960e01b81526004810191909152821515602482015281908190819073__$ca2bba44fde77ee89f0ecd8cad9e71ea90$__9063839a9c299060440160206040518083038186803b1580156128bc57600080fd5b505af41580156128d0573d6000803e3d6000fd5b505050506040513d601f19601f820116820180604052508101906128f491906157cf565b600087815260ca6020526040908190209051631d398d8d60e21b81529192506129a491839173__$ca2bba44fde77ee89f0ecd8cad9e71ea90$__916374e63634916129459160040190815260200190565b60206040518083038186803b15801561295d57600080fd5b505af4158015612971573d6000803e3d6000fd5b505050506040513d601f19601f8201168201806040525081019061299591906157cf565b6001600160801b031690614796565b600087815260ca6020526040902090935073__$ca2bba44fde77ee89f0ecd8cad9e71ea90$__90635ccb5f2f906129db8685615831565b6040516001600160e01b031960e085901b16815260048101929092526001600160801b0316602482015260440160206040518083038186803b158015612a2057600080fd5b505af4158015612a34573d6000803e3d6000fd5b505050506040513d601f19601f82011682018060405250810190612a5891906157cf565b915082612a658383615831565b612a6f9190615831565b9350509250925092565b600080516020615df7833981519152612a928133613fb8565b600082815260ca60205260409020600a015460ff16612ac457604051630951899960e01b815260040160405180910390fd5b670de0b6b3a7640000836001600160801b03161115612af657604051633dedb6cb60e21b815260040160405180910390fd5b600082815260ca602090815260409182902060070180546001600160801b03908116600160801b9188169182021790915582519081529081018490527f738c64322e7db945ad7f301e0af4f8b02a5a5cb336140b950d2a7b4340569b7d9101610ac5565b600080516020615df7833981519152612b738133613fb8565b612180614980565b600054610100900460ff16612b965760005460ff1615612b9a565b303b155b612bfd5760405162461bcd60e51b815260206004820152602e60248201527f496e697469616c697a61626c653a20636f6e747261637420697320616c72656160448201526d191e481a5b9a5d1a585b1a5e995960921b6064820152608401610df1565b600054610100900460ff16158015612c1f576000805461ffff19166101011790555b612c276149d8565b6001600160a01b038216612c39573391505b612c4460008361401c565b612c5c600080516020615df78339815191528361401c565b612c82600080516020615e17833981519152600080516020615df7833981519152614a11565b612ca8600080516020615e37833981519152600080516020615df7833981519152614a11565b8015610e04576000805461ff00191690555050565b60975460ff1615612ce05760405162461bcd60e51b8152600401610df1906157a5565b600082815260ca60205260409020610a158183614a5c565b60975460ff1615612d1b5760405162461bcd60e51b8152600401610df1906157a5565b600080516020615e17833981519152612d348133613fb8565b33600090815260c96020908152604080832054835260ca90915281206001810154909190612d76906001600160801b03861690600160a01b900460ff16614690565b604051636839a26160e01b815290915073__$ca2bba44fde77ee89f0ecd8cad9e71ea90$__90636839a26190612db49085903390869060040161585c565b60006040518083038186803b158015612dcc57600080fd5b505af4158015612de0573d6000803e3d6000fd5b5050604051631a727b1960e31b8152600481018590526001600160801b03841660248201526000925073__$ca2bba44fde77ee89f0ecd8cad9e71ea90$__915063d393d8c89060440160206040518083038186803b158015612e4157600080fd5b505af4158015612e55573d6000803e3d6000fd5b505050506040513d601f19601f82011682018060405250810190612e7991906157cf565b600a84015490915060ff16158015612ec257506008830154600d8401546001600160801b03600160801b92839004811692612eb6920416836140a2565b6001600160801b031610155b15612f1357600a8301805460ff1916600117905582546040517f843e4390b5f579b124a883bb556fa80a421be9d5301b2e7267641cc23ea077e491612f0a9190815260200190565b60405180910390a15b33600090815260c960209081526040918290205482519081526001600160801b038516918101919091527f4e4bba6240da8987fe01edc7c3e8498d355a5f0ad7eb7ff2995f3393d8c030a79101610d76565b600081815260ca60205260408120600a8101548190630100000090046001600160801b0316151580612fa05750600a820154610100900460ff165b80612fb55750600a82015462010000900460ff165b80612fc55750600a82015460ff16155b15612fd5576000925050506109e9565b60048201546001600160801b03600160801b9091048116908616111561300d576004820154600160801b90046001600160801b031694505b6002810154600182015460405163d15e005360e01b81526001600160a01b039182166004820152600092919091169063d15e00539060240160206040518083038186803b15801561305d57600080fd5b505afa158015613071573d6000803e3d6000fd5b505050506040513d601f19601f820116820180604052508101906130959190615760565b60038401549091506001600160801b03168660005b600485015460038601546130d1916001600160801b0390811691600160801b900416615831565b6001600160801b0316836001600160801b0316146131be5760006130f68785876147c6565b5050506001600160801b03808616600090815260108a016020526040812060020154929350916131279116836140a2565b9050836001600160801b0316816001600160801b031610156131735761314d8185615a88565b93506131626001600160801b03821686614796565b61316c9084615831565b925061319d565b6131866001600160801b03851686614796565b6131909084615831565b92506000935050506131be565b505060048501546131b7906001600160801b031684615831565b92506130aa565b816001600160801b0316896001600160801b031614156131e757600096505050505050506109e9565b6132046131f4838b615a88565b6001600160801b038316906147ae565b9998505050505050505050565b60008281526065602052604090206001015461322d8133613fb8565b610a158383614104565b60975460ff161561325a5760405162461bcd60e51b8152600401610df1906157a5565b600080516020615e178339815191526132738133613fb8565b33600090815260c9602090815260408083205480845260ca909252909120600a81015462010000900460ff16156132bd5760405163df00603160e01b815260040160405180910390fd5b600a810154610100900460ff16156132e85760405163056efc7b60e01b815260040160405180910390fd5b600a810154630100000090046001600160801b03161580159061331e5750600a810154630100000090046001600160801b031642115b1561333c57604051630fda546f60e41b815260040160405180910390fd5b6001810154600090613362906001600160801b03871690600160a01b900460ff16614690565b600783015490915060009061338a906001600160801b0380851691600160801b900416614796565b905060006133988284615a88565b6004850154600b8601549192506001600160801b03600160801b918290048116926133c7928792910416615831565b6001600160801b031611156133ef5760405163aab4fe5160e01b815260040160405180910390fd5b600d8401546001600160801b031642101561341d5760405163af26604960e01b815260040160405180910390fd5b6134268461416b565b600c8401546001600160801b03908116908416111561345857604051634421566d60e11b815260040160405180910390fd5b6004840154600c8501548491600091613484916001600160801b0390811691600160801b900416615a88565b90505b6000826001600160801b03161180156134b7575060038601546001600160801b03600160801b9091048116908216105b156136225760048601546134d4906001600160801b031682615831565b6001600160801b038082166000908152601089016020526040902060020154919250161561361d57604051634c5e028760e11b8152600481018790526001600160801b03808316602483015283166044820152600090819073__$ca2bba44fde77ee89f0ecd8cad9e71ea90$__906398bc050e90606401604080518083038186803b15801561356257600080fd5b505af4158015613576573d6000803e3d6000fd5b505050506040513d601f19601f8201168201806040525081019061359a91906157ec565b60405163ca8701f360e01b8152919350915073__$ca2bba44fde77ee89f0ecd8cad9e71ea90$__9063ca8701f3906135dc908b90879087908790600401615aec565b60006040518083038186803b1580156135f457600080fd5b505af4158015613608573d6000803e3d6000fd5b5050505080846136189190615a88565b935050505b613487565b6001600160801b0382161561364a57604051630f0b666f60e01b815260040160405180910390fd5b600a860154630100000090046001600160801b03166136e557600586015461367b906001600160801b031642615b13565b600a870180546301000000600160981b03191663010000006001600160801b0393841602179055604080518583168152918616602083015288917f02936c9aa03a5ee03914509058d0ab4fc30b8f8cb97922e9f8885bf0651263c0910160405180910390a261372b565b604080516001600160801b0380861682528616602082015288917f2a5361599b6218cb63221765b277f7026a473b717f40193ee25deae176e748dc910160405180910390a25b600087815260cb6020526040812080548692906137529084906001600160801b0316615831565b92506101000a8154816001600160801b0302191690836001600160801b031602179055508486600a0160010160108282829054906101000a90046001600160801b031661379f9190615831565b82546101009290920a6001600160801b03818102199093169183160217909155600288015460018901546001600160a01b0391821693506369328dec92918116916137f79190881690600160a01b900460ff166140d1565b8d6040518463ffffffff1660e01b815260040161381693929190615779565b602060405180830381600087803b15801561383057600080fd5b505af1158015613844573d6000803e3d6000fd5b505050506040513d601f19601f820116820180604052508101906138689190615760565b5050505050505050505050565b600061388360975460ff1690565b156138a05760405162461bcd60e51b8152600401610df1906157a5565b600080516020615e378339815191526138b98133613fb8565b600087815260ca60205260409020600e8101546138e790600160801b90046001600160801b03166001615831565b6001600160801b0316856001600160801b031611156139195760405163019894df60e21b815260040160405180910390fd5b600e8101546001600160801b03600160801b90910481169086161180158161395f57506001600160801b0380891660009081526010840160205260409020600201541615155b80613990575080801561399057506001600160801b0380891660009081526010840160205260409020600301541615155b6139ad5760405163436ec62560e01b815260040160405180910390fd5b6000876001600160801b0316116139d757604051636ba603b360e11b815260040160405180910390fd5b604051636ef48f5760e01b815273__$ca2bba44fde77ee89f0ecd8cad9e71ea90$__90636ef48f5790613a149085908c908c908c90600401615aec565b60206040518083038186803b158015613a2c57600080fd5b505af4158015613a40573d6000803e3d6000fd5b505050506040513d601f19601f82011682018060405250810190613a6491906157cf565b600283015460018401549195506001600160a01b03908116916369328dec91811690613aa4906001600160801b03891690600160a01b900460ff166140d1565b886040518463ffffffff1660e01b8152600401613ac393929190615779565b602060405180830381600087803b158015613add57600080fd5b505af1158015613af1573d6000803e3d6000fd5b505050506040513d601f19601f82011682018060405250810190613b159190615760565b5050505095945050505050565b600084815260ca60205260408120600a8101548291829182919060ff16613b5c5760405163c6d9b58160e01b815260040160405180910390fd5b604051633d29c20960e01b815273__$ca2bba44fde77ee89f0ecd8cad9e71ea90$__90633d29c20990613b999084908c908c908c90600401615aec565b604080518083038186803b158015613bb057600080fd5b505af4158015613bc4573d6000803e3d6000fd5b505050506040513d601f19601f82011682018060405250810190613be891906157ec565b95509250613c0a613bfa828a896146b8565b6001600160801b03871690614b28565b935080600a0160000160039054906101000a90046001600160801b0316915050945094509450949050565b600080613c4460975460ff1690565b15613c615760405162461bcd60e51b8152600401610df1906157a5565b600080516020615e37833981519152613c7a8133613fb8565b600087815260ca60205260409020600a810154610100900460ff1615613cb35760405163056efc7b60e01b815260040160405180910390fd5b600a81015460ff16613cd85760405163c6d9b58160e01b815260040160405180910390fd5b600a81015462010000900460ff1615613d045760405163df00603160e01b815260040160405180910390fd5b60018101546001600160a01b03888116911614613d345760405163623957d360e01b815260040160405180910390fd5b60038101546001600160801b03908116908a161015613d665760405163fca6b5cd60e01b815260040160405180910390fd5b60038101546001600160801b03600160801b9091048116908a161115613d9f576040516393c139e960e01b815260040160405180910390fd5b600481015460038201546001600160801b0391821691613dc091168b615a88565b613dca9190615ac6565b6001600160801b031615613df15760405163270955a760e01b815260040160405180910390fd5b604051631cd2ca1960e11b8152600481018290526001600160801b03808b166024830152861660448201526000945084935073__$ca2bba44fde77ee89f0ecd8cad9e71ea90$__906339a5943290606401604080518083038186803b158015613e5957600080fd5b505af4158015613e6d573d6000803e3d6000fd5b505050506040513d601f19601f82011682018060405250810190613e9191906157ec565b604051636839a26160e01b8152919550935073__$ca2bba44fde77ee89f0ecd8cad9e71ea90$__90636839a26190613ed19084908a908a9060040161585c565b60006040518083038186803b158015613ee957600080fd5b505af4158015613efd573d6000803e3d6000fd5b5050505050509550959350505050565b600080516020615df7833981519152613f268133613fb8565b600082815260ca60205260409020548214613f5457604051630951899960e01b815260040160405180910390fd5b600082815260ca602090815260409182902060050180546001600160801b03908116600160801b9188169182021790915582519081529081018490527f7016612eedf00917c664926ac3c77a4800fefe912e91632376418e8fc6e621619101610ac5565b613fc28282612134565b610e0457613fda816001600160a01b03166014614b52565b613fe5836020614b52565b604051602001613ff6929190615b57565b60408051601f198184030181529082905262461bcd60e51b8252610df191600401615bcc565b6140268282612134565b610e045760008281526065602090815260408083206001600160a01b03851684529091529020805460ff1916600117905561405e3390565b6001600160a01b0316816001600160a01b0316837f2f8788117e7eff1d82e926ec794901d17c78024a50270940304540a733656f0d60405160405180910390a45050565b60006115036140cc836001600160801b03166140c6866001600160801b0316614cee565b90614d2d565b614dbe565b6000670de0b6b3a76400006140e783600a615ce3565b6140fa906001600160801b038616615cef565b6115039190615d0e565b61410e8282612134565b15610e045760008281526065602090815260408083206001600160a01b0385168085529252808320805460ff1916905551339285917ff6391f5c32d9c69d2a47ea670b442974b53935d1edc7fd64eb21e047a839171b9190a45050565b6002810154600182015460405163d15e005360e01b81526001600160a01b039182166004820152600092919091169063d15e00539060240160206040518083038186803b1580156141bb57600080fd5b505afa1580156141cf573d6000803e3d6000fd5b505050506040513d601f19601f820116820180604052508101906141f39190615760565b600c830154909150600160801b90046001600160801b03165b60038301546001600160801b03600160801b90910481169082161161425557614236838284614e17565b600483015461424e906001600160801b031682615831565b905061420c565b50600e9190910180546001600160801b0319166001600160801b03909216919091179055565b6001600160801b038083166000908152601085016020526040812060038101549192909116156144b457826142f757600e85018054600191906010906142d2908490600160801b90046001600160801b0316615831565b92506101000a8154816001600160801b0302191690836001600160801b031602179055505b6004810154600e86015461431f916001600160801b0391821691600160801b9091041661504c565b600e86018054600160801b908190046001600160801b0390811660009081526020869052604080822080546001600160801b0319169684169690961790955592549190910481168252918120546003840154919261438092811691166140a2565b600e87015460038401549192506143a3916001600160801b0390811691166140a2565b600c870180546000906143c09084906001600160801b0316615831565b92506101000a8154816001600160801b0302191690836001600160801b03160217905550808260010160108282829054906101000a90046001600160801b031661440a9190615831565b82546101009290920a6001600160801b038181021990931691831602179091556001840154600285018054600160801b90920483166001600160801b03199283161790556003850180549091169055875460408051918252888316602083015291841691810191909152851560608201527f6ed432acb9733bda7d5f090ab5f35a9a2e19974dba6ae2dd7078c84b92388f96915060800160405180910390a1600192505050611503565b506000949350505050565b6144cf60c0820160a08301615646565b6144df6080830160608401615646565b6144ef60a0840160808501615646565b6144f99190615a88565b6145039190615ac6565b6001600160801b03161561452a576040516334cc2fed60e01b815260040160405180910390fd5b803561454957604051635342e0a760e11b815260040160405180910390fd5b8035600090815260ca60205260409020541561457857604051631953bac160e11b815260040160405180910390fd5b600061458a6060830160408401615629565b6001600160a01b031663d15e00536145a86040850160208601615629565b6040516001600160e01b031960e084901b1681526001600160a01b03909116600482015260240160206040518083038186803b1580156145e757600080fd5b505afa1580156145fb573d6000803e3d6000fd5b505050506040513d601f19601f8201168201806040525081019061461f9190615760565b9050676765c793fa10079d601b1b81101561464d5760405163fee5a60360e01b815260040160405180910390fd5b670de0b6b3a76400006146686101a084016101808501615646565b6001600160801b03161115610e0457604051633dedb6cb60e21b815260040160405180910390fd5b600061469d82600a615ce3565b6140fa670de0b6b3a76400006001600160801b038616615cef565b6001600160801b03808316600090815260108501602090815260408083208585168452918290529091205490911690816146fb57676765c793fa10079d601b1b91505b509392505050565b60975460ff1661474c5760405162461bcd60e51b815260206004820152601460248201527314185d5cd8589b194e881b9bdd081c185d5cd95960621b6044820152606401610df1565b6097805460ff191690557f5db9ee0a495bf2e6ff9c91a7834c1ba4fdd244a5e8aa4e537bd38aeae4b073aa335b6040516001600160a01b03909116815260200160405180910390a1565b60006115036001600160801b03848116908416615064565b60006115036001600160801b038481169084166150db565b6001600160801b0380831660009081526010850160205260408120600481015491928392839283929091600160801b90041661481057856000806000945094509450945050614977565b60048101546005820154600e8a01546001600160801b03600160801b9384900481169850928204831696506000929182169116111561485d5750600e8801546001600160801b031661486d565b5060058101546001600160801b03165b6148778188615a88565b92506148838989615170565b600d8a01549094506000906148a890600160801b90046001600160801b0316896140a2565b9050806001600160801b0316856001600160801b031611156148c8578094505b600a8a0154630100000090046001600160801b0316614942576148eb8488615831565b60028401549097506001600160801b03161561493d576002830154614930906001600160801b0390811690614921908816615243565b6001600160801b0316906147ae565b61493a9088615831565b96505b614973565b6002830154859061495c906001600160801b0316866140a2565b6149669190615831565b6149709087615831565b95505b5050505b93509350935093565b60975460ff16156149a35760405162461bcd60e51b8152600401610df1906157a5565b6097805460ff191660011790557f62e78cea01bee320cd4e420270b5ea74000d11b0c9f74754ebdbfc544b05a2586147793390565b600054610100900460ff166149ff5760405162461bcd60e51b8152600401610df190615d22565b614a07615257565b614a0f61527e565b565b600082815260656020526040808220600101805490849055905190918391839186917fbd79b86ffe0ab8e8776151514217cd7cacd52c909f66475c3af44e129f0b00ff9190a4505050565b6002820154600183015460405163d15e005360e01b81526001600160a01b039182166004820152600092919091169063d15e00539060240160206040518083038186803b158015614aac57600080fd5b505afa158015614ac0573d6000803e3d6000fd5b505050506040513d601f19601f82011682018060405250810190614ae49190615760565b9050614af1838383614e17565b6001600160801b039182166000908152601090930160205260409092206005018054919092166001600160801b0319909116179055565b60006115036140cc836001600160801b0316614b4c866001600160801b0316614cee565b906152b1565b60606000614b61836002615cef565b614b6c906002615b13565b67ffffffffffffffff811115614b8457614b84615d6d565b6040519080825280601f01601f191660200182016040528015614bae576020820181803683370190505b509050600360fc1b81600081518110614bc957614bc9615d83565b60200101906001600160f81b031916908160001a905350600f60fb1b81600181518110614bf857614bf8615d83565b60200101906001600160f81b031916908160001a9053506000614c1c846002615cef565b614c27906001615b13565b90505b6001811115614c9f576f181899199a1a9b1b9c1cb0b131b232b360811b85600f1660108110614c5b57614c5b615d83565b1a60f81b828281518110614c7157614c71615d83565b60200101906001600160f81b031916908160001a90535060049490941c93614c9881615d99565b9050614c2a565b5083156115035760405162461bcd60e51b815260206004820181905260248201527f537472696e67733a20686578206c656e67746820696e73756666696369656e746044820152606401610df1565b600080614cff633b9aca0084615cef565b905082614d10633b9aca0083615d0e565b146109e95760405162a748d160e21b815260040160405180910390fd5b6000821580614d3a575081155b15614d47575060006109e9565b81614d5e6002676765c793fa10079d601b1b615d0e565b614d6a90600019615db0565b614d749190615d0e565b831115614d935760405162a748d160e21b815260040160405180910390fd5b676765c793fa10079d601b1b614daa600282615d0e565b614db48486615cef565b6140fa9190615b13565b600080614dd06002633b9aca00615d0e565b90506000614dde8483615b13565b905081811015614e01576040516307af724160e11b815260040160405180910390fd5b614e0f633b9aca0082615d0e565b949350505050565b6001600160801b0380831660009081526010850160205260409020600481015490914291161015615046576000808080614e528888886147c6565b92965090945092509050614e6f6001600160801b03831687614b28565b600d89018054601090614e93908490600160801b90046001600160801b0316615a88565b82546101009290920a6001600160801b038181021990931691831602179091556002870154614ec4925016826140a2565b614ece9083615831565b600c89018054600090614eeb9084906001600160801b0316615831565b92506101000a8154816001600160801b0302191690836001600160801b0316021790555060008560050160109054906101000a90046001600160801b031684614f349190615a88565b6004870154909150600160801b90046001600160801b0316614fb4576005860180546001600160801b0319166001600160801b038981169182179092558a5460408051918252928b166020820152918201527f1ffcce3f36329128f865c47cacfc17ad27e65f7039d7aacd9d6350644c465a919060600160405180910390a15b6005860180546001600160801b03908116600160801b8783168102919091179092556001600160801b03198782168302164282161760048901558a54600d8c01547fda58df82953130c96b08dcda8a76478b2a4e0c16cddf3e59ac1ccf39d7b027639391928c926150279204168b6140a2565b846040516150389493929190615aec565b60405180910390a150505050505b50505050565b60006115036001600160801b038481169084166152b1565b6000821580615071575081155b1561507e575060006109e9565b816150926002670de0b6b3a7640000615d0e565b61509e90600019615db0565b6150a89190615d0e565b8311156150c75760405162a748d160e21b815260040160405180910390fd5b670de0b6b3a7640000614daa600282615d0e565b6000816150fb576040516308693c7b60e31b815260040160405180910390fd5b6000615108600284615d0e565b9050670de0b6b3a764000061511f82600019615db0565b6151299190615d0e565b8411156151485760405162a748d160e21b815260040160405180910390fd5b828161515c670de0b6b3a764000087615cef565b6151669190615b13565b614e0f9190615d0e565b6001600160801b0380821660009081526010840160205260408120600c85015491929091161561523c57600c84015460048201546002830154614e0f926001600160801b0390811692614921926151d29290811691600160801b9004166140a2565b6004880154600b890154612995916001600160801b03600160801b91829004811692614921926152059291041683615a88565b600489015461521d906001600160801b031642615a88565b60058d01546129959190600160801b90046001600160801b0316615dc7565b5092915050565b60006109e9826001600160801b0316614cee565b600054610100900460ff16614a0f5760405162461bcd60e51b8152600401610df190615d22565b600054610100900460ff166152a55760405162461bcd60e51b8152600401610df190615d22565b6097805460ff19169055565b6000816152d1576040516308693c7b60e31b815260040160405180910390fd5b60006152de600284615d0e565b9050676765c793fa10079d601b1b6152f882600019615db0565b6153029190615d0e565b8411156153215760405162a748d160e21b815260040160405180910390fd5b828161515c676765c793fa10079d601b1b87615cef565b60006020828403121561534a57600080fd5b81356001600160e01b03198116811461150357600080fd5b60006020828403121561537457600080fd5b5035919050565b6001600160a01b038116811461218057600080fd5b803561539b8161537b565b919050565b600080604083850312156153b357600080fd5b8235915060208301356153c58161537b565b809150509250929050565b6001600160801b038116811461218057600080fd5b803561539b816153d0565b6000806040838503121561540357600080fd5b823561540e816153d0565b946020939093013593505050565b6000806040838503121561542f57600080fd5b8235915060208301356153c5816153d0565b60008060006040848603121561545657600080fd5b833567ffffffffffffffff8082111561546e57600080fd5b818601915086601f83011261548257600080fd5b81358181111561549157600080fd5b8760208285010111156154a357600080fd5b602092830195509350508401356154b9816153d0565b809150509250925092565b600061020082840312156154d757600080fd5b50919050565b600080604083850312156154f057600080fd5b823561540e8161537b565b60008060006060848603121561551057600080fd5b833592506020840135615522816153d0565b915060408401356154b98161537b565b600080600080600060a0868803121561554a57600080fd5b8535615555816153d0565b945060208601359350604086013561556c816153d0565b9250606086013561557c816153d0565b9150608086013561558c816153d0565b809150509295509295909350565b600080600080608085870312156155b057600080fd5b8435935060208501356155c2816153d0565b925060408501356155d2816153d0565b915060608501356155e2816153d0565b939692955090935050565b8035801515811461539b57600080fd5b6000806040838503121561561057600080fd5b82359150615620602084016155ed565b90509250929050565b60006020828403121561563b57600080fd5b81356115038161537b565b60006020828403121561565857600080fd5b8135611503816153d0565b6000806040838503121561567657600080fd5b82356156818161537b565b915060208301356153c5816153d0565b600080600080600060a086880312156156a957600080fd5b8535945060208601356156bb816153d0565b935060408601356156cb816153d0565b925060608601356156db816153d0565b9150608086013561558c8161537b565b6001600160801b03948516815292841660208401529083166040830152909116606082015260800190565b600080600080600060a0868803121561572e57600080fd5b8535615739816153d0565b94506020860135935060408601356157508161537b565b9250606086013561557c8161537b565b60006020828403121561577257600080fd5b5051919050565b6001600160a01b0393841681526001600160801b03929092166020830152909116604082015260600190565b60208082526010908201526f14185d5cd8589b194e881c185d5cd95960821b604082015260600190565b6000602082840312156157e157600080fd5b8151611503816153d0565b600080604083850312156157ff57600080fd5b825161580a816153d0565b60208401519092506153c5816153d0565b634e487b7160e01b600052601160045260246000fd5b60006001600160801b038083168185168083038211156158535761585361581b565b01949350505050565b9283526001600160a01b039190911660208301526001600160801b0316604082015260600190565b60208152816020820152818360408301376000818301604090810191909152601f909201601f19160101919050565b6000602082840312156158c557600080fd5b815160ff8116811461150357600080fd5b6000602082840312156158e857600080fd5b611503826155ed565b81358152610200810161590660208401615390565b6001600160a01b0316602083015261592060408401615390565b6001600160a01b0316604083015261593a606084016153e5565b6001600160801b03166060830152615954608084016153e5565b6001600160801b0316608083015261596e60a084016153e5565b6001600160801b031660a083015261598860c084016153e5565b6001600160801b031660c08301526159a260e084016153e5565b6001600160801b031660e08301526101006159be8482016153e5565b6001600160801b0316908301526101206159d98482016153e5565b6001600160801b0316908301526101406159f48482016153e5565b6001600160801b031690830152610160615a0f8482016153e5565b6001600160801b031690830152610180615a2a8482016153e5565b6001600160801b0316908301526101a0615a458482016153e5565b6001600160801b0316908301526101c0615a608482016153e5565b6001600160801b0316908301526101e0615a7b8482016155ed565b1515920191909152919050565b60006001600160801b0383811690831681811015615aa857615aa861581b565b039392505050565b634e487b7160e01b600052601260045260246000fd5b60006001600160801b0380841680615ae057615ae0615ab0565b92169190910692915050565b9384526001600160801b039283166020850152908216604084015216606082015260800190565b60008219821115615b2657615b2661581b565b500190565b60005b83811015615b46578181015183820152602001615b2e565b838111156150465750506000910152565b7f416363657373436f6e74726f6c3a206163636f756e7420000000000000000000815260008351615b8f816017850160208801615b2b565b7001034b99036b4b9b9b4b733903937b6329607d1b6017918401918201528351615bc0816028840160208801615b2b565b01602801949350505050565b6020815260008251806020840152615beb816040850160208701615b2b565b601f01601f19169190910160400192915050565b600181815b80851115615c3a578160001904821115615c2057615c2061581b565b80851615615c2d57918102915b93841c9390800290615c04565b509250929050565b600082615c51575060016109e9565b81615c5e575060006109e9565b8160018114615c745760028114615c7e57615c9a565b60019150506109e9565b60ff841115615c8f57615c8f61581b565b50506001821b6109e9565b5060208310610133831016604e8410600b8410161715615cbd575081810a6109e9565b615cc78383615bff565b8060001904821115615cdb57615cdb61581b565b029392505050565b60006115038383615c42565b6000816000190483118215151615615d0957615d0961581b565b500290565b600082615d1d57615d1d615ab0565b500490565b6020808252602b908201527f496e697469616c697a61626c653a20636f6e7472616374206973206e6f74206960408201526a6e697469616c697a696e6760a81b606082015260800190565b634e487b7160e01b600052604160045260246000fd5b634e487b7160e01b600052603260045260246000fd5b600081615da857615da861581b565b506000190190565b600082821015615dc257615dc261581b565b500390565b60006001600160801b0380831681851681830481118215151615615ded57615ded61581b565b0294935050505056fe71840dc4906352362b0cdaf79870196c8e42acafade72d5d5a6d59291253ceb12344277e405079ec07749d374ba0b5862a4e45a6a05ac889dbb4a991c6f9354d27160668f6d81898b09bdae61c61d2c7d23fe33a52ae9b38e5b92f00ced3806ba26469706673582212201273acc0842e4614741a199a75df7faab67ec2faecfced751efd8945b6aa4ffc64736f6c63430008090033",
  "libraries": {
    "PoolLogic": "0x1c0f073176625F7B8fa90D17e22ef6033d80223d"
  },
  "devdoc": {
    "kind": "dev",
    "methods": {
      "allow(address,bytes32)": {
        "params": {
          "borrowerAddress": "The address to allow",
          "poolHash": "The identifier of the pool*"
        }
      },
      "borrow(address,uint128)": {
        "params": {
          "loanAmount": "The total amount of the loan*",
          "to": "The address to which the borrowed funds should be sent."
        }
      },
      "claimProtocolFees(bytes32,uint128,address)": {
        "params": {
          "amount": "The amount of tokens claimed",
          "poolHash": "The identifier of the pool",
          "to": "The address receiving the fees*"
        }
      },
      "closePool(bytes32,address)": {
        "params": {
          "poolHash": "The identifier of the pool*"
        }
      },
      "collectFees(bytes32)": {
        "params": {
          "poolHash": "The identifier of the pool*"
        }
      },
      "collectFeesForTick(bytes32,uint128)": {
        "params": {
          "poolHash": "The identifier of the pool*"
        }
      },
      "createNewPool((bytes32,address,address,uint128,uint128,uint128,uint128,uint128,uint128,uint128,uint128,uint128,uint128,uint128,uint128,bool))": {
        "params": {
          "params": "The parameters of the new pool*"
        }
      },
      "deposit(uint128,bytes32,address,address,uint128)": {
        "params": {
          "normalizedAmount": "The amount of the given asset to deposit",
          "poolHash": "The identifier of the pool",
          "rate": "The rate at which to bid for a bond",
          "sender": "The lender address who calls the deposit function on the Position",
          "underlyingToken": "Contract' address of the token to be deposited"
        },
        "returns": {
          "adjustedAmount": "Deposited amount adjusted with current liquidity index",
          "bondsIssuanceIndex": "The identifier of the borrow group to which the deposit has been allocated*"
        }
      },
      "disallow(address,bytes32)": {
        "params": {
          "borrowerAddress": "The address to disallow",
          "poolHash": "The identifier of the pool*"
        }
      },
      "estimateLoanRate(uint128,bytes32)": {
        "params": {
          "normalizedBorrowedAmount": "The amount to be borrowed from the pool",
          "poolHash": "The identifier of the pool"
        },
        "returns": {
          "estimatedRate": "The estimated loan rate for the current state of the pool*"
        }
      },
      "getAmountRepartition(bytes32,uint128,uint128,uint128)": {
        "params": {
          "adjustedAmount": "Adjusted amount of tokens currently on third party yield provider",
          "bondsIssuanceIndex": "The identifier of the borrow group",
          "poolHash": "The identifier of the pool",
          "rate": "Tick's rate"
        },
        "returns": {
          "bondsQuantity": "Quantity of bonds held",
          "normalizedDepositedAmount": "Amount of deposit currently on third party yield provider*"
        }
      },
      "getDefaultTimestamp(bytes32)": {
        "returns": {
          "defaultTimestamp": "The timestamp at which the pool was defaulted*"
        }
      },
      "getPoolAggregates(bytes32)": {
        "params": {
          "poolHash": "The identifier of the pool"
        },
        "returns": {
          "adjustedPendingDeposits": "Amount of tokens deposited after bond issuance and currently on third party yield provider*",
          "weightedAverageLendingRate": "The average deposit bidding rate in the order book"
        }
      },
      "getPoolFeeRates(bytes32)": {
        "returns": {
          "establishmentFeeRate": "Amount of fees paid to the protocol at borrow time",
          "repaymentFeeRate": "Amount of fees paid to the protocol at repay time*"
        }
      },
      "getPoolMaturity(bytes32)": {
        "params": {
          "poolHash": "The identifier of the pool"
        },
        "returns": {
          "poolCurrentMaturity": "The pool's current maturity*"
        }
      },
      "getPoolParameters(bytes32)": {
        "params": {
          "poolHash": "The identifier of the pool"
        },
        "returns": {
          "cooldownPeriod": "Period after a loan during which a borrower cannot take another loan",
          "lateRepayFeePerBondRate": "Penalty a borrower has to pay when it repays late",
          "liquidityRewardsActivationThreshold": "Minimum amount of liqudity rewards a borrower has to deposit to active the pool*",
          "liquidityRewardsDistributionRate": "Rate at which liquidity rewards are distributed to lenders",
          "loanDuration": "Duration of a loan in the pool",
          "maxBorrowableAmount": "Maximum amount of tokens that can be borrowed from the pool",
          "maxRate": "Maximum rate of deposits accepted in the pool",
          "minRate": "Minimum rate of deposits accepted in the pool",
          "rateSpacing": "Difference between two rates in the pool",
          "repaymentPeriod": "Period after a loan end during which a borrower can repay without penalty",
          "underlyingToken": "Address of the underlying token of the pool"
        }
      },
      "getPoolState(bytes32)": {
        "params": {
          "poolHash": "The identifier of the pool"
        },
        "returns": {
          "active": "Signals if a pool is active and ready to accept deposits",
          "bondsIssuedQuantity": "Amount of bonds issued, to be repaid at maturity",
          "closed": "Signals if a pool was closed",
          "currentBondsIssuanceIndex": "Current borrow period identifier of the pool*",
          "currentMaturity": "End timestamp of current loan",
          "defaulted": "Signals if a pool was defaulted",
          "lowerInterestRate": "Minimum rate at which a deposit was made",
          "nextLoanMinStart": "Cool down period, minimum timestamp after which a new loan can be taken",
          "normalizedAvailableDeposits": "Actual amount of tokens available to be borrowed",
          "normalizedBorrowedAmount": "Actual amount of tokens that were borrowed",
          "remainingAdjustedLiquidityRewardsReserve": "Remaining liquidity rewards to be distributed to lenders",
          "yieldProviderLiquidityRatio": "Last recorded yield provider liquidity ratio"
        }
      },
      "getRepayAmounts(bytes32,bool)": {
        "params": {
          "poolHash": "The identifier of the pool"
        },
        "returns": {
          "normalizedRepayAmount": "Total repay amount*"
        }
      },
      "getRoleAdmin(bytes32)": {
        "details": "Returns the admin role that controls `role`. See {grantRole} and {revokeRole}. To change a role's admin, use {_setRoleAdmin}."
      },
      "getTickAmounts(bytes32,uint128)": {
        "params": {
          "poolHash": "The identifier of the pool",
          "rate": "The tick rate from which to get data"
        },
        "returns": {
          "accruedFees": "The total fees claimable in the current tick, either from yield provider interests or liquidity rewards accrual*",
          "adjustedPendingAmount": "Amount of deposit in tick deposited with the underlying yield provider that were deposited after bond issuance",
          "adjustedRemainingAmount": "Amount of tokens in tick deposited with the underlying yield provider that were deposited before bond issuance",
          "adjustedTotalAmount": "Total amount of deposit in the tick, excluding the pending amounts",
          "atlendisLiquidityRatio": "The liquidity ratio of the given tick",
          "bondsQuantity": "The quantity of bonds within the tick"
        }
      },
      "getTickLastUpdate(string,uint128)": {
        "params": {
          "pool": "The identifier of the pool pool",
          "rate": "The tick rate from which to get data"
        },
        "returns": {
          "lastFeeDistributionTimestamp": "Timestamp of the last fee's distribution to the tick*"
        }
      },
      "getTickLiquidityRatio(bytes32,uint128)": {
        "params": {
          "poolHash": "The identifier of the pool",
          "rate": "The tick rate from which to extract the liquidity ratio"
        },
        "returns": {
          "liquidityRatio": "The liquidity ratio of the given tick*"
        }
      },
      "getWithdrawAmounts(bytes32,uint128,uint128,uint128)": {
        "details": "This method is meant to be used exclusively with the withdraw() method Under certain circumstances, this method can return incorrect values, that would otherwise be rejected by the checks made in the withdraw() method",
        "params": {
          "adjustedAmount": "The amount of tokens in the position, adjusted to the deposit liquidity ratio",
          "bondsIssuanceIndex": "An index determining deposit timing",
          "poolHash": "The identifier of the pool",
          "rate": "The rate the position is bidding for"
        },
        "returns": {
          "adjustedAmountToWithdraw": "The amount of tokens to withdraw, adjuste for borrow pool use",
          "bondsMaturity": "The maturity of bonds remaining within the position after withdraw*",
          "depositedAmountToWithdraw": "The amount of tokens to withdraw, adjuste for position use",
          "remainingBondsQuantity": "The quantity of bonds remaining within the position"
        }
      },
      "grantRole(bytes32,address)": {
        "details": "Grants `role` to `account`. If `account` had not been already granted `role`, emits a {RoleGranted} event. Requirements: - the caller must have ``role``'s admin role."
      },
      "hasRole(bytes32,address)": {
        "details": "Returns `true` if `account` has been granted `role`."
      },
      "isEarlyRepay(bytes32)": {
        "returns": {
          "earlyRepay": "Flag that signifies whether the early repay feature is activated or not*"
        }
      },
      "paused()": {
        "details": "Returns true if the contract is paused, and false otherwise."
      },
      "renounceRole(bytes32,address)": {
        "details": "Revokes `role` from the calling account. Roles are often managed via {grantRole} and {revokeRole}: this function's purpose is to provide a mechanism for accounts to lose their privileges if they are compromised (such as when a trusted device is misplaced). If the calling account had been revoked `role`, emits a {RoleRevoked} event. Requirements: - the caller must be `account`."
      },
      "revokeRole(bytes32,address)": {
        "details": "Revokes `role` from `account`. If `account` had been granted `role`, emits a {RoleRevoked} event. Requirements: - the caller must have ``role``'s admin role."
      },
      "setDefault(bytes32)": {
        "params": {
          "poolHash": "The identifier of the pool to default*"
        }
      },
      "supportsInterface(bytes4)": {
        "details": "See {IERC165-supportsInterface}."
      },
      "topUpLiquidityRewards(uint128)": {
        "params": {
          "amount": "Amount of tokens that will be add up to the pool's liquidity rewards reserve*"
        }
      },
      "updateRate(uint128,bytes32,uint128,uint128,uint128)": {
        "params": {
          "adjustedAmount": "The adjusted balance of tokens of the given position",
          "newRate": "The new rate of the position",
          "oldBondsIssuanceIndex": "The identifier of the borrow group from the given position",
          "oldRate": "The current rate of the position",
          "poolHash": "The identifier of the pool"
        },
        "returns": {
          "newAdjustedAmount": "The updated amount of tokens of the position adjusted by the new tick's global liquidity ratio",
          "newBondsIssuanceIndex": "The new borrow group id to which the updated position is linked*"
        }
      },
      "withdraw(bytes32,uint128,uint128,uint128,address)": {
        "params": {
          "adjustedAmountToWithdraw": "The actual amount of tokens to withdraw from the position",
          "bondsIssuanceIndex": "An index determining deposit timing",
          "owner": "The address to which the withdrawns funds are sent",
          "poolHash": "The identifier of the pool",
          "rate": "The rate the position is bidding for"
        },
        "returns": {
          "normalizedDepositedAmountToWithdraw": "Actual amount of tokens withdrawn and sent to the lender*"
        }
      }
    },
    "version": 1
  },
  "userdoc": {
    "events": {
      "Borrow(bytes32,uint128,uint128)": {
        "notice": "Emitted after a successful borrow"
      },
      "BorrowerAllowed(address,bytes32)": {
        "notice": "Emitted after a borrower address was allowed to borrow from a pool"
      },
      "BorrowerDisallowed(address,bytes32)": {
        "notice": "Emitted after a borrower address was disallowed to borrow from a pool"
      },
      "ClaimProtocolFees(bytes32,uint128,address)": {
        "notice": "Emitted after governance claims the fees associated with a pool"
      },
      "CollectFeesForTick(bytes32,uint128,uint128,uint128)": {
        "notice": "Emitted when liquidity rewards are distributed to a tick"
      },
      "Default(bytes32,uint128)": {
        "notice": "Emitted when a pool defaults on its loan repayment"
      },
      "EarlyRepay(bytes32,uint128,uint128,uint128,uint128)": {
        "notice": "Emitted after a successful early repay"
      },
      "FurtherBorrow(bytes32,uint128,uint128)": {
        "notice": "Emitted after a successful further borrow"
      },
      "LateRepay(bytes32,uint128,uint128,uint128,uint128,uint128)": {
        "notice": "Emitted after a successful repay, made after the repayment period Includes a late repay fee"
      },
      "PoolActivated(bytes32)": {
        "notice": "Emitted when a pool is active, i.e. after the borrower deposits enough tokens in its pool liquidity rewards reserve as agreed before the pool creation"
      },
      "PoolClosed(bytes32,uint128)": {
        "notice": "Emitted after pool is closed"
      },
      "PoolCreated((bytes32,address,address,uint128,uint128,uint128,uint128,uint128,uint128,uint128,uint128,uint128,uint128,uint128,uint128,bool))": {
        "notice": "Emitted after a pool was creted*"
      },
      "Repay(bytes32,uint128,uint128,uint128,uint128)": {
        "notice": "Emitted after a successful repay"
      },
      "SetEstablishmentFeeRate(uint128,bytes32)": {
        "notice": "Emitted after governance sets the establishment fee for a pool*"
      },
      "SetLiquidityRewardsDistributionRate(uint128,bytes32)": {
        "notice": "Emitted after governance sets the liquidity rewards distribution rate for a pool*"
      },
      "SetMaxBorrowableAmount(uint128,bytes32)": {
        "notice": "Emitted after governance sets the maximum borrowable amount for a pool*"
      },
      "SetRepaymentFeeRate(uint128,bytes32)": {
        "notice": "Emitted after governance sets the repayment fee for a pool*"
      },
      "TickBorrow(bytes32,uint128,uint128,uint128,uint128,uint128)": {
        "notice": "Emitted when a borrow successfully impacts a tick"
      },
      "TickInitialized(bytes32,uint128,uint128)": {
        "notice": "Emitted when a tick is initialized, i.e. when its first deposited in"
      },
      "TickLoanDeposit(bytes32,uint128,uint128)": {
        "notice": "Emitted after a deposit on a tick that was done during a loan"
      },
      "TickNoLoanDeposit(bytes32,uint128,uint128,uint128)": {
        "notice": "Emitted after a deposit on a tick that was done without an active loan"
      },
      "TickPendingDeposit(bytes32,uint128,uint128,bool)": {
        "notice": "Emitted when pending amounts are merged with the rest of the pool during a repay"
      },
      "TickRepay(bytes32,uint128,uint128,uint128)": {
        "notice": "Emitted when funds from a tick are repaid by the borrower"
      },
      "TickWithdrawPending(bytes32,uint128,uint128)": {
        "notice": "Emitted when a withdraw is done outside of a loan on the tick"
      },
      "TickWithdrawRemaining(bytes32,uint128,uint128,uint128,uint128)": {
        "notice": "Emitted when a withdraw is done during a loan on the tick"
      },
      "TopUpLiquidityRewards(bytes32,uint128)": {
        "notice": "Emitted after a borrower successfully deposits tokens in its pool liquidity rewards reserve"
      }
    },
    "kind": "user",
    "methods": {
      "allow(address,bytes32)": {
        "notice": "Allow an address to interact with a borrower pool"
      },
      "borrow(address,uint128)": {
        "notice": "Called by the borrower to sell bonds to the order book. The affected ticks get updated according the amount of bonds sold."
      },
      "claimProtocolFees(bytes32,uint128,address)": {
        "notice": "Withdraws protocol fees to a target address"
      },
      "closePool(bytes32,address)": {
        "notice": "Flags the pool as closed"
      },
      "collectFees(bytes32)": {
        "notice": "Collect yield provider fees as well as liquidity rewards for the whole pool Iterates over all pool initialized ticks"
      },
      "collectFeesForTick(bytes32,uint128)": {
        "notice": "Collect yield provider fees as well as liquidity rewards for the target tick"
      },
      "createNewPool((bytes32,address,address,uint128,uint128,uint128,uint128,uint128,uint128,uint128,uint128,uint128,uint128,uint128,uint128,bool))": {
        "notice": "Creates a new pool"
      },
      "deposit(uint128,bytes32,address,address,uint128)": {
        "notice": "Gets called within the Position.deposit() function and enables a lender to deposit assets into a given pool's order book. The lender specifies a rate (price) at which it is willing to lend out its assets (bid on the zero coupon bond). The full amount will initially be deposited on the underlying yield provider until the borrower sells bonds at the specified rate."
      },
      "disallow(address,bytes32)": {
        "notice": "Remove borrower pool interaction rights from an address"
      },
      "estimateLoanRate(uint128,bytes32)": {
        "notice": "Estimates the lending rate corresponding to the input amount, depending on the current state of the pool"
      },
      "freezePool()": {
        "notice": "Stops all actions on all pools*"
      },
      "getAmountRepartition(bytes32,uint128,uint128,uint128)": {
        "notice": "Returns the token amount's repartition between bond quantity and normalized deposited amount currently placed on third party yield provider"
      },
      "getDefaultTimestamp(bytes32)": {
        "notice": "Returns the state of a pool"
      },
      "getPoolAggregates(bytes32)": {
        "notice": "Returns the current state of the pool's parameters"
      },
      "getPoolFeeRates(bytes32)": {
        "notice": "Returns the fee rates of a pool"
      },
      "getPoolMaturity(bytes32)": {
        "notice": "Returns the current maturity of the pool"
      },
      "getPoolParameters(bytes32)": {
        "notice": "Returns the parameters of a pool"
      },
      "getPoolState(bytes32)": {
        "notice": "Returns the state of a pool"
      },
      "getRepayAmounts(bytes32,bool)": {
        "notice": "Returns the total amount a borrower has to repay to a pool. Includes borrowed amount, late repay fees and protocol fees"
      },
      "getTickAmounts(bytes32,uint128)": {
        "notice": "Returns the repartition between bonds and deposits of the given tick."
      },
      "getTickLastUpdate(string,uint128)": {
        "notice": "Returns the timestamp of the last fee distribution to the tick"
      },
      "getTickLiquidityRatio(bytes32,uint128)": {
        "notice": "Returns the liquidity ratio of a given tick in a pool's order book. The liquidity ratio is an accounting construct to deduce the accrued interest over time."
      },
      "getWithdrawAmounts(bytes32,uint128,uint128,uint128)": {
        "notice": "Gets called within the Position.withdraw() function and enables a lender to evaluate the exact amount of tokens it is allowed to withdraw"
      },
      "isEarlyRepay(bytes32)": {
        "notice": "Returns the state of a pool"
      },
      "repay()": {
        "notice": "Repays a currently outstanding bonds of the given pool.*"
      },
      "setDefault(bytes32)": {
        "notice": "Flags the pool as defaulted"
      },
      "setEstablishmentFeeRate(uint128,bytes32)": {
        "notice": "Set the pool establishment protocol fee rate*"
      },
      "setLiquidityRewardsDistributionRate(uint128,bytes32)": {
        "notice": "Set the pool liquidity rewards distribution rate*"
      },
      "setMaxBorrowableAmount(uint128,bytes32)": {
        "notice": "Set the maximum amount of tokens that can be borrowed in the target pool*"
      },
      "setRepaymentFeeRate(uint128,bytes32)": {
        "notice": "Set the pool repayment protocol fee rate*"
      },
      "topUpLiquidityRewards(uint128)": {
        "notice": "Called by the borrower to top up liquidity rewards' reserve that is distributed to liquidity providers at the pre-defined distribution rate."
      },
      "unfreezePool()": {
        "notice": "Cancel a freeze, makes actions available again on all pools*"
      },
      "updateRate(uint128,bytes32,uint128,uint128,uint128)": {
        "notice": "Gets called within Position.updateRate() and updates the order book ticks affected by the position updating its rate. This is only possible as long as there are no bonds in the position, i.e the full position currently lies with the yield provider"
      },
      "withdraw(bytes32,uint128,uint128,uint128,address)": {
        "notice": "Gets called within the Position.withdraw() function and enables a lender to withdraw assets that are deposited with the underlying yield provider"
      }
    },
    "version": 1
  },
  "storageLayout": {
    "storage": [
      {
        "astId": 408,
        "contract": "src/BorrowerPools.sol:BorrowerPools",
        "label": "_initialized",
        "offset": 0,
        "slot": "0",
        "type": "t_bool"
      },
      {
        "astId": 411,
        "contract": "src/BorrowerPools.sol:BorrowerPools",
        "label": "_initializing",
        "offset": 1,
        "slot": "0",
        "type": "t_bool"
      },
      {
        "astId": 2862,
        "contract": "src/BorrowerPools.sol:BorrowerPools",
        "label": "__gap",
        "offset": 0,
        "slot": "1",
        "type": "t_array(t_uint256)50_storage"
      },
      {
        "astId": 3109,
        "contract": "src/BorrowerPools.sol:BorrowerPools",
        "label": "__gap",
        "offset": 0,
        "slot": "51",
        "type": "t_array(t_uint256)50_storage"
      },
      {
        "astId": 39,
        "contract": "src/BorrowerPools.sol:BorrowerPools",
        "label": "_roles",
        "offset": 0,
        "slot": "101",
        "type": "t_mapping(t_bytes32,t_struct(RoleData)34_storage)"
      },
      {
        "astId": 327,
        "contract": "src/BorrowerPools.sol:BorrowerPools",
        "label": "__gap",
        "offset": 0,
        "slot": "102",
        "type": "t_array(t_uint256)49_storage"
      },
      {
        "astId": 496,
        "contract": "src/BorrowerPools.sol:BorrowerPools",
        "label": "_paused",
        "offset": 0,
        "slot": "151",
        "type": "t_bool"
      },
      {
        "astId": 585,
        "contract": "src/BorrowerPools.sol:BorrowerPools",
        "label": "__gap",
        "offset": 0,
        "slot": "152",
        "type": "t_array(t_uint256)49_storage"
      },
      {
        "astId": 5111,
        "contract": "src/BorrowerPools.sol:BorrowerPools",
        "label": "borrowerAuthorizedPools",
        "offset": 0,
        "slot": "201",
        "type": "t_mapping(t_address,t_bytes32)"
      },
      {
        "astId": 5116,
        "contract": "src/BorrowerPools.sol:BorrowerPools",
        "label": "pools",
        "offset": 0,
        "slot": "202",
        "type": "t_mapping(t_bytes32,t_struct(Pool)10707_storage)"
      },
      {
        "astId": 5120,
        "contract": "src/BorrowerPools.sol:BorrowerPools",
        "label": "protocolFees",
        "offset": 0,
        "slot": "203",
        "type": "t_mapping(t_bytes32,t_uint128)"
      }
    ],
    "types": {
      "t_address": {
        "encoding": "inplace",
        "label": "address",
        "numberOfBytes": "20"
      },
      "t_array(t_uint256)49_storage": {
        "base": "t_uint256",
        "encoding": "inplace",
        "label": "uint256[49]",
        "numberOfBytes": "1568"
      },
      "t_array(t_uint256)50_storage": {
        "base": "t_uint256",
        "encoding": "inplace",
        "label": "uint256[50]",
        "numberOfBytes": "1600"
      },
      "t_bool": {
        "encoding": "inplace",
        "label": "bool",
        "numberOfBytes": "1"
      },
      "t_bytes32": {
        "encoding": "inplace",
        "label": "bytes32",
        "numberOfBytes": "32"
      },
      "t_contract(ILendingPool)7496": {
        "encoding": "inplace",
        "label": "contract ILendingPool",
        "numberOfBytes": "20"
      },
      "t_mapping(t_address,t_bool)": {
        "encoding": "mapping",
        "key": "t_address",
        "label": "mapping(address => bool)",
        "numberOfBytes": "32",
        "value": "t_bool"
      },
      "t_mapping(t_address,t_bytes32)": {
        "encoding": "mapping",
        "key": "t_address",
        "label": "mapping(address => bytes32)",
        "numberOfBytes": "32",
        "value": "t_bytes32"
      },
      "t_mapping(t_bytes32,t_struct(Pool)10707_storage)": {
        "encoding": "mapping",
        "key": "t_bytes32",
        "label": "mapping(bytes32 => struct Types.Pool)",
        "numberOfBytes": "32",
        "value": "t_struct(Pool)10707_storage"
      },
      "t_mapping(t_bytes32,t_struct(RoleData)34_storage)": {
        "encoding": "mapping",
        "key": "t_bytes32",
        "label": "mapping(bytes32 => struct AccessControlUpgradeable.RoleData)",
        "numberOfBytes": "32",
        "value": "t_struct(RoleData)34_storage"
      },
      "t_mapping(t_bytes32,t_uint128)": {
        "encoding": "mapping",
        "key": "t_bytes32",
        "label": "mapping(bytes32 => uint128)",
        "numberOfBytes": "32",
        "value": "t_uint128"
      },
      "t_mapping(t_uint128,t_uint128)": {
        "encoding": "mapping",
        "key": "t_uint128",
        "label": "mapping(uint128 => uint128)",
        "numberOfBytes": "32",
        "value": "t_uint128"
      },
      "t_mapping(t_uint256,t_struct(Tick)10632_storage)": {
        "encoding": "mapping",
        "key": "t_uint256",
        "label": "mapping(uint256 => struct Types.Tick)",
        "numberOfBytes": "32",
        "value": "t_struct(Tick)10632_storage"
      },
      "t_struct(Pool)10707_storage": {
        "encoding": "inplace",
        "label": "struct Types.Pool",
        "members": [
          {
            "astId": 10698,
            "contract": "src/BorrowerPools.sol:BorrowerPools",
            "label": "parameters",
            "offset": 0,
            "slot": "0",
            "type": "t_struct(PoolParameters)10668_storage"
          },
          {
            "astId": 10701,
            "contract": "src/BorrowerPools.sol:BorrowerPools",
            "label": "state",
            "offset": 0,
            "slot": "10",
            "type": "t_struct(PoolState)10695_storage"
          },
          {
            "astId": 10706,
            "contract": "src/BorrowerPools.sol:BorrowerPools",
            "label": "ticks",
            "offset": 0,
            "slot": "16",
            "type": "t_mapping(t_uint256,t_struct(Tick)10632_storage)"
          }
        ],
        "numberOfBytes": "544"
      },
      "t_struct(PoolParameters)10668_storage": {
        "encoding": "inplace",
        "label": "struct Types.PoolParameters",
        "members": [
          {
            "astId": 10634,
            "contract": "src/BorrowerPools.sol:BorrowerPools",
            "label": "POOL_HASH",
            "offset": 0,
            "slot": "0",
            "type": "t_bytes32"
          },
          {
            "astId": 10636,
            "contract": "src/BorrowerPools.sol:BorrowerPools",
            "label": "UNDERLYING_TOKEN",
            "offset": 0,
            "slot": "1",
            "type": "t_address"
          },
          {
            "astId": 10638,
            "contract": "src/BorrowerPools.sol:BorrowerPools",
            "label": "TOKEN_DECIMALS",
            "offset": 20,
            "slot": "1",
            "type": "t_uint8"
          },
          {
            "astId": 10641,
            "contract": "src/BorrowerPools.sol:BorrowerPools",
            "label": "YIELD_PROVIDER",
            "offset": 0,
            "slot": "2",
            "type": "t_contract(ILendingPool)7496"
          },
          {
            "astId": 10643,
            "contract": "src/BorrowerPools.sol:BorrowerPools",
            "label": "MIN_RATE",
            "offset": 0,
            "slot": "3",
            "type": "t_uint128"
          },
          {
            "astId": 10645,
            "contract": "src/BorrowerPools.sol:BorrowerPools",
            "label": "MAX_RATE",
            "offset": 16,
            "slot": "3",
            "type": "t_uint128"
          },
          {
            "astId": 10647,
            "contract": "src/BorrowerPools.sol:BorrowerPools",
            "label": "RATE_SPACING",
            "offset": 0,
            "slot": "4",
            "type": "t_uint128"
          },
          {
            "astId": 10649,
            "contract": "src/BorrowerPools.sol:BorrowerPools",
            "label": "MAX_BORROWABLE_AMOUNT",
            "offset": 16,
            "slot": "4",
            "type": "t_uint128"
          },
          {
            "astId": 10651,
            "contract": "src/BorrowerPools.sol:BorrowerPools",
            "label": "LOAN_DURATION",
            "offset": 0,
            "slot": "5",
            "type": "t_uint128"
          },
          {
            "astId": 10653,
            "contract": "src/BorrowerPools.sol:BorrowerPools",
            "label": "LIQUIDITY_REWARDS_DISTRIBUTION_RATE",
            "offset": 16,
            "slot": "5",
            "type": "t_uint128"
          },
          {
            "astId": 10655,
            "contract": "src/BorrowerPools.sol:BorrowerPools",
            "label": "COOLDOWN_PERIOD",
            "offset": 0,
            "slot": "6",
            "type": "t_uint128"
          },
          {
            "astId": 10657,
            "contract": "src/BorrowerPools.sol:BorrowerPools",
            "label": "REPAYMENT_PERIOD",
            "offset": 16,
            "slot": "6",
            "type": "t_uint128"
          },
          {
            "astId": 10659,
            "contract": "src/BorrowerPools.sol:BorrowerPools",
            "label": "LATE_REPAY_FEE_PER_BOND_RATE",
            "offset": 0,
            "slot": "7",
            "type": "t_uint128"
          },
          {
            "astId": 10661,
            "contract": "src/BorrowerPools.sol:BorrowerPools",
            "label": "ESTABLISHMENT_FEE_RATE",
            "offset": 16,
            "slot": "7",
            "type": "t_uint128"
          },
          {
            "astId": 10663,
            "contract": "src/BorrowerPools.sol:BorrowerPools",
            "label": "REPAYMENT_FEE_RATE",
            "offset": 0,
            "slot": "8",
            "type": "t_uint128"
          },
          {
            "astId": 10665,
            "contract": "src/BorrowerPools.sol:BorrowerPools",
            "label": "LIQUIDITY_REWARDS_ACTIVATION_THRESHOLD",
            "offset": 16,
            "slot": "8",
            "type": "t_uint128"
          },
          {
            "astId": 10667,
            "contract": "src/BorrowerPools.sol:BorrowerPools",
            "label": "EARLY_REPAY",
            "offset": 0,
            "slot": "9",
            "type": "t_bool"
          }
        ],
        "numberOfBytes": "320"
      },
      "t_struct(PoolState)10695_storage": {
        "encoding": "inplace",
        "label": "struct Types.PoolState",
        "members": [
          {
            "astId": 10670,
            "contract": "src/BorrowerPools.sol:BorrowerPools",
            "label": "active",
            "offset": 0,
            "slot": "0",
            "type": "t_bool"
          },
          {
            "astId": 10672,
            "contract": "src/BorrowerPools.sol:BorrowerPools",
            "label": "defaulted",
            "offset": 1,
            "slot": "0",
            "type": "t_bool"
          },
          {
            "astId": 10674,
            "contract": "src/BorrowerPools.sol:BorrowerPools",
            "label": "closed",
            "offset": 2,
            "slot": "0",
            "type": "t_bool"
          },
          {
            "astId": 10676,
            "contract": "src/BorrowerPools.sol:BorrowerPools",
            "label": "currentMaturity",
            "offset": 3,
            "slot": "0",
            "type": "t_uint128"
          },
          {
            "astId": 10678,
            "contract": "src/BorrowerPools.sol:BorrowerPools",
            "label": "bondsIssuedQuantity",
            "offset": 0,
            "slot": "1",
            "type": "t_uint128"
          },
          {
            "astId": 10680,
            "contract": "src/BorrowerPools.sol:BorrowerPools",
            "label": "normalizedBorrowedAmount",
            "offset": 16,
            "slot": "1",
            "type": "t_uint128"
          },
          {
            "astId": 10682,
            "contract": "src/BorrowerPools.sol:BorrowerPools",
            "label": "normalizedAvailableDeposits",
            "offset": 0,
            "slot": "2",
            "type": "t_uint128"
          },
          {
            "astId": 10684,
            "contract": "src/BorrowerPools.sol:BorrowerPools",
            "label": "lowerInterestRate",
            "offset": 16,
            "slot": "2",
            "type": "t_uint128"
          },
          {
            "astId": 10686,
            "contract": "src/BorrowerPools.sol:BorrowerPools",
            "label": "nextLoanMinStart",
            "offset": 0,
            "slot": "3",
            "type": "t_uint128"
          },
          {
            "astId": 10688,
            "contract": "src/BorrowerPools.sol:BorrowerPools",
            "label": "remainingAdjustedLiquidityRewardsReserve",
            "offset": 16,
            "slot": "3",
            "type": "t_uint128"
          },
          {
            "astId": 10690,
            "contract": "src/BorrowerPools.sol:BorrowerPools",
            "label": "yieldProviderLiquidityRatio",
            "offset": 0,
            "slot": "4",
            "type": "t_uint128"
          },
          {
            "astId": 10692,
            "contract": "src/BorrowerPools.sol:BorrowerPools",
            "label": "currentBondsIssuanceIndex",
            "offset": 16,
            "slot": "4",
            "type": "t_uint128"
          },
          {
            "astId": 10694,
            "contract": "src/BorrowerPools.sol:BorrowerPools",
            "label": "defaultTimestamp",
            "offset": 0,
            "slot": "5",
            "type": "t_uint128"
          }
        ],
        "numberOfBytes": "192"
      },
      "t_struct(RoleData)34_storage": {
        "encoding": "inplace",
        "label": "struct AccessControlUpgradeable.RoleData",
        "members": [
          {
            "astId": 31,
            "contract": "src/BorrowerPools.sol:BorrowerPools",
            "label": "members",
            "offset": 0,
            "slot": "0",
            "type": "t_mapping(t_address,t_bool)"
          },
          {
            "astId": 33,
            "contract": "src/BorrowerPools.sol:BorrowerPools",
            "label": "adminRole",
            "offset": 0,
            "slot": "1",
            "type": "t_bytes32"
          }
        ],
        "numberOfBytes": "64"
      },
      "t_struct(Tick)10632_storage": {
        "encoding": "inplace",
        "label": "struct Types.Tick",
        "members": [
          {
            "astId": 10611,
            "contract": "src/BorrowerPools.sol:BorrowerPools",
            "label": "bondsIssuanceIndexMultiplier",
            "offset": 0,
            "slot": "0",
            "type": "t_mapping(t_uint128,t_uint128)"
          },
          {
            "astId": 10613,
            "contract": "src/BorrowerPools.sol:BorrowerPools",
            "label": "bondsQuantity",
            "offset": 0,
            "slot": "1",
            "type": "t_uint128"
          },
          {
            "astId": 10615,
            "contract": "src/BorrowerPools.sol:BorrowerPools",
            "label": "adjustedTotalAmount",
            "offset": 16,
            "slot": "1",
            "type": "t_uint128"
          },
          {
            "astId": 10617,
            "contract": "src/BorrowerPools.sol:BorrowerPools",
            "label": "adjustedRemainingAmount",
            "offset": 0,
            "slot": "2",
            "type": "t_uint128"
          },
          {
            "astId": 10619,
            "contract": "src/BorrowerPools.sol:BorrowerPools",
            "label": "adjustedWithdrawnAmount",
            "offset": 16,
            "slot": "2",
            "type": "t_uint128"
          },
          {
            "astId": 10621,
            "contract": "src/BorrowerPools.sol:BorrowerPools",
            "label": "adjustedPendingAmount",
            "offset": 0,
            "slot": "3",
            "type": "t_uint128"
          },
          {
            "astId": 10623,
            "contract": "src/BorrowerPools.sol:BorrowerPools",
            "label": "normalizedLoanedAmount",
            "offset": 16,
            "slot": "3",
            "type": "t_uint128"
          },
          {
            "astId": 10625,
            "contract": "src/BorrowerPools.sol:BorrowerPools",
            "label": "lastFeeDistributionTimestamp",
            "offset": 0,
            "slot": "4",
            "type": "t_uint128"
          },
          {
            "astId": 10627,
            "contract": "src/BorrowerPools.sol:BorrowerPools",
            "label": "atlendisLiquidityRatio",
            "offset": 16,
            "slot": "4",
            "type": "t_uint128"
          },
          {
            "astId": 10629,
            "contract": "src/BorrowerPools.sol:BorrowerPools",
            "label": "yieldProviderLiquidityRatio",
            "offset": 0,
            "slot": "5",
            "type": "t_uint128"
          },
          {
            "astId": 10631,
            "contract": "src/BorrowerPools.sol:BorrowerPools",
            "label": "accruedFees",
            "offset": 16,
            "slot": "5",
            "type": "t_uint128"
          }
        ],
        "numberOfBytes": "192"
      },
      "t_uint128": {
        "encoding": "inplace",
        "label": "uint128",
        "numberOfBytes": "16"
      },
      "t_uint256": {
        "encoding": "inplace",
        "label": "uint256",
        "numberOfBytes": "32"
      },
      "t_uint8": {
        "encoding": "inplace",
        "label": "uint8",
        "numberOfBytes": "1"
      }
    }
  }
}