{
  "address": "0x1c0f073176625F7B8fa90D17e22ef6033d80223d",
  "abi": [
    {
      "inputs": [],
      "name": "MATH_ADDITION_OVERFLOW",
      "type": "error"
    },
    {
      "inputs": [],
      "name": "MATH_DIVISION_BY_ZERO",
      "type": "error"
    },
    {
      "inputs": [],
      "name": "MATH_MULTIPLICATION_OVERFLOW",
      "type": "error"
    },
    {
      "anonymous": false,
      "inputs": [
        {
          "indexed": false,
          "internalType": "bytes32",
          "name": "borrower",
          "type": "bytes32"
        },
        {
          "indexed": false,
          "internalType": "uint128",
          "name": "rate",
          "type": "uint128"
        },
        {
          "indexed": false,
          "internalType": "uint128",
          "name": "remainingLiquidityRewards",
          "type": "uint128"
        },
        {
          "indexed": false,
          "internalType": "uint128",
          "name": "addedAccruedFees",
          "type": "uint128"
        }
      ],
      "name": "CollectFeesForTick",
      "type": "event"
    },
    {
      "anonymous": false,
      "inputs": [
        {
          "indexed": false,
          "internalType": "bytes32",
          "name": "poolHash",
          "type": "bytes32"
        }
      ],
      "name": "PoolActivated",
      "type": "event"
    },
    {
      "anonymous": false,
      "inputs": [
        {
          "indexed": false,
          "internalType": "bytes32",
          "name": "borrower",
          "type": "bytes32"
        },
        {
          "indexed": false,
          "internalType": "uint128",
          "name": "rate",
          "type": "uint128"
        },
        {
          "indexed": false,
          "internalType": "uint128",
          "name": "adjustedRemainingAmountReduction",
          "type": "uint128"
        },
        {
          "indexed": false,
          "internalType": "uint128",
          "name": "loanedAmount",
          "type": "uint128"
        },
        {
          "indexed": false,
          "internalType": "uint128",
          "name": "atlendisLiquidityRatio",
          "type": "uint128"
        },
        {
          "indexed": false,
          "internalType": "uint128",
          "name": "unborrowedRatio",
          "type": "uint128"
        }
      ],
      "name": "TickBorrow",
      "type": "event"
    },
    {
      "anonymous": false,
      "inputs": [
        {
          "indexed": false,
          "internalType": "bytes32",
          "name": "borrower",
          "type": "bytes32"
        },
        {
          "indexed": false,
          "internalType": "uint128",
          "name": "rate",
          "type": "uint128"
        },
        {
          "indexed": false,
          "internalType": "uint128",
          "name": "atlendisLiquidityRatio",
          "type": "uint128"
        }
      ],
      "name": "TickInitialized",
      "type": "event"
    },
    {
      "anonymous": false,
      "inputs": [
        {
          "indexed": false,
          "internalType": "bytes32",
          "name": "borrower",
          "type": "bytes32"
        },
        {
          "indexed": false,
          "internalType": "uint128",
          "name": "rate",
          "type": "uint128"
        },
        {
          "indexed": false,
          "internalType": "uint128",
          "name": "adjustedPendingDeposit",
          "type": "uint128"
        }
      ],
      "name": "TickLoanDeposit",
      "type": "event"
    },
    {
      "anonymous": false,
      "inputs": [
        {
          "indexed": false,
          "internalType": "bytes32",
          "name": "borrower",
          "type": "bytes32"
        },
        {
          "indexed": false,
          "internalType": "uint128",
          "name": "rate",
          "type": "uint128"
        },
        {
          "indexed": false,
          "internalType": "uint128",
          "name": "adjustedPendingDeposit",
          "type": "uint128"
        },
        {
          "indexed": false,
          "internalType": "uint128",
          "name": "atlendisLiquidityRatio",
          "type": "uint128"
        }
      ],
      "name": "TickNoLoanDeposit",
      "type": "event"
    },
    {
      "anonymous": false,
      "inputs": [
        {
          "indexed": false,
          "internalType": "bytes32",
          "name": "borrower",
          "type": "bytes32"
        },
        {
          "indexed": false,
          "internalType": "uint128",
          "name": "rate",
          "type": "uint128"
        },
        {
          "indexed": false,
          "internalType": "uint128",
          "name": "adjustedPendingAmount",
          "type": "uint128"
        },
        {
          "indexed": false,
          "internalType": "bool",
          "name": "poolBondIssuanceIndexIncremented",
          "type": "bool"
        }
      ],
      "name": "TickPendingDeposit",
      "type": "event"
    },
    {
      "anonymous": false,
      "inputs": [
        {
          "indexed": false,
          "internalType": "bytes32",
          "name": "borrower",
          "type": "bytes32"
        },
        {
          "indexed": false,
          "internalType": "uint128",
          "name": "rate",
          "type": "uint128"
        },
        {
          "indexed": false,
          "internalType": "uint128",
          "name": "newAdjustedRemainingAmount",
          "type": "uint128"
        },
        {
          "indexed": false,
          "internalType": "uint128",
          "name": "atlendisLiquidityRatio",
          "type": "uint128"
        }
      ],
      "name": "TickRepay",
      "type": "event"
    },
    {
      "anonymous": false,
      "inputs": [
        {
          "indexed": false,
          "internalType": "bytes32",
          "name": "borrower",
          "type": "bytes32"
        },
        {
          "indexed": false,
          "internalType": "uint128",
          "name": "rate",
          "type": "uint128"
        },
        {
          "indexed": false,
          "internalType": "uint128",
          "name": "adjustedAmountToWithdraw",
          "type": "uint128"
        }
      ],
      "name": "TickWithdrawPending",
      "type": "event"
    },
    {
      "anonymous": false,
      "inputs": [
        {
          "indexed": false,
          "internalType": "bytes32",
          "name": "borrower",
          "type": "bytes32"
        },
        {
          "indexed": false,
          "internalType": "uint128",
          "name": "rate",
          "type": "uint128"
        },
        {
          "indexed": false,
          "internalType": "uint128",
          "name": "adjustedAmountToWithdraw",
          "type": "uint128"
        },
        {
          "indexed": false,
          "internalType": "uint128",
          "name": "atlendisLiquidityRatio",
          "type": "uint128"
        },
        {
          "indexed": false,
          "internalType": "uint128",
          "name": "accruedFeesToWithdraw",
          "type": "uint128"
        }
      ],
      "name": "TickWithdrawRemaining",
      "type": "event"
    },
    {
      "anonymous": false,
      "inputs": [
        {
          "indexed": false,
          "internalType": "bytes32",
          "name": "borrower",
          "type": "bytes32"
        },
        {
          "indexed": false,
          "internalType": "uint128",
          "name": "addedLiquidityRewards",
          "type": "uint128"
        }
      ],
      "name": "TopUpLiquidityRewards",
      "type": "event"
    },
    {
      "inputs": [],
      "name": "RAY",
      "outputs": [
        {
          "internalType": "uint256",
          "name": "",
          "type": "uint256"
        }
      ],
      "stateMutability": "view",
      "type": "function"
    },
    {
      "inputs": [],
      "name": "SECONDS_PER_YEAR",
      "outputs": [
        {
          "internalType": "uint256",
          "name": "",
          "type": "uint256"
        }
      ],
      "stateMutability": "view",
      "type": "function"
    },
    {
      "inputs": [],
      "name": "WAD",
      "outputs": [
        {
          "internalType": "uint256",
          "name": "",
          "type": "uint256"
        }
      ],
      "stateMutability": "view",
      "type": "function"
    }
  ],
  "transactionHash": "0x678f21b913af637869b00e6cb61db99e36118b429917b30c97a27c4e57113e60",
  "args": [],
  "numDeployments": 1,
  "solcInputHash": "32ef18cba6c37a11ddc3b18d884f9a5a",
  "bytecode": "0x612af361003a600b82828239805160001a60731461002d57634e487b7160e01b600052600060045260246000fd5b30600052607381538281f3fe73000000000000000000000000000000000000000030146080604052600436106101155760003560e01c80636a146024116100ac57806398bc050e1161007b57806398bc050e1461027b578063ca8701f31461029b578063d393d8c8146102bb578063e6a69ab8146102db578063ec733dc8146102e657600080fd5b80636a146024146102265780636ef48f571461023557806374e6363414610255578063839a9c291461026857600080fd5b8063552033c4116100e8578063552033c4146101bd5780635953c226146101de5780635ccb5f2f146101f15780636839a2611461020457600080fd5b80631aceb8a31461011a57806339a594321461014a5780633d29c2091461018a5780634de6e9151461019d575b600080fd5b61012d6101283660046126a4565b610306565b6040516001600160801b0390911681526020015b60405180910390f35b81801561015657600080fd5b5061016a6101653660046126a4565b6103d5565b604080516001600160801b03938416815292909116602083015201610141565b61016a6101983660046126e0565b6106eb565b8180156101a957600080fd5b5061016a6101b83660046126a4565b61086e565b6101d06b033b2e3c9fd0803ce800000081565b604051908152602001610141565b61012d6101ec3660046126e0565b610a25565b61012d6101ff36600461272d565b610a85565b81801561021057600080fd5b5061022461021f366004612759565b610ac3565b005b6101d0670de0b6b3a764000081565b81801561024157600080fd5b5061012d6102503660046126e0565b610bc1565b61012d61026336600461278c565b611011565b61012d6102763660046127b6565b6110b0565b81801561028757600080fd5b5061016a6102963660046126a4565b6111a1565b8180156102a757600080fd5b506102246102b63660046126e0565b611392565b8180156102c757600080fd5b5061012d6102d636600461272d565b611604565b6101d06301e1338081565b8180156102f257600080fd5b5061012d61030136600461278c565b6116ef565b600a830154600090630100000090046001600160801b0316421161036a57600a8401546103639061035390849061034e904290630100000090046001600160801b03166127fc565b6118f8565b6001600160801b03851690611943565b90506103ce565b600f8401546001600160801b034281169116156103915750600f8401546001600160801b03165b600a8501546103ca906103ba90859061034e90630100000090046001600160801b0316856127fc565b6001600160801b0386169061195b565b9150505b9392505050565b6001600160801b0382166000908152601084016020526040812081906103fb8686611973565b600a860154630100000090046001600160801b0316156104df576005810154610430906001600160801b038681169116611a3f565b60038201805491945084916000906104529084906001600160801b0316612813565b82546101009290920a6001600160801b03818102199093169183160217909155600e88015461048b9250600160801b9004166001612813565b8654604080519182526001600160801b0380891660208401528616908201529092507ffa5f404ac72fd80d5f4403eba8b4e69dc15162096b3a6fe3bb7b5432a1ff6ae99060600160405180910390a1610688565b6004810154610501906001600160801b0386811691600160801b900416611a3f565b9250828160010160108282829054906101000a90046001600160801b03166105299190612813565b92506101000a8154816001600160801b0302191690836001600160801b03160217905550828160020160008282829054906101000a90046001600160801b03166105739190612813565b82546101009290920a6001600160801b03818102199093169183160217909155600e880154600c89018054600160801b90920483169550879350916000916105bd91859116612813565b92506101000a8154816001600160801b0302191690836001600160801b031602179055506106236106138688600a0160040160109054906101000a90046001600160801b031689611a6e9092919063ffffffff16565b6001600160801b03851690611a3f565b86546004830154604080519283526001600160801b03898116602085015284811684830152600160801b9092049091166060830152519194507fb308eae98b23d37898b9d67fb4bf4505d0931d5d8fae9422b77896e6aeeed1b7919081900360800190a15b600c860154600160801b90046001600160801b031615806106c05750600c8601546001600160801b03600160801b9091048116908616105b156106e257600c860180546001600160801b03808816600160801b0291161790555b50935093915050565b6001600160801b0380841660009081526010860160205260408120600e87015491928392600160801b90048116908516111561072e576000859250925050610865565b61074c61073c888887611a6e565b6001600160801b03871690611aba565b6001820154909550600090600160801b90046001600160801b0316156107e957600282015460018301546107e69161079b916001600160801b03600160801b9283900481169290910416612813565b600284015460018501546107d7916107c7916001600160801b0391821691600160801b9091041661283e565b6001600160801b038a1690611943565b6001600160801b03169061195b565b90505b600282015460018301546001600160801b03918216600160801b909104909116111561085657600282015460018301546108539161083b916001600160801b0391821691600160801b9091041661283e565b60018401546107d7906001600160801b031684611943565b93505b610860818761283e565b925050505b94509492505050565b6001600160801b038083166000908152601085016020526040812060018101549192839216156106e25760018101546108b29087906001600160801b031687610306565b92506108c76001600160801b03851684611943565b60038201549092506000906108ec90600160801b90046001600160801b03168561283e565b905061094861093a8360010160109054906101000a90046001600160801b031685848660050160109054906101000a90046001600160801b03166109309190612813565b6107d79190612813565b6001600160801b0316611ae4565b60048301805460109061096c908490600160801b90046001600160801b0316612813565b82546101009290920a6001600160801b038181021990931691831602179091556001840180546001600160801b031916908190556003850180548316905560058501805483169055600160801b908190048216600286018190558a546004870154604080519283528c8616602084015282019290925291900490911660608201527f953574bd5eeec5d4da4e0a829621256ad4c1a350acc2e9cb55e592c5578346d3915060800160405180910390a15050935093915050565b6001600160801b038084166000908152601086016020526040812060028101549192909116610a58576000915050610a7d565b6002810154610a79906001600160801b03908116906107d790861687611943565b9150505b949350505050565b6008820154600b8301546000916103ce916001600160801b0391821691610ab491600160801b9004168561283e565b6001600160801b031690611943565b60018301546001600160a01b03811690600090610af4906001600160801b03851690600160a01b900460ff16611af8565b60028601549091506001600160a01b0390811690610b1e908416826001600160801b038516611b2b565b610b3c6001600160a01b03841686306001600160801b038616611c25565b600186015460405163e8eda9df60e01b81526001600160a01b0391821660048201526001600160801b0384166024820152306044820152600060648201529082169063e8eda9df90608401600060405180830381600087803b158015610ba157600080fd5b505af1158015610bb5573d6000803e3d6000fd5b50505050505050505050565b6001600160801b03831660009081526010850160205260408120610be58686611973565b600e8601546001600160801b03600160801b909104811690841611610e45576000610c11878787611c5d565b9050808260050160108282829054906101000a90046001600160801b0316610c39919061283e565b92506101000a8154816001600160801b0302191690836001600160801b03160217905550848260010160108282829054906101000a90046001600160801b0316610c83919061283e565b92506101000a8154816001600160801b0302191690836001600160801b03160217905550848260020160008282829054906101000a90046001600160801b0316610ccd919061283e565b92506101000a8154816001600160801b0302191690836001600160801b0316021790555080610d258360040160109054906101000a90046001600160801b0316876001600160801b0316611aba90919063ffffffff16565b610d2f9190612813565b9250610d43836001600160801b0316611ca0565b600c88018054600090610d609084906001600160801b031661283e565b82546101009290920a6001600160801b03818102199093169183160217909155600184015416159050610dd857848260020160108282829054906101000a90046001600160801b0316610db39190612813565b92506101000a8154816001600160801b0302191690836001600160801b031602179055505b86546004830154604080519283526001600160801b03898116602085015288811684830152600160801b909204821660608401529083166080830152517f734f310695946c48014ee6c5b2c87bde095cb335f0ee8ba563b857d9f78dda6f9181900360a00190a150610ee9565b600381018054859190600090610e659084906001600160801b031661283e565b82546101009290920a6001600160801b038181021990931691831602179091556005830154610e9992508682169116611aba565b8654604080519182526001600160801b0380891660208401528716908201529092507fd1f4d0b2dd080e7be08a59618fdbde6a5141d3ac954ef2bc994147c26adc05299060600160405180910390a15b600c8601546001600160801b03868116600160801b90920416148015610f2157506001810154600160801b90046001600160801b0316155b15611008576004860154600090610f41906001600160801b031687612813565b90505b60038701546001600160801b03600160801b909104811690821611801590610f9057506001600160801b038082166000908152601089016020526040902060010154600160801b900416155b15610fb4576004870154610fad906001600160801b031682612813565b9050610f44565b60038701546001600160801b03600160801b909104811690821610610fe957600c870180546001600160801b03169055611006565b600c870180546001600160801b03808416600160801b0291161790555b505b50949350505050565b6006810154600a8201546000918291611044916001600160801b03600160801b9091048116916301000000900416612813565b6001600160801b03169050804211156110aa57600f8301546000906001600160801b03166110725742611081565b600f8401546001600160801b03165b60078501549091506001600160801b031661109c83836127fc565b6110a69190612866565b9250505b50919050565b600a820154600090630100000090046001600160801b03166110d45750600061119b565b8161110857600a830154630100000090046001600160801b031642116111085750600b8201546001600160801b031661119b565b600c830154600160801b90046001600160801b03165b60038401546001600160801b03600160801b909104811690821611611199576001600160801b03808216600090815260108601602052604090206001810154909161116c9187911684610306565b6111769084612813565b600486015490935061119291506001600160801b031682612813565b905061111e565b505b92915050565b6001600160801b03808316600090815260108501602052604081206004810154600282015492938493868216926111e49291821691600160801b90910416611aba565b6001600160801b0316106111fa5783915061131b565b6005810154600482015460028301546001600160801b0380881693600160801b908190048216936112319383169291900416611aba565b61123b9190612813565b6001600160801b0316106112cb5760048101546002820154859350611274916001600160801b0391821691600160801b90910416611aba565b61127e908561283e565b6005820180546010906112a2908490600160801b90046001600160801b031661283e565b92506101000a8154816001600160801b0302191690836001600160801b0316021790555061131b565b6005810154600482015460028301546001600160801b03600160801b938490048116936112fd93928216920416611aba565b6113079190612813565b6005820180546001600160801b0316905591505b600a860154600090611371908790630100000090046001600160801b03161561135e57600a89015461034e904290630100000090046001600160801b031661283e565b60058901546001600160801b03166118f8565b90506113866001600160801b0384168261195b565b93505050935093915050565b6001600160801b03808416600090815260108601602052604081206001810180549193869391926113c591859116612813565b92506101000a8154816001600160801b0302191690836001600160801b03160217905550600061141e8260040160109054906101000a90046001600160801b0316846001600160801b0316611a3f90919063ffffffff16565b60028301549091506001600160801b03908116908216111561144a575060028101546001600160801b03165b60028201805482919060009061146a9084906001600160801b031661283e565b92506101000a8154816001600160801b0302191690836001600160801b03160217905550828260030160108282829054906101000a90046001600160801b03166114b49190612813565b82546101009290920a6001600160801b0381810219909316918316021790915560018401546002850154600093506114f79290811691600160801b90041661195b565b87546004850154604080519283526001600160801b038a81166020850152868116848301528881166060850152600160801b9092048216608084015290831660a0830152519192507ffe90533f64e0218e653848ea72d743b24cbd3105adac7b6b54c4fe5223190a7f919081900360c00190a1600b8701805486919060009061158a9084906001600160801b0316612813565b92506101000a8154816001600160801b0302191690836001600160801b031602179055508387600a0160020160008282829054906101000a90046001600160801b03166115d7919061283e565b92506101000a8154816001600160801b0302191690836001600160801b0316021790555050505050505050565b6002820154600183015460405163d15e005360e01b81526001600160a01b039182166004820152600092919091169063d15e00539060240160206040518083038186803b15801561165457600080fd5b505afa158015611668573d6000803e3d6000fd5b505050506040513d601f19601f8201168201806040525081019061168c9190612885565b90506116a16001600160801b03831682611a3f565b600d840180546010906116c5908490600160801b90046001600160801b0316612813565b92506101000a8154816001600160801b0302191690836001600160801b0316021790555092915050565b600c8101546002820154600183015460405163d15e005360e01b81526001600160a01b039182166004820152600093600160801b90046001600160801b0316928492169063d15e00539060240160206040518083038186803b15801561175457600080fd5b505afa158015611768573d6000803e3d6000fd5b505050506040513d601f19601f8201168201806040525081019061178c9190612885565b600d8501549091506117ae90600160801b90046001600160801b031682611aba565b600c8501805491945084916000906117d09084906001600160801b0316612813565b82546101009290920a6001600160801b03818102199093169183160217909155600d860180549091169055505b6001600160801b0380831660009081526010860160205260409020600101541615801590611843575060038401546001600160801b03600160801b909104811690831611155b156118f157600b8401546001600160801b038381166000908152601087016020526040902060010154611881928216916107d7918782169116611943565b6001600160801b03808416600090815260108088016020526040909120600501805490926118b9918591600160801b90910416612813565b82546101009290920a6001600160801b0381810219909316918316021790915560048601546118ea92501683612813565b91506117fd565b5050919050565b60006103ce6301e133806119186001600160801b03808616908716612866565b61192291906128b4565b61193490670de0b6b3a76400006128c8565b670de0b6b3a76400009061195b565b60006103ce6001600160801b03848116908416611cb9565b60006103ce6001600160801b03848116908416611d44565b6002820154600183015460405163d15e005360e01b81526001600160a01b039182166004820152600092919091169063d15e00539060240160206040518083038186803b1580156119c357600080fd5b505afa1580156119d7573d6000803e3d6000fd5b505050506040513d601f19601f820116820180604052508101906119fb9190612885565b9050611a08838383611dd9565b6001600160801b039182166000908152601090930160205260409092206005018054919092166001600160801b0319909116179055565b60006103ce611a69836001600160801b0316611a63866001600160801b0316612024565b90612063565b6120ec565b6001600160801b0380831660009081526010850160209081526040808320858516845291829052909120549091169081611ab2576b033b2e3c9fd0803ce800000091505b509392505050565b60006103ce611a69836001600160801b0316611ade866001600160801b0316612024565b9061213d565b600061119b826001600160801b0316612024565b6000670de0b6b3a7640000611b0e83600a6129c4565b611b21906001600160801b038616612866565b6103ce91906128b4565b604051636eb1769f60e11b81523060048201526001600160a01b038381166024830152600091839186169063dd62ed3e9060440160206040518083038186803b158015611b7757600080fd5b505afa158015611b8b573d6000803e3d6000fd5b505050506040513d601f19601f82011682018060405250810190611baf9190612885565b611bb991906128c8565b6040516001600160a01b038516602482015260448101829052909150611c1f90859063095ea7b360e01b906064015b60408051601f198184030181529190526020810180516001600160e01b03166001600160e01b0319909316929092179091526121bc565b50505050565b6040516001600160a01b0380851660248301528316604482015260648101829052611c1f9085906323b872dd60e01b90608401611be8565b6001600160801b038083166000908152601085016020526040812060028101546005820154929391926103ca92918216916107d791600160801b90041686611943565b60006103e8611caf81846129d0565b61119b91906129f6565b6000821580611cc6575081155b15611cd35750600061119b565b81611ce76002670de0b6b3a76400006128b4565b611cf3906000196127fc565b611cfd91906128b4565b831115611d1c5760405162a748d160e21b815260040160405180910390fd5b670de0b6b3a7640000611d306002826128b4565b611d3a8486612866565b611b2191906128c8565b600081611d64576040516308693c7b60e31b815260040160405180910390fd5b6000611d716002846128b4565b9050670de0b6b3a7640000611d88826000196127fc565b611d9291906128b4565b841115611db15760405162a748d160e21b815260040160405180910390fd5b8281611dc5670de0b6b3a764000087612866565b611dcf91906128c8565b610a7d91906128b4565b6001600160801b0380831660009081526010850160205260409020600481015490914291161015611c1f576000808080611e14888888612298565b92965090945092509050611e316001600160801b03831687611a3f565b600d89018054601090611e55908490600160801b90046001600160801b031661283e565b82546101009290920a6001600160801b038181021990931691831602179091556002870154611e8692501682611aba565b611e909083612813565b600c89018054600090611ead9084906001600160801b0316612813565b92506101000a8154816001600160801b0302191690836001600160801b0316021790555060008560050160109054906101000a90046001600160801b031684611ef6919061283e565b6004870154909150600160801b90046001600160801b0316611f76576005860180546001600160801b0319166001600160801b038981169182179092558a5460408051918252928b166020820152918201527f1ffcce3f36329128f865c47cacfc17ad27e65f7039d7aacd9d6350644c465a919060600160405180910390a15b6005860180546001600160801b03908116600160801b8783168102919091179092556001600160801b03198782168302164282161760048901558a54600d8c01547fda58df82953130c96b08dcda8a76478b2a4e0c16cddf3e59ac1ccf39d7b027639391928c92611fe99204168b611aba565b604080519384526001600160801b039283166020850152908216908301528316606082015260800160405180910390a1505050505050505050565b600080612035633b9aca0084612866565b905082612046633b9aca00836128b4565b1461119b5760405162a748d160e21b815260040160405180910390fd5b600081612083576040516308693c7b60e31b815260040160405180910390fd5b60006120906002846128b4565b90506b033b2e3c9fd0803ce80000006120ab826000196127fc565b6120b591906128b4565b8411156120d45760405162a748d160e21b815260040160405180910390fd5b8281611dc56b033b2e3c9fd0803ce800000087612866565b6000806120fe6002633b9aca006128b4565b9050600061210c84836128c8565b90508181101561212f576040516307af724160e11b815260040160405180910390fd5b6110a6633b9aca00826128b4565b600082158061214a575081155b156121575750600061119b565b8161216f60026b033b2e3c9fd0803ce80000006128b4565b61217b906000196127fc565b61218591906128b4565b8311156121a45760405162a748d160e21b815260040160405180910390fd5b6b033b2e3c9fd0803ce8000000611d306002826128b4565b6000612211826040518060400160405280602081526020017f5361666545524332303a206c6f772d6c6576656c2063616c6c206661696c6564815250856001600160a01b03166124439092919063ffffffff16565b805190915015612293578080602001905181019061222f9190612a25565b6122935760405162461bcd60e51b815260206004820152602a60248201527f5361666545524332303a204552433230206f7065726174696f6e20646964206e6044820152691bdd081cdd58d8d9595960b21b60648201526084015b60405180910390fd5b505050565b6001600160801b0380831660009081526010850160205260408120600481015491928392839283929091600160801b9004166122e25785600080600094509450945094505061243a565b60048101546005820154600e8a01546001600160801b03600160801b9384900481169850928204831696506000929182169116111561232f5750600e8801546001600160801b031661233f565b5060058101546001600160801b03165b612349818861283e565b92506123558989612452565b600d8a015490945060009061237a90600160801b90046001600160801b031689611aba565b9050806001600160801b0316856001600160801b0316111561239a578094505b600a8a0154630100000090046001600160801b0316612405576123bd8488612813565b60028401549097506001600160801b0316156124005760028301546123f3906001600160801b03908116906107d7908816611ae4565b6123fd9088612813565b96505b612436565b6002830154859061241f906001600160801b031686611aba565b6124299190612813565b6124339087612813565b95505b5050505b93509350935093565b6060610a7d848460008561251e565b6001600160801b0380821660009081526010840160205260408120600c85015491929091161561119957600c84015460048201546002830154610a7d926001600160801b03908116926107d7926124b49290811691600160801b900416611aba565b6004880154600b890154610ab4916001600160801b03600160801b918290048116926107d7926124e7929104168361283e565b60048901546124ff906001600160801b03164261283e565b60058d0154610ab49190600160801b90046001600160801b03166129f6565b60608247101561257f5760405162461bcd60e51b815260206004820152602660248201527f416464726573733a20696e73756666696369656e742062616c616e636520666f6044820152651c8818d85b1b60d21b606482015260840161228a565b6001600160a01b0385163b6125d65760405162461bcd60e51b815260206004820152601d60248201527f416464726573733a2063616c6c20746f206e6f6e2d636f6e7472616374000000604482015260640161228a565b600080866001600160a01b031685876040516125f29190612a6e565b60006040518083038185875af1925050503d806000811461262f576040519150601f19603f3d011682016040523d82523d6000602084013e612634565b606091505b509150915061264482828661264f565b979650505050505050565b6060831561265e5750816103ce565b82511561266e5782518084602001fd5b8160405162461bcd60e51b815260040161228a9190612a8a565b80356001600160801b038116811461269f57600080fd5b919050565b6000806000606084860312156126b957600080fd5b833592506126c960208501612688565b91506126d760408501612688565b90509250925092565b600080600080608085870312156126f657600080fd5b8435935061270660208601612688565b925061271460408601612688565b915061272260608601612688565b905092959194509250565b6000806040838503121561274057600080fd5b8235915061275060208401612688565b90509250929050565b60008060006060848603121561276e57600080fd5b8335925060208401356001600160a01b03811681146126c957600080fd5b60006020828403121561279e57600080fd5b5035919050565b80151581146127b357600080fd5b50565b600080604083850312156127c957600080fd5b8235915060208301356127db816127a5565b809150509250929050565b634e487b7160e01b600052601160045260246000fd5b60008282101561280e5761280e6127e6565b500390565b60006001600160801b03808316818516808303821115612835576128356127e6565b01949350505050565b60006001600160801b038381169083168181101561285e5761285e6127e6565b039392505050565b6000816000190483118215151615612880576128806127e6565b500290565b60006020828403121561289757600080fd5b5051919050565b634e487b7160e01b600052601260045260246000fd5b6000826128c3576128c361289e565b500490565b600082198211156128db576128db6127e6565b500190565b600181815b8085111561291b578160001904821115612901576129016127e6565b8085161561290e57918102915b93841c93908002906128e5565b509250929050565b6000826129325750600161119b565b8161293f5750600061119b565b8160018114612955576002811461295f5761297b565b600191505061119b565b60ff841115612970576129706127e6565b50506001821b61119b565b5060208310610133831016604e8410600b841016171561299e575081810a61119b565b6129a883836128e0565b80600019048211156129bc576129bc6127e6565b029392505050565b60006103ce8383612923565b60006001600160801b03808416806129ea576129ea61289e565b92169190910492915050565b60006001600160801b0380831681851681830481118215151615612a1c57612a1c6127e6565b02949350505050565b600060208284031215612a3757600080fd5b81516103ce816127a5565b60005b83811015612a5d578181015183820152602001612a45565b83811115611c1f5750506000910152565b60008251612a80818460208701612a42565b9190910192915050565b6020815260008251806020840152612aa9816040850160208701612a42565b601f01601f1916919091016040019291505056fea26469706673582212200faf2584dd5db41bede07fd7ad11fd10ddb7e1993666063973ac8e91ca35633664736f6c63430008090033",
  "devdoc": {
    "kind": "dev",
    "methods": {
      "addBondsToTick(Types.Pool storage,uint128,uint128,uint128)": {
        "details": "Makes all the state changes necessary to add bonds to a tick Updates tick data and conversion data*"
      },
      "computeAmountRepartitionForTick(Types.Pool storage,uint128,uint128,uint128)": {
        "details": "Computes how the position is split between deposit and bonds*"
      },
      "depositToTick(Types.Pool storage,uint128,uint128)": {
        "details": "Deposit to a target tick Updates tick data*"
      },
      "distributeLiquidityRewards(Types.Pool storage)": {
        "details": "Distributes remaining liquidity rewards reserve to lenders Called in case of pool default*"
      },
      "getBondsIssuanceParametersForTick(Types.Pool storage,uint128,uint128)": {
        "details": "Computes the quantity of bonds purchased, and the equivalent adjusted deposit amount used for the issuance*"
      },
      "getRepayValue(Types.Pool storage,bool)": {
        "details": "The return value includes only notional and accrued interest, it does not include any fees due for repay by the borrrower*"
      },
      "peekAccruedFeesShare(Types.Pool storage,uint128,uint128,uint128)": {
        "details": "Get share of accumulated fees from estimated current tick state*"
      },
      "repayForTick(Types.Pool storage,uint128,uint128)": {
        "details": "Updates tick data after a repayment*"
      },
      "topUpLiquidityRewards(Types.Pool storage,uint128)": {
        "details": "Top up liquidity rewards for later distribution*"
      },
      "withdrawDepositedAmountForTick(Types.Pool storage,uint128,uint128,uint128)": {
        "details": "Updates tick data after a withdrawal consisting of only amount deposited to yield provider*"
      }
    },
    "version": 1
  },
  "userdoc": {
    "kind": "user",
    "methods": {},
    "version": 1
  },
  "storageLayout": {
    "storage": [],
    "types": null
  }
}