{
  "address": "0x091B55a0F85EeDb42a3a0dB8F726effFC1d8Ff80",
  "abi": [
    {
      "inputs": [],
      "name": "POS_MGMT_ONLY_OWNER",
      "type": "error"
    },
    {
      "inputs": [],
      "name": "POS_POOL_DEFAULTED",
      "type": "error"
    },
    {
      "inputs": [],
      "name": "POS_POSITION_DOES_NOT_EXIST",
      "type": "error"
    },
    {
      "inputs": [],
      "name": "POS_POSITION_ONLY_IN_BONDS",
      "type": "error"
    },
    {
      "inputs": [],
      "name": "POS_TIMELOCK",
      "type": "error"
    },
    {
      "inputs": [],
      "name": "POS_ZERO_AMOUNT",
      "type": "error"
    },
    {
      "anonymous": false,
      "inputs": [
        {
          "indexed": true,
          "internalType": "address",
          "name": "owner",
          "type": "address"
        },
        {
          "indexed": true,
          "internalType": "address",
          "name": "approved",
          "type": "address"
        },
        {
          "indexed": true,
          "internalType": "uint256",
          "name": "tokenId",
          "type": "uint256"
        }
      ],
      "name": "Approval",
      "type": "event"
    },
    {
      "anonymous": false,
      "inputs": [
        {
          "indexed": true,
          "internalType": "address",
          "name": "owner",
          "type": "address"
        },
        {
          "indexed": true,
          "internalType": "address",
          "name": "operator",
          "type": "address"
        },
        {
          "indexed": false,
          "internalType": "bool",
          "name": "approved",
          "type": "bool"
        }
      ],
      "name": "ApprovalForAll",
      "type": "event"
    },
    {
      "anonymous": false,
      "inputs": [
        {
          "indexed": true,
          "internalType": "address",
          "name": "lender",
          "type": "address"
        },
        {
          "indexed": false,
          "internalType": "uint128",
          "name": "tokenId",
          "type": "uint128"
        },
        {
          "indexed": false,
          "internalType": "uint128",
          "name": "amount",
          "type": "uint128"
        },
        {
          "indexed": false,
          "internalType": "uint128",
          "name": "rate",
          "type": "uint128"
        },
        {
          "indexed": false,
          "internalType": "bytes32",
          "name": "poolHash",
          "type": "bytes32"
        },
        {
          "indexed": false,
          "internalType": "uint128",
          "name": "bondsIssuanceIndex",
          "type": "uint128"
        }
      ],
      "name": "Deposit",
      "type": "event"
    },
    {
      "anonymous": false,
      "inputs": [
        {
          "indexed": true,
          "internalType": "address",
          "name": "from",
          "type": "address"
        },
        {
          "indexed": true,
          "internalType": "address",
          "name": "to",
          "type": "address"
        },
        {
          "indexed": true,
          "internalType": "uint256",
          "name": "tokenId",
          "type": "uint256"
        }
      ],
      "name": "Transfer",
      "type": "event"
    },
    {
      "anonymous": false,
      "inputs": [
        {
          "indexed": true,
          "internalType": "address",
          "name": "lender",
          "type": "address"
        },
        {
          "indexed": false,
          "internalType": "uint128",
          "name": "tokenId",
          "type": "uint128"
        },
        {
          "indexed": false,
          "internalType": "uint128",
          "name": "amount",
          "type": "uint128"
        },
        {
          "indexed": false,
          "internalType": "uint128",
          "name": "rate",
          "type": "uint128"
        },
        {
          "indexed": false,
          "internalType": "bytes32",
          "name": "poolHash",
          "type": "bytes32"
        }
      ],
      "name": "UpdateRate",
      "type": "event"
    },
    {
      "anonymous": false,
      "inputs": [
        {
          "indexed": true,
          "internalType": "address",
          "name": "lender",
          "type": "address"
        },
        {
          "indexed": false,
          "internalType": "uint128",
          "name": "tokenId",
          "type": "uint128"
        },
        {
          "indexed": false,
          "internalType": "uint128",
          "name": "amount",
          "type": "uint128"
        },
        {
          "indexed": false,
          "internalType": "uint128",
          "name": "remainingBonds",
          "type": "uint128"
        },
        {
          "indexed": false,
          "internalType": "uint128",
          "name": "rate",
          "type": "uint128"
        },
        {
          "indexed": false,
          "internalType": "bytes32",
          "name": "poolHash",
          "type": "bytes32"
        }
      ],
      "name": "Withdraw",
      "type": "event"
    },
    {
      "inputs": [
        {
          "internalType": "uint128",
          "name": "",
          "type": "uint128"
        }
      ],
      "name": "_positions",
      "outputs": [
        {
          "internalType": "uint128",
          "name": "adjustedBalance",
          "type": "uint128"
        },
        {
          "internalType": "uint128",
          "name": "rate",
          "type": "uint128"
        },
        {
          "internalType": "bytes32",
          "name": "poolHash",
          "type": "bytes32"
        },
        {
          "internalType": "address",
          "name": "underlyingToken",
          "type": "address"
        },
        {
          "internalType": "uint128",
          "name": "bondsIssuanceIndex",
          "type": "uint128"
        },
        {
          "internalType": "uint128",
          "name": "remainingBonds",
          "type": "uint128"
        },
        {
          "internalType": "uint128",
          "name": "bondsMaturity",
          "type": "uint128"
        },
        {
          "internalType": "uint128",
          "name": "creationTimestamp",
          "type": "uint128"
        }
      ],
      "stateMutability": "view",
      "type": "function"
    },
    {
      "inputs": [
        {
          "internalType": "address",
          "name": "to",
          "type": "address"
        },
        {
          "internalType": "uint256",
          "name": "tokenId",
          "type": "uint256"
        }
      ],
      "name": "approve",
      "outputs": [],
      "stateMutability": "nonpayable",
      "type": "function"
    },
    {
      "inputs": [
        {
          "internalType": "address",
          "name": "owner",
          "type": "address"
        }
      ],
      "name": "balanceOf",
      "outputs": [
        {
          "internalType": "uint256",
          "name": "",
          "type": "uint256"
        }
      ],
      "stateMutability": "view",
      "type": "function"
    },
    {
      "inputs": [
        {
          "internalType": "address",
          "name": "to",
          "type": "address"
        },
        {
          "internalType": "uint128",
          "name": "amount",
          "type": "uint128"
        },
        {
          "internalType": "uint128",
          "name": "rate",
          "type": "uint128"
        },
        {
          "internalType": "bytes32",
          "name": "poolHash",
          "type": "bytes32"
        },
        {
          "internalType": "address",
          "name": "underlyingToken",
          "type": "address"
        }
      ],
      "name": "deposit",
      "outputs": [
        {
          "internalType": "uint128",
          "name": "tokenId",
          "type": "uint128"
        }
      ],
      "stateMutability": "nonpayable",
      "type": "function"
    },
    {
      "inputs": [
        {
          "internalType": "uint256",
          "name": "tokenId",
          "type": "uint256"
        }
      ],
      "name": "getApproved",
      "outputs": [
        {
          "internalType": "address",
          "name": "",
          "type": "address"
        }
      ],
      "stateMutability": "view",
      "type": "function"
    },
    {
      "inputs": [
        {
          "internalType": "uint128",
          "name": "tokenId",
          "type": "uint128"
        }
      ],
      "name": "getPositionRepartition",
      "outputs": [
        {
          "internalType": "uint128",
          "name": "bondsQuantity",
          "type": "uint128"
        },
        {
          "internalType": "uint128",
          "name": "normalizedDepositedAmount",
          "type": "uint128"
        }
      ],
      "stateMutability": "view",
      "type": "function"
    },
    {
      "inputs": [
        {
          "internalType": "string",
          "name": "_name",
          "type": "string"
        },
        {
          "internalType": "string",
          "name": "_symbol",
          "type": "string"
        },
        {
          "internalType": "contract IBorrowerPools",
          "name": "_pools",
          "type": "address"
        },
        {
          "internalType": "contract IPositionDescriptor",
          "name": "_positionDescriptor",
          "type": "address"
        }
      ],
      "name": "initialize",
      "outputs": [],
      "stateMutability": "nonpayable",
      "type": "function"
    },
    {
      "inputs": [
        {
          "internalType": "address",
          "name": "owner",
          "type": "address"
        },
        {
          "internalType": "address",
          "name": "operator",
          "type": "address"
        }
      ],
      "name": "isApprovedForAll",
      "outputs": [
        {
          "internalType": "bool",
          "name": "",
          "type": "bool"
        }
      ],
      "stateMutability": "view",
      "type": "function"
    },
    {
      "inputs": [],
      "name": "name",
      "outputs": [
        {
          "internalType": "string",
          "name": "",
          "type": "string"
        }
      ],
      "stateMutability": "view",
      "type": "function"
    },
    {
      "inputs": [
        {
          "internalType": "uint256",
          "name": "tokenId",
          "type": "uint256"
        }
      ],
      "name": "ownerOf",
      "outputs": [
        {
          "internalType": "address",
          "name": "",
          "type": "address"
        }
      ],
      "stateMutability": "view",
      "type": "function"
    },
    {
      "inputs": [],
      "name": "pools",
      "outputs": [
        {
          "internalType": "contract IBorrowerPools",
          "name": "",
          "type": "address"
        }
      ],
      "stateMutability": "view",
      "type": "function"
    },
    {
      "inputs": [
        {
          "internalType": "uint128",
          "name": "tokenId",
          "type": "uint128"
        }
      ],
      "name": "position",
      "outputs": [
        {
          "internalType": "bytes32",
          "name": "poolHash",
          "type": "bytes32"
        },
        {
          "internalType": "uint128",
          "name": "adjustedBalance",
          "type": "uint128"
        },
        {
          "internalType": "uint128",
          "name": "rate",
          "type": "uint128"
        },
        {
          "internalType": "address",
          "name": "underlyingToken",
          "type": "address"
        },
        {
          "internalType": "uint128",
          "name": "remainingBonds",
          "type": "uint128"
        },
        {
          "internalType": "uint128",
          "name": "bondsMaturity",
          "type": "uint128"
        },
        {
          "internalType": "uint128",
          "name": "bondsIssuanceIndex",
          "type": "uint128"
        }
      ],
      "stateMutability": "view",
      "type": "function"
    },
    {
      "inputs": [],
      "name": "positionDescriptor",
      "outputs": [
        {
          "internalType": "contract IPositionDescriptor",
          "name": "",
          "type": "address"
        }
      ],
      "stateMutability": "view",
      "type": "function"
    },
    {
      "inputs": [
        {
          "internalType": "address",
          "name": "from",
          "type": "address"
        },
        {
          "internalType": "address",
          "name": "to",
          "type": "address"
        },
        {
          "internalType": "uint256",
          "name": "tokenId",
          "type": "uint256"
        }
      ],
      "name": "safeTransferFrom",
      "outputs": [],
      "stateMutability": "nonpayable",
      "type": "function"
    },
    {
      "inputs": [
        {
          "internalType": "address",
          "name": "from",
          "type": "address"
        },
        {
          "internalType": "address",
          "name": "to",
          "type": "address"
        },
        {
          "internalType": "uint256",
          "name": "tokenId",
          "type": "uint256"
        },
        {
          "internalType": "bytes",
          "name": "_data",
          "type": "bytes"
        }
      ],
      "name": "safeTransferFrom",
      "outputs": [],
      "stateMutability": "nonpayable",
      "type": "function"
    },
    {
      "inputs": [
        {
          "internalType": "address",
          "name": "operator",
          "type": "address"
        },
        {
          "internalType": "bool",
          "name": "approved",
          "type": "bool"
        }
      ],
      "name": "setApprovalForAll",
      "outputs": [],
      "stateMutability": "nonpayable",
      "type": "function"
    },
    {
      "inputs": [
        {
          "internalType": "bytes4",
          "name": "interfaceId",
          "type": "bytes4"
        }
      ],
      "name": "supportsInterface",
      "outputs": [
        {
          "internalType": "bool",
          "name": "",
          "type": "bool"
        }
      ],
      "stateMutability": "view",
      "type": "function"
    },
    {
      "inputs": [],
      "name": "symbol",
      "outputs": [
        {
          "internalType": "string",
          "name": "",
          "type": "string"
        }
      ],
      "stateMutability": "view",
      "type": "function"
    },
    {
      "inputs": [
        {
          "internalType": "uint256",
          "name": "tokenId",
          "type": "uint256"
        }
      ],
      "name": "tokenURI",
      "outputs": [
        {
          "internalType": "string",
          "name": "",
          "type": "string"
        }
      ],
      "stateMutability": "view",
      "type": "function"
    },
    {
      "inputs": [
        {
          "internalType": "address",
          "name": "from",
          "type": "address"
        },
        {
          "internalType": "address",
          "name": "to",
          "type": "address"
        },
        {
          "internalType": "uint256",
          "name": "tokenId",
          "type": "uint256"
        }
      ],
      "name": "transferFrom",
      "outputs": [],
      "stateMutability": "nonpayable",
      "type": "function"
    },
    {
      "inputs": [
        {
          "internalType": "uint128",
          "name": "tokenId",
          "type": "uint128"
        },
        {
          "internalType": "uint128",
          "name": "newRate",
          "type": "uint128"
        }
      ],
      "name": "updateRate",
      "outputs": [],
      "stateMutability": "nonpayable",
      "type": "function"
    },
    {
      "inputs": [
        {
          "internalType": "uint128",
          "name": "tokenId",
          "type": "uint128"
        }
      ],
      "name": "withdraw",
      "outputs": [],
      "stateMutability": "nonpayable",
      "type": "function"
    }
  ],
  "transactionHash": "0x3a7f6854944f1f9a23d2cbb966fbe293d7cee52b7b77c8ee891e7c3f66bf306e",
  "args": [],
  "numDeployments": 1,
  "solcInputHash": "32ef18cba6c37a11ddc3b18d884f9a5a",
  "bytecode": "0x608060405234801561001057600080fd5b50612c1d806100206000396000f3fe608060405234801561001057600080fd5b50600436106101425760003560e01c806370a08231116100b8578063b88d4fde1161007c578063b88d4fde146103b1578063c5c51dca146103c4578063c87b56dd146103d7578063cd100497146103ea578063d89f46ab146104af578063e985e9c5146104e257600080fd5b806370a082311461033757806374b7cc0a146103585780638f15b4141461038357806395d89b4114610396578063a22cb4651461039e57600080fd5b8063106d02311161010a578063106d0231146101d757806323b872dd146101ea57806342842e0e146101fd57806360bc5b23146102105780636206ea32146102235780636352211e1461032457600080fd5b806301ffc9a71461014757806302387a7b1461016f57806306fdde0314610184578063081812fc14610199578063095ea7b3146101c4575b600080fd5b61015a6101553660046121c8565b6104f5565b60405190151581526020015b60405180910390f35b61018261017d3660046121fa565b610547565b005b61018c610a28565b604051610166919061226f565b6101ac6101a7366004612282565b610aba565b6040516001600160a01b039091168152602001610166565b6101826101d23660046122b0565b610b54565b6098546101ac906001600160a01b031681565b6101826101f83660046122dc565b610c6a565b61018261020b3660046122dc565b610c7e565b61018261021e36600461231d565b610c92565b6102d76102313660046121fa565b6001600160801b039081166000908152609a60209081526040918290208251610100810184528154808616808352600160801b918290048716948301859052600184015495830186905260028401546001600160a01b03166060840181905260038501548089166080860181905290849004891660a08601819052600490960154808a1660c0870181905294900490981660e09094019390935294969495939491939091565b604080519788526001600160801b039687166020890152948616948701949094526001600160a01b03909216606086015283166080850152821660a08401521660c082015260e001610166565b6101ac610332366004612282565b610e88565b61034a610345366004612356565b610eff565b604051908152602001610166565b61036b610366366004612373565b610f86565b6040516001600160801b039091168152602001610166565b6101826103913660046124a8565b6113aa565b61018c6114b4565b6101826103ac36600461253f565b6114c3565b6101826103bf36600461256d565b6114d2565b6097546101ac906001600160a01b031681565b61018c6103e5366004612282565b6114ed565b6104586103f83660046121fa565b609a60205260009081526040902080546001820154600283015460038401546004909401546001600160801b0380851695600160801b958690048216956001600160a01b0390941693818316939181900483169282811692919091041688565b604080516001600160801b03998a16815297891660208901528701959095526001600160a01b0390931660608601529085166080850152841660a0840152831660c08301529190911660e082015261010001610166565b6104c26104bd3660046121fa565b6115b3565b604080516001600160801b03938416815292909116602083015201610166565b61015a6104f03660046125ed565b6117cd565b60006001600160e01b031982166380ac58cd60e01b148061052657506001600160e01b03198216635b5e139f60e01b145b8061054157506301ffc9a760e01b6001600160e01b03198316145b92915050565b3361055a6001600160801b038316610e88565b6001600160a01b031614610581576040516398bb581360e01b815260040160405180910390fd5b6001600160801b038082166000908152609a6020526040902060040154600160801b9004164214156105c657604051633b95e01560e21b815260040160405180910390fd5b6097546001600160801b0382166000908152609a602052604080822060010154905163631296d760e11b815291926001600160a01b03169163c6252dae916106149160040190815260200190565b60206040518083038186803b15801561062c57600080fd5b505afa158015610640573d6000803e3d6000fd5b505050506040513d601f19601f82011682018060405250810190610664919061262b565b6001600160801b038381166000908152609a60205260409020600301549181169250600160801b9091041615806106e057506001600160801b038083166000908152609a60205260409020600401541642108015906106e057506001600160801b038083166000908152609a6020526040902060040154168114155b6106fd5760405163c9f240d560e01b815260040160405180910390fd5b6097546001600160801b038381166000908152609a6020526040808220600181015481546003909201549251633cec31f360e21b81526004810191909152600160801b820485166024820152908416604482015292166064830152918291829182916001600160a01b039091169063f3b0c7cc9060840160806040518083038186803b15801561078c57600080fd5b505afa1580156107a0573d6000803e3d6000fd5b505050506040513d601f19601f820116820180604052508101906107c49190612648565b6001600160801b03808b166000908152609a602052604081208054969a5094985092965090945086936107f9918591166126b2565b82546101009290920a6001600160801b038181021990931691831602179091558781166000908152609a602052604081206003810180548416600160801b88861681028281179093556004840180546001600160801b031916898816179055609754600185015494549597506001600160a01b03169563dc3fbbbc95919091048116928b929116173360405160e087901b6001600160e01b031916815260048101959095526001600160801b039384166024860152918316604485015290911660648301526001600160a01b0316608482015260a401602060405180830381600087803b1580156108e957600080fd5b505af11580156108fd573d6000803e3d6000fd5b505050506040513d601f19601f82011682018060405250810190610921919061262b565b6001600160801b038881166000818152609a6020908152604091829020805460019091015483519485528587169285019290925288851684840152600160801b900490931660608301526080820192909252905191925033917f4551962dda62f19a9b991852d8918d0cc22d52bb9906864571aa31dcf6ab13cc9181900360a00190a26001600160801b038088166000908152609a6020526040902060030154600160801b900416610a1f576109df876001600160801b03166117fb565b6001600160801b0387166000908152609a60205260408120818155600181018290556002810180546001600160a01b031916905560038101829055600401555b50505050505050565b606060658054610a37906126da565b80601f0160208091040260200160405190810160405280929190818152602001828054610a63906126da565b8015610ab05780601f10610a8557610100808354040283529160200191610ab0565b820191906000526020600020905b815481529060010190602001808311610a9357829003601f168201915b5050505050905090565b6000818152606760205260408120546001600160a01b0316610b385760405162461bcd60e51b815260206004820152602c60248201527f4552433732313a20617070726f76656420717565727920666f72206e6f6e657860448201526b34b9ba32b73a103a37b5b2b760a11b60648201526084015b60405180910390fd5b506000908152606960205260409020546001600160a01b031690565b6000610b5f82610e88565b9050806001600160a01b0316836001600160a01b03161415610bcd5760405162461bcd60e51b815260206004820152602160248201527f4552433732313a20617070726f76616c20746f2063757272656e74206f776e656044820152603960f91b6064820152608401610b2f565b336001600160a01b0382161480610be95750610be981336117cd565b610c5b5760405162461bcd60e51b815260206004820152603860248201527f4552433732313a20617070726f76652063616c6c6572206973206e6f74206f7760448201527f6e6572206e6f7220617070726f76656420666f7220616c6c00000000000000006064820152608401610b2f565b610c658383611896565b505050565b610c7381611904565b610c658383836119cf565b610c8781611904565b610c65838383611a00565b33610ca56001600160801b038416610e88565b6001600160a01b031614610ccc576040516398bb581360e01b815260040160405180910390fd5b6001600160801b038083166000908152609a6020526040902060040154600160801b900416421415610d1157604051633b95e01560e21b815260040160405180910390fd5b6001600160801b038281166000908152609a6020526040808220805460975460018301546003909301549351637ded35c560e01b815282871660048201526024810193909352600160801b90910485166044830181905286861660648401529290941660848201529092829182916001600160a01b031690637ded35c59060a401606060405180830381600087803b158015610dac57600080fd5b505af1158015610dc0573d6000803e3d6000fd5b505050506040513d601f19601f82011682018060405250810190610de49190612715565b6001600160801b038981166000818152609a60209081526040918290208c8516600160801b81028987161782556003820180548988166001600160801b03199091161790556001909101548351948552948616918401919091528282015260608201929092529051939650919450925033917f5c4c281a4feeeeb1b77e0356a23027125c988b5efc21b7ee375c7501ab96d4c69181900360800190a2505050505050565b6000818152606760205260408120546001600160a01b0316806105415760405162461bcd60e51b815260206004820152602960248201527f4552433732313a206f776e657220717565727920666f72206e6f6e657869737460448201526832b73a103a37b5b2b760b91b6064820152608401610b2f565b60006001600160a01b038216610f6a5760405162461bcd60e51b815260206004820152602a60248201527f4552433732313a2062616c616e636520717565727920666f7220746865207a65604482015269726f206164647265737360b01b6064820152608401610b2f565b506001600160a01b031660009081526068602052604090205490565b60006001600160801b038516610faf576040516301c149dd60e11b815260040160405180910390fd5b609980546001600160801b0316906000610fc883612762565b91906101000a8154816001600160801b0302191690836001600160801b03160217905550905061100186826001600160801b0316611a1b565b6000826001600160a01b031663313ce5676040518163ffffffff1660e01b815260040160206040518083038186803b15801561103c57600080fd5b505afa158015611050573d6000803e3d6000fd5b505050506040513d601f19601f820116820180604052508101906110749190612789565b9050600061108e6001600160801b03881660ff8416611a35565b6097546040805163f3d1d26360e01b81526001600160801b03808b166004830152602482018a90526001600160a01b038981166044840152336064840152908516608483015282519495506000948594919091169263f3d1d2639260a4808201939182900301818787803b15801561110557600080fd5b505af1158015611119573d6000803e3d6000fd5b505050506040513d601f19601f8201168201806040525081019061113d91906127ac565b91509150604051806101000160405280836001600160801b03168152602001896001600160801b03168152602001888152602001876001600160a01b03168152602001826001600160801b0316815260200160006001600160801b0316815260200160006001600160801b03168152602001426001600160801b0316815250609a6000876001600160801b03166001600160801b0316815260200190815260200160002060008201518160000160006101000a8154816001600160801b0302191690836001600160801b0316021790555060208201518160000160106101000a8154816001600160801b0302191690836001600160801b031602179055506040820151816001015560608201518160020160006101000a8154816001600160a01b0302191690836001600160a01b0316021790555060808201518160030160006101000a8154816001600160801b0302191690836001600160801b0316021790555060a08201518160030160106101000a8154816001600160801b0302191690836001600160801b0316021790555060c08201518160040160006101000a8154816001600160801b0302191690836001600160801b0316021790555060e08201518160040160106101000a8154816001600160801b0302191690836001600160801b03160217905550905050896001600160a01b03167fca6b4104f5adde18e393df5899aa82f81b6578973d6573dab8fd306ac6fb011286858b8b866040516113959594939291906001600160801b039586168152938516602085015291841660408401526060830152909116608082015260a00190565b60405180910390a25050505095945050505050565b600054610100900460ff166113c55760005460ff16156113c9565b303b155b61142c5760405162461bcd60e51b815260206004820152602e60248201527f496e697469616c697a61626c653a20636f6e747261637420697320616c72656160448201526d191e481a5b9a5d1a585b1a5e995960921b6064820152608401610b2f565b600054610100900460ff1615801561144e576000805461ffff19166101011790555b6114588585611a6e565b609780546001600160a01b038086166001600160a01b0319928316179092556098805492851692909116919091179055609980546001600160801b031916600117905580156114ad576000805461ff00191690555b5050505050565b606060668054610a37906126da565b6114ce338383611a9f565b5050565b6114db82611904565b6114e784848484611b6e565b50505050565b6000818152606760205260409020546060906001600160a01b031661152557604051631a77a95160e21b815260040160405180910390fd5b6098546040516324945e5b60e21b81523060048201526001600160801b03841660248201526001600160a01b0390911690639251796c9060440160006040518083038186803b15801561157757600080fd5b505afa15801561158b573d6000803e3d6000fd5b505050506040513d6000823e601f3d908101601f1916820160405261054191908101906127db565b6001600160801b03811660009081526067602052604081205481906001600160a01b03166115e657506000928392509050565b6097546001600160801b0384166000908152609a602052604080822060010154905163631296d760e11b815291926001600160a01b03169163c6252dae916116349160040190815260200190565b60206040518083038186803b15801561164c57600080fd5b505afa158015611660573d6000803e3d6000fd5b505050506040513d601f19601f82011682018060405250810190611684919061262b565b6001600160801b038581166000908152609a6020526040902060040154918116925016158015906116d157506001600160801b038085166000908152609a60205260409020600401541681145b15611703575050506001600160801b039081166000908152609a6020526040812060030154600160801b900490911691565b6097546001600160801b038581166000908152609a60205260409081902060018101548154600390920154925163b74e0b1360e01b81526004810191909152600160801b8204841660248201529083166044820152911660648201526001600160a01b039091169063b74e0b1390608401604080518083038186803b15801561178b57600080fd5b505afa15801561179f573d6000803e3d6000fd5b505050506040513d601f19601f820116820180604052508101906117c391906127ac565b9250925050915091565b6001600160a01b039182166000908152606a6020908152604080832093909416825291909152205460ff1690565b600061180682610e88565b9050611813600083611896565b6001600160a01b038116600090815260686020526040812080546001929061183c908490612852565b909155505060008281526067602052604080822080546001600160a01b0319169055518391906001600160a01b038416907fddf252ad1be2c89b69c2b068fc378daa952ba7f163c4a11628f55a4df523b3ef908390a45050565b600081815260696020526040902080546001600160a01b0319166001600160a01b03841690811790915581906118cb82610e88565b6001600160a01b03167f8c5be1e5ebec7d5bd14f71427d1e84f3dd0314c0f7b2291e5b200ac8c7c3b92560405160405180910390a45050565b6097546001600160801b0382166000908152609a6020526040808220600101549051636acaa04560e11b815291926001600160a01b03169163d595408a916119529160040190815260200190565b6101806040518083038186803b15801561196b57600080fd5b505afa15801561197f573d6000803e3d6000fd5b505050506040513d601f19601f820116820180604052508101906119a39190612869565b5050505050505050505091505080156114ce57604051634ebfed1160e01b815260040160405180910390fd5b6119d93382611ba0565b6119f55760405162461bcd60e51b8152600401610b2f90612956565b610c65838383611c77565b610c65838383604051806020016040528060008152506114d2565b6114ce828260405180602001604052806000815250611e13565b6000611a4282600a612a8b565b611a5d670de0b6b3a76400006001600160801b038616612a97565b611a679190612ab6565b9392505050565b600054610100900460ff16611a955760405162461bcd60e51b8152600401610b2f90612ad8565b6114ce8282611e46565b816001600160a01b0316836001600160a01b03161415611b015760405162461bcd60e51b815260206004820152601960248201527f4552433732313a20617070726f766520746f2063616c6c6572000000000000006044820152606401610b2f565b6001600160a01b038381166000818152606a6020908152604080832094871680845294825291829020805460ff191686151590811790915591519182527f17307eab39ab6107e8899845ad3d59bd9653f200f220920489ca2b5937696c31910160405180910390a3505050565b611b783383611ba0565b611b945760405162461bcd60e51b8152600401610b2f90612956565b6114e784848484611e94565b6000818152606760205260408120546001600160a01b0316611c195760405162461bcd60e51b815260206004820152602c60248201527f4552433732313a206f70657261746f7220717565727920666f72206e6f6e657860448201526b34b9ba32b73a103a37b5b2b760a11b6064820152608401610b2f565b6000611c2483610e88565b9050806001600160a01b0316846001600160a01b03161480611c5f5750836001600160a01b0316611c5484610aba565b6001600160a01b0316145b80611c6f5750611c6f81856117cd565b949350505050565b826001600160a01b0316611c8a82610e88565b6001600160a01b031614611cee5760405162461bcd60e51b815260206004820152602560248201527f4552433732313a207472616e736665722066726f6d20696e636f72726563742060448201526437bbb732b960d91b6064820152608401610b2f565b6001600160a01b038216611d505760405162461bcd60e51b8152602060048201526024808201527f4552433732313a207472616e7366657220746f20746865207a65726f206164646044820152637265737360e01b6064820152608401610b2f565b611d5b600082611896565b6001600160a01b0383166000908152606860205260408120805460019290611d84908490612852565b90915550506001600160a01b0382166000908152606860205260408120805460019290611db2908490612b23565b909155505060008181526067602052604080822080546001600160a01b0319166001600160a01b0386811691821790925591518493918716917fddf252ad1be2c89b69c2b068fc378daa952ba7f163c4a11628f55a4df523b3ef91a4505050565b611e1d8383611ec7565b611e2a6000848484612009565b610c655760405162461bcd60e51b8152600401610b2f90612b3b565b600054610100900460ff16611e6d5760405162461bcd60e51b8152600401610b2f90612ad8565b8151611e80906065906020850190612116565b508051610c65906066906020840190612116565b611e9f848484611c77565b611eab84848484612009565b6114e75760405162461bcd60e51b8152600401610b2f90612b3b565b6001600160a01b038216611f1d5760405162461bcd60e51b815260206004820181905260248201527f4552433732313a206d696e7420746f20746865207a65726f20616464726573736044820152606401610b2f565b6000818152606760205260409020546001600160a01b031615611f825760405162461bcd60e51b815260206004820152601c60248201527f4552433732313a20746f6b656e20616c7265616479206d696e746564000000006044820152606401610b2f565b6001600160a01b0382166000908152606860205260408120805460019290611fab908490612b23565b909155505060008181526067602052604080822080546001600160a01b0319166001600160a01b03861690811790915590518392907fddf252ad1be2c89b69c2b068fc378daa952ba7f163c4a11628f55a4df523b3ef908290a45050565b60006001600160a01b0384163b1561210b57604051630a85bd0160e11b81526001600160a01b0385169063150b7a029061204d903390899088908890600401612b8d565b602060405180830381600087803b15801561206757600080fd5b505af1925050508015612097575060408051601f3d908101601f1916820190925261209491810190612bca565b60015b6120f1573d8080156120c5576040519150601f19603f3d011682016040523d82523d6000602084013e6120ca565b606091505b5080516120e95760405162461bcd60e51b8152600401610b2f90612b3b565b805181602001fd5b6001600160e01b031916630a85bd0160e11b149050611c6f565b506001949350505050565b828054612122906126da565b90600052602060002090601f016020900481019282612144576000855561218a565b82601f1061215d57805160ff191683800117855561218a565b8280016001018555821561218a579182015b8281111561218a57825182559160200191906001019061216f565b5061219692915061219a565b5090565b5b80821115612196576000815560010161219b565b6001600160e01b0319811681146121c557600080fd5b50565b6000602082840312156121da57600080fd5b8135611a67816121af565b6001600160801b03811681146121c557600080fd5b60006020828403121561220c57600080fd5b8135611a67816121e5565b60005b8381101561223257818101518382015260200161221a565b838111156114e75750506000910152565b6000815180845261225b816020860160208601612217565b601f01601f19169290920160200192915050565b602081526000611a676020830184612243565b60006020828403121561229457600080fd5b5035919050565b6001600160a01b03811681146121c557600080fd5b600080604083850312156122c357600080fd5b82356122ce8161229b565b946020939093013593505050565b6000806000606084860312156122f157600080fd5b83356122fc8161229b565b9250602084013561230c8161229b565b929592945050506040919091013590565b6000806040838503121561233057600080fd5b823561233b816121e5565b9150602083013561234b816121e5565b809150509250929050565b60006020828403121561236857600080fd5b8135611a678161229b565b600080600080600060a0868803121561238b57600080fd5b85356123968161229b565b945060208601356123a6816121e5565b935060408601356123b6816121e5565b92506060860135915060808601356123cd8161229b565b809150509295509295909350565b634e487b7160e01b600052604160045260246000fd5b604051601f8201601f1916810167ffffffffffffffff8111828210171561241a5761241a6123db565b604052919050565b600067ffffffffffffffff82111561243c5761243c6123db565b50601f01601f191660200190565b600061245d61245884612422565b6123f1565b905082815283838301111561247157600080fd5b828260208301376000602084830101529392505050565b600082601f83011261249957600080fd5b611a678383356020850161244a565b600080600080608085870312156124be57600080fd5b843567ffffffffffffffff808211156124d657600080fd5b6124e288838901612488565b955060208701359150808211156124f857600080fd5b5061250587828801612488565b93505060408501356125168161229b565b915060608501356125268161229b565b939692955090935050565b80151581146121c557600080fd5b6000806040838503121561255257600080fd5b823561255d8161229b565b9150602083013561234b81612531565b6000806000806080858703121561258357600080fd5b843561258e8161229b565b9350602085013561259e8161229b565b925060408501359150606085013567ffffffffffffffff8111156125c157600080fd5b8501601f810187136125d257600080fd5b6125e18782356020840161244a565b91505092959194509250565b6000806040838503121561260057600080fd5b823561260b8161229b565b9150602083013561234b8161229b565b8051612626816121e5565b919050565b60006020828403121561263d57600080fd5b8151611a67816121e5565b6000806000806080858703121561265e57600080fd5b8451612669816121e5565b602086015190945061267a816121e5565b604086015190935061268b816121e5565b6060860151909250612526816121e5565b634e487b7160e01b600052601160045260246000fd5b60006001600160801b03838116908316818110156126d2576126d261269c565b039392505050565b600181811c908216806126ee57607f821691505b6020821081141561270f57634e487b7160e01b600052602260045260246000fd5b50919050565b60008060006060848603121561272a57600080fd5b8351612735816121e5565b6020850151909350612746816121e5565b6040850151909250612757816121e5565b809150509250925092565b60006001600160801b038083168181141561277f5761277f61269c565b6001019392505050565b60006020828403121561279b57600080fd5b815160ff81168114611a6757600080fd5b600080604083850312156127bf57600080fd5b82516127ca816121e5565b602084015190925061234b816121e5565b6000602082840312156127ed57600080fd5b815167ffffffffffffffff81111561280457600080fd5b8201601f8101841361281557600080fd5b805161282361245882612422565b81815285602083850101111561283857600080fd5b612849826020830160208601612217565b95945050505050565b6000828210156128645761286461269c565b500390565b6000806000806000806000806000806000806101808d8f03121561288c57600080fd5b8c5161289781612531565b60208e0151909c506128a881612531565b60408e0151909b506128b981612531565b60608e0151909a506128ca816121e5565b60808e01519099506128db816121e5565b60a08e01519098506128ec816121e5565b96506128fa60c08e0161261b565b955061290860e08e0161261b565b94506129176101008e0161261b565b93506129266101208e0161261b565b92506129356101408e0161261b565b91506129446101608e0161261b565b90509295989b509295989b509295989b565b60208082526031908201527f4552433732313a207472616e736665722063616c6c6572206973206e6f74206f6040820152701ddb995c881b9bdc88185c1c1c9bdd9959607a1b606082015260800190565b600181815b808511156129e25781600019048211156129c8576129c861269c565b808516156129d557918102915b93841c93908002906129ac565b509250929050565b6000826129f957506001610541565b81612a0657506000610541565b8160018114612a1c5760028114612a2657612a42565b6001915050610541565b60ff841115612a3757612a3761269c565b50506001821b610541565b5060208310610133831016604e8410600b8410161715612a65575081810a610541565b612a6f83836129a7565b8060001904821115612a8357612a8361269c565b029392505050565b6000611a6783836129ea565b6000816000190483118215151615612ab157612ab161269c565b500290565b600082612ad357634e487b7160e01b600052601260045260246000fd5b500490565b6020808252602b908201527f496e697469616c697a61626c653a20636f6e7472616374206973206e6f74206960408201526a6e697469616c697a696e6760a81b606082015260800190565b60008219821115612b3657612b3661269c565b500190565b60208082526032908201527f4552433732313a207472616e7366657220746f206e6f6e20455243373231526560408201527131b2b4bb32b91034b6b83632b6b2b73a32b960711b606082015260800190565b6001600160a01b0385811682528416602082015260408101839052608060608201819052600090612bc090830184612243565b9695505050505050565b600060208284031215612bdc57600080fd5b8151611a67816121af56fea26469706673582212206d685d2b5238cb4eb128f1a5b675b1a5f26cfc2168d10f38852a76ef767f3bb864736f6c63430008090033",
  "devdoc": {
    "kind": "dev",
    "methods": {
      "approve(address,uint256)": {
        "details": "See {IERC721-approve}."
      },
      "balanceOf(address)": {
        "details": "See {IERC721-balanceOf}."
      },
      "deposit(address,uint128,uint128,bytes32,address)": {
        "params": {
          "amount": "The amount of tokens to be deposited",
          "poolHash": "The identifier of the pool",
          "rate": "The rate at which to bid for a bonds",
          "to": "The address for which the position is created",
          "underlyingToken": "The contract address of the token to be deposited*"
        }
      },
      "getApproved(uint256)": {
        "details": "See {IERC721-getApproved}."
      },
      "getPositionRepartition(uint128)": {
        "params": {
          "tokenId": "The tokenId of the position"
        },
        "returns": {
          "bondsQuantity": "Quantity of bond held, represents funds borrowed",
          "normalizedDepositedAmount": "Amount of deposit placed on yield provider*"
        }
      },
      "isApprovedForAll(address,address)": {
        "details": "See {IERC721-isApprovedForAll}."
      },
      "name()": {
        "details": "See {IERC721Metadata-name}."
      },
      "ownerOf(uint256)": {
        "details": "See {IERC721-ownerOf}."
      },
      "position(uint128)": {
        "params": {
          "tokenId": "The tokenId of the position"
        },
        "returns": {
          "adjustedBalance": "Adjusted balance of the position original deposit",
          "bondsIssuanceIndex": "Borrow period the deposit was made in*",
          "bondsMaturity": "Maturity of the position's remaining bonds",
          "poolHash": "The identifier of the pool",
          "rate": "Position bidding rate",
          "remainingBonds": "Quantity of bonds remaining in the position after a partial withdraw",
          "underlyingToken": "Address of the tokens the position contains"
        }
      },
      "safeTransferFrom(address,address,uint256)": {
        "details": "See {IERC721-safeTransferFrom}."
      },
      "safeTransferFrom(address,address,uint256,bytes)": {
        "details": "See {IERC721-safeTransferFrom}."
      },
      "setApprovalForAll(address,bool)": {
        "details": "See {IERC721-setApprovalForAll}."
      },
      "supportsInterface(bytes4)": {
        "details": "See {IERC165-supportsInterface}."
      },
      "symbol()": {
        "details": "See {IERC721Metadata-symbol}."
      },
      "tokenURI(uint256)": {
        "params": {
          "tokenId": "The tokenId of the position"
        },
        "returns": {
          "_0": "encoded svg*"
        }
      },
      "transferFrom(address,address,uint256)": {
        "details": "See {IERC721-transferFrom}."
      },
      "updateRate(uint128,uint128)": {
        "params": {
          "newRate": "The new rate at which to bid for bonds*",
          "tokenId": "The tokenId of the position"
        }
      },
      "withdraw(uint128)": {
        "params": {
          "tokenId": "The tokenId of the position*"
        }
      }
    },
    "version": 1
  },
  "userdoc": {
    "events": {
      "Deposit(address,uint128,uint128,uint128,bytes32,uint128)": {
        "notice": "Emitted when #deposit is called and is a success"
      },
      "UpdateRate(address,uint128,uint128,uint128,bytes32)": {
        "notice": "Emitted when #updateRate is called and is a success"
      },
      "Withdraw(address,uint128,uint128,uint128,uint128,bytes32)": {
        "notice": "Emitted when #withdraw is called and is a success"
      }
    },
    "kind": "user",
    "methods": {
      "deposit(address,uint128,uint128,bytes32,address)": {
        "notice": "Deposits tokens into the yield provider and places a bid at the indicated rate within the respective pool's order book. A new position is created within the positions map that keeps track of this position's composition. An ERC721 NFT is minted for the user as a representation of the position."
      },
      "getPositionRepartition(uint128)": {
        "notice": "Returns the balance on yield provider and the quantity of bond held"
      },
      "position(uint128)": {
        "notice": "Emitted when #withdraw is called and is a success"
      },
      "tokenURI(uint256)": {
        "notice": "Returns the encoded svg data"
      },
      "updateRate(uint128,uint128)": {
        "notice": "Allows a user to update the rate at which to bid for bonds. A rate is only upgradable as long as the full amount of deposits are currently allocated with the yield provider i.e the position does not hold any bonds."
      },
      "withdraw(uint128)": {
        "notice": "Withdraws the amount of tokens that are deposited with the yield provider. The bonds portion of the position is not affected."
      }
    },
    "version": 1
  },
  "storageLayout": {
    "storage": [
      {
        "astId": 408,
        "contract": "src/PositionManager.sol:PositionManager",
        "label": "_initialized",
        "offset": 0,
        "slot": "0",
        "type": "t_bool"
      },
      {
        "astId": 411,
        "contract": "src/PositionManager.sol:PositionManager",
        "label": "_initializing",
        "offset": 1,
        "slot": "0",
        "type": "t_bool"
      },
      {
        "astId": 2862,
        "contract": "src/PositionManager.sol:PositionManager",
        "label": "__gap",
        "offset": 0,
        "slot": "1",
        "type": "t_array(t_uint256)50_storage"
      },
      {
        "astId": 3109,
        "contract": "src/PositionManager.sol:PositionManager",
        "label": "__gap",
        "offset": 0,
        "slot": "51",
        "type": "t_array(t_uint256)50_storage"
      },
      {
        "astId": 1555,
        "contract": "src/PositionManager.sol:PositionManager",
        "label": "_name",
        "offset": 0,
        "slot": "101",
        "type": "t_string_storage"
      },
      {
        "astId": 1557,
        "contract": "src/PositionManager.sol:PositionManager",
        "label": "_symbol",
        "offset": 0,
        "slot": "102",
        "type": "t_string_storage"
      },
      {
        "astId": 1561,
        "contract": "src/PositionManager.sol:PositionManager",
        "label": "_owners",
        "offset": 0,
        "slot": "103",
        "type": "t_mapping(t_uint256,t_address)"
      },
      {
        "astId": 1565,
        "contract": "src/PositionManager.sol:PositionManager",
        "label": "_balances",
        "offset": 0,
        "slot": "104",
        "type": "t_mapping(t_address,t_uint256)"
      },
      {
        "astId": 1569,
        "contract": "src/PositionManager.sol:PositionManager",
        "label": "_tokenApprovals",
        "offset": 0,
        "slot": "105",
        "type": "t_mapping(t_uint256,t_address)"
      },
      {
        "astId": 1575,
        "contract": "src/PositionManager.sol:PositionManager",
        "label": "_operatorApprovals",
        "offset": 0,
        "slot": "106",
        "type": "t_mapping(t_address,t_mapping(t_address,t_bool))"
      },
      {
        "astId": 2416,
        "contract": "src/PositionManager.sol:PositionManager",
        "label": "__gap",
        "offset": 0,
        "slot": "107",
        "type": "t_array(t_uint256)44_storage"
      },
      {
        "astId": 6752,
        "contract": "src/PositionManager.sol:PositionManager",
        "label": "pools",
        "offset": 0,
        "slot": "151",
        "type": "t_contract(IBorrowerPools)7881"
      },
      {
        "astId": 6755,
        "contract": "src/PositionManager.sol:PositionManager",
        "label": "positionDescriptor",
        "offset": 0,
        "slot": "152",
        "type": "t_contract(IPositionDescriptor)8206"
      },
      {
        "astId": 6757,
        "contract": "src/PositionManager.sol:PositionManager",
        "label": "_nextId",
        "offset": 0,
        "slot": "153",
        "type": "t_uint128"
      },
      {
        "astId": 6762,
        "contract": "src/PositionManager.sol:PositionManager",
        "label": "_positions",
        "offset": 0,
        "slot": "154",
        "type": "t_mapping(t_uint128,t_struct(PositionDetails)10607_storage)"
      }
    ],
    "types": {
      "t_address": {
        "encoding": "inplace",
        "label": "address",
        "numberOfBytes": "20"
      },
      "t_array(t_uint256)44_storage": {
        "base": "t_uint256",
        "encoding": "inplace",
        "label": "uint256[44]",
        "numberOfBytes": "1408"
      },
      "t_array(t_uint256)50_storage": {
        "base": "t_uint256",
        "encoding": "inplace",
        "label": "uint256[50]",
        "numberOfBytes": "1600"
      },
      "t_bool": {
        "encoding": "inplace",
        "label": "bool",
        "numberOfBytes": "1"
      },
      "t_bytes32": {
        "encoding": "inplace",
        "label": "bytes32",
        "numberOfBytes": "32"
      },
      "t_contract(IBorrowerPools)7881": {
        "encoding": "inplace",
        "label": "contract IBorrowerPools",
        "numberOfBytes": "20"
      },
      "t_contract(IPositionDescriptor)8206": {
        "encoding": "inplace",
        "label": "contract IPositionDescriptor",
        "numberOfBytes": "20"
      },
      "t_mapping(t_address,t_bool)": {
        "encoding": "mapping",
        "key": "t_address",
        "label": "mapping(address => bool)",
        "numberOfBytes": "32",
        "value": "t_bool"
      },
      "t_mapping(t_address,t_mapping(t_address,t_bool))": {
        "encoding": "mapping",
        "key": "t_address",
        "label": "mapping(address => mapping(address => bool))",
        "numberOfBytes": "32",
        "value": "t_mapping(t_address,t_bool)"
      },
      "t_mapping(t_address,t_uint256)": {
        "encoding": "mapping",
        "key": "t_address",
        "label": "mapping(address => uint256)",
        "numberOfBytes": "32",
        "value": "t_uint256"
      },
      "t_mapping(t_uint128,t_struct(PositionDetails)10607_storage)": {
        "encoding": "mapping",
        "key": "t_uint128",
        "label": "mapping(uint128 => struct Types.PositionDetails)",
        "numberOfBytes": "32",
        "value": "t_struct(PositionDetails)10607_storage"
      },
      "t_mapping(t_uint256,t_address)": {
        "encoding": "mapping",
        "key": "t_uint256",
        "label": "mapping(uint256 => address)",
        "numberOfBytes": "32",
        "value": "t_address"
      },
      "t_string_storage": {
        "encoding": "bytes",
        "label": "string",
        "numberOfBytes": "32"
      },
      "t_struct(PositionDetails)10607_storage": {
        "encoding": "inplace",
        "label": "struct Types.PositionDetails",
        "members": [
          {
            "astId": 10592,
            "contract": "src/PositionManager.sol:PositionManager",
            "label": "adjustedBalance",
            "offset": 0,
            "slot": "0",
            "type": "t_uint128"
          },
          {
            "astId": 10594,
            "contract": "src/PositionManager.sol:PositionManager",
            "label": "rate",
            "offset": 16,
            "slot": "0",
            "type": "t_uint128"
          },
          {
            "astId": 10596,
            "contract": "src/PositionManager.sol:PositionManager",
            "label": "poolHash",
            "offset": 0,
            "slot": "1",
            "type": "t_bytes32"
          },
          {
            "astId": 10598,
            "contract": "src/PositionManager.sol:PositionManager",
            "label": "underlyingToken",
            "offset": 0,
            "slot": "2",
            "type": "t_address"
          },
          {
            "astId": 10600,
            "contract": "src/PositionManager.sol:PositionManager",
            "label": "bondsIssuanceIndex",
            "offset": 0,
            "slot": "3",
            "type": "t_uint128"
          },
          {
            "astId": 10602,
            "contract": "src/PositionManager.sol:PositionManager",
            "label": "remainingBonds",
            "offset": 16,
            "slot": "3",
            "type": "t_uint128"
          },
          {
            "astId": 10604,
            "contract": "src/PositionManager.sol:PositionManager",
            "label": "bondsMaturity",
            "offset": 0,
            "slot": "4",
            "type": "t_uint128"
          },
          {
            "astId": 10606,
            "contract": "src/PositionManager.sol:PositionManager",
            "label": "creationTimestamp",
            "offset": 16,
            "slot": "4",
            "type": "t_uint128"
          }
        ],
        "numberOfBytes": "160"
      },
      "t_uint128": {
        "encoding": "inplace",
        "label": "uint128",
        "numberOfBytes": "16"
      },
      "t_uint256": {
        "encoding": "inplace",
        "label": "uint256",
        "numberOfBytes": "32"
      }
    }
  }
}